{
	"ERC721Auction/Erc721Auction.sol": {
		"ERC721Auction": {
			"abi": [
				{
					"inputs": [
						{
							"internalType": "contract Erc721",
							"name": "_erc721",
							"type": "address"
						}
					],
					"stateMutability": "nonpayable",
					"type": "constructor"
				},
				{
					"anonymous": false,
					"inputs": [
						{
							"indexed": false,
							"internalType": "address",
							"name": "highestBidder",
							"type": "address"
						},
						{
							"indexed": false,
							"internalType": "uint256",
							"name": "nftId",
							"type": "uint256"
						},
						{
							"indexed": false,
							"internalType": "uint256",
							"name": "price",
							"type": "uint256"
						}
					],
					"name": "HighestBidder",
					"type": "event"
				},
				{
					"anonymous": false,
					"inputs": [
						{
							"indexed": false,
							"internalType": "uint256",
							"name": "nftId",
							"type": "uint256"
						},
						{
							"indexed": false,
							"internalType": "uint128",
							"name": "price",
							"type": "uint128"
						}
					],
					"name": "OnAuction",
					"type": "event"
				},
				{
					"inputs": [
						{
							"internalType": "uint256",
							"name": "nftId",
							"type": "uint256"
						}
					],
					"name": "bidding",
					"outputs": [],
					"stateMutability": "payable",
					"type": "function"
				},
				{
					"inputs": [
						{
							"internalType": "uint256",
							"name": "nftId",
							"type": "uint256"
						}
					],
					"name": "cancelBid",
					"outputs": [],
					"stateMutability": "nonpayable",
					"type": "function"
				},
				{
					"inputs": [
						{
							"internalType": "uint256",
							"name": "nftId",
							"type": "uint256"
						}
					],
					"name": "nftTransfer",
					"outputs": [],
					"stateMutability": "nonpayable",
					"type": "function"
				},
				{
					"inputs": [
						{
							"internalType": "uint256",
							"name": "nftId",
							"type": "uint256"
						}
					],
					"name": "onAuction",
					"outputs": [
						{
							"components": [
								{
									"internalType": "address",
									"name": "seller",
									"type": "address"
								},
								{
									"internalType": "uint128",
									"name": "price",
									"type": "uint128"
								},
								{
									"internalType": "uint256",
									"name": "nftId",
									"type": "uint256"
								},
								{
									"internalType": "uint256",
									"name": "startTime",
									"type": "uint256"
								},
								{
									"internalType": "uint256",
									"name": "endTime",
									"type": "uint256"
								}
							],
							"internalType": "struct ERC721Auction.Auction",
							"name": "",
							"type": "tuple"
						}
					],
					"stateMutability": "view",
					"type": "function"
				},
				{
					"inputs": [
						{
							"internalType": "address",
							"name": "seller",
							"type": "address"
						},
						{
							"internalType": "uint128",
							"name": "price",
							"type": "uint128"
						},
						{
							"internalType": "uint256",
							"name": "nftId",
							"type": "uint256"
						},
						{
							"internalType": "uint256",
							"name": "startTime",
							"type": "uint256"
						},
						{
							"internalType": "uint256",
							"name": "endTime",
							"type": "uint256"
						}
					],
					"name": "setAuction",
					"outputs": [],
					"stateMutability": "nonpayable",
					"type": "function"
				}
			],
			"devdoc": {
				"kind": "dev",
				"methods": {},
				"version": 1
			},
			"evm": {
				"assembly": "    /* \"ERC721Auction/Erc721Auction.sol\":80:3946  contract ERC721Auction {... */\n  mstore(0x40, 0x80)\n    /* \"ERC721Auction/Erc721Auction.sol\":607:668  constructor(Erc721 _erc721) {... */\n  callvalue\n  dup1\n  iszero\n  tag_1\n  jumpi\n  0x00\n  dup1\n  revert\ntag_1:\n  pop\n  mload(0x40)\n  sub(codesize, bytecodeSize)\n  dup1\n  bytecodeSize\n  dup4\n  codecopy\n  dup2\n  dup2\n  add\n  0x40\n  mstore\n  dup2\n  add\n  swap1\n  tag_2\n  swap2\n  swap1\n  tag_3\n  jump\t// in\ntag_2:\n    /* \"ERC721Auction/Erc721Auction.sol\":654:661  _erc721 */\n  dup1\n    /* \"ERC721Auction/Erc721Auction.sol\":645:651  erc721 */\n  0x00\n  dup1\n    /* \"ERC721Auction/Erc721Auction.sol\":645:661  erc721 = _erc721 */\n  0x0100\n  exp\n  dup2\n  sload\n  dup2\n  0xffffffffffffffffffffffffffffffffffffffff\n  mul\n  not\n  and\n  swap1\n  dup4\n  0xffffffffffffffffffffffffffffffffffffffff\n  and\n  mul\n  or\n  swap1\n  sstore\n  pop\n    /* \"ERC721Auction/Erc721Auction.sol\":607:668  constructor(Erc721 _erc721) {... */\n  pop\n    /* \"ERC721Auction/Erc721Auction.sol\":80:3946  contract ERC721Auction {... */\n  jump(tag_6)\n    /* \"#utility.yul\":88:205   */\ntag_8:\n    /* \"#utility.yul\":197:198   */\n  0x00\n    /* \"#utility.yul\":194:195   */\n  dup1\n    /* \"#utility.yul\":187:199   */\n  revert\n    /* \"#utility.yul\":334:460   */\ntag_10:\n    /* \"#utility.yul\":371:378   */\n  0x00\n    /* \"#utility.yul\":411:453   */\n  0xffffffffffffffffffffffffffffffffffffffff\n    /* \"#utility.yul\":404:409   */\n  dup3\n    /* \"#utility.yul\":400:454   */\n  and\n    /* \"#utility.yul\":389:454   */\n  swap1\n  pop\n    /* \"#utility.yul\":334:460   */\n  swap2\n  swap1\n  pop\n  jump\t// out\n    /* \"#utility.yul\":466:562   */\ntag_11:\n    /* \"#utility.yul\":503:510   */\n  0x00\n    /* \"#utility.yul\":532:556   */\n  tag_21\n    /* \"#utility.yul\":550:555   */\n  dup3\n    /* \"#utility.yul\":532:556   */\n  tag_10\n  jump\t// in\ntag_21:\n    /* \"#utility.yul\":521:556   */\n  swap1\n  pop\n    /* \"#utility.yul\":466:562   */\n  swap2\n  swap1\n  pop\n  jump\t// out\n    /* \"#utility.yul\":568:678   */\ntag_12:\n    /* \"#utility.yul\":619:626   */\n  0x00\n    /* \"#utility.yul\":648:672   */\n  tag_23\n    /* \"#utility.yul\":666:671   */\n  dup3\n    /* \"#utility.yul\":648:672   */\n  tag_11\n  jump\t// in\ntag_23:\n    /* \"#utility.yul\":637:672   */\n  swap1\n  pop\n    /* \"#utility.yul\":568:678   */\n  swap2\n  swap1\n  pop\n  jump\t// out\n    /* \"#utility.yul\":684:834   */\ntag_13:\n    /* \"#utility.yul\":771:809   */\n  tag_25\n    /* \"#utility.yul\":803:808   */\n  dup2\n    /* \"#utility.yul\":771:809   */\n  tag_12\n  jump\t// in\ntag_25:\n    /* \"#utility.yul\":764:769   */\n  dup2\n    /* \"#utility.yul\":761:810   */\n  eq\n    /* \"#utility.yul\":751:828   */\n  tag_26\n  jumpi\n    /* \"#utility.yul\":824:825   */\n  0x00\n    /* \"#utility.yul\":821:822   */\n  dup1\n    /* \"#utility.yul\":814:826   */\n  revert\n    /* \"#utility.yul\":751:828   */\ntag_26:\n    /* \"#utility.yul\":684:834   */\n  pop\n  jump\t// out\n    /* \"#utility.yul\":840:1011   */\ntag_14:\n    /* \"#utility.yul\":911:916   */\n  0x00\n    /* \"#utility.yul\":942:948   */\n  dup2\n    /* \"#utility.yul\":936:949   */\n  mload\n    /* \"#utility.yul\":927:949   */\n  swap1\n  pop\n    /* \"#utility.yul\":958:1005   */\n  tag_28\n    /* \"#utility.yul\":999:1004   */\n  dup2\n    /* \"#utility.yul\":958:1005   */\n  tag_13\n  jump\t// in\ntag_28:\n    /* \"#utility.yul\":840:1011   */\n  swap3\n  swap2\n  pop\n  pop\n  jump\t// out\n    /* \"#utility.yul\":1017:1396   */\ntag_3:\n    /* \"#utility.yul\":1101:1107   */\n  0x00\n    /* \"#utility.yul\":1150:1152   */\n  0x20\n    /* \"#utility.yul\":1138:1147   */\n  dup3\n    /* \"#utility.yul\":1129:1136   */\n  dup5\n    /* \"#utility.yul\":1125:1148   */\n  sub\n    /* \"#utility.yul\":1121:1153   */\n  slt\n    /* \"#utility.yul\":1118:1237   */\n  iszero\n  tag_30\n  jumpi\n    /* \"#utility.yul\":1156:1235   */\n  tag_31\n  tag_8\n  jump\t// in\ntag_31:\n    /* \"#utility.yul\":1118:1237   */\ntag_30:\n    /* \"#utility.yul\":1276:1277   */\n  0x00\n    /* \"#utility.yul\":1301:1379   */\n  tag_32\n    /* \"#utility.yul\":1371:1378   */\n  dup5\n    /* \"#utility.yul\":1362:1368   */\n  dup3\n    /* \"#utility.yul\":1351:1360   */\n  dup6\n    /* \"#utility.yul\":1347:1369   */\n  add\n    /* \"#utility.yul\":1301:1379   */\n  tag_14\n  jump\t// in\ntag_32:\n    /* \"#utility.yul\":1291:1379   */\n  swap2\n  pop\n    /* \"#utility.yul\":1247:1389   */\n  pop\n    /* \"#utility.yul\":1017:1396   */\n  swap3\n  swap2\n  pop\n  pop\n  jump\t// out\n    /* \"ERC721Auction/Erc721Auction.sol\":80:3946  contract ERC721Auction {... */\ntag_6:\n  dataSize(sub_0)\n  dup1\n  dataOffset(sub_0)\n  0x00\n  codecopy\n  0x00\n  return\nstop\n\nsub_0: assembly {\n        /* \"ERC721Auction/Erc721Auction.sol\":80:3946  contract ERC721Auction {... */\n      mstore(0x40, 0x80)\n      jumpi(tag_1, lt(calldatasize, 0x04))\n      shr(0xe0, calldataload(0x00))\n      dup1\n      0x1e355703\n      eq\n      tag_2\n      jumpi\n      dup1\n      0x37eb130c\n      eq\n      tag_3\n      jumpi\n      dup1\n      0x5ec0e964\n      eq\n      tag_4\n      jumpi\n      dup1\n      0x9703ef35\n      eq\n      tag_5\n      jumpi\n      dup1\n      0xcc889b0b\n      eq\n      tag_6\n      jumpi\n    tag_1:\n      0x00\n      dup1\n      revert\n        /* \"ERC721Auction/Erc721Auction.sol\":674:1605  function setAuction(... */\n    tag_2:\n      callvalue\n      dup1\n      iszero\n      tag_7\n      jumpi\n      0x00\n      dup1\n      revert\n    tag_7:\n      pop\n      tag_8\n      0x04\n      dup1\n      calldatasize\n      sub\n      dup2\n      add\n      swap1\n      tag_9\n      swap2\n      swap1\n      tag_10\n      jump\t// in\n    tag_9:\n      tag_11\n      jump\t// in\n    tag_8:\n      stop\n        /* \"ERC721Auction/Erc721Auction.sol\":1611:1728  function onAuction(uint256 nftId) external view returns (Auction memory) {... */\n    tag_3:\n      callvalue\n      dup1\n      iszero\n      tag_12\n      jumpi\n      0x00\n      dup1\n      revert\n    tag_12:\n      pop\n      tag_13\n      0x04\n      dup1\n      calldatasize\n      sub\n      dup2\n      add\n      swap1\n      tag_14\n      swap2\n      swap1\n      tag_15\n      jump\t// in\n    tag_14:\n      tag_16\n      jump\t// in\n    tag_13:\n      mload(0x40)\n      tag_17\n      swap2\n      swap1\n      tag_18\n      jump\t// in\n    tag_17:\n      mload(0x40)\n      dup1\n      swap2\n      sub\n      swap1\n      return\n        /* \"ERC721Auction/Erc721Auction.sol\":2547:3358  function nftTransfer(uint256 nftId) external {... */\n    tag_4:\n      callvalue\n      dup1\n      iszero\n      tag_19\n      jumpi\n      0x00\n      dup1\n      revert\n    tag_19:\n      pop\n      tag_20\n      0x04\n      dup1\n      calldatasize\n      sub\n      dup2\n      add\n      swap1\n      tag_21\n      swap2\n      swap1\n      tag_15\n      jump\t// in\n    tag_21:\n      tag_22\n      jump\t// in\n    tag_20:\n      stop\n        /* \"ERC721Auction/Erc721Auction.sol\":3364:3944  function cancelBid(uint256 nftId) external {... */\n    tag_5:\n      callvalue\n      dup1\n      iszero\n      tag_23\n      jumpi\n      0x00\n      dup1\n      revert\n    tag_23:\n      pop\n      tag_24\n      0x04\n      dup1\n      calldatasize\n      sub\n      dup2\n      add\n      swap1\n      tag_25\n      swap2\n      swap1\n      tag_15\n      jump\t// in\n    tag_25:\n      tag_26\n      jump\t// in\n    tag_24:\n      stop\n        /* \"ERC721Auction/Erc721Auction.sol\":1734:2541  function bidding(uint256 nftId) external payable {... */\n    tag_6:\n      tag_27\n      0x04\n      dup1\n      calldatasize\n      sub\n      dup2\n      add\n      swap1\n      tag_28\n      swap2\n      swap1\n      tag_15\n      jump\t// in\n    tag_28:\n      tag_29\n      jump\t// in\n    tag_27:\n      stop\n        /* \"ERC721Auction/Erc721Auction.sol\":674:1605  function setAuction(... */\n    tag_11:\n        /* \"ERC721Auction/Erc721Auction.sol\":876:882  erc721 */\n      0x00\n      dup1\n      sload\n      swap1\n      0x0100\n      exp\n      swap1\n      div\n      0xffffffffffffffffffffffffffffffffffffffff\n      and\n        /* \"ERC721Auction/Erc721Auction.sol\":876:890  erc721.ownerOf */\n      0xffffffffffffffffffffffffffffffffffffffff\n      and\n      0x6352211e\n        /* \"ERC721Auction/Erc721Auction.sol\":891:896  nftId */\n      dup5\n        /* \"ERC721Auction/Erc721Auction.sol\":876:897  erc721.ownerOf(nftId) */\n      mload(0x40)\n      dup3\n      0xffffffff\n      and\n      0xe0\n      shl\n      dup2\n      mstore\n      0x04\n      add\n      tag_31\n      swap2\n      swap1\n      tag_32\n      jump\t// in\n    tag_31:\n      0x20\n      mload(0x40)\n      dup1\n      dup4\n      sub\n      dup2\n      dup7\n      gas\n      staticcall\n      iszero\n      dup1\n      iszero\n      tag_34\n      jumpi\n      returndatasize\n      0x00\n      dup1\n      returndatacopy\n      revert(0x00, returndatasize)\n    tag_34:\n      pop\n      pop\n      pop\n      pop\n      mload(0x40)\n      returndatasize\n      not(0x1f)\n      0x1f\n      dup3\n      add\n      and\n      dup3\n      add\n      dup1\n      0x40\n      mstore\n      pop\n      dup2\n      add\n      swap1\n      tag_35\n      swap2\n      swap1\n      tag_36\n      jump\t// in\n    tag_35:\n        /* \"ERC721Auction/Erc721Auction.sol\":862:897  msg.sender == erc721.ownerOf(nftId) */\n      0xffffffffffffffffffffffffffffffffffffffff\n      and\n        /* \"ERC721Auction/Erc721Auction.sol\":862:872  msg.sender */\n      caller\n        /* \"ERC721Auction/Erc721Auction.sol\":862:897  msg.sender == erc721.ownerOf(nftId) */\n      0xffffffffffffffffffffffffffffffffffffffff\n      and\n      eq\n        /* \"ERC721Auction/Erc721Auction.sol\":841:954  require(... */\n      tag_37\n      jumpi\n      mload(0x40)\n      0x08c379a000000000000000000000000000000000000000000000000000000000\n      dup2\n      mstore\n      0x04\n      add\n      tag_38\n      swap1\n      tag_39\n      jump\t// in\n    tag_38:\n      mload(0x40)\n      dup1\n      swap2\n      sub\n      swap1\n      revert\n    tag_37:\n        /* \"ERC721Auction/Erc721Auction.sol\":981:982  0 */\n      0x00\n        /* \"ERC721Auction/Erc721Auction.sol\":972:977  price */\n      dup5\n        /* \"ERC721Auction/Erc721Auction.sol\":972:982  price != 0 */\n      0xffffffffffffffffffffffffffffffff\n      and\n      sub\n        /* \"ERC721Auction/Erc721Auction.sol\":964:1012  require(price != 0, \"ERC721Auction: price zero\") */\n      tag_40\n      jumpi\n      mload(0x40)\n      0x08c379a000000000000000000000000000000000000000000000000000000000\n      dup2\n      mstore\n      0x04\n      add\n      tag_41\n      swap1\n      tag_42\n      jump\t// in\n    tag_41:\n      mload(0x40)\n      dup1\n      swap2\n      sub\n      swap1\n      revert\n    tag_40:\n        /* \"ERC721Auction/Erc721Auction.sol\":1055:1070  block.timestamp */\n      timestamp\n        /* \"ERC721Auction/Erc721Auction.sol\":1043:1052  startTime */\n      dup3\n        /* \"ERC721Auction/Erc721Auction.sol\":1043:1070  startTime > block.timestamp */\n      gt\n        /* \"ERC721Auction/Erc721Auction.sol\":1043:1099  startTime > block.timestamp && endTime > block.timestamp */\n      dup1\n      iszero\n      tag_43\n      jumpi\n      pop\n        /* \"ERC721Auction/Erc721Auction.sol\":1084:1099  block.timestamp */\n      timestamp\n        /* \"ERC721Auction/Erc721Auction.sol\":1074:1081  endTime */\n      dup2\n        /* \"ERC721Auction/Erc721Auction.sol\":1074:1099  endTime > block.timestamp */\n      gt\n        /* \"ERC721Auction/Erc721Auction.sol\":1043:1099  startTime > block.timestamp && endTime > block.timestamp */\n    tag_43:\n        /* \"ERC721Auction/Erc721Auction.sol\":1022:1156  require(... */\n      tag_44\n      jumpi\n      mload(0x40)\n      0x08c379a000000000000000000000000000000000000000000000000000000000\n      dup2\n      mstore\n      0x04\n      add\n      tag_45\n      swap1\n      tag_46\n      jump\t// in\n    tag_45:\n      mload(0x40)\n      dup1\n      swap2\n      sub\n      swap1\n      revert\n    tag_44:\n        /* \"ERC721Auction/Erc721Auction.sol\":1184:1193  startTime */\n      dup2\n        /* \"ERC721Auction/Erc721Auction.sol\":1174:1181  endTime */\n      dup2\n        /* \"ERC721Auction/Erc721Auction.sol\":1174:1193  endTime > startTime */\n      gt\n        /* \"ERC721Auction/Erc721Auction.sol\":1166:1229  require(endTime > startTime, \"ERC721Auction: wrong time input\") */\n      tag_47\n      jumpi\n      mload(0x40)\n      0x08c379a000000000000000000000000000000000000000000000000000000000\n      dup2\n      mstore\n      0x04\n      add\n      tag_48\n      swap1\n      tag_46\n      jump\t// in\n    tag_48:\n      mload(0x40)\n      dup1\n      swap2\n      sub\n      swap1\n      revert\n    tag_47:\n        /* \"ERC721Auction/Erc721Auction.sol\":1297:1301  this */\n      address\n        /* \"ERC721Auction/Erc721Auction.sol\":1260:1302  erc721.getApproved(nftId) == address(this) */\n      0xffffffffffffffffffffffffffffffffffffffff\n      and\n        /* \"ERC721Auction/Erc721Auction.sol\":1260:1266  erc721 */\n      0x00\n      dup1\n      sload\n      swap1\n      0x0100\n      exp\n      swap1\n      div\n      0xffffffffffffffffffffffffffffffffffffffff\n      and\n        /* \"ERC721Auction/Erc721Auction.sol\":1260:1278  erc721.getApproved */\n      0xffffffffffffffffffffffffffffffffffffffff\n      and\n      0x081812fc\n        /* \"ERC721Auction/Erc721Auction.sol\":1279:1284  nftId */\n      dup6\n        /* \"ERC721Auction/Erc721Auction.sol\":1260:1285  erc721.getApproved(nftId) */\n      mload(0x40)\n      dup3\n      0xffffffff\n      and\n      0xe0\n      shl\n      dup2\n      mstore\n      0x04\n      add\n      tag_49\n      swap2\n      swap1\n      tag_32\n      jump\t// in\n    tag_49:\n      0x20\n      mload(0x40)\n      dup1\n      dup4\n      sub\n      dup2\n      dup7\n      gas\n      staticcall\n      iszero\n      dup1\n      iszero\n      tag_51\n      jumpi\n      returndatasize\n      0x00\n      dup1\n      returndatacopy\n      revert(0x00, returndatasize)\n    tag_51:\n      pop\n      pop\n      pop\n      pop\n      mload(0x40)\n      returndatasize\n      not(0x1f)\n      0x1f\n      dup3\n      add\n      and\n      dup3\n      add\n      dup1\n      0x40\n      mstore\n      pop\n      dup2\n      add\n      swap1\n      tag_52\n      swap2\n      swap1\n      tag_36\n      jump\t// in\n    tag_52:\n        /* \"ERC721Auction/Erc721Auction.sol\":1260:1302  erc721.getApproved(nftId) == address(this) */\n      0xffffffffffffffffffffffffffffffffffffffff\n      and\n      eq\n        /* \"ERC721Auction/Erc721Auction.sol\":1260:1383  erc721.getApproved(nftId) == address(this) ||... */\n      dup1\n      tag_53\n      jumpi\n      pop\n        /* \"ERC721Auction/Erc721Auction.sol\":1322:1328  erc721 */\n      0x00\n      dup1\n      sload\n      swap1\n      0x0100\n      exp\n      swap1\n      div\n      0xffffffffffffffffffffffffffffffffffffffff\n      and\n        /* \"ERC721Auction/Erc721Auction.sol\":1322:1345  erc721.isApprovedForAll */\n      0xffffffffffffffffffffffffffffffffffffffff\n      and\n      0xe985e9c5\n        /* \"ERC721Auction/Erc721Auction.sol\":1346:1352  erc721 */\n      0x00\n      dup1\n      sload\n      swap1\n      0x0100\n      exp\n      swap1\n      div\n      0xffffffffffffffffffffffffffffffffffffffff\n      and\n        /* \"ERC721Auction/Erc721Auction.sol\":1346:1360  erc721.ownerOf */\n      0xffffffffffffffffffffffffffffffffffffffff\n      and\n      0x6352211e\n        /* \"ERC721Auction/Erc721Auction.sol\":1361:1366  nftId */\n      dup7\n        /* \"ERC721Auction/Erc721Auction.sol\":1346:1367  erc721.ownerOf(nftId) */\n      mload(0x40)\n      dup3\n      0xffffffff\n      and\n      0xe0\n      shl\n      dup2\n      mstore\n      0x04\n      add\n      tag_54\n      swap2\n      swap1\n      tag_32\n      jump\t// in\n    tag_54:\n      0x20\n      mload(0x40)\n      dup1\n      dup4\n      sub\n      dup2\n      dup7\n      gas\n      staticcall\n      iszero\n      dup1\n      iszero\n      tag_56\n      jumpi\n      returndatasize\n      0x00\n      dup1\n      returndatacopy\n      revert(0x00, returndatasize)\n    tag_56:\n      pop\n      pop\n      pop\n      pop\n      mload(0x40)\n      returndatasize\n      not(0x1f)\n      0x1f\n      dup3\n      add\n      and\n      dup3\n      add\n      dup1\n      0x40\n      mstore\n      pop\n      dup2\n      add\n      swap1\n      tag_57\n      swap2\n      swap1\n      tag_36\n      jump\t// in\n    tag_57:\n        /* \"ERC721Auction/Erc721Auction.sol\":1377:1381  this */\n      address\n        /* \"ERC721Auction/Erc721Auction.sol\":1322:1383  erc721.isApprovedForAll(erc721.ownerOf(nftId), address(this)) */\n      mload(0x40)\n      dup4\n      0xffffffff\n      and\n      0xe0\n      shl\n      dup2\n      mstore\n      0x04\n      add\n      tag_58\n      swap3\n      swap2\n      swap1\n      tag_59\n      jump\t// in\n    tag_58:\n      0x20\n      mload(0x40)\n      dup1\n      dup4\n      sub\n      dup2\n      dup7\n      gas\n      staticcall\n      iszero\n      dup1\n      iszero\n      tag_61\n      jumpi\n      returndatasize\n      0x00\n      dup1\n      returndatacopy\n      revert(0x00, returndatasize)\n    tag_61:\n      pop\n      pop\n      pop\n      pop\n      mload(0x40)\n      returndatasize\n      not(0x1f)\n      0x1f\n      dup3\n      add\n      and\n      dup3\n      add\n      dup1\n      0x40\n      mstore\n      pop\n      dup2\n      add\n      swap1\n      tag_62\n      swap2\n      swap1\n      tag_63\n      jump\t// in\n    tag_62:\n        /* \"ERC721Auction/Erc721Auction.sol\":1260:1383  erc721.getApproved(nftId) == address(this) ||... */\n    tag_53:\n        /* \"ERC721Auction/Erc721Auction.sol\":1239:1445  require(... */\n      tag_64\n      jumpi\n      mload(0x40)\n      0x08c379a000000000000000000000000000000000000000000000000000000000\n      dup2\n      mstore\n      0x04\n      add\n      tag_65\n      swap1\n      tag_66\n      jump\t// in\n    tag_65:\n      mload(0x40)\n      dup1\n      swap2\n      sub\n      swap1\n      revert\n    tag_64:\n        /* \"ERC721Auction/Erc721Auction.sol\":1479:1598  Auction(... */\n      mload(0x40)\n      dup1\n      0xa0\n      add\n      0x40\n      mstore\n      dup1\n        /* \"ERC721Auction/Erc721Auction.sol\":1500:1506  seller */\n      dup7\n        /* \"ERC721Auction/Erc721Auction.sol\":1479:1598  Auction(... */\n      0xffffffffffffffffffffffffffffffffffffffff\n      and\n      dup2\n      mstore\n      0x20\n      add\n        /* \"ERC721Auction/Erc721Auction.sol\":1520:1525  price */\n      dup6\n        /* \"ERC721Auction/Erc721Auction.sol\":1479:1598  Auction(... */\n      0xffffffffffffffffffffffffffffffff\n      and\n      dup2\n      mstore\n      0x20\n      add\n        /* \"ERC721Auction/Erc721Auction.sol\":1539:1544  nftId */\n      dup5\n        /* \"ERC721Auction/Erc721Auction.sol\":1479:1598  Auction(... */\n      dup2\n      mstore\n      0x20\n      add\n        /* \"ERC721Auction/Erc721Auction.sol\":1558:1567  startTime */\n      dup4\n        /* \"ERC721Auction/Erc721Auction.sol\":1479:1598  Auction(... */\n      dup2\n      mstore\n      0x20\n      add\n        /* \"ERC721Auction/Erc721Auction.sol\":1581:1588  endTime */\n      dup3\n        /* \"ERC721Auction/Erc721Auction.sol\":1479:1598  Auction(... */\n      dup2\n      mstore\n      pop\n        /* \"ERC721Auction/Erc721Auction.sol\":1456:1469  _nftOnAuction */\n      0x01\n        /* \"ERC721Auction/Erc721Auction.sol\":1456:1476  _nftOnAuction[nftId] */\n      0x00\n        /* \"ERC721Auction/Erc721Auction.sol\":1470:1475  nftId */\n      dup6\n        /* \"ERC721Auction/Erc721Auction.sol\":1456:1476  _nftOnAuction[nftId] */\n      dup2\n      mstore\n      0x20\n      add\n      swap1\n      dup2\n      mstore\n      0x20\n      add\n      0x00\n      keccak256\n        /* \"ERC721Auction/Erc721Auction.sol\":1456:1598  _nftOnAuction[nftId] = Auction(... */\n      0x00\n      dup3\n      add\n      mload\n      dup2\n      0x00\n      add\n      exp(0x0100, 0x00)\n      dup2\n      sload\n      dup2\n      0xffffffffffffffffffffffffffffffffffffffff\n      mul\n      not\n      and\n      swap1\n      dup4\n      0xffffffffffffffffffffffffffffffffffffffff\n      and\n      mul\n      or\n      swap1\n      sstore\n      pop\n      0x20\n      dup3\n      add\n      mload\n      dup2\n      0x01\n      add\n      exp(0x0100, 0x00)\n      dup2\n      sload\n      dup2\n      0xffffffffffffffffffffffffffffffff\n      mul\n      not\n      and\n      swap1\n      dup4\n      0xffffffffffffffffffffffffffffffff\n      and\n      mul\n      or\n      swap1\n      sstore\n      pop\n      0x40\n      dup3\n      add\n      mload\n      dup2\n      0x02\n      add\n      sstore\n      0x60\n      dup3\n      add\n      mload\n      dup2\n      0x03\n      add\n      sstore\n      0x80\n      dup3\n      add\n      mload\n      dup2\n      0x04\n      add\n      sstore\n      swap1\n      pop\n      pop\n        /* \"ERC721Auction/Erc721Auction.sol\":674:1605  function setAuction(... */\n      pop\n      pop\n      pop\n      pop\n      pop\n      jump\t// out\n        /* \"ERC721Auction/Erc721Auction.sol\":1611:1728  function onAuction(uint256 nftId) external view returns (Auction memory) {... */\n    tag_16:\n        /* \"ERC721Auction/Erc721Auction.sol\":1668:1682  Auction memory */\n      tag_67\n      tag_68\n      jump\t// in\n    tag_67:\n        /* \"ERC721Auction/Erc721Auction.sol\":1701:1714  _nftOnAuction */\n      0x01\n        /* \"ERC721Auction/Erc721Auction.sol\":1701:1721  _nftOnAuction[nftId] */\n      0x00\n        /* \"ERC721Auction/Erc721Auction.sol\":1715:1720  nftId */\n      dup4\n        /* \"ERC721Auction/Erc721Auction.sol\":1701:1721  _nftOnAuction[nftId] */\n      dup2\n      mstore\n      0x20\n      add\n      swap1\n      dup2\n      mstore\n      0x20\n      add\n      0x00\n      keccak256\n        /* \"ERC721Auction/Erc721Auction.sol\":1694:1721  return _nftOnAuction[nftId] */\n      mload(0x40)\n      dup1\n      0xa0\n      add\n      0x40\n      mstore\n      swap1\n      dup2\n      0x00\n      dup3\n      add\n      0x00\n      swap1\n      sload\n      swap1\n      0x0100\n      exp\n      swap1\n      div\n      0xffffffffffffffffffffffffffffffffffffffff\n      and\n      0xffffffffffffffffffffffffffffffffffffffff\n      and\n      0xffffffffffffffffffffffffffffffffffffffff\n      and\n      dup2\n      mstore\n      0x20\n      add\n      0x01\n      dup3\n      add\n      0x00\n      swap1\n      sload\n      swap1\n      0x0100\n      exp\n      swap1\n      div\n      0xffffffffffffffffffffffffffffffff\n      and\n      0xffffffffffffffffffffffffffffffff\n      and\n      0xffffffffffffffffffffffffffffffff\n      and\n      dup2\n      mstore\n      0x20\n      add\n      0x02\n      dup3\n      add\n      sload\n      dup2\n      mstore\n      0x20\n      add\n      0x03\n      dup3\n      add\n      sload\n      dup2\n      mstore\n      0x20\n      add\n      0x04\n      dup3\n      add\n      sload\n      dup2\n      mstore\n      pop\n      pop\n      swap1\n      pop\n        /* \"ERC721Auction/Erc721Auction.sol\":1611:1728  function onAuction(uint256 nftId) external view returns (Auction memory) {... */\n      swap2\n      swap1\n      pop\n      jump\t// out\n        /* \"ERC721Auction/Erc721Auction.sol\":2547:3358  function nftTransfer(uint256 nftId) external {... */\n    tag_22:\n        /* \"ERC721Auction/Erc721Auction.sol\":2642:2655  _nftOnAuction */\n      0x01\n        /* \"ERC721Auction/Erc721Auction.sol\":2642:2662  _nftOnAuction[nftId] */\n      0x00\n        /* \"ERC721Auction/Erc721Auction.sol\":2656:2661  nftId */\n      dup3\n        /* \"ERC721Auction/Erc721Auction.sol\":2642:2662  _nftOnAuction[nftId] */\n      dup2\n      mstore\n      0x20\n      add\n      swap1\n      dup2\n      mstore\n      0x20\n      add\n      0x00\n      keccak256\n        /* \"ERC721Auction/Erc721Auction.sol\":2642:2670  _nftOnAuction[nftId].endTime */\n      0x04\n      add\n      sload\n        /* \"ERC721Auction/Erc721Auction.sol\":2623:2638  block.timestamp */\n      timestamp\n        /* \"ERC721Auction/Erc721Auction.sol\":2623:2670  block.timestamp >= _nftOnAuction[nftId].endTime */\n      lt\n      iszero\n        /* \"ERC721Auction/Erc721Auction.sol\":2602:2727  require(... */\n      tag_71\n      jumpi\n      mload(0x40)\n      0x08c379a000000000000000000000000000000000000000000000000000000000\n      dup2\n      mstore\n      0x04\n      add\n      tag_72\n      swap1\n      tag_73\n      jump\t// in\n    tag_72:\n      mload(0x40)\n      dup1\n      swap2\n      sub\n      swap1\n      revert\n    tag_71:\n        /* \"ERC721Auction/Erc721Auction.sol\":2772:2785  _nftOnAuction */\n      0x01\n        /* \"ERC721Auction/Erc721Auction.sol\":2772:2792  _nftOnAuction[nftId] */\n      0x00\n        /* \"ERC721Auction/Erc721Auction.sol\":2786:2791  nftId */\n      dup3\n        /* \"ERC721Auction/Erc721Auction.sol\":2772:2792  _nftOnAuction[nftId] */\n      dup2\n      mstore\n      0x20\n      add\n      swap1\n      dup2\n      mstore\n      0x20\n      add\n      0x00\n      keccak256\n        /* \"ERC721Auction/Erc721Auction.sol\":2772:2799  _nftOnAuction[nftId].seller */\n      0x00\n      add\n      0x00\n      swap1\n      sload\n      swap1\n      0x0100\n      exp\n      swap1\n      div\n      0xffffffffffffffffffffffffffffffffffffffff\n      and\n        /* \"ERC721Auction/Erc721Auction.sol\":2758:2799  msg.sender == _nftOnAuction[nftId].seller */\n      0xffffffffffffffffffffffffffffffffffffffff\n      and\n        /* \"ERC721Auction/Erc721Auction.sol\":2758:2768  msg.sender */\n      caller\n        /* \"ERC721Auction/Erc721Auction.sol\":2758:2799  msg.sender == _nftOnAuction[nftId].seller */\n      0xffffffffffffffffffffffffffffffffffffffff\n      and\n      eq\n        /* \"ERC721Auction/Erc721Auction.sol\":2758:2864  msg.sender == _nftOnAuction[nftId].seller ||... */\n      dup1\n      tag_74\n      jumpi\n      pop\n        /* \"ERC721Auction/Erc721Auction.sol\":2854:2864  msg.sender */\n      caller\n        /* \"ERC721Auction/Erc721Auction.sol\":2819:2864  _bidWinner[nftId].highestBidder == msg.sender */\n      0xffffffffffffffffffffffffffffffffffffffff\n      and\n        /* \"ERC721Auction/Erc721Auction.sol\":2819:2829  _bidWinner */\n      0x02\n        /* \"ERC721Auction/Erc721Auction.sol\":2819:2836  _bidWinner[nftId] */\n      0x00\n        /* \"ERC721Auction/Erc721Auction.sol\":2830:2835  nftId */\n      dup4\n        /* \"ERC721Auction/Erc721Auction.sol\":2819:2836  _bidWinner[nftId] */\n      dup2\n      mstore\n      0x20\n      add\n      swap1\n      dup2\n      mstore\n      0x20\n      add\n      0x00\n      keccak256\n        /* \"ERC721Auction/Erc721Auction.sol\":2819:2850  _bidWinner[nftId].highestBidder */\n      0x01\n      add\n      0x00\n      swap1\n      sload\n      swap1\n      0x0100\n      exp\n      swap1\n      div\n      0xffffffffffffffffffffffffffffffffffffffff\n      and\n        /* \"ERC721Auction/Erc721Auction.sol\":2819:2864  _bidWinner[nftId].highestBidder == msg.sender */\n      0xffffffffffffffffffffffffffffffffffffffff\n      and\n      eq\n        /* \"ERC721Auction/Erc721Auction.sol\":2758:2864  msg.sender == _nftOnAuction[nftId].seller ||... */\n    tag_74:\n        /* \"ERC721Auction/Erc721Auction.sol\":2737:2924  require(... */\n      tag_75\n      jumpi\n      mload(0x40)\n      0x08c379a000000000000000000000000000000000000000000000000000000000\n      dup2\n      mstore\n      0x04\n      add\n      tag_76\n      swap1\n      tag_77\n      jump\t// in\n    tag_76:\n      mload(0x40)\n      dup1\n      swap2\n      sub\n      swap1\n      revert\n    tag_75:\n        /* \"ERC721Auction/Erc721Auction.sol\":2935:2941  erc721 */\n      0x00\n      dup1\n      sload\n      swap1\n      0x0100\n      exp\n      swap1\n      div\n      0xffffffffffffffffffffffffffffffffffffffff\n      and\n        /* \"ERC721Auction/Erc721Auction.sol\":2935:2954  erc721.transferFrom */\n      0xffffffffffffffffffffffffffffffffffffffff\n      and\n      0x23b872dd\n        /* \"ERC721Auction/Erc721Auction.sol\":2968:2974  erc721 */\n      0x00\n      dup1\n      sload\n      swap1\n      0x0100\n      exp\n      swap1\n      div\n      0xffffffffffffffffffffffffffffffffffffffff\n      and\n        /* \"ERC721Auction/Erc721Auction.sol\":2968:2982  erc721.ownerOf */\n      0xffffffffffffffffffffffffffffffffffffffff\n      and\n      0x6352211e\n        /* \"ERC721Auction/Erc721Auction.sol\":2983:2988  nftId */\n      dup5\n        /* \"ERC721Auction/Erc721Auction.sol\":2968:2989  erc721.ownerOf(nftId) */\n      mload(0x40)\n      dup3\n      0xffffffff\n      and\n      0xe0\n      shl\n      dup2\n      mstore\n      0x04\n      add\n      tag_78\n      swap2\n      swap1\n      tag_32\n      jump\t// in\n    tag_78:\n      0x20\n      mload(0x40)\n      dup1\n      dup4\n      sub\n      dup2\n      dup7\n      gas\n      staticcall\n      iszero\n      dup1\n      iszero\n      tag_80\n      jumpi\n      returndatasize\n      0x00\n      dup1\n      returndatacopy\n      revert(0x00, returndatasize)\n    tag_80:\n      pop\n      pop\n      pop\n      pop\n      mload(0x40)\n      returndatasize\n      not(0x1f)\n      0x1f\n      dup3\n      add\n      and\n      dup3\n      add\n      dup1\n      0x40\n      mstore\n      pop\n      dup2\n      add\n      swap1\n      tag_81\n      swap2\n      swap1\n      tag_36\n      jump\t// in\n    tag_81:\n        /* \"ERC721Auction/Erc721Auction.sol\":3003:3013  _bidWinner */\n      0x02\n        /* \"ERC721Auction/Erc721Auction.sol\":3003:3020  _bidWinner[nftId] */\n      0x00\n        /* \"ERC721Auction/Erc721Auction.sol\":3014:3019  nftId */\n      dup6\n        /* \"ERC721Auction/Erc721Auction.sol\":3003:3020  _bidWinner[nftId] */\n      dup2\n      mstore\n      0x20\n      add\n      swap1\n      dup2\n      mstore\n      0x20\n      add\n      0x00\n      keccak256\n        /* \"ERC721Auction/Erc721Auction.sol\":3003:3034  _bidWinner[nftId].highestBidder */\n      0x01\n      add\n      0x00\n      swap1\n      sload\n      swap1\n      0x0100\n      exp\n      swap1\n      div\n      0xffffffffffffffffffffffffffffffffffffffff\n      and\n        /* \"ERC721Auction/Erc721Auction.sol\":3048:3053  nftId */\n      dup5\n        /* \"ERC721Auction/Erc721Auction.sol\":2935:3063  erc721.transferFrom(... */\n      mload(0x40)\n      dup5\n      0xffffffff\n      and\n      0xe0\n      shl\n      dup2\n      mstore\n      0x04\n      add\n      tag_82\n      swap4\n      swap3\n      swap2\n      swap1\n      tag_83\n      jump\t// in\n    tag_82:\n      0x00\n      mload(0x40)\n      dup1\n      dup4\n      sub\n      dup2\n      0x00\n      dup8\n      dup1\n      extcodesize\n      iszero\n      dup1\n      iszero\n      tag_84\n      jumpi\n      0x00\n      dup1\n      revert\n    tag_84:\n      pop\n      gas\n      call\n      iszero\n      dup1\n      iszero\n      tag_86\n      jumpi\n      returndatasize\n      0x00\n      dup1\n      returndatacopy\n      revert(0x00, returndatasize)\n    tag_86:\n      pop\n      pop\n      pop\n      pop\n        /* \"ERC721Auction/Erc721Auction.sol\":3081:3094  _nftOnAuction */\n      0x01\n        /* \"ERC721Auction/Erc721Auction.sol\":3081:3101  _nftOnAuction[nftId] */\n      0x00\n        /* \"ERC721Auction/Erc721Auction.sol\":3095:3100  nftId */\n      dup3\n        /* \"ERC721Auction/Erc721Auction.sol\":3081:3101  _nftOnAuction[nftId] */\n      dup2\n      mstore\n      0x20\n      add\n      swap1\n      dup2\n      mstore\n      0x20\n      add\n      0x00\n      keccak256\n        /* \"ERC721Auction/Erc721Auction.sol\":3081:3108  _nftOnAuction[nftId].seller */\n      0x00\n      add\n      0x00\n      swap1\n      sload\n      swap1\n      0x0100\n      exp\n      swap1\n      div\n      0xffffffffffffffffffffffffffffffffffffffff\n      and\n        /* \"ERC721Auction/Erc721Auction.sol\":3073:3118  payable(_nftOnAuction[nftId].seller).transfer */\n      0xffffffffffffffffffffffffffffffffffffffff\n      and\n        /* \"ERC721Auction/Erc721Auction.sol\":3073:3170  payable(_nftOnAuction[nftId].seller).transfer(... */\n      0x08fc\n        /* \"ERC721Auction/Erc721Auction.sol\":3132:3142  _bidWinner */\n      0x02\n        /* \"ERC721Auction/Erc721Auction.sol\":3132:3149  _bidWinner[nftId] */\n      0x00\n        /* \"ERC721Auction/Erc721Auction.sol\":3143:3148  nftId */\n      dup5\n        /* \"ERC721Auction/Erc721Auction.sol\":3132:3149  _bidWinner[nftId] */\n      dup2\n      mstore\n      0x20\n      add\n      swap1\n      dup2\n      mstore\n      0x20\n      add\n      0x00\n      keccak256\n        /* \"ERC721Auction/Erc721Auction.sol\":3132:3160  _bidWinner[nftId].highestBid */\n      0x00\n      add\n      sload\n        /* \"ERC721Auction/Erc721Auction.sol\":3073:3170  payable(_nftOnAuction[nftId].seller).transfer(... */\n      swap1\n      dup2\n      iszero\n      mul\n      swap1\n      mload(0x40)\n      0x00\n      mload(0x40)\n      dup1\n      dup4\n      sub\n      dup2\n      dup6\n      dup9\n      dup9\n      call\n      swap4\n      pop\n      pop\n      pop\n      pop\n      iszero\n      dup1\n      iszero\n      tag_88\n      jumpi\n      returndatasize\n      0x00\n      dup1\n      returndatacopy\n      revert(0x00, returndatasize)\n    tag_88:\n      pop\n        /* \"ERC721Auction/Erc721Auction.sol\":3185:3314  HighestBidder(... */\n      0xf51b5f483ab2f8fa745c756d108c52ed55a190f6cbae8370297e75c047ffa5f1\n        /* \"ERC721Auction/Erc721Auction.sol\":3212:3222  _bidWinner */\n      0x02\n        /* \"ERC721Auction/Erc721Auction.sol\":3212:3229  _bidWinner[nftId] */\n      0x00\n        /* \"ERC721Auction/Erc721Auction.sol\":3223:3228  nftId */\n      dup4\n        /* \"ERC721Auction/Erc721Auction.sol\":3212:3229  _bidWinner[nftId] */\n      dup2\n      mstore\n      0x20\n      add\n      swap1\n      dup2\n      mstore\n      0x20\n      add\n      0x00\n      keccak256\n        /* \"ERC721Auction/Erc721Auction.sol\":3212:3243  _bidWinner[nftId].highestBidder */\n      0x01\n      add\n      0x00\n      swap1\n      sload\n      swap1\n      0x0100\n      exp\n      swap1\n      div\n      0xffffffffffffffffffffffffffffffffffffffff\n      and\n        /* \"ERC721Auction/Erc721Auction.sol\":3257:3262  nftId */\n      dup3\n        /* \"ERC721Auction/Erc721Auction.sol\":3276:3286  _bidWinner */\n      0x02\n        /* \"ERC721Auction/Erc721Auction.sol\":3276:3293  _bidWinner[nftId] */\n      0x00\n        /* \"ERC721Auction/Erc721Auction.sol\":3287:3292  nftId */\n      dup6\n        /* \"ERC721Auction/Erc721Auction.sol\":3276:3293  _bidWinner[nftId] */\n      dup2\n      mstore\n      0x20\n      add\n      swap1\n      dup2\n      mstore\n      0x20\n      add\n      0x00\n      keccak256\n        /* \"ERC721Auction/Erc721Auction.sol\":3276:3304  _bidWinner[nftId].highestBid */\n      0x00\n      add\n      sload\n        /* \"ERC721Auction/Erc721Auction.sol\":3185:3314  HighestBidder(... */\n      mload(0x40)\n      tag_89\n      swap4\n      swap3\n      swap2\n      swap1\n      tag_90\n      jump\t// in\n    tag_89:\n      mload(0x40)\n      dup1\n      swap2\n      sub\n      swap1\n      log1\n        /* \"ERC721Auction/Erc721Auction.sol\":3331:3344  _nftOnAuction */\n      0x01\n        /* \"ERC721Auction/Erc721Auction.sol\":3331:3351  _nftOnAuction[nftId] */\n      0x00\n        /* \"ERC721Auction/Erc721Auction.sol\":3345:3350  nftId */\n      dup3\n        /* \"ERC721Auction/Erc721Auction.sol\":3331:3351  _nftOnAuction[nftId] */\n      dup2\n      mstore\n      0x20\n      add\n      swap1\n      dup2\n      mstore\n      0x20\n      add\n      0x00\n      keccak256\n      0x00\n        /* \"ERC721Auction/Erc721Auction.sol\":3324:3351  delete _nftOnAuction[nftId] */\n      dup1\n      dup3\n      add\n      exp(0x0100, 0x00)\n      dup2\n      sload\n      swap1\n      0xffffffffffffffffffffffffffffffffffffffff\n      mul\n      not\n      and\n      swap1\n      sstore\n      0x01\n      dup3\n      add\n      exp(0x0100, 0x00)\n      dup2\n      sload\n      swap1\n      0xffffffffffffffffffffffffffffffff\n      mul\n      not\n      and\n      swap1\n      sstore\n      0x02\n      dup3\n      add\n      0x00\n      swap1\n      sstore\n      0x03\n      dup3\n      add\n      0x00\n      swap1\n      sstore\n      0x04\n      dup3\n      add\n      0x00\n      swap1\n      sstore\n      pop\n      pop\n        /* \"ERC721Auction/Erc721Auction.sol\":2547:3358  function nftTransfer(uint256 nftId) external {... */\n      pop\n      jump\t// out\n        /* \"ERC721Auction/Erc721Auction.sol\":3364:3944  function cancelBid(uint256 nftId) external {... */\n    tag_26:\n        /* \"ERC721Auction/Erc721Auction.sol\":3452:3458  erc721 */\n      0x00\n      dup1\n      sload\n      swap1\n      0x0100\n      exp\n      swap1\n      div\n      0xffffffffffffffffffffffffffffffffffffffff\n      and\n        /* \"ERC721Auction/Erc721Auction.sol\":3452:3466  erc721.ownerOf */\n      0xffffffffffffffffffffffffffffffffffffffff\n      and\n      0x6352211e\n        /* \"ERC721Auction/Erc721Auction.sol\":3467:3472  nftId */\n      dup3\n        /* \"ERC721Auction/Erc721Auction.sol\":3452:3473  erc721.ownerOf(nftId) */\n      mload(0x40)\n      dup3\n      0xffffffff\n      and\n      0xe0\n      shl\n      dup2\n      mstore\n      0x04\n      add\n      tag_92\n      swap2\n      swap1\n      tag_32\n      jump\t// in\n    tag_92:\n      0x20\n      mload(0x40)\n      dup1\n      dup4\n      sub\n      dup2\n      dup7\n      gas\n      staticcall\n      iszero\n      dup1\n      iszero\n      tag_94\n      jumpi\n      returndatasize\n      0x00\n      dup1\n      returndatacopy\n      revert(0x00, returndatasize)\n    tag_94:\n      pop\n      pop\n      pop\n      pop\n      mload(0x40)\n      returndatasize\n      not(0x1f)\n      0x1f\n      dup3\n      add\n      and\n      dup3\n      add\n      dup1\n      0x40\n      mstore\n      pop\n      dup2\n      add\n      swap1\n      tag_95\n      swap2\n      swap1\n      tag_36\n      jump\t// in\n    tag_95:\n        /* \"ERC721Auction/Erc721Auction.sol\":3438:3473  msg.sender == erc721.ownerOf(nftId) */\n      0xffffffffffffffffffffffffffffffffffffffff\n      and\n        /* \"ERC721Auction/Erc721Auction.sol\":3438:3448  msg.sender */\n      caller\n        /* \"ERC721Auction/Erc721Auction.sol\":3438:3473  msg.sender == erc721.ownerOf(nftId) */\n      0xffffffffffffffffffffffffffffffffffffffff\n      and\n      eq\n        /* \"ERC721Auction/Erc721Auction.sol\":3417:3530  require(... */\n      tag_96\n      jumpi\n      mload(0x40)\n      0x08c379a000000000000000000000000000000000000000000000000000000000\n      dup2\n      mstore\n      0x04\n      add\n      tag_97\n      swap1\n      tag_39\n      jump\t// in\n    tag_97:\n      mload(0x40)\n      dup1\n      swap2\n      sub\n      swap1\n      revert\n    tag_96:\n        /* \"ERC721Auction/Erc721Auction.sol\":3591:3596  nftId */\n      dup1\n        /* \"ERC721Auction/Erc721Auction.sol\":3561:3574  _nftOnAuction */\n      0x01\n        /* \"ERC721Auction/Erc721Auction.sol\":3561:3581  _nftOnAuction[nftId] */\n      0x00\n        /* \"ERC721Auction/Erc721Auction.sol\":3575:3580  nftId */\n      dup4\n        /* \"ERC721Auction/Erc721Auction.sol\":3561:3581  _nftOnAuction[nftId] */\n      dup2\n      mstore\n      0x20\n      add\n      swap1\n      dup2\n      mstore\n      0x20\n      add\n      0x00\n      keccak256\n        /* \"ERC721Auction/Erc721Auction.sol\":3561:3587  _nftOnAuction[nftId].nftId */\n      0x02\n      add\n      sload\n        /* \"ERC721Auction/Erc721Auction.sol\":3561:3596  _nftOnAuction[nftId].nftId == nftId */\n      eq\n        /* \"ERC721Auction/Erc721Auction.sol\":3540:3655  require(... */\n      tag_98\n      jumpi\n      mload(0x40)\n      0x08c379a000000000000000000000000000000000000000000000000000000000\n      dup2\n      mstore\n      0x04\n      add\n      tag_99\n      swap1\n      tag_100\n      jump\t// in\n    tag_99:\n      mload(0x40)\n      dup1\n      swap2\n      sub\n      swap1\n      revert\n    tag_98:\n        /* \"ERC721Auction/Erc721Auction.sol\":3717:3732  block.timestamp */\n      timestamp\n        /* \"ERC721Auction/Erc721Auction.sol\":3686:3699  _nftOnAuction */\n      0x01\n        /* \"ERC721Auction/Erc721Auction.sol\":3686:3706  _nftOnAuction[nftId] */\n      0x00\n        /* \"ERC721Auction/Erc721Auction.sol\":3700:3705  nftId */\n      dup4\n        /* \"ERC721Auction/Erc721Auction.sol\":3686:3706  _nftOnAuction[nftId] */\n      dup2\n      mstore\n      0x20\n      add\n      swap1\n      dup2\n      mstore\n      0x20\n      add\n      0x00\n      keccak256\n        /* \"ERC721Auction/Erc721Auction.sol\":3686:3714  _nftOnAuction[nftId].endTime */\n      0x04\n      add\n      sload\n        /* \"ERC721Auction/Erc721Auction.sol\":3686:3732  _nftOnAuction[nftId].endTime > block.timestamp */\n      gt\n        /* \"ERC721Auction/Erc721Auction.sol\":3665:3788  require(... */\n      tag_101\n      jumpi\n      mload(0x40)\n      0x08c379a000000000000000000000000000000000000000000000000000000000\n      dup2\n      mstore\n      0x04\n      add\n      tag_102\n      swap1\n      tag_103\n      jump\t// in\n    tag_102:\n      mload(0x40)\n      dup1\n      swap2\n      sub\n      swap1\n      revert\n    tag_101:\n        /* \"ERC721Auction/Erc721Auction.sol\":3807:3817  _bidWinner */\n      0x02\n        /* \"ERC721Auction/Erc721Auction.sol\":3807:3824  _bidWinner[nftId] */\n      0x00\n        /* \"ERC721Auction/Erc721Auction.sol\":3818:3823  nftId */\n      dup3\n        /* \"ERC721Auction/Erc721Auction.sol\":3807:3824  _bidWinner[nftId] */\n      dup2\n      mstore\n      0x20\n      add\n      swap1\n      dup2\n      mstore\n      0x20\n      add\n      0x00\n      keccak256\n        /* \"ERC721Auction/Erc721Auction.sol\":3807:3838  _bidWinner[nftId].highestBidder */\n      0x01\n      add\n      0x00\n      swap1\n      sload\n      swap1\n      0x0100\n      exp\n      swap1\n      div\n      0xffffffffffffffffffffffffffffffffffffffff\n      and\n        /* \"ERC721Auction/Erc721Auction.sol\":3799:3848  payable(_bidWinner[nftId].highestBidder).transfer */\n      0xffffffffffffffffffffffffffffffffffffffff\n      and\n        /* \"ERC721Auction/Erc721Auction.sol\":3799:3900  payable(_bidWinner[nftId].highestBidder).transfer(... */\n      0x08fc\n        /* \"ERC721Auction/Erc721Auction.sol\":3862:3872  _bidWinner */\n      0x02\n        /* \"ERC721Auction/Erc721Auction.sol\":3862:3879  _bidWinner[nftId] */\n      0x00\n        /* \"ERC721Auction/Erc721Auction.sol\":3873:3878  nftId */\n      dup5\n        /* \"ERC721Auction/Erc721Auction.sol\":3862:3879  _bidWinner[nftId] */\n      dup2\n      mstore\n      0x20\n      add\n      swap1\n      dup2\n      mstore\n      0x20\n      add\n      0x00\n      keccak256\n        /* \"ERC721Auction/Erc721Auction.sol\":3862:3890  _bidWinner[nftId].highestBid */\n      0x00\n      add\n      sload\n        /* \"ERC721Auction/Erc721Auction.sol\":3799:3900  payable(_bidWinner[nftId].highestBidder).transfer(... */\n      swap1\n      dup2\n      iszero\n      mul\n      swap1\n      mload(0x40)\n      0x00\n      mload(0x40)\n      dup1\n      dup4\n      sub\n      dup2\n      dup6\n      dup9\n      dup9\n      call\n      swap4\n      pop\n      pop\n      pop\n      pop\n      iszero\n      dup1\n      iszero\n      tag_105\n      jumpi\n      returndatasize\n      0x00\n      dup1\n      returndatacopy\n      revert(0x00, returndatasize)\n    tag_105:\n      pop\n        /* \"ERC721Auction/Erc721Auction.sol\":3917:3930  _nftOnAuction */\n      0x01\n        /* \"ERC721Auction/Erc721Auction.sol\":3917:3937  _nftOnAuction[nftId] */\n      0x00\n        /* \"ERC721Auction/Erc721Auction.sol\":3931:3936  nftId */\n      dup3\n        /* \"ERC721Auction/Erc721Auction.sol\":3917:3937  _nftOnAuction[nftId] */\n      dup2\n      mstore\n      0x20\n      add\n      swap1\n      dup2\n      mstore\n      0x20\n      add\n      0x00\n      keccak256\n      0x00\n        /* \"ERC721Auction/Erc721Auction.sol\":3910:3937  delete _nftOnAuction[nftId] */\n      dup1\n      dup3\n      add\n      exp(0x0100, 0x00)\n      dup2\n      sload\n      swap1\n      0xffffffffffffffffffffffffffffffffffffffff\n      mul\n      not\n      and\n      swap1\n      sstore\n      0x01\n      dup3\n      add\n      exp(0x0100, 0x00)\n      dup2\n      sload\n      swap1\n      0xffffffffffffffffffffffffffffffff\n      mul\n      not\n      and\n      swap1\n      sstore\n      0x02\n      dup3\n      add\n      0x00\n      swap1\n      sstore\n      0x03\n      dup3\n      add\n      0x00\n      swap1\n      sstore\n      0x04\n      dup3\n      add\n      0x00\n      swap1\n      sstore\n      pop\n      pop\n        /* \"ERC721Auction/Erc721Auction.sol\":3364:3944  function cancelBid(uint256 nftId) external {... */\n      pop\n      jump\t// out\n        /* \"ERC721Auction/Erc721Auction.sol\":1734:2541  function bidding(uint256 nftId) external payable {... */\n    tag_29:\n        /* \"ERC721Auction/Erc721Auction.sol\":1848:1863  block.timestamp */\n      timestamp\n        /* \"ERC721Auction/Erc721Auction.sol\":1814:1827  _nftOnAuction */\n      0x01\n        /* \"ERC721Auction/Erc721Auction.sol\":1814:1834  _nftOnAuction[nftId] */\n      0x00\n        /* \"ERC721Auction/Erc721Auction.sol\":1828:1833  nftId */\n      dup4\n        /* \"ERC721Auction/Erc721Auction.sol\":1814:1834  _nftOnAuction[nftId] */\n      dup2\n      mstore\n      0x20\n      add\n      swap1\n      dup2\n      mstore\n      0x20\n      add\n      0x00\n      keccak256\n        /* \"ERC721Auction/Erc721Auction.sol\":1814:1844  _nftOnAuction[nftId].startTime */\n      0x03\n      add\n      sload\n        /* \"ERC721Auction/Erc721Auction.sol\":1814:1863  _nftOnAuction[nftId].startTime <= block.timestamp */\n      gt\n      iszero\n        /* \"ERC721Auction/Erc721Auction.sol\":1793:1923  require(... */\n      tag_107\n      jumpi\n      mload(0x40)\n      0x08c379a000000000000000000000000000000000000000000000000000000000\n      dup2\n      mstore\n      0x04\n      add\n      tag_108\n      swap1\n      tag_109\n      jump\t// in\n    tag_108:\n      mload(0x40)\n      dup1\n      swap2\n      sub\n      swap1\n      revert\n    tag_107:\n        /* \"ERC721Auction/Erc721Auction.sol\":1986:2001  block.timestamp */\n      timestamp\n        /* \"ERC721Auction/Erc721Auction.sol\":1954:1967  _nftOnAuction */\n      0x01\n        /* \"ERC721Auction/Erc721Auction.sol\":1954:1974  _nftOnAuction[nftId] */\n      0x00\n        /* \"ERC721Auction/Erc721Auction.sol\":1968:1973  nftId */\n      dup4\n        /* \"ERC721Auction/Erc721Auction.sol\":1954:1974  _nftOnAuction[nftId] */\n      dup2\n      mstore\n      0x20\n      add\n      swap1\n      dup2\n      mstore\n      0x20\n      add\n      0x00\n      keccak256\n        /* \"ERC721Auction/Erc721Auction.sol\":1954:1982  _nftOnAuction[nftId].endTime */\n      0x04\n      add\n      sload\n        /* \"ERC721Auction/Erc721Auction.sol\":1954:2001  _nftOnAuction[nftId].endTime >= block.timestamp */\n      lt\n      iszero\n        /* \"ERC721Auction/Erc721Auction.sol\":1933:2057  require(... */\n      tag_110\n      jumpi\n      mload(0x40)\n      0x08c379a000000000000000000000000000000000000000000000000000000000\n      dup2\n      mstore\n      0x04\n      add\n      tag_111\n      swap1\n      tag_103\n      jump\t// in\n    tag_111:\n      mload(0x40)\n      dup1\n      swap2\n      sub\n      swap1\n      revert\n    tag_110:\n        /* \"ERC721Auction/Erc721Auction.sol\":2118:2127  msg.value */\n      callvalue\n        /* \"ERC721Auction/Erc721Auction.sol\":2088:2101  _nftOnAuction */\n      0x01\n        /* \"ERC721Auction/Erc721Auction.sol\":2088:2108  _nftOnAuction[nftId] */\n      0x00\n        /* \"ERC721Auction/Erc721Auction.sol\":2102:2107  nftId */\n      dup4\n        /* \"ERC721Auction/Erc721Auction.sol\":2088:2108  _nftOnAuction[nftId] */\n      dup2\n      mstore\n      0x20\n      add\n      swap1\n      dup2\n      mstore\n      0x20\n      add\n      0x00\n      keccak256\n        /* \"ERC721Auction/Erc721Auction.sol\":2088:2114  _nftOnAuction[nftId].price */\n      0x01\n      add\n      0x00\n      swap1\n      sload\n      swap1\n      0x0100\n      exp\n      swap1\n      div\n      0xffffffffffffffffffffffffffffffff\n      and\n        /* \"ERC721Auction/Erc721Auction.sol\":2088:2127  _nftOnAuction[nftId].price <= msg.value */\n      0xffffffffffffffffffffffffffffffff\n      and\n      gt\n      iszero\n        /* \"ERC721Auction/Erc721Auction.sol\":2067:2187  require(... */\n      tag_112\n      jumpi\n      mload(0x40)\n      0x08c379a000000000000000000000000000000000000000000000000000000000\n      dup2\n      mstore\n      0x04\n      add\n      tag_113\n      swap1\n      tag_114\n      jump\t// in\n    tag_113:\n      mload(0x40)\n      dup1\n      swap2\n      sub\n      swap1\n      revert\n    tag_112:\n        /* \"ERC721Auction/Erc721Auction.sol\":2249:2258  msg.value */\n      callvalue\n        /* \"ERC721Auction/Erc721Auction.sol\":2218:2228  _bidWinner */\n      0x02\n        /* \"ERC721Auction/Erc721Auction.sol\":2218:2235  _bidWinner[nftId] */\n      0x00\n        /* \"ERC721Auction/Erc721Auction.sol\":2229:2234  nftId */\n      dup4\n        /* \"ERC721Auction/Erc721Auction.sol\":2218:2235  _bidWinner[nftId] */\n      dup2\n      mstore\n      0x20\n      add\n      swap1\n      dup2\n      mstore\n      0x20\n      add\n      0x00\n      keccak256\n        /* \"ERC721Auction/Erc721Auction.sol\":2218:2246  _bidWinner[nftId].highestBid */\n      0x00\n      add\n      sload\n        /* \"ERC721Auction/Erc721Auction.sol\":2218:2258  _bidWinner[nftId].highestBid < msg.value */\n      lt\n        /* \"ERC721Auction/Erc721Auction.sol\":2197:2317  require(... */\n      tag_115\n      jumpi\n      mload(0x40)\n      0x08c379a000000000000000000000000000000000000000000000000000000000\n      dup2\n      mstore\n      0x04\n      add\n      tag_116\n      swap1\n      tag_117\n      jump\t// in\n    tag_116:\n      mload(0x40)\n      dup1\n      swap2\n      sub\n      swap1\n      revert\n    tag_115:\n        /* \"ERC721Auction/Erc721Auction.sol\":2336:2346  _bidWinner */\n      0x02\n        /* \"ERC721Auction/Erc721Auction.sol\":2336:2353  _bidWinner[nftId] */\n      0x00\n        /* \"ERC721Auction/Erc721Auction.sol\":2347:2352  nftId */\n      dup3\n        /* \"ERC721Auction/Erc721Auction.sol\":2336:2353  _bidWinner[nftId] */\n      dup2\n      mstore\n      0x20\n      add\n      swap1\n      dup2\n      mstore\n      0x20\n      add\n      0x00\n      keccak256\n        /* \"ERC721Auction/Erc721Auction.sol\":2336:2367  _bidWinner[nftId].highestBidder */\n      0x01\n      add\n      0x00\n      swap1\n      sload\n      swap1\n      0x0100\n      exp\n      swap1\n      div\n      0xffffffffffffffffffffffffffffffffffffffff\n      and\n        /* \"ERC721Auction/Erc721Auction.sol\":2328:2377  payable(_bidWinner[nftId].highestBidder).transfer */\n      0xffffffffffffffffffffffffffffffffffffffff\n      and\n        /* \"ERC721Auction/Erc721Auction.sol\":2328:2429  payable(_bidWinner[nftId].highestBidder).transfer(... */\n      0x08fc\n        /* \"ERC721Auction/Erc721Auction.sol\":2391:2401  _bidWinner */\n      0x02\n        /* \"ERC721Auction/Erc721Auction.sol\":2391:2408  _bidWinner[nftId] */\n      0x00\n        /* \"ERC721Auction/Erc721Auction.sol\":2402:2407  nftId */\n      dup5\n        /* \"ERC721Auction/Erc721Auction.sol\":2391:2408  _bidWinner[nftId] */\n      dup2\n      mstore\n      0x20\n      add\n      swap1\n      dup2\n      mstore\n      0x20\n      add\n      0x00\n      keccak256\n        /* \"ERC721Auction/Erc721Auction.sol\":2391:2419  _bidWinner[nftId].highestBid */\n      0x00\n      add\n      sload\n        /* \"ERC721Auction/Erc721Auction.sol\":2328:2429  payable(_bidWinner[nftId].highestBidder).transfer(... */\n      swap1\n      dup2\n      iszero\n      mul\n      swap1\n      mload(0x40)\n      0x00\n      mload(0x40)\n      dup1\n      dup4\n      sub\n      dup2\n      dup6\n      dup9\n      dup9\n      call\n      swap4\n      pop\n      pop\n      pop\n      pop\n      iszero\n      dup1\n      iszero\n      tag_119\n      jumpi\n      returndatasize\n      0x00\n      dup1\n      returndatacopy\n      revert(0x00, returndatasize)\n    tag_119:\n      pop\n        /* \"ERC721Auction/Erc721Auction.sol\":2471:2480  msg.value */\n      callvalue\n        /* \"ERC721Auction/Erc721Auction.sol\":2440:2450  _bidWinner */\n      0x02\n        /* \"ERC721Auction/Erc721Auction.sol\":2440:2457  _bidWinner[nftId] */\n      0x00\n        /* \"ERC721Auction/Erc721Auction.sol\":2451:2456  nftId */\n      dup4\n        /* \"ERC721Auction/Erc721Auction.sol\":2440:2457  _bidWinner[nftId] */\n      dup2\n      mstore\n      0x20\n      add\n      swap1\n      dup2\n      mstore\n      0x20\n      add\n      0x00\n      keccak256\n        /* \"ERC721Auction/Erc721Auction.sol\":2440:2468  _bidWinner[nftId].highestBid */\n      0x00\n      add\n        /* \"ERC721Auction/Erc721Auction.sol\":2440:2480  _bidWinner[nftId].highestBid = msg.value */\n      dup2\n      swap1\n      sstore\n      pop\n        /* \"ERC721Auction/Erc721Auction.sol\":2524:2534  msg.sender */\n      caller\n        /* \"ERC721Auction/Erc721Auction.sol\":2490:2500  _bidWinner */\n      0x02\n        /* \"ERC721Auction/Erc721Auction.sol\":2490:2507  _bidWinner[nftId] */\n      0x00\n        /* \"ERC721Auction/Erc721Auction.sol\":2501:2506  nftId */\n      dup4\n        /* \"ERC721Auction/Erc721Auction.sol\":2490:2507  _bidWinner[nftId] */\n      dup2\n      mstore\n      0x20\n      add\n      swap1\n      dup2\n      mstore\n      0x20\n      add\n      0x00\n      keccak256\n        /* \"ERC721Auction/Erc721Auction.sol\":2490:2521  _bidWinner[nftId].highestBidder */\n      0x01\n      add\n      0x00\n        /* \"ERC721Auction/Erc721Auction.sol\":2490:2534  _bidWinner[nftId].highestBidder = msg.sender */\n      0x0100\n      exp\n      dup2\n      sload\n      dup2\n      0xffffffffffffffffffffffffffffffffffffffff\n      mul\n      not\n      and\n      swap1\n      dup4\n      0xffffffffffffffffffffffffffffffffffffffff\n      and\n      mul\n      or\n      swap1\n      sstore\n      pop\n        /* \"ERC721Auction/Erc721Auction.sol\":1734:2541  function bidding(uint256 nftId) external payable {... */\n      pop\n      jump\t// out\n    tag_68:\n      mload(0x40)\n      dup1\n      0xa0\n      add\n      0x40\n      mstore\n      dup1\n      and(0xffffffffffffffffffffffffffffffffffffffff, 0x00)\n      dup2\n      mstore\n      0x20\n      add\n      and(0xffffffffffffffffffffffffffffffff, 0x00)\n      dup2\n      mstore\n      0x20\n      add\n      0x00\n      dup2\n      mstore\n      0x20\n      add\n      0x00\n      dup2\n      mstore\n      0x20\n      add\n      0x00\n      dup2\n      mstore\n      pop\n      swap1\n      jump\t// out\n        /* \"#utility.yul\":88:205   */\n    tag_121:\n        /* \"#utility.yul\":197:198   */\n      0x00\n        /* \"#utility.yul\":194:195   */\n      dup1\n        /* \"#utility.yul\":187:199   */\n      revert\n        /* \"#utility.yul\":334:460   */\n    tag_123:\n        /* \"#utility.yul\":371:378   */\n      0x00\n        /* \"#utility.yul\":411:453   */\n      0xffffffffffffffffffffffffffffffffffffffff\n        /* \"#utility.yul\":404:409   */\n      dup3\n        /* \"#utility.yul\":400:454   */\n      and\n        /* \"#utility.yul\":389:454   */\n      swap1\n      pop\n        /* \"#utility.yul\":334:460   */\n      swap2\n      swap1\n      pop\n      jump\t// out\n        /* \"#utility.yul\":466:562   */\n    tag_124:\n        /* \"#utility.yul\":503:510   */\n      0x00\n        /* \"#utility.yul\":532:556   */\n      tag_172\n        /* \"#utility.yul\":550:555   */\n      dup3\n        /* \"#utility.yul\":532:556   */\n      tag_123\n      jump\t// in\n    tag_172:\n        /* \"#utility.yul\":521:556   */\n      swap1\n      pop\n        /* \"#utility.yul\":466:562   */\n      swap2\n      swap1\n      pop\n      jump\t// out\n        /* \"#utility.yul\":568:690   */\n    tag_125:\n        /* \"#utility.yul\":641:665   */\n      tag_174\n        /* \"#utility.yul\":659:664   */\n      dup2\n        /* \"#utility.yul\":641:665   */\n      tag_124\n      jump\t// in\n    tag_174:\n        /* \"#utility.yul\":634:639   */\n      dup2\n        /* \"#utility.yul\":631:666   */\n      eq\n        /* \"#utility.yul\":621:684   */\n      tag_175\n      jumpi\n        /* \"#utility.yul\":680:681   */\n      0x00\n        /* \"#utility.yul\":677:678   */\n      dup1\n        /* \"#utility.yul\":670:682   */\n      revert\n        /* \"#utility.yul\":621:684   */\n    tag_175:\n        /* \"#utility.yul\":568:690   */\n      pop\n      jump\t// out\n        /* \"#utility.yul\":696:835   */\n    tag_126:\n        /* \"#utility.yul\":742:747   */\n      0x00\n        /* \"#utility.yul\":780:786   */\n      dup2\n        /* \"#utility.yul\":767:787   */\n      calldataload\n        /* \"#utility.yul\":758:787   */\n      swap1\n      pop\n        /* \"#utility.yul\":796:829   */\n      tag_177\n        /* \"#utility.yul\":823:828   */\n      dup2\n        /* \"#utility.yul\":796:829   */\n      tag_125\n      jump\t// in\n    tag_177:\n        /* \"#utility.yul\":696:835   */\n      swap3\n      swap2\n      pop\n      pop\n      jump\t// out\n        /* \"#utility.yul\":841:959   */\n    tag_127:\n        /* \"#utility.yul\":878:885   */\n      0x00\n        /* \"#utility.yul\":918:952   */\n      0xffffffffffffffffffffffffffffffff\n        /* \"#utility.yul\":911:916   */\n      dup3\n        /* \"#utility.yul\":907:953   */\n      and\n        /* \"#utility.yul\":896:953   */\n      swap1\n      pop\n        /* \"#utility.yul\":841:959   */\n      swap2\n      swap1\n      pop\n      jump\t// out\n        /* \"#utility.yul\":965:1087   */\n    tag_128:\n        /* \"#utility.yul\":1038:1062   */\n      tag_180\n        /* \"#utility.yul\":1056:1061   */\n      dup2\n        /* \"#utility.yul\":1038:1062   */\n      tag_127\n      jump\t// in\n    tag_180:\n        /* \"#utility.yul\":1031:1036   */\n      dup2\n        /* \"#utility.yul\":1028:1063   */\n      eq\n        /* \"#utility.yul\":1018:1081   */\n      tag_181\n      jumpi\n        /* \"#utility.yul\":1077:1078   */\n      0x00\n        /* \"#utility.yul\":1074:1075   */\n      dup1\n        /* \"#utility.yul\":1067:1079   */\n      revert\n        /* \"#utility.yul\":1018:1081   */\n    tag_181:\n        /* \"#utility.yul\":965:1087   */\n      pop\n      jump\t// out\n        /* \"#utility.yul\":1093:1232   */\n    tag_129:\n        /* \"#utility.yul\":1139:1144   */\n      0x00\n        /* \"#utility.yul\":1177:1183   */\n      dup2\n        /* \"#utility.yul\":1164:1184   */\n      calldataload\n        /* \"#utility.yul\":1155:1184   */\n      swap1\n      pop\n        /* \"#utility.yul\":1193:1226   */\n      tag_183\n        /* \"#utility.yul\":1220:1225   */\n      dup2\n        /* \"#utility.yul\":1193:1226   */\n      tag_128\n      jump\t// in\n    tag_183:\n        /* \"#utility.yul\":1093:1232   */\n      swap3\n      swap2\n      pop\n      pop\n      jump\t// out\n        /* \"#utility.yul\":1238:1315   */\n    tag_130:\n        /* \"#utility.yul\":1275:1282   */\n      0x00\n        /* \"#utility.yul\":1304:1309   */\n      dup2\n        /* \"#utility.yul\":1293:1309   */\n      swap1\n      pop\n        /* \"#utility.yul\":1238:1315   */\n      swap2\n      swap1\n      pop\n      jump\t// out\n        /* \"#utility.yul\":1321:1443   */\n    tag_131:\n        /* \"#utility.yul\":1394:1418   */\n      tag_186\n        /* \"#utility.yul\":1412:1417   */\n      dup2\n        /* \"#utility.yul\":1394:1418   */\n      tag_130\n      jump\t// in\n    tag_186:\n        /* \"#utility.yul\":1387:1392   */\n      dup2\n        /* \"#utility.yul\":1384:1419   */\n      eq\n        /* \"#utility.yul\":1374:1437   */\n      tag_187\n      jumpi\n        /* \"#utility.yul\":1433:1434   */\n      0x00\n        /* \"#utility.yul\":1430:1431   */\n      dup1\n        /* \"#utility.yul\":1423:1435   */\n      revert\n        /* \"#utility.yul\":1374:1437   */\n    tag_187:\n        /* \"#utility.yul\":1321:1443   */\n      pop\n      jump\t// out\n        /* \"#utility.yul\":1449:1588   */\n    tag_132:\n        /* \"#utility.yul\":1495:1500   */\n      0x00\n        /* \"#utility.yul\":1533:1539   */\n      dup2\n        /* \"#utility.yul\":1520:1540   */\n      calldataload\n        /* \"#utility.yul\":1511:1540   */\n      swap1\n      pop\n        /* \"#utility.yul\":1549:1582   */\n      tag_189\n        /* \"#utility.yul\":1576:1581   */\n      dup2\n        /* \"#utility.yul\":1549:1582   */\n      tag_131\n      jump\t// in\n    tag_189:\n        /* \"#utility.yul\":1449:1588   */\n      swap3\n      swap2\n      pop\n      pop\n      jump\t// out\n        /* \"#utility.yul\":1594:2505   */\n    tag_10:\n        /* \"#utility.yul\":1689:1695   */\n      0x00\n        /* \"#utility.yul\":1697:1703   */\n      dup1\n        /* \"#utility.yul\":1705:1711   */\n      0x00\n        /* \"#utility.yul\":1713:1719   */\n      dup1\n        /* \"#utility.yul\":1721:1727   */\n      0x00\n        /* \"#utility.yul\":1770:1773   */\n      0xa0\n        /* \"#utility.yul\":1758:1767   */\n      dup7\n        /* \"#utility.yul\":1749:1756   */\n      dup9\n        /* \"#utility.yul\":1745:1768   */\n      sub\n        /* \"#utility.yul\":1741:1774   */\n      slt\n        /* \"#utility.yul\":1738:1858   */\n      iszero\n      tag_191\n      jumpi\n        /* \"#utility.yul\":1777:1856   */\n      tag_192\n      tag_121\n      jump\t// in\n    tag_192:\n        /* \"#utility.yul\":1738:1858   */\n    tag_191:\n        /* \"#utility.yul\":1897:1898   */\n      0x00\n        /* \"#utility.yul\":1922:1975   */\n      tag_193\n        /* \"#utility.yul\":1967:1974   */\n      dup9\n        /* \"#utility.yul\":1958:1964   */\n      dup3\n        /* \"#utility.yul\":1947:1956   */\n      dup10\n        /* \"#utility.yul\":1943:1965   */\n      add\n        /* \"#utility.yul\":1922:1975   */\n      tag_126\n      jump\t// in\n    tag_193:\n        /* \"#utility.yul\":1912:1975   */\n      swap6\n      pop\n        /* \"#utility.yul\":1868:1985   */\n      pop\n        /* \"#utility.yul\":2024:2026   */\n      0x20\n        /* \"#utility.yul\":2050:2103   */\n      tag_194\n        /* \"#utility.yul\":2095:2102   */\n      dup9\n        /* \"#utility.yul\":2086:2092   */\n      dup3\n        /* \"#utility.yul\":2075:2084   */\n      dup10\n        /* \"#utility.yul\":2071:2093   */\n      add\n        /* \"#utility.yul\":2050:2103   */\n      tag_129\n      jump\t// in\n    tag_194:\n        /* \"#utility.yul\":2040:2103   */\n      swap5\n      pop\n        /* \"#utility.yul\":1995:2113   */\n      pop\n        /* \"#utility.yul\":2152:2154   */\n      0x40\n        /* \"#utility.yul\":2178:2231   */\n      tag_195\n        /* \"#utility.yul\":2223:2230   */\n      dup9\n        /* \"#utility.yul\":2214:2220   */\n      dup3\n        /* \"#utility.yul\":2203:2212   */\n      dup10\n        /* \"#utility.yul\":2199:2221   */\n      add\n        /* \"#utility.yul\":2178:2231   */\n      tag_132\n      jump\t// in\n    tag_195:\n        /* \"#utility.yul\":2168:2231   */\n      swap4\n      pop\n        /* \"#utility.yul\":2123:2241   */\n      pop\n        /* \"#utility.yul\":2280:2282   */\n      0x60\n        /* \"#utility.yul\":2306:2359   */\n      tag_196\n        /* \"#utility.yul\":2351:2358   */\n      dup9\n        /* \"#utility.yul\":2342:2348   */\n      dup3\n        /* \"#utility.yul\":2331:2340   */\n      dup10\n        /* \"#utility.yul\":2327:2349   */\n      add\n        /* \"#utility.yul\":2306:2359   */\n      tag_132\n      jump\t// in\n    tag_196:\n        /* \"#utility.yul\":2296:2359   */\n      swap3\n      pop\n        /* \"#utility.yul\":2251:2369   */\n      pop\n        /* \"#utility.yul\":2408:2411   */\n      0x80\n        /* \"#utility.yul\":2435:2488   */\n      tag_197\n        /* \"#utility.yul\":2480:2487   */\n      dup9\n        /* \"#utility.yul\":2471:2477   */\n      dup3\n        /* \"#utility.yul\":2460:2469   */\n      dup10\n        /* \"#utility.yul\":2456:2478   */\n      add\n        /* \"#utility.yul\":2435:2488   */\n      tag_132\n      jump\t// in\n    tag_197:\n        /* \"#utility.yul\":2425:2488   */\n      swap2\n      pop\n        /* \"#utility.yul\":2379:2498   */\n      pop\n        /* \"#utility.yul\":1594:2505   */\n      swap3\n      swap6\n      pop\n      swap3\n      swap6\n      swap1\n      swap4\n      pop\n      jump\t// out\n        /* \"#utility.yul\":2511:2840   */\n    tag_15:\n        /* \"#utility.yul\":2570:2576   */\n      0x00\n        /* \"#utility.yul\":2619:2621   */\n      0x20\n        /* \"#utility.yul\":2607:2616   */\n      dup3\n        /* \"#utility.yul\":2598:2605   */\n      dup5\n        /* \"#utility.yul\":2594:2617   */\n      sub\n        /* \"#utility.yul\":2590:2622   */\n      slt\n        /* \"#utility.yul\":2587:2706   */\n      iszero\n      tag_199\n      jumpi\n        /* \"#utility.yul\":2625:2704   */\n      tag_200\n      tag_121\n      jump\t// in\n    tag_200:\n        /* \"#utility.yul\":2587:2706   */\n    tag_199:\n        /* \"#utility.yul\":2745:2746   */\n      0x00\n        /* \"#utility.yul\":2770:2823   */\n      tag_201\n        /* \"#utility.yul\":2815:2822   */\n      dup5\n        /* \"#utility.yul\":2806:2812   */\n      dup3\n        /* \"#utility.yul\":2795:2804   */\n      dup6\n        /* \"#utility.yul\":2791:2813   */\n      add\n        /* \"#utility.yul\":2770:2823   */\n      tag_132\n      jump\t// in\n    tag_201:\n        /* \"#utility.yul\":2760:2823   */\n      swap2\n      pop\n        /* \"#utility.yul\":2716:2833   */\n      pop\n        /* \"#utility.yul\":2511:2840   */\n      swap3\n      swap2\n      pop\n      pop\n      jump\t// out\n        /* \"#utility.yul\":2846:2954   */\n    tag_133:\n        /* \"#utility.yul\":2923:2947   */\n      tag_203\n        /* \"#utility.yul\":2941:2946   */\n      dup2\n        /* \"#utility.yul\":2923:2947   */\n      tag_124\n      jump\t// in\n    tag_203:\n        /* \"#utility.yul\":2918:2921   */\n      dup3\n        /* \"#utility.yul\":2911:2948   */\n      mstore\n        /* \"#utility.yul\":2846:2954   */\n      pop\n      pop\n      jump\t// out\n        /* \"#utility.yul\":2960:3068   */\n    tag_134:\n        /* \"#utility.yul\":3037:3061   */\n      tag_205\n        /* \"#utility.yul\":3055:3060   */\n      dup2\n        /* \"#utility.yul\":3037:3061   */\n      tag_127\n      jump\t// in\n    tag_205:\n        /* \"#utility.yul\":3032:3035   */\n      dup3\n        /* \"#utility.yul\":3025:3062   */\n      mstore\n        /* \"#utility.yul\":2960:3068   */\n      pop\n      pop\n      jump\t// out\n        /* \"#utility.yul\":3074:3182   */\n    tag_135:\n        /* \"#utility.yul\":3151:3175   */\n      tag_207\n        /* \"#utility.yul\":3169:3174   */\n      dup2\n        /* \"#utility.yul\":3151:3175   */\n      tag_130\n      jump\t// in\n    tag_207:\n        /* \"#utility.yul\":3146:3149   */\n      dup3\n        /* \"#utility.yul\":3139:3176   */\n      mstore\n        /* \"#utility.yul\":3074:3182   */\n      pop\n      pop\n      jump\t// out\n        /* \"#utility.yul\":3256:4295   */\n    tag_136:\n        /* \"#utility.yul\":3401:3405   */\n      0xa0\n        /* \"#utility.yul\":3396:3399   */\n      dup3\n        /* \"#utility.yul\":3392:3406   */\n      add\n        /* \"#utility.yul\":3490:3494   */\n      0x00\n        /* \"#utility.yul\":3483:3488   */\n      dup3\n        /* \"#utility.yul\":3479:3495   */\n      add\n        /* \"#utility.yul\":3473:3496   */\n      mload\n        /* \"#utility.yul\":3509:3572   */\n      tag_209\n        /* \"#utility.yul\":3566:3570   */\n      0x00\n        /* \"#utility.yul\":3561:3564   */\n      dup6\n        /* \"#utility.yul\":3557:3571   */\n      add\n        /* \"#utility.yul\":3543:3555   */\n      dup3\n        /* \"#utility.yul\":3509:3572   */\n      tag_133\n      jump\t// in\n    tag_209:\n        /* \"#utility.yul\":3416:3582   */\n      pop\n        /* \"#utility.yul\":3665:3669   */\n      0x20\n        /* \"#utility.yul\":3658:3663   */\n      dup3\n        /* \"#utility.yul\":3654:3670   */\n      add\n        /* \"#utility.yul\":3648:3671   */\n      mload\n        /* \"#utility.yul\":3684:3747   */\n      tag_210\n        /* \"#utility.yul\":3741:3745   */\n      0x20\n        /* \"#utility.yul\":3736:3739   */\n      dup6\n        /* \"#utility.yul\":3732:3746   */\n      add\n        /* \"#utility.yul\":3718:3730   */\n      dup3\n        /* \"#utility.yul\":3684:3747   */\n      tag_134\n      jump\t// in\n    tag_210:\n        /* \"#utility.yul\":3592:3757   */\n      pop\n        /* \"#utility.yul\":3840:3844   */\n      0x40\n        /* \"#utility.yul\":3833:3838   */\n      dup3\n        /* \"#utility.yul\":3829:3845   */\n      add\n        /* \"#utility.yul\":3823:3846   */\n      mload\n        /* \"#utility.yul\":3859:3922   */\n      tag_211\n        /* \"#utility.yul\":3916:3920   */\n      0x40\n        /* \"#utility.yul\":3911:3914   */\n      dup6\n        /* \"#utility.yul\":3907:3921   */\n      add\n        /* \"#utility.yul\":3893:3905   */\n      dup3\n        /* \"#utility.yul\":3859:3922   */\n      tag_135\n      jump\t// in\n    tag_211:\n        /* \"#utility.yul\":3767:3932   */\n      pop\n        /* \"#utility.yul\":4019:4023   */\n      0x60\n        /* \"#utility.yul\":4012:4017   */\n      dup3\n        /* \"#utility.yul\":4008:4024   */\n      add\n        /* \"#utility.yul\":4002:4025   */\n      mload\n        /* \"#utility.yul\":4038:4101   */\n      tag_212\n        /* \"#utility.yul\":4095:4099   */\n      0x60\n        /* \"#utility.yul\":4090:4093   */\n      dup6\n        /* \"#utility.yul\":4086:4100   */\n      add\n        /* \"#utility.yul\":4072:4084   */\n      dup3\n        /* \"#utility.yul\":4038:4101   */\n      tag_135\n      jump\t// in\n    tag_212:\n        /* \"#utility.yul\":3942:4111   */\n      pop\n        /* \"#utility.yul\":4196:4200   */\n      0x80\n        /* \"#utility.yul\":4189:4194   */\n      dup3\n        /* \"#utility.yul\":4185:4201   */\n      add\n        /* \"#utility.yul\":4179:4202   */\n      mload\n        /* \"#utility.yul\":4215:4278   */\n      tag_213\n        /* \"#utility.yul\":4272:4276   */\n      0x80\n        /* \"#utility.yul\":4267:4270   */\n      dup6\n        /* \"#utility.yul\":4263:4277   */\n      add\n        /* \"#utility.yul\":4249:4261   */\n      dup3\n        /* \"#utility.yul\":4215:4278   */\n      tag_135\n      jump\t// in\n    tag_213:\n        /* \"#utility.yul\":4121:4288   */\n      pop\n        /* \"#utility.yul\":3370:4295   */\n      pop\n        /* \"#utility.yul\":3256:4295   */\n      pop\n      pop\n      jump\t// out\n        /* \"#utility.yul\":4301:4620   */\n    tag_18:\n        /* \"#utility.yul\":4442:4446   */\n      0x00\n        /* \"#utility.yul\":4480:4483   */\n      0xa0\n        /* \"#utility.yul\":4469:4478   */\n      dup3\n        /* \"#utility.yul\":4465:4484   */\n      add\n        /* \"#utility.yul\":4457:4484   */\n      swap1\n      pop\n        /* \"#utility.yul\":4494:4613   */\n      tag_215\n        /* \"#utility.yul\":4610:4611   */\n      0x00\n        /* \"#utility.yul\":4599:4608   */\n      dup4\n        /* \"#utility.yul\":4595:4612   */\n      add\n        /* \"#utility.yul\":4586:4592   */\n      dup5\n        /* \"#utility.yul\":4494:4613   */\n      tag_136\n      jump\t// in\n    tag_215:\n        /* \"#utility.yul\":4301:4620   */\n      swap3\n      swap2\n      pop\n      pop\n      jump\t// out\n        /* \"#utility.yul\":4626:4744   */\n    tag_137:\n        /* \"#utility.yul\":4713:4737   */\n      tag_217\n        /* \"#utility.yul\":4731:4736   */\n      dup2\n        /* \"#utility.yul\":4713:4737   */\n      tag_130\n      jump\t// in\n    tag_217:\n        /* \"#utility.yul\":4708:4711   */\n      dup3\n        /* \"#utility.yul\":4701:4738   */\n      mstore\n        /* \"#utility.yul\":4626:4744   */\n      pop\n      pop\n      jump\t// out\n        /* \"#utility.yul\":4750:4972   */\n    tag_32:\n        /* \"#utility.yul\":4843:4847   */\n      0x00\n        /* \"#utility.yul\":4881:4883   */\n      0x20\n        /* \"#utility.yul\":4870:4879   */\n      dup3\n        /* \"#utility.yul\":4866:4884   */\n      add\n        /* \"#utility.yul\":4858:4884   */\n      swap1\n      pop\n        /* \"#utility.yul\":4894:4965   */\n      tag_219\n        /* \"#utility.yul\":4962:4963   */\n      0x00\n        /* \"#utility.yul\":4951:4960   */\n      dup4\n        /* \"#utility.yul\":4947:4964   */\n      add\n        /* \"#utility.yul\":4938:4944   */\n      dup5\n        /* \"#utility.yul\":4894:4965   */\n      tag_137\n      jump\t// in\n    tag_219:\n        /* \"#utility.yul\":4750:4972   */\n      swap3\n      swap2\n      pop\n      pop\n      jump\t// out\n        /* \"#utility.yul\":4978:5121   */\n    tag_138:\n        /* \"#utility.yul\":5035:5040   */\n      0x00\n        /* \"#utility.yul\":5066:5072   */\n      dup2\n        /* \"#utility.yul\":5060:5073   */\n      mload\n        /* \"#utility.yul\":5051:5073   */\n      swap1\n      pop\n        /* \"#utility.yul\":5082:5115   */\n      tag_221\n        /* \"#utility.yul\":5109:5114   */\n      dup2\n        /* \"#utility.yul\":5082:5115   */\n      tag_125\n      jump\t// in\n    tag_221:\n        /* \"#utility.yul\":4978:5121   */\n      swap3\n      swap2\n      pop\n      pop\n      jump\t// out\n        /* \"#utility.yul\":5127:5478   */\n    tag_36:\n        /* \"#utility.yul\":5197:5203   */\n      0x00\n        /* \"#utility.yul\":5246:5248   */\n      0x20\n        /* \"#utility.yul\":5234:5243   */\n      dup3\n        /* \"#utility.yul\":5225:5232   */\n      dup5\n        /* \"#utility.yul\":5221:5244   */\n      sub\n        /* \"#utility.yul\":5217:5249   */\n      slt\n        /* \"#utility.yul\":5214:5333   */\n      iszero\n      tag_223\n      jumpi\n        /* \"#utility.yul\":5252:5331   */\n      tag_224\n      tag_121\n      jump\t// in\n    tag_224:\n        /* \"#utility.yul\":5214:5333   */\n    tag_223:\n        /* \"#utility.yul\":5372:5373   */\n      0x00\n        /* \"#utility.yul\":5397:5461   */\n      tag_225\n        /* \"#utility.yul\":5453:5460   */\n      dup5\n        /* \"#utility.yul\":5444:5450   */\n      dup3\n        /* \"#utility.yul\":5433:5442   */\n      dup6\n        /* \"#utility.yul\":5429:5451   */\n      add\n        /* \"#utility.yul\":5397:5461   */\n      tag_138\n      jump\t// in\n    tag_225:\n        /* \"#utility.yul\":5387:5461   */\n      swap2\n      pop\n        /* \"#utility.yul\":5343:5471   */\n      pop\n        /* \"#utility.yul\":5127:5478   */\n      swap3\n      swap2\n      pop\n      pop\n      jump\t// out\n        /* \"#utility.yul\":5484:5653   */\n    tag_139:\n        /* \"#utility.yul\":5568:5579   */\n      0x00\n        /* \"#utility.yul\":5602:5608   */\n      dup3\n        /* \"#utility.yul\":5597:5600   */\n      dup3\n        /* \"#utility.yul\":5590:5609   */\n      mstore\n        /* \"#utility.yul\":5642:5646   */\n      0x20\n        /* \"#utility.yul\":5637:5640   */\n      dup3\n        /* \"#utility.yul\":5633:5647   */\n      add\n        /* \"#utility.yul\":5618:5647   */\n      swap1\n      pop\n        /* \"#utility.yul\":5484:5653   */\n      swap3\n      swap2\n      pop\n      pop\n      jump\t// out\n        /* \"#utility.yul\":5659:5840   */\n    tag_140:\n        /* \"#utility.yul\":5799:5832   */\n      0x45524337323141756374696f6e3a206e6f74206f776e6572206f66206e667400\n        /* \"#utility.yul\":5795:5796   */\n      0x00\n        /* \"#utility.yul\":5787:5793   */\n      dup3\n        /* \"#utility.yul\":5783:5797   */\n      add\n        /* \"#utility.yul\":5776:5833   */\n      mstore\n        /* \"#utility.yul\":5659:5840   */\n      pop\n      jump\t// out\n        /* \"#utility.yul\":5846:6212   */\n    tag_141:\n        /* \"#utility.yul\":5988:5991   */\n      0x00\n        /* \"#utility.yul\":6009:6076   */\n      tag_229\n        /* \"#utility.yul\":6073:6075   */\n      0x1f\n        /* \"#utility.yul\":6068:6071   */\n      dup4\n        /* \"#utility.yul\":6009:6076   */\n      tag_139\n      jump\t// in\n    tag_229:\n        /* \"#utility.yul\":6002:6076   */\n      swap2\n      pop\n        /* \"#utility.yul\":6085:6178   */\n      tag_230\n        /* \"#utility.yul\":6174:6177   */\n      dup3\n        /* \"#utility.yul\":6085:6178   */\n      tag_140\n      jump\t// in\n    tag_230:\n        /* \"#utility.yul\":6203:6205   */\n      0x20\n        /* \"#utility.yul\":6198:6201   */\n      dup3\n        /* \"#utility.yul\":6194:6206   */\n      add\n        /* \"#utility.yul\":6187:6206   */\n      swap1\n      pop\n        /* \"#utility.yul\":5846:6212   */\n      swap2\n      swap1\n      pop\n      jump\t// out\n        /* \"#utility.yul\":6218:6637   */\n    tag_39:\n        /* \"#utility.yul\":6384:6388   */\n      0x00\n        /* \"#utility.yul\":6422:6424   */\n      0x20\n        /* \"#utility.yul\":6411:6420   */\n      dup3\n        /* \"#utility.yul\":6407:6425   */\n      add\n        /* \"#utility.yul\":6399:6425   */\n      swap1\n      pop\n        /* \"#utility.yul\":6471:6480   */\n      dup2\n        /* \"#utility.yul\":6465:6469   */\n      dup2\n        /* \"#utility.yul\":6461:6481   */\n      sub\n        /* \"#utility.yul\":6457:6458   */\n      0x00\n        /* \"#utility.yul\":6446:6455   */\n      dup4\n        /* \"#utility.yul\":6442:6459   */\n      add\n        /* \"#utility.yul\":6435:6482   */\n      mstore\n        /* \"#utility.yul\":6499:6630   */\n      tag_232\n        /* \"#utility.yul\":6625:6629   */\n      dup2\n        /* \"#utility.yul\":6499:6630   */\n      tag_141\n      jump\t// in\n    tag_232:\n        /* \"#utility.yul\":6491:6630   */\n      swap1\n      pop\n        /* \"#utility.yul\":6218:6637   */\n      swap2\n      swap1\n      pop\n      jump\t// out\n        /* \"#utility.yul\":6643:6818   */\n    tag_142:\n        /* \"#utility.yul\":6783:6810   */\n      0x45524337323141756374696f6e3a207072696365207a65726f00000000000000\n        /* \"#utility.yul\":6779:6780   */\n      0x00\n        /* \"#utility.yul\":6771:6777   */\n      dup3\n        /* \"#utility.yul\":6767:6781   */\n      add\n        /* \"#utility.yul\":6760:6811   */\n      mstore\n        /* \"#utility.yul\":6643:6818   */\n      pop\n      jump\t// out\n        /* \"#utility.yul\":6824:7190   */\n    tag_143:\n        /* \"#utility.yul\":6966:6969   */\n      0x00\n        /* \"#utility.yul\":6987:7054   */\n      tag_235\n        /* \"#utility.yul\":7051:7053   */\n      0x19\n        /* \"#utility.yul\":7046:7049   */\n      dup4\n        /* \"#utility.yul\":6987:7054   */\n      tag_139\n      jump\t// in\n    tag_235:\n        /* \"#utility.yul\":6980:7054   */\n      swap2\n      pop\n        /* \"#utility.yul\":7063:7156   */\n      tag_236\n        /* \"#utility.yul\":7152:7155   */\n      dup3\n        /* \"#utility.yul\":7063:7156   */\n      tag_142\n      jump\t// in\n    tag_236:\n        /* \"#utility.yul\":7181:7183   */\n      0x20\n        /* \"#utility.yul\":7176:7179   */\n      dup3\n        /* \"#utility.yul\":7172:7184   */\n      add\n        /* \"#utility.yul\":7165:7184   */\n      swap1\n      pop\n        /* \"#utility.yul\":6824:7190   */\n      swap2\n      swap1\n      pop\n      jump\t// out\n        /* \"#utility.yul\":7196:7615   */\n    tag_42:\n        /* \"#utility.yul\":7362:7366   */\n      0x00\n        /* \"#utility.yul\":7400:7402   */\n      0x20\n        /* \"#utility.yul\":7389:7398   */\n      dup3\n        /* \"#utility.yul\":7385:7403   */\n      add\n        /* \"#utility.yul\":7377:7403   */\n      swap1\n      pop\n        /* \"#utility.yul\":7449:7458   */\n      dup2\n        /* \"#utility.yul\":7443:7447   */\n      dup2\n        /* \"#utility.yul\":7439:7459   */\n      sub\n        /* \"#utility.yul\":7435:7436   */\n      0x00\n        /* \"#utility.yul\":7424:7433   */\n      dup4\n        /* \"#utility.yul\":7420:7437   */\n      add\n        /* \"#utility.yul\":7413:7460   */\n      mstore\n        /* \"#utility.yul\":7477:7608   */\n      tag_238\n        /* \"#utility.yul\":7603:7607   */\n      dup2\n        /* \"#utility.yul\":7477:7608   */\n      tag_143\n      jump\t// in\n    tag_238:\n        /* \"#utility.yul\":7469:7608   */\n      swap1\n      pop\n        /* \"#utility.yul\":7196:7615   */\n      swap2\n      swap1\n      pop\n      jump\t// out\n        /* \"#utility.yul\":7621:7802   */\n    tag_144:\n        /* \"#utility.yul\":7761:7794   */\n      0x45524337323141756374696f6e3a2077726f6e672074696d6520696e70757400\n        /* \"#utility.yul\":7757:7758   */\n      0x00\n        /* \"#utility.yul\":7749:7755   */\n      dup3\n        /* \"#utility.yul\":7745:7759   */\n      add\n        /* \"#utility.yul\":7738:7795   */\n      mstore\n        /* \"#utility.yul\":7621:7802   */\n      pop\n      jump\t// out\n        /* \"#utility.yul\":7808:8174   */\n    tag_145:\n        /* \"#utility.yul\":7950:7953   */\n      0x00\n        /* \"#utility.yul\":7971:8038   */\n      tag_241\n        /* \"#utility.yul\":8035:8037   */\n      0x1f\n        /* \"#utility.yul\":8030:8033   */\n      dup4\n        /* \"#utility.yul\":7971:8038   */\n      tag_139\n      jump\t// in\n    tag_241:\n        /* \"#utility.yul\":7964:8038   */\n      swap2\n      pop\n        /* \"#utility.yul\":8047:8140   */\n      tag_242\n        /* \"#utility.yul\":8136:8139   */\n      dup3\n        /* \"#utility.yul\":8047:8140   */\n      tag_144\n      jump\t// in\n    tag_242:\n        /* \"#utility.yul\":8165:8167   */\n      0x20\n        /* \"#utility.yul\":8160:8163   */\n      dup3\n        /* \"#utility.yul\":8156:8168   */\n      add\n        /* \"#utility.yul\":8149:8168   */\n      swap1\n      pop\n        /* \"#utility.yul\":7808:8174   */\n      swap2\n      swap1\n      pop\n      jump\t// out\n        /* \"#utility.yul\":8180:8599   */\n    tag_46:\n        /* \"#utility.yul\":8346:8350   */\n      0x00\n        /* \"#utility.yul\":8384:8386   */\n      0x20\n        /* \"#utility.yul\":8373:8382   */\n      dup3\n        /* \"#utility.yul\":8369:8387   */\n      add\n        /* \"#utility.yul\":8361:8387   */\n      swap1\n      pop\n        /* \"#utility.yul\":8433:8442   */\n      dup2\n        /* \"#utility.yul\":8427:8431   */\n      dup2\n        /* \"#utility.yul\":8423:8443   */\n      sub\n        /* \"#utility.yul\":8419:8420   */\n      0x00\n        /* \"#utility.yul\":8408:8417   */\n      dup4\n        /* \"#utility.yul\":8404:8421   */\n      add\n        /* \"#utility.yul\":8397:8444   */\n      mstore\n        /* \"#utility.yul\":8461:8592   */\n      tag_244\n        /* \"#utility.yul\":8587:8591   */\n      dup2\n        /* \"#utility.yul\":8461:8592   */\n      tag_145\n      jump\t// in\n    tag_244:\n        /* \"#utility.yul\":8453:8592   */\n      swap1\n      pop\n        /* \"#utility.yul\":8180:8599   */\n      swap2\n      swap1\n      pop\n      jump\t// out\n        /* \"#utility.yul\":8605:8723   */\n    tag_146:\n        /* \"#utility.yul\":8692:8716   */\n      tag_246\n        /* \"#utility.yul\":8710:8715   */\n      dup2\n        /* \"#utility.yul\":8692:8716   */\n      tag_124\n      jump\t// in\n    tag_246:\n        /* \"#utility.yul\":8687:8690   */\n      dup3\n        /* \"#utility.yul\":8680:8717   */\n      mstore\n        /* \"#utility.yul\":8605:8723   */\n      pop\n      pop\n      jump\t// out\n        /* \"#utility.yul\":8729:9061   */\n    tag_59:\n        /* \"#utility.yul\":8850:8854   */\n      0x00\n        /* \"#utility.yul\":8888:8890   */\n      0x40\n        /* \"#utility.yul\":8877:8886   */\n      dup3\n        /* \"#utility.yul\":8873:8891   */\n      add\n        /* \"#utility.yul\":8865:8891   */\n      swap1\n      pop\n        /* \"#utility.yul\":8901:8972   */\n      tag_248\n        /* \"#utility.yul\":8969:8970   */\n      0x00\n        /* \"#utility.yul\":8958:8967   */\n      dup4\n        /* \"#utility.yul\":8954:8971   */\n      add\n        /* \"#utility.yul\":8945:8951   */\n      dup6\n        /* \"#utility.yul\":8901:8972   */\n      tag_146\n      jump\t// in\n    tag_248:\n        /* \"#utility.yul\":8982:9054   */\n      tag_249\n        /* \"#utility.yul\":9050:9052   */\n      0x20\n        /* \"#utility.yul\":9039:9048   */\n      dup4\n        /* \"#utility.yul\":9035:9053   */\n      add\n        /* \"#utility.yul\":9026:9032   */\n      dup5\n        /* \"#utility.yul\":8982:9054   */\n      tag_146\n      jump\t// in\n    tag_249:\n        /* \"#utility.yul\":8729:9061   */\n      swap4\n      swap3\n      pop\n      pop\n      pop\n      jump\t// out\n        /* \"#utility.yul\":9067:9157   */\n    tag_147:\n        /* \"#utility.yul\":9101:9108   */\n      0x00\n        /* \"#utility.yul\":9144:9149   */\n      dup2\n        /* \"#utility.yul\":9137:9150   */\n      iszero\n        /* \"#utility.yul\":9130:9151   */\n      iszero\n        /* \"#utility.yul\":9119:9151   */\n      swap1\n      pop\n        /* \"#utility.yul\":9067:9157   */\n      swap2\n      swap1\n      pop\n      jump\t// out\n        /* \"#utility.yul\":9163:9279   */\n    tag_148:\n        /* \"#utility.yul\":9233:9254   */\n      tag_252\n        /* \"#utility.yul\":9248:9253   */\n      dup2\n        /* \"#utility.yul\":9233:9254   */\n      tag_147\n      jump\t// in\n    tag_252:\n        /* \"#utility.yul\":9226:9231   */\n      dup2\n        /* \"#utility.yul\":9223:9255   */\n      eq\n        /* \"#utility.yul\":9213:9273   */\n      tag_253\n      jumpi\n        /* \"#utility.yul\":9269:9270   */\n      0x00\n        /* \"#utility.yul\":9266:9267   */\n      dup1\n        /* \"#utility.yul\":9259:9271   */\n      revert\n        /* \"#utility.yul\":9213:9273   */\n    tag_253:\n        /* \"#utility.yul\":9163:9279   */\n      pop\n      jump\t// out\n        /* \"#utility.yul\":9285:9422   */\n    tag_149:\n        /* \"#utility.yul\":9339:9344   */\n      0x00\n        /* \"#utility.yul\":9370:9376   */\n      dup2\n        /* \"#utility.yul\":9364:9377   */\n      mload\n        /* \"#utility.yul\":9355:9377   */\n      swap1\n      pop\n        /* \"#utility.yul\":9386:9416   */\n      tag_255\n        /* \"#utility.yul\":9410:9415   */\n      dup2\n        /* \"#utility.yul\":9386:9416   */\n      tag_148\n      jump\t// in\n    tag_255:\n        /* \"#utility.yul\":9285:9422   */\n      swap3\n      swap2\n      pop\n      pop\n      jump\t// out\n        /* \"#utility.yul\":9428:9773   */\n    tag_63:\n        /* \"#utility.yul\":9495:9501   */\n      0x00\n        /* \"#utility.yul\":9544:9546   */\n      0x20\n        /* \"#utility.yul\":9532:9541   */\n      dup3\n        /* \"#utility.yul\":9523:9530   */\n      dup5\n        /* \"#utility.yul\":9519:9542   */\n      sub\n        /* \"#utility.yul\":9515:9547   */\n      slt\n        /* \"#utility.yul\":9512:9631   */\n      iszero\n      tag_257\n      jumpi\n        /* \"#utility.yul\":9550:9629   */\n      tag_258\n      tag_121\n      jump\t// in\n    tag_258:\n        /* \"#utility.yul\":9512:9631   */\n    tag_257:\n        /* \"#utility.yul\":9670:9671   */\n      0x00\n        /* \"#utility.yul\":9695:9756   */\n      tag_259\n        /* \"#utility.yul\":9748:9755   */\n      dup5\n        /* \"#utility.yul\":9739:9745   */\n      dup3\n        /* \"#utility.yul\":9728:9737   */\n      dup6\n        /* \"#utility.yul\":9724:9746   */\n      add\n        /* \"#utility.yul\":9695:9756   */\n      tag_149\n      jump\t// in\n    tag_259:\n        /* \"#utility.yul\":9685:9756   */\n      swap2\n      pop\n        /* \"#utility.yul\":9641:9766   */\n      pop\n        /* \"#utility.yul\":9428:9773   */\n      swap3\n      swap2\n      pop\n      pop\n      jump\t// out\n        /* \"#utility.yul\":9779:10002   */\n    tag_150:\n        /* \"#utility.yul\":9919:9953   */\n      0x45524337323141756374696f6e3a20636f6e7472616374206e6f742061707072\n        /* \"#utility.yul\":9915:9916   */\n      0x00\n        /* \"#utility.yul\":9907:9913   */\n      dup3\n        /* \"#utility.yul\":9903:9917   */\n      add\n        /* \"#utility.yul\":9896:9954   */\n      mstore\n        /* \"#utility.yul\":9988:9994   */\n      0x6f76656400000000000000000000000000000000000000000000000000000000\n        /* \"#utility.yul\":9983:9985   */\n      0x20\n        /* \"#utility.yul\":9975:9981   */\n      dup3\n        /* \"#utility.yul\":9971:9986   */\n      add\n        /* \"#utility.yul\":9964:9995   */\n      mstore\n        /* \"#utility.yul\":9779:10002   */\n      pop\n      jump\t// out\n        /* \"#utility.yul\":10008:10374   */\n    tag_151:\n        /* \"#utility.yul\":10150:10153   */\n      0x00\n        /* \"#utility.yul\":10171:10238   */\n      tag_262\n        /* \"#utility.yul\":10235:10237   */\n      0x24\n        /* \"#utility.yul\":10230:10233   */\n      dup4\n        /* \"#utility.yul\":10171:10238   */\n      tag_139\n      jump\t// in\n    tag_262:\n        /* \"#utility.yul\":10164:10238   */\n      swap2\n      pop\n        /* \"#utility.yul\":10247:10340   */\n      tag_263\n        /* \"#utility.yul\":10336:10339   */\n      dup3\n        /* \"#utility.yul\":10247:10340   */\n      tag_150\n      jump\t// in\n    tag_263:\n        /* \"#utility.yul\":10365:10367   */\n      0x40\n        /* \"#utility.yul\":10360:10363   */\n      dup3\n        /* \"#utility.yul\":10356:10368   */\n      add\n        /* \"#utility.yul\":10349:10368   */\n      swap1\n      pop\n        /* \"#utility.yul\":10008:10374   */\n      swap2\n      swap1\n      pop\n      jump\t// out\n        /* \"#utility.yul\":10380:10799   */\n    tag_66:\n        /* \"#utility.yul\":10546:10550   */\n      0x00\n        /* \"#utility.yul\":10584:10586   */\n      0x20\n        /* \"#utility.yul\":10573:10582   */\n      dup3\n        /* \"#utility.yul\":10569:10587   */\n      add\n        /* \"#utility.yul\":10561:10587   */\n      swap1\n      pop\n        /* \"#utility.yul\":10633:10642   */\n      dup2\n        /* \"#utility.yul\":10627:10631   */\n      dup2\n        /* \"#utility.yul\":10623:10643   */\n      sub\n        /* \"#utility.yul\":10619:10620   */\n      0x00\n        /* \"#utility.yul\":10608:10617   */\n      dup4\n        /* \"#utility.yul\":10604:10621   */\n      add\n        /* \"#utility.yul\":10597:10644   */\n      mstore\n        /* \"#utility.yul\":10661:10792   */\n      tag_265\n        /* \"#utility.yul\":10787:10791   */\n      dup2\n        /* \"#utility.yul\":10661:10792   */\n      tag_151\n      jump\t// in\n    tag_265:\n        /* \"#utility.yul\":10653:10792   */\n      swap1\n      pop\n        /* \"#utility.yul\":10380:10799   */\n      swap2\n      swap1\n      pop\n      jump\t// out\n        /* \"#utility.yul\":10805:10986   */\n    tag_152:\n        /* \"#utility.yul\":10945:10978   */\n      0x45524337323141756374696f6e3a2061756374696f6e206e6f74206f76657200\n        /* \"#utility.yul\":10941:10942   */\n      0x00\n        /* \"#utility.yul\":10933:10939   */\n      dup3\n        /* \"#utility.yul\":10929:10943   */\n      add\n        /* \"#utility.yul\":10922:10979   */\n      mstore\n        /* \"#utility.yul\":10805:10986   */\n      pop\n      jump\t// out\n        /* \"#utility.yul\":10992:11358   */\n    tag_153:\n        /* \"#utility.yul\":11134:11137   */\n      0x00\n        /* \"#utility.yul\":11155:11222   */\n      tag_268\n        /* \"#utility.yul\":11219:11221   */\n      0x1f\n        /* \"#utility.yul\":11214:11217   */\n      dup4\n        /* \"#utility.yul\":11155:11222   */\n      tag_139\n      jump\t// in\n    tag_268:\n        /* \"#utility.yul\":11148:11222   */\n      swap2\n      pop\n        /* \"#utility.yul\":11231:11324   */\n      tag_269\n        /* \"#utility.yul\":11320:11323   */\n      dup3\n        /* \"#utility.yul\":11231:11324   */\n      tag_152\n      jump\t// in\n    tag_269:\n        /* \"#utility.yul\":11349:11351   */\n      0x20\n        /* \"#utility.yul\":11344:11347   */\n      dup3\n        /* \"#utility.yul\":11340:11352   */\n      add\n        /* \"#utility.yul\":11333:11352   */\n      swap1\n      pop\n        /* \"#utility.yul\":10992:11358   */\n      swap2\n      swap1\n      pop\n      jump\t// out\n        /* \"#utility.yul\":11364:11783   */\n    tag_73:\n        /* \"#utility.yul\":11530:11534   */\n      0x00\n        /* \"#utility.yul\":11568:11570   */\n      0x20\n        /* \"#utility.yul\":11557:11566   */\n      dup3\n        /* \"#utility.yul\":11553:11571   */\n      add\n        /* \"#utility.yul\":11545:11571   */\n      swap1\n      pop\n        /* \"#utility.yul\":11617:11626   */\n      dup2\n        /* \"#utility.yul\":11611:11615   */\n      dup2\n        /* \"#utility.yul\":11607:11627   */\n      sub\n        /* \"#utility.yul\":11603:11604   */\n      0x00\n        /* \"#utility.yul\":11592:11601   */\n      dup4\n        /* \"#utility.yul\":11588:11605   */\n      add\n        /* \"#utility.yul\":11581:11628   */\n      mstore\n        /* \"#utility.yul\":11645:11776   */\n      tag_271\n        /* \"#utility.yul\":11771:11775   */\n      dup2\n        /* \"#utility.yul\":11645:11776   */\n      tag_153\n      jump\t// in\n    tag_271:\n        /* \"#utility.yul\":11637:11776   */\n      swap1\n      pop\n        /* \"#utility.yul\":11364:11783   */\n      swap2\n      swap1\n      pop\n      jump\t// out\n        /* \"#utility.yul\":11789:12010   */\n    tag_154:\n        /* \"#utility.yul\":11929:11963   */\n      0x45524337323141756374696f6e3a20796f7520617265206e6f7420616c6c6f77\n        /* \"#utility.yul\":11925:11926   */\n      0x00\n        /* \"#utility.yul\":11917:11923   */\n      dup3\n        /* \"#utility.yul\":11913:11927   */\n      add\n        /* \"#utility.yul\":11906:11964   */\n      mstore\n        /* \"#utility.yul\":11998:12002   */\n      0x6564000000000000000000000000000000000000000000000000000000000000\n        /* \"#utility.yul\":11993:11995   */\n      0x20\n        /* \"#utility.yul\":11985:11991   */\n      dup3\n        /* \"#utility.yul\":11981:11996   */\n      add\n        /* \"#utility.yul\":11974:12003   */\n      mstore\n        /* \"#utility.yul\":11789:12010   */\n      pop\n      jump\t// out\n        /* \"#utility.yul\":12016:12382   */\n    tag_155:\n        /* \"#utility.yul\":12158:12161   */\n      0x00\n        /* \"#utility.yul\":12179:12246   */\n      tag_274\n        /* \"#utility.yul\":12243:12245   */\n      0x22\n        /* \"#utility.yul\":12238:12241   */\n      dup4\n        /* \"#utility.yul\":12179:12246   */\n      tag_139\n      jump\t// in\n    tag_274:\n        /* \"#utility.yul\":12172:12246   */\n      swap2\n      pop\n        /* \"#utility.yul\":12255:12348   */\n      tag_275\n        /* \"#utility.yul\":12344:12347   */\n      dup3\n        /* \"#utility.yul\":12255:12348   */\n      tag_154\n      jump\t// in\n    tag_275:\n        /* \"#utility.yul\":12373:12375   */\n      0x40\n        /* \"#utility.yul\":12368:12371   */\n      dup3\n        /* \"#utility.yul\":12364:12376   */\n      add\n        /* \"#utility.yul\":12357:12376   */\n      swap1\n      pop\n        /* \"#utility.yul\":12016:12382   */\n      swap2\n      swap1\n      pop\n      jump\t// out\n        /* \"#utility.yul\":12388:12807   */\n    tag_77:\n        /* \"#utility.yul\":12554:12558   */\n      0x00\n        /* \"#utility.yul\":12592:12594   */\n      0x20\n        /* \"#utility.yul\":12581:12590   */\n      dup3\n        /* \"#utility.yul\":12577:12595   */\n      add\n        /* \"#utility.yul\":12569:12595   */\n      swap1\n      pop\n        /* \"#utility.yul\":12641:12650   */\n      dup2\n        /* \"#utility.yul\":12635:12639   */\n      dup2\n        /* \"#utility.yul\":12631:12651   */\n      sub\n        /* \"#utility.yul\":12627:12628   */\n      0x00\n        /* \"#utility.yul\":12616:12625   */\n      dup4\n        /* \"#utility.yul\":12612:12629   */\n      add\n        /* \"#utility.yul\":12605:12652   */\n      mstore\n        /* \"#utility.yul\":12669:12800   */\n      tag_277\n        /* \"#utility.yul\":12795:12799   */\n      dup2\n        /* \"#utility.yul\":12669:12800   */\n      tag_155\n      jump\t// in\n    tag_277:\n        /* \"#utility.yul\":12661:12800   */\n      swap1\n      pop\n        /* \"#utility.yul\":12388:12807   */\n      swap2\n      swap1\n      pop\n      jump\t// out\n        /* \"#utility.yul\":12813:13255   */\n    tag_83:\n        /* \"#utility.yul\":12962:12966   */\n      0x00\n        /* \"#utility.yul\":13000:13002   */\n      0x60\n        /* \"#utility.yul\":12989:12998   */\n      dup3\n        /* \"#utility.yul\":12985:13003   */\n      add\n        /* \"#utility.yul\":12977:13003   */\n      swap1\n      pop\n        /* \"#utility.yul\":13013:13084   */\n      tag_279\n        /* \"#utility.yul\":13081:13082   */\n      0x00\n        /* \"#utility.yul\":13070:13079   */\n      dup4\n        /* \"#utility.yul\":13066:13083   */\n      add\n        /* \"#utility.yul\":13057:13063   */\n      dup7\n        /* \"#utility.yul\":13013:13084   */\n      tag_146\n      jump\t// in\n    tag_279:\n        /* \"#utility.yul\":13094:13166   */\n      tag_280\n        /* \"#utility.yul\":13162:13164   */\n      0x20\n        /* \"#utility.yul\":13151:13160   */\n      dup4\n        /* \"#utility.yul\":13147:13165   */\n      add\n        /* \"#utility.yul\":13138:13144   */\n      dup6\n        /* \"#utility.yul\":13094:13166   */\n      tag_146\n      jump\t// in\n    tag_280:\n        /* \"#utility.yul\":13176:13248   */\n      tag_281\n        /* \"#utility.yul\":13244:13246   */\n      0x40\n        /* \"#utility.yul\":13233:13242   */\n      dup4\n        /* \"#utility.yul\":13229:13247   */\n      add\n        /* \"#utility.yul\":13220:13226   */\n      dup5\n        /* \"#utility.yul\":13176:13248   */\n      tag_137\n      jump\t// in\n    tag_281:\n        /* \"#utility.yul\":12813:13255   */\n      swap5\n      swap4\n      pop\n      pop\n      pop\n      pop\n      jump\t// out\n        /* \"#utility.yul\":13261:13703   */\n    tag_90:\n        /* \"#utility.yul\":13410:13414   */\n      0x00\n        /* \"#utility.yul\":13448:13450   */\n      0x60\n        /* \"#utility.yul\":13437:13446   */\n      dup3\n        /* \"#utility.yul\":13433:13451   */\n      add\n        /* \"#utility.yul\":13425:13451   */\n      swap1\n      pop\n        /* \"#utility.yul\":13461:13532   */\n      tag_283\n        /* \"#utility.yul\":13529:13530   */\n      0x00\n        /* \"#utility.yul\":13518:13527   */\n      dup4\n        /* \"#utility.yul\":13514:13531   */\n      add\n        /* \"#utility.yul\":13505:13511   */\n      dup7\n        /* \"#utility.yul\":13461:13532   */\n      tag_146\n      jump\t// in\n    tag_283:\n        /* \"#utility.yul\":13542:13614   */\n      tag_284\n        /* \"#utility.yul\":13610:13612   */\n      0x20\n        /* \"#utility.yul\":13599:13608   */\n      dup4\n        /* \"#utility.yul\":13595:13613   */\n      add\n        /* \"#utility.yul\":13586:13592   */\n      dup6\n        /* \"#utility.yul\":13542:13614   */\n      tag_137\n      jump\t// in\n    tag_284:\n        /* \"#utility.yul\":13624:13696   */\n      tag_285\n        /* \"#utility.yul\":13692:13694   */\n      0x40\n        /* \"#utility.yul\":13681:13690   */\n      dup4\n        /* \"#utility.yul\":13677:13695   */\n      add\n        /* \"#utility.yul\":13668:13674   */\n      dup5\n        /* \"#utility.yul\":13624:13696   */\n      tag_137\n      jump\t// in\n    tag_285:\n        /* \"#utility.yul\":13261:13703   */\n      swap5\n      swap4\n      pop\n      pop\n      pop\n      pop\n      jump\t// out\n        /* \"#utility.yul\":13709:13929   */\n    tag_156:\n        /* \"#utility.yul\":13849:13883   */\n      0x45524337323141756374696f6e3a206e6674206e6f74206f6e2061756374696f\n        /* \"#utility.yul\":13845:13846   */\n      0x00\n        /* \"#utility.yul\":13837:13843   */\n      dup3\n        /* \"#utility.yul\":13833:13847   */\n      add\n        /* \"#utility.yul\":13826:13884   */\n      mstore\n        /* \"#utility.yul\":13918:13921   */\n      0x6e00000000000000000000000000000000000000000000000000000000000000\n        /* \"#utility.yul\":13913:13915   */\n      0x20\n        /* \"#utility.yul\":13905:13911   */\n      dup3\n        /* \"#utility.yul\":13901:13916   */\n      add\n        /* \"#utility.yul\":13894:13922   */\n      mstore\n        /* \"#utility.yul\":13709:13929   */\n      pop\n      jump\t// out\n        /* \"#utility.yul\":13935:14301   */\n    tag_157:\n        /* \"#utility.yul\":14077:14080   */\n      0x00\n        /* \"#utility.yul\":14098:14165   */\n      tag_288\n        /* \"#utility.yul\":14162:14164   */\n      0x21\n        /* \"#utility.yul\":14157:14160   */\n      dup4\n        /* \"#utility.yul\":14098:14165   */\n      tag_139\n      jump\t// in\n    tag_288:\n        /* \"#utility.yul\":14091:14165   */\n      swap2\n      pop\n        /* \"#utility.yul\":14174:14267   */\n      tag_289\n        /* \"#utility.yul\":14263:14266   */\n      dup3\n        /* \"#utility.yul\":14174:14267   */\n      tag_156\n      jump\t// in\n    tag_289:\n        /* \"#utility.yul\":14292:14294   */\n      0x40\n        /* \"#utility.yul\":14287:14290   */\n      dup3\n        /* \"#utility.yul\":14283:14295   */\n      add\n        /* \"#utility.yul\":14276:14295   */\n      swap1\n      pop\n        /* \"#utility.yul\":13935:14301   */\n      swap2\n      swap1\n      pop\n      jump\t// out\n        /* \"#utility.yul\":14307:14726   */\n    tag_100:\n        /* \"#utility.yul\":14473:14477   */\n      0x00\n        /* \"#utility.yul\":14511:14513   */\n      0x20\n        /* \"#utility.yul\":14500:14509   */\n      dup3\n        /* \"#utility.yul\":14496:14514   */\n      add\n        /* \"#utility.yul\":14488:14514   */\n      swap1\n      pop\n        /* \"#utility.yul\":14560:14569   */\n      dup2\n        /* \"#utility.yul\":14554:14558   */\n      dup2\n        /* \"#utility.yul\":14550:14570   */\n      sub\n        /* \"#utility.yul\":14546:14547   */\n      0x00\n        /* \"#utility.yul\":14535:14544   */\n      dup4\n        /* \"#utility.yul\":14531:14548   */\n      add\n        /* \"#utility.yul\":14524:14571   */\n      mstore\n        /* \"#utility.yul\":14588:14719   */\n      tag_291\n        /* \"#utility.yul\":14714:14718   */\n      dup2\n        /* \"#utility.yul\":14588:14719   */\n      tag_157\n      jump\t// in\n    tag_291:\n        /* \"#utility.yul\":14580:14719   */\n      swap1\n      pop\n        /* \"#utility.yul\":14307:14726   */\n      swap2\n      swap1\n      pop\n      jump\t// out\n        /* \"#utility.yul\":14732:14912   */\n    tag_158:\n        /* \"#utility.yul\":14872:14904   */\n      0x45524337323141756374696f6e3a2061756374696f6e206973206f7665720000\n        /* \"#utility.yul\":14868:14869   */\n      0x00\n        /* \"#utility.yul\":14860:14866   */\n      dup3\n        /* \"#utility.yul\":14856:14870   */\n      add\n        /* \"#utility.yul\":14849:14905   */\n      mstore\n        /* \"#utility.yul\":14732:14912   */\n      pop\n      jump\t// out\n        /* \"#utility.yul\":14918:15284   */\n    tag_159:\n        /* \"#utility.yul\":15060:15063   */\n      0x00\n        /* \"#utility.yul\":15081:15148   */\n      tag_294\n        /* \"#utility.yul\":15145:15147   */\n      0x1e\n        /* \"#utility.yul\":15140:15143   */\n      dup4\n        /* \"#utility.yul\":15081:15148   */\n      tag_139\n      jump\t// in\n    tag_294:\n        /* \"#utility.yul\":15074:15148   */\n      swap2\n      pop\n        /* \"#utility.yul\":15157:15250   */\n      tag_295\n        /* \"#utility.yul\":15246:15249   */\n      dup3\n        /* \"#utility.yul\":15157:15250   */\n      tag_158\n      jump\t// in\n    tag_295:\n        /* \"#utility.yul\":15275:15277   */\n      0x20\n        /* \"#utility.yul\":15270:15273   */\n      dup3\n        /* \"#utility.yul\":15266:15278   */\n      add\n        /* \"#utility.yul\":15259:15278   */\n      swap1\n      pop\n        /* \"#utility.yul\":14918:15284   */\n      swap2\n      swap1\n      pop\n      jump\t// out\n        /* \"#utility.yul\":15290:15709   */\n    tag_103:\n        /* \"#utility.yul\":15456:15460   */\n      0x00\n        /* \"#utility.yul\":15494:15496   */\n      0x20\n        /* \"#utility.yul\":15483:15492   */\n      dup3\n        /* \"#utility.yul\":15479:15497   */\n      add\n        /* \"#utility.yul\":15471:15497   */\n      swap1\n      pop\n        /* \"#utility.yul\":15543:15552   */\n      dup2\n        /* \"#utility.yul\":15537:15541   */\n      dup2\n        /* \"#utility.yul\":15533:15553   */\n      sub\n        /* \"#utility.yul\":15529:15530   */\n      0x00\n        /* \"#utility.yul\":15518:15527   */\n      dup4\n        /* \"#utility.yul\":15514:15531   */\n      add\n        /* \"#utility.yul\":15507:15554   */\n      mstore\n        /* \"#utility.yul\":15571:15702   */\n      tag_297\n        /* \"#utility.yul\":15697:15701   */\n      dup2\n        /* \"#utility.yul\":15571:15702   */\n      tag_159\n      jump\t// in\n    tag_297:\n        /* \"#utility.yul\":15563:15702   */\n      swap1\n      pop\n        /* \"#utility.yul\":15290:15709   */\n      swap2\n      swap1\n      pop\n      jump\t// out\n        /* \"#utility.yul\":15715:15936   */\n    tag_160:\n        /* \"#utility.yul\":15855:15889   */\n      0x45524337323141756374696f6e3a2061756374696f6e206e6f74207374617274\n        /* \"#utility.yul\":15851:15852   */\n      0x00\n        /* \"#utility.yul\":15843:15849   */\n      dup3\n        /* \"#utility.yul\":15839:15853   */\n      add\n        /* \"#utility.yul\":15832:15890   */\n      mstore\n        /* \"#utility.yul\":15924:15928   */\n      0x6564000000000000000000000000000000000000000000000000000000000000\n        /* \"#utility.yul\":15919:15921   */\n      0x20\n        /* \"#utility.yul\":15911:15917   */\n      dup3\n        /* \"#utility.yul\":15907:15922   */\n      add\n        /* \"#utility.yul\":15900:15929   */\n      mstore\n        /* \"#utility.yul\":15715:15936   */\n      pop\n      jump\t// out\n        /* \"#utility.yul\":15942:16308   */\n    tag_161:\n        /* \"#utility.yul\":16084:16087   */\n      0x00\n        /* \"#utility.yul\":16105:16172   */\n      tag_300\n        /* \"#utility.yul\":16169:16171   */\n      0x22\n        /* \"#utility.yul\":16164:16167   */\n      dup4\n        /* \"#utility.yul\":16105:16172   */\n      tag_139\n      jump\t// in\n    tag_300:\n        /* \"#utility.yul\":16098:16172   */\n      swap2\n      pop\n        /* \"#utility.yul\":16181:16274   */\n      tag_301\n        /* \"#utility.yul\":16270:16273   */\n      dup3\n        /* \"#utility.yul\":16181:16274   */\n      tag_160\n      jump\t// in\n    tag_301:\n        /* \"#utility.yul\":16299:16301   */\n      0x40\n        /* \"#utility.yul\":16294:16297   */\n      dup3\n        /* \"#utility.yul\":16290:16302   */\n      add\n        /* \"#utility.yul\":16283:16302   */\n      swap1\n      pop\n        /* \"#utility.yul\":15942:16308   */\n      swap2\n      swap1\n      pop\n      jump\t// out\n        /* \"#utility.yul\":16314:16733   */\n    tag_109:\n        /* \"#utility.yul\":16480:16484   */\n      0x00\n        /* \"#utility.yul\":16518:16520   */\n      0x20\n        /* \"#utility.yul\":16507:16516   */\n      dup3\n        /* \"#utility.yul\":16503:16521   */\n      add\n        /* \"#utility.yul\":16495:16521   */\n      swap1\n      pop\n        /* \"#utility.yul\":16567:16576   */\n      dup2\n        /* \"#utility.yul\":16561:16565   */\n      dup2\n        /* \"#utility.yul\":16557:16577   */\n      sub\n        /* \"#utility.yul\":16553:16554   */\n      0x00\n        /* \"#utility.yul\":16542:16551   */\n      dup4\n        /* \"#utility.yul\":16538:16555   */\n      add\n        /* \"#utility.yul\":16531:16578   */\n      mstore\n        /* \"#utility.yul\":16595:16726   */\n      tag_303\n        /* \"#utility.yul\":16721:16725   */\n      dup2\n        /* \"#utility.yul\":16595:16726   */\n      tag_161\n      jump\t// in\n    tag_303:\n        /* \"#utility.yul\":16587:16726   */\n      swap1\n      pop\n        /* \"#utility.yul\":16314:16733   */\n      swap2\n      swap1\n      pop\n      jump\t// out\n        /* \"#utility.yul\":16739:16960   */\n    tag_162:\n        /* \"#utility.yul\":16879:16913   */\n      0x45524337323141756374696f6e3a20656e74657220636f727265637420657468\n        /* \"#utility.yul\":16875:16876   */\n      0x00\n        /* \"#utility.yul\":16867:16873   */\n      dup3\n        /* \"#utility.yul\":16863:16877   */\n      add\n        /* \"#utility.yul\":16856:16914   */\n      mstore\n        /* \"#utility.yul\":16948:16952   */\n      0x6572000000000000000000000000000000000000000000000000000000000000\n        /* \"#utility.yul\":16943:16945   */\n      0x20\n        /* \"#utility.yul\":16935:16941   */\n      dup3\n        /* \"#utility.yul\":16931:16946   */\n      add\n        /* \"#utility.yul\":16924:16953   */\n      mstore\n        /* \"#utility.yul\":16739:16960   */\n      pop\n      jump\t// out\n        /* \"#utility.yul\":16966:17332   */\n    tag_163:\n        /* \"#utility.yul\":17108:17111   */\n      0x00\n        /* \"#utility.yul\":17129:17196   */\n      tag_306\n        /* \"#utility.yul\":17193:17195   */\n      0x22\n        /* \"#utility.yul\":17188:17191   */\n      dup4\n        /* \"#utility.yul\":17129:17196   */\n      tag_139\n      jump\t// in\n    tag_306:\n        /* \"#utility.yul\":17122:17196   */\n      swap2\n      pop\n        /* \"#utility.yul\":17205:17298   */\n      tag_307\n        /* \"#utility.yul\":17294:17297   */\n      dup3\n        /* \"#utility.yul\":17205:17298   */\n      tag_162\n      jump\t// in\n    tag_307:\n        /* \"#utility.yul\":17323:17325   */\n      0x40\n        /* \"#utility.yul\":17318:17321   */\n      dup3\n        /* \"#utility.yul\":17314:17326   */\n      add\n        /* \"#utility.yul\":17307:17326   */\n      swap1\n      pop\n        /* \"#utility.yul\":16966:17332   */\n      swap2\n      swap1\n      pop\n      jump\t// out\n        /* \"#utility.yul\":17338:17757   */\n    tag_114:\n        /* \"#utility.yul\":17504:17508   */\n      0x00\n        /* \"#utility.yul\":17542:17544   */\n      0x20\n        /* \"#utility.yul\":17531:17540   */\n      dup3\n        /* \"#utility.yul\":17527:17545   */\n      add\n        /* \"#utility.yul\":17519:17545   */\n      swap1\n      pop\n        /* \"#utility.yul\":17591:17600   */\n      dup2\n        /* \"#utility.yul\":17585:17589   */\n      dup2\n        /* \"#utility.yul\":17581:17601   */\n      sub\n        /* \"#utility.yul\":17577:17578   */\n      0x00\n        /* \"#utility.yul\":17566:17575   */\n      dup4\n        /* \"#utility.yul\":17562:17579   */\n      add\n        /* \"#utility.yul\":17555:17602   */\n      mstore\n        /* \"#utility.yul\":17619:17750   */\n      tag_309\n        /* \"#utility.yul\":17745:17749   */\n      dup2\n        /* \"#utility.yul\":17619:17750   */\n      tag_163\n      jump\t// in\n    tag_309:\n        /* \"#utility.yul\":17611:17750   */\n      swap1\n      pop\n        /* \"#utility.yul\":17338:17757   */\n      swap2\n      swap1\n      pop\n      jump\t// out\n        /* \"#utility.yul\":17763:17983   */\n    tag_164:\n        /* \"#utility.yul\":17903:17937   */\n      0x45524337323141756374696f6e3a6269642077697468206d6f72652065746865\n        /* \"#utility.yul\":17899:17900   */\n      0x00\n        /* \"#utility.yul\":17891:17897   */\n      dup3\n        /* \"#utility.yul\":17887:17901   */\n      add\n        /* \"#utility.yul\":17880:17938   */\n      mstore\n        /* \"#utility.yul\":17972:17975   */\n      0x7200000000000000000000000000000000000000000000000000000000000000\n        /* \"#utility.yul\":17967:17969   */\n      0x20\n        /* \"#utility.yul\":17959:17965   */\n      dup3\n        /* \"#utility.yul\":17955:17970   */\n      add\n        /* \"#utility.yul\":17948:17976   */\n      mstore\n        /* \"#utility.yul\":17763:17983   */\n      pop\n      jump\t// out\n        /* \"#utility.yul\":17989:18355   */\n    tag_165:\n        /* \"#utility.yul\":18131:18134   */\n      0x00\n        /* \"#utility.yul\":18152:18219   */\n      tag_312\n        /* \"#utility.yul\":18216:18218   */\n      0x21\n        /* \"#utility.yul\":18211:18214   */\n      dup4\n        /* \"#utility.yul\":18152:18219   */\n      tag_139\n      jump\t// in\n    tag_312:\n        /* \"#utility.yul\":18145:18219   */\n      swap2\n      pop\n        /* \"#utility.yul\":18228:18321   */\n      tag_313\n        /* \"#utility.yul\":18317:18320   */\n      dup3\n        /* \"#utility.yul\":18228:18321   */\n      tag_164\n      jump\t// in\n    tag_313:\n        /* \"#utility.yul\":18346:18348   */\n      0x40\n        /* \"#utility.yul\":18341:18344   */\n      dup3\n        /* \"#utility.yul\":18337:18349   */\n      add\n        /* \"#utility.yul\":18330:18349   */\n      swap1\n      pop\n        /* \"#utility.yul\":17989:18355   */\n      swap2\n      swap1\n      pop\n      jump\t// out\n        /* \"#utility.yul\":18361:18780   */\n    tag_117:\n        /* \"#utility.yul\":18527:18531   */\n      0x00\n        /* \"#utility.yul\":18565:18567   */\n      0x20\n        /* \"#utility.yul\":18554:18563   */\n      dup3\n        /* \"#utility.yul\":18550:18568   */\n      add\n        /* \"#utility.yul\":18542:18568   */\n      swap1\n      pop\n        /* \"#utility.yul\":18614:18623   */\n      dup2\n        /* \"#utility.yul\":18608:18612   */\n      dup2\n        /* \"#utility.yul\":18604:18624   */\n      sub\n        /* \"#utility.yul\":18600:18601   */\n      0x00\n        /* \"#utility.yul\":18589:18598   */\n      dup4\n        /* \"#utility.yul\":18585:18602   */\n      add\n        /* \"#utility.yul\":18578:18625   */\n      mstore\n        /* \"#utility.yul\":18642:18773   */\n      tag_315\n        /* \"#utility.yul\":18768:18772   */\n      dup2\n        /* \"#utility.yul\":18642:18773   */\n      tag_165\n      jump\t// in\n    tag_315:\n        /* \"#utility.yul\":18634:18773   */\n      swap1\n      pop\n        /* \"#utility.yul\":18361:18780   */\n      swap2\n      swap1\n      pop\n      jump\t// out\n\n    auxdata: 0xa2646970667358221220cbeb44fece6bb2f9cdff5a0404cfea4e57a2f1e590d657b304b499726970707164736f6c63430008120033\n}\n",
				"bytecode": {
					"linkReferences": {},
					"object": "60806040523480156200001157600080fd5b5060405162001c1838038062001c188339818101604052810190620000379190620000fc565b806000806101000a81548173ffffffffffffffffffffffffffffffffffffffff021916908373ffffffffffffffffffffffffffffffffffffffff160217905550506200012e565b600080fd5b600073ffffffffffffffffffffffffffffffffffffffff82169050919050565b6000620000b08262000083565b9050919050565b6000620000c482620000a3565b9050919050565b620000d681620000b7565b8114620000e257600080fd5b50565b600081519050620000f681620000cb565b92915050565b6000602082840312156200011557620001146200007e565b5b60006200012584828501620000e5565b91505092915050565b611ada806200013e6000396000f3fe60806040526004361061004a5760003560e01c80631e3557031461004f57806337eb130c146100785780635ec0e964146100b55780639703ef35146100de578063cc889b0b14610107575b600080fd5b34801561005b57600080fd5b506100766004803603810190610071919061123c565b610123565b005b34801561008457600080fd5b5061009f600480360381019061009a91906112b7565b610661565b6040516100ac9190611379565b60405180910390f35b3480156100c157600080fd5b506100dc60048036038101906100d791906112b7565b61074c565b005b3480156100ea57600080fd5b50610105600480360381019061010091906112b7565b610ba8565b005b610121600480360381019061011c91906112b7565b610e6d565b005b60008054906101000a900473ffffffffffffffffffffffffffffffffffffffff1673ffffffffffffffffffffffffffffffffffffffff16636352211e846040518263ffffffff1660e01b815260040161017c91906113a3565b602060405180830381865afa158015610199573d6000803e3d6000fd5b505050506040513d601f19601f820116820180604052508101906101bd91906113d3565b73ffffffffffffffffffffffffffffffffffffffff163373ffffffffffffffffffffffffffffffffffffffff161461022a576040517f08c379a00000000000000000000000000000000000000000000000000000000081526004016102219061145d565b60405180910390fd5b6000846fffffffffffffffffffffffffffffffff160361027f576040517f08c379a0000000000000000000000000000000000000000000000000000000008152600401610276906114c9565b60405180910390fd5b428211801561028d57504281115b6102cc576040517f08c379a00000000000000000000000000000000000000000000000000000000081526004016102c390611535565b60405180910390fd5b81811161030e576040517f08c379a000000000000000000000000000000000000000000000000000000000815260040161030590611535565b60405180910390fd5b3073ffffffffffffffffffffffffffffffffffffffff1660008054906101000a900473ffffffffffffffffffffffffffffffffffffffff1673ffffffffffffffffffffffffffffffffffffffff1663081812fc856040518263ffffffff1660e01b815260040161037e91906113a3565b602060405180830381865afa15801561039b573d6000803e3d6000fd5b505050506040513d601f19601f820116820180604052508101906103bf91906113d3565b73ffffffffffffffffffffffffffffffffffffffff161480610512575060008054906101000a900473ffffffffffffffffffffffffffffffffffffffff1673ffffffffffffffffffffffffffffffffffffffff1663e985e9c560008054906101000a900473ffffffffffffffffffffffffffffffffffffffff1673ffffffffffffffffffffffffffffffffffffffff16636352211e866040518263ffffffff1660e01b815260040161047191906113a3565b602060405180830381865afa15801561048e573d6000803e3d6000fd5b505050506040513d601f19601f820116820180604052508101906104b291906113d3565b306040518363ffffffff1660e01b81526004016104d0929190611564565b602060405180830381865afa1580156104ed573d6000803e3d6000fd5b505050506040513d601f19601f8201168201806040525081019061051191906115c5565b5b610551576040517f08c379a000000000000000000000000000000000000000000000000000000000815260040161054890611664565b60405180910390fd5b6040518060a001604052808673ffffffffffffffffffffffffffffffffffffffff168152602001856fffffffffffffffffffffffffffffffff168152602001848152602001838152602001828152506001600085815260200190815260200160002060008201518160000160006101000a81548173ffffffffffffffffffffffffffffffffffffffff021916908373ffffffffffffffffffffffffffffffffffffffff16021790555060208201518160010160006101000a8154816fffffffffffffffffffffffffffffffff02191690836fffffffffffffffffffffffffffffffff1602179055506040820151816002015560608201518160030155608082015181600401559050505050505050565b610669611104565b600160008381526020019081526020016000206040518060a00160405290816000820160009054906101000a900473ffffffffffffffffffffffffffffffffffffffff1673ffffffffffffffffffffffffffffffffffffffff1673ffffffffffffffffffffffffffffffffffffffff1681526020016001820160009054906101000a90046fffffffffffffffffffffffffffffffff166fffffffffffffffffffffffffffffffff166fffffffffffffffffffffffffffffffff16815260200160028201548152602001600382015481526020016004820154815250509050919050565b60016000828152602001908152602001600020600401544210156107a5576040517f08c379a000000000000000000000000000000000000000000000000000000000815260040161079c906116d0565b60405180910390fd5b6001600082815260200190815260200160002060000160009054906101000a900473ffffffffffffffffffffffffffffffffffffffff1673ffffffffffffffffffffffffffffffffffffffff163373ffffffffffffffffffffffffffffffffffffffff16148061087657503373ffffffffffffffffffffffffffffffffffffffff166002600083815260200190815260200160002060010160009054906101000a900473ffffffffffffffffffffffffffffffffffffffff1673ffffffffffffffffffffffffffffffffffffffff16145b6108b5576040517f08c379a00000000000000000000000000000000000000000000000000000000081526004016108ac90611762565b60405180910390fd5b60008054906101000a900473ffffffffffffffffffffffffffffffffffffffff1673ffffffffffffffffffffffffffffffffffffffff166323b872dd60008054906101000a900473ffffffffffffffffffffffffffffffffffffffff1673ffffffffffffffffffffffffffffffffffffffff16636352211e846040518263ffffffff1660e01b815260040161094a91906113a3565b602060405180830381865afa158015610967573d6000803e3d6000fd5b505050506040513d601f19601f8201168201806040525081019061098b91906113d3565b6002600085815260200190815260200160002060010160009054906101000a900473ffffffffffffffffffffffffffffffffffffffff16846040518463ffffffff1660e01b81526004016109e193929190611782565b600060405180830381600087803b1580156109fb57600080fd5b505af1158015610a0f573d6000803e3d6000fd5b505050506001600082815260200190815260200160002060000160009054906101000a900473ffffffffffffffffffffffffffffffffffffffff1673ffffffffffffffffffffffffffffffffffffffff166108fc60026000848152602001908152602001600020600001549081150290604051600060405180830381858888f19350505050158015610aa5573d6000803e3d6000fd5b507ff51b5f483ab2f8fa745c756d108c52ed55a190f6cbae8370297e75c047ffa5f16002600083815260200190815260200160002060010160009054906101000a900473ffffffffffffffffffffffffffffffffffffffff16826002600085815260200190815260200160002060000154604051610b25939291906117b9565b60405180910390a160016000828152602001908152602001600020600080820160006101000a81549073ffffffffffffffffffffffffffffffffffffffff02191690556001820160006101000a8154906fffffffffffffffffffffffffffffffff0219169055600282016000905560038201600090556004820160009055505050565b60008054906101000a900473ffffffffffffffffffffffffffffffffffffffff1673ffffffffffffffffffffffffffffffffffffffff16636352211e826040518263ffffffff1660e01b8152600401610c0191906113a3565b602060405180830381865afa158015610c1e573d6000803e3d6000fd5b505050506040513d601f19601f82011682018060405250810190610c4291906113d3565b73ffffffffffffffffffffffffffffffffffffffff163373ffffffffffffffffffffffffffffffffffffffff1614610caf576040517f08c379a0000000000000000000000000000000000000000000000000000000008152600401610ca69061145d565b60405180910390fd5b80600160008381526020019081526020016000206002015414610d07576040517f08c379a0000000000000000000000000000000000000000000000000000000008152600401610cfe90611862565b60405180910390fd5b42600160008381526020019081526020016000206004015411610d5f576040517f08c379a0000000000000000000000000000000000000000000000000000000008152600401610d56906118ce565b60405180910390fd5b6002600082815260200190815260200160002060010160009054906101000a900473ffffffffffffffffffffffffffffffffffffffff1673ffffffffffffffffffffffffffffffffffffffff166108fc60026000848152602001908152602001600020600001549081150290604051600060405180830381858888f19350505050158015610df1573d6000803e3d6000fd5b5060016000828152602001908152602001600020600080820160006101000a81549073ffffffffffffffffffffffffffffffffffffffff02191690556001820160006101000a8154906fffffffffffffffffffffffffffffffff0219169055600282016000905560038201600090556004820160009055505050565b4260016000838152602001908152602001600020600301541115610ec6576040517f08c379a0000000000000000000000000000000000000000000000000000000008152600401610ebd90611960565b60405180910390fd5b4260016000838152602001908152602001600020600401541015610f1f576040517f08c379a0000000000000000000000000000000000000000000000000000000008152600401610f16906118ce565b60405180910390fd5b346001600083815260200190815260200160002060010160009054906101000a90046fffffffffffffffffffffffffffffffff166fffffffffffffffffffffffffffffffff161115610fa6576040517f08c379a0000000000000000000000000000000000000000000000000000000008152600401610f9d906119f2565b60405180910390fd5b34600260008381526020019081526020016000206000015410610ffe576040517f08c379a0000000000000000000000000000000000000000000000000000000008152600401610ff590611a84565b60405180910390fd5b6002600082815260200190815260200160002060010160009054906101000a900473ffffffffffffffffffffffffffffffffffffffff1673ffffffffffffffffffffffffffffffffffffffff166108fc60026000848152602001908152602001600020600001549081150290604051600060405180830381858888f19350505050158015611090573d6000803e3d6000fd5b50346002600083815260200190815260200160002060000181905550336002600083815260200190815260200160002060010160006101000a81548173ffffffffffffffffffffffffffffffffffffffff021916908373ffffffffffffffffffffffffffffffffffffffff16021790555050565b6040518060a00160405280600073ffffffffffffffffffffffffffffffffffffffff16815260200160006fffffffffffffffffffffffffffffffff1681526020016000815260200160008152602001600081525090565b600080fd5b600073ffffffffffffffffffffffffffffffffffffffff82169050919050565b600061118b82611160565b9050919050565b61119b81611180565b81146111a657600080fd5b50565b6000813590506111b881611192565b92915050565b60006fffffffffffffffffffffffffffffffff82169050919050565b6111e3816111be565b81146111ee57600080fd5b50565b600081359050611200816111da565b92915050565b6000819050919050565b61121981611206565b811461122457600080fd5b50565b60008135905061123681611210565b92915050565b600080600080600060a086880312156112585761125761115b565b5b6000611266888289016111a9565b9550506020611277888289016111f1565b945050604061128888828901611227565b935050606061129988828901611227565b92505060806112aa88828901611227565b9150509295509295909350565b6000602082840312156112cd576112cc61115b565b5b60006112db84828501611227565b91505092915050565b6112ed81611180565b82525050565b6112fc816111be565b82525050565b61130b81611206565b82525050565b60a08201600082015161132760008501826112e4565b50602082015161133a60208501826112f3565b50604082015161134d6040850182611302565b5060608201516113606060850182611302565b5060808201516113736080850182611302565b50505050565b600060a08201905061138e6000830184611311565b92915050565b61139d81611206565b82525050565b60006020820190506113b86000830184611394565b92915050565b6000815190506113cd81611192565b92915050565b6000602082840312156113e9576113e861115b565b5b60006113f7848285016113be565b91505092915050565b600082825260208201905092915050565b7f45524337323141756374696f6e3a206e6f74206f776e6572206f66206e667400600082015250565b6000611447601f83611400565b915061145282611411565b602082019050919050565b600060208201905081810360008301526114768161143a565b9050919050565b7f45524337323141756374696f6e3a207072696365207a65726f00000000000000600082015250565b60006114b3601983611400565b91506114be8261147d565b602082019050919050565b600060208201905081810360008301526114e2816114a6565b9050919050565b7f45524337323141756374696f6e3a2077726f6e672074696d6520696e70757400600082015250565b600061151f601f83611400565b915061152a826114e9565b602082019050919050565b6000602082019050818103600083015261154e81611512565b9050919050565b61155e81611180565b82525050565b60006040820190506115796000830185611555565b6115866020830184611555565b9392505050565b60008115159050919050565b6115a28161158d565b81146115ad57600080fd5b50565b6000815190506115bf81611599565b92915050565b6000602082840312156115db576115da61115b565b5b60006115e9848285016115b0565b91505092915050565b7f45524337323141756374696f6e3a20636f6e7472616374206e6f74206170707260008201527f6f76656400000000000000000000000000000000000000000000000000000000602082015250565b600061164e602483611400565b9150611659826115f2565b604082019050919050565b6000602082019050818103600083015261167d81611641565b9050919050565b7f45524337323141756374696f6e3a2061756374696f6e206e6f74206f76657200600082015250565b60006116ba601f83611400565b91506116c582611684565b602082019050919050565b600060208201905081810360008301526116e9816116ad565b9050919050565b7f45524337323141756374696f6e3a20796f7520617265206e6f7420616c6c6f7760008201527f6564000000000000000000000000000000000000000000000000000000000000602082015250565b600061174c602283611400565b9150611757826116f0565b604082019050919050565b6000602082019050818103600083015261177b8161173f565b9050919050565b60006060820190506117976000830186611555565b6117a46020830185611555565b6117b16040830184611394565b949350505050565b60006060820190506117ce6000830186611555565b6117db6020830185611394565b6117e86040830184611394565b949350505050565b7f45524337323141756374696f6e3a206e6674206e6f74206f6e2061756374696f60008201527f6e00000000000000000000000000000000000000000000000000000000000000602082015250565b600061184c602183611400565b9150611857826117f0565b604082019050919050565b6000602082019050818103600083015261187b8161183f565b9050919050565b7f45524337323141756374696f6e3a2061756374696f6e206973206f7665720000600082015250565b60006118b8601e83611400565b91506118c382611882565b602082019050919050565b600060208201905081810360008301526118e7816118ab565b9050919050565b7f45524337323141756374696f6e3a2061756374696f6e206e6f7420737461727460008201527f6564000000000000000000000000000000000000000000000000000000000000602082015250565b600061194a602283611400565b9150611955826118ee565b604082019050919050565b600060208201905081810360008301526119798161193d565b9050919050565b7f45524337323141756374696f6e3a20656e74657220636f72726563742065746860008201527f6572000000000000000000000000000000000000000000000000000000000000602082015250565b60006119dc602283611400565b91506119e782611980565b604082019050919050565b60006020820190508181036000830152611a0b816119cf565b9050919050565b7f45524337323141756374696f6e3a6269642077697468206d6f7265206574686560008201527f7200000000000000000000000000000000000000000000000000000000000000602082015250565b6000611a6e602183611400565b9150611a7982611a12565b604082019050919050565b60006020820190508181036000830152611a9d81611a61565b905091905056fea2646970667358221220cbeb44fece6bb2f9cdff5a0404cfea4e57a2f1e590d657b304b499726970707164736f6c63430008120033",
					"opcodes": "PUSH1 0x80 PUSH1 0x40 MSTORE CALLVALUE DUP1 ISZERO PUSH3 0x11 JUMPI PUSH1 0x0 DUP1 REVERT JUMPDEST POP PUSH1 0x40 MLOAD PUSH3 0x1C18 CODESIZE SUB DUP1 PUSH3 0x1C18 DUP4 CODECOPY DUP2 DUP2 ADD PUSH1 0x40 MSTORE DUP2 ADD SWAP1 PUSH3 0x37 SWAP2 SWAP1 PUSH3 0xFC JUMP JUMPDEST DUP1 PUSH1 0x0 DUP1 PUSH2 0x100 EXP DUP2 SLOAD DUP2 PUSH20 0xFFFFFFFFFFFFFFFFFFFFFFFFFFFFFFFFFFFFFFFF MUL NOT AND SWAP1 DUP4 PUSH20 0xFFFFFFFFFFFFFFFFFFFFFFFFFFFFFFFFFFFFFFFF AND MUL OR SWAP1 SSTORE POP POP PUSH3 0x12E JUMP JUMPDEST PUSH1 0x0 DUP1 REVERT JUMPDEST PUSH1 0x0 PUSH20 0xFFFFFFFFFFFFFFFFFFFFFFFFFFFFFFFFFFFFFFFF DUP3 AND SWAP1 POP SWAP2 SWAP1 POP JUMP JUMPDEST PUSH1 0x0 PUSH3 0xB0 DUP3 PUSH3 0x83 JUMP JUMPDEST SWAP1 POP SWAP2 SWAP1 POP JUMP JUMPDEST PUSH1 0x0 PUSH3 0xC4 DUP3 PUSH3 0xA3 JUMP JUMPDEST SWAP1 POP SWAP2 SWAP1 POP JUMP JUMPDEST PUSH3 0xD6 DUP2 PUSH3 0xB7 JUMP JUMPDEST DUP2 EQ PUSH3 0xE2 JUMPI PUSH1 0x0 DUP1 REVERT JUMPDEST POP JUMP JUMPDEST PUSH1 0x0 DUP2 MLOAD SWAP1 POP PUSH3 0xF6 DUP2 PUSH3 0xCB JUMP JUMPDEST SWAP3 SWAP2 POP POP JUMP JUMPDEST PUSH1 0x0 PUSH1 0x20 DUP3 DUP5 SUB SLT ISZERO PUSH3 0x115 JUMPI PUSH3 0x114 PUSH3 0x7E JUMP JUMPDEST JUMPDEST PUSH1 0x0 PUSH3 0x125 DUP5 DUP3 DUP6 ADD PUSH3 0xE5 JUMP JUMPDEST SWAP2 POP POP SWAP3 SWAP2 POP POP JUMP JUMPDEST PUSH2 0x1ADA DUP1 PUSH3 0x13E PUSH1 0x0 CODECOPY PUSH1 0x0 RETURN INVALID PUSH1 0x80 PUSH1 0x40 MSTORE PUSH1 0x4 CALLDATASIZE LT PUSH2 0x4A JUMPI PUSH1 0x0 CALLDATALOAD PUSH1 0xE0 SHR DUP1 PUSH4 0x1E355703 EQ PUSH2 0x4F JUMPI DUP1 PUSH4 0x37EB130C EQ PUSH2 0x78 JUMPI DUP1 PUSH4 0x5EC0E964 EQ PUSH2 0xB5 JUMPI DUP1 PUSH4 0x9703EF35 EQ PUSH2 0xDE JUMPI DUP1 PUSH4 0xCC889B0B EQ PUSH2 0x107 JUMPI JUMPDEST PUSH1 0x0 DUP1 REVERT JUMPDEST CALLVALUE DUP1 ISZERO PUSH2 0x5B JUMPI PUSH1 0x0 DUP1 REVERT JUMPDEST POP PUSH2 0x76 PUSH1 0x4 DUP1 CALLDATASIZE SUB DUP2 ADD SWAP1 PUSH2 0x71 SWAP2 SWAP1 PUSH2 0x123C JUMP JUMPDEST PUSH2 0x123 JUMP JUMPDEST STOP JUMPDEST CALLVALUE DUP1 ISZERO PUSH2 0x84 JUMPI PUSH1 0x0 DUP1 REVERT JUMPDEST POP PUSH2 0x9F PUSH1 0x4 DUP1 CALLDATASIZE SUB DUP2 ADD SWAP1 PUSH2 0x9A SWAP2 SWAP1 PUSH2 0x12B7 JUMP JUMPDEST PUSH2 0x661 JUMP JUMPDEST PUSH1 0x40 MLOAD PUSH2 0xAC SWAP2 SWAP1 PUSH2 0x1379 JUMP JUMPDEST PUSH1 0x40 MLOAD DUP1 SWAP2 SUB SWAP1 RETURN JUMPDEST CALLVALUE DUP1 ISZERO PUSH2 0xC1 JUMPI PUSH1 0x0 DUP1 REVERT JUMPDEST POP PUSH2 0xDC PUSH1 0x4 DUP1 CALLDATASIZE SUB DUP2 ADD SWAP1 PUSH2 0xD7 SWAP2 SWAP1 PUSH2 0x12B7 JUMP JUMPDEST PUSH2 0x74C JUMP JUMPDEST STOP JUMPDEST CALLVALUE DUP1 ISZERO PUSH2 0xEA JUMPI PUSH1 0x0 DUP1 REVERT JUMPDEST POP PUSH2 0x105 PUSH1 0x4 DUP1 CALLDATASIZE SUB DUP2 ADD SWAP1 PUSH2 0x100 SWAP2 SWAP1 PUSH2 0x12B7 JUMP JUMPDEST PUSH2 0xBA8 JUMP JUMPDEST STOP JUMPDEST PUSH2 0x121 PUSH1 0x4 DUP1 CALLDATASIZE SUB DUP2 ADD SWAP1 PUSH2 0x11C SWAP2 SWAP1 PUSH2 0x12B7 JUMP JUMPDEST PUSH2 0xE6D JUMP JUMPDEST STOP JUMPDEST PUSH1 0x0 DUP1 SLOAD SWAP1 PUSH2 0x100 EXP SWAP1 DIV PUSH20 0xFFFFFFFFFFFFFFFFFFFFFFFFFFFFFFFFFFFFFFFF AND PUSH20 0xFFFFFFFFFFFFFFFFFFFFFFFFFFFFFFFFFFFFFFFF AND PUSH4 0x6352211E DUP5 PUSH1 0x40 MLOAD DUP3 PUSH4 0xFFFFFFFF AND PUSH1 0xE0 SHL DUP2 MSTORE PUSH1 0x4 ADD PUSH2 0x17C SWAP2 SWAP1 PUSH2 0x13A3 JUMP JUMPDEST PUSH1 0x20 PUSH1 0x40 MLOAD DUP1 DUP4 SUB DUP2 DUP7 GAS STATICCALL ISZERO DUP1 ISZERO PUSH2 0x199 JUMPI RETURNDATASIZE PUSH1 0x0 DUP1 RETURNDATACOPY RETURNDATASIZE PUSH1 0x0 REVERT JUMPDEST POP POP POP POP PUSH1 0x40 MLOAD RETURNDATASIZE PUSH1 0x1F NOT PUSH1 0x1F DUP3 ADD AND DUP3 ADD DUP1 PUSH1 0x40 MSTORE POP DUP2 ADD SWAP1 PUSH2 0x1BD SWAP2 SWAP1 PUSH2 0x13D3 JUMP JUMPDEST PUSH20 0xFFFFFFFFFFFFFFFFFFFFFFFFFFFFFFFFFFFFFFFF AND CALLER PUSH20 0xFFFFFFFFFFFFFFFFFFFFFFFFFFFFFFFFFFFFFFFF AND EQ PUSH2 0x22A JUMPI PUSH1 0x40 MLOAD PUSH32 0x8C379A000000000000000000000000000000000000000000000000000000000 DUP2 MSTORE PUSH1 0x4 ADD PUSH2 0x221 SWAP1 PUSH2 0x145D JUMP JUMPDEST PUSH1 0x40 MLOAD DUP1 SWAP2 SUB SWAP1 REVERT JUMPDEST PUSH1 0x0 DUP5 PUSH16 0xFFFFFFFFFFFFFFFFFFFFFFFFFFFFFFFF AND SUB PUSH2 0x27F JUMPI PUSH1 0x40 MLOAD PUSH32 0x8C379A000000000000000000000000000000000000000000000000000000000 DUP2 MSTORE PUSH1 0x4 ADD PUSH2 0x276 SWAP1 PUSH2 0x14C9 JUMP JUMPDEST PUSH1 0x40 MLOAD DUP1 SWAP2 SUB SWAP1 REVERT JUMPDEST TIMESTAMP DUP3 GT DUP1 ISZERO PUSH2 0x28D JUMPI POP TIMESTAMP DUP2 GT JUMPDEST PUSH2 0x2CC JUMPI PUSH1 0x40 MLOAD PUSH32 0x8C379A000000000000000000000000000000000000000000000000000000000 DUP2 MSTORE PUSH1 0x4 ADD PUSH2 0x2C3 SWAP1 PUSH2 0x1535 JUMP JUMPDEST PUSH1 0x40 MLOAD DUP1 SWAP2 SUB SWAP1 REVERT JUMPDEST DUP2 DUP2 GT PUSH2 0x30E JUMPI PUSH1 0x40 MLOAD PUSH32 0x8C379A000000000000000000000000000000000000000000000000000000000 DUP2 MSTORE PUSH1 0x4 ADD PUSH2 0x305 SWAP1 PUSH2 0x1535 JUMP JUMPDEST PUSH1 0x40 MLOAD DUP1 SWAP2 SUB SWAP1 REVERT JUMPDEST ADDRESS PUSH20 0xFFFFFFFFFFFFFFFFFFFFFFFFFFFFFFFFFFFFFFFF AND PUSH1 0x0 DUP1 SLOAD SWAP1 PUSH2 0x100 EXP SWAP1 DIV PUSH20 0xFFFFFFFFFFFFFFFFFFFFFFFFFFFFFFFFFFFFFFFF AND PUSH20 0xFFFFFFFFFFFFFFFFFFFFFFFFFFFFFFFFFFFFFFFF AND PUSH4 0x81812FC DUP6 PUSH1 0x40 MLOAD DUP3 PUSH4 0xFFFFFFFF AND PUSH1 0xE0 SHL DUP2 MSTORE PUSH1 0x4 ADD PUSH2 0x37E SWAP2 SWAP1 PUSH2 0x13A3 JUMP JUMPDEST PUSH1 0x20 PUSH1 0x40 MLOAD DUP1 DUP4 SUB DUP2 DUP7 GAS STATICCALL ISZERO DUP1 ISZERO PUSH2 0x39B JUMPI RETURNDATASIZE PUSH1 0x0 DUP1 RETURNDATACOPY RETURNDATASIZE PUSH1 0x0 REVERT JUMPDEST POP POP POP POP PUSH1 0x40 MLOAD RETURNDATASIZE PUSH1 0x1F NOT PUSH1 0x1F DUP3 ADD AND DUP3 ADD DUP1 PUSH1 0x40 MSTORE POP DUP2 ADD SWAP1 PUSH2 0x3BF SWAP2 SWAP1 PUSH2 0x13D3 JUMP JUMPDEST PUSH20 0xFFFFFFFFFFFFFFFFFFFFFFFFFFFFFFFFFFFFFFFF AND EQ DUP1 PUSH2 0x512 JUMPI POP PUSH1 0x0 DUP1 SLOAD SWAP1 PUSH2 0x100 EXP SWAP1 DIV PUSH20 0xFFFFFFFFFFFFFFFFFFFFFFFFFFFFFFFFFFFFFFFF AND PUSH20 0xFFFFFFFFFFFFFFFFFFFFFFFFFFFFFFFFFFFFFFFF AND PUSH4 0xE985E9C5 PUSH1 0x0 DUP1 SLOAD SWAP1 PUSH2 0x100 EXP SWAP1 DIV PUSH20 0xFFFFFFFFFFFFFFFFFFFFFFFFFFFFFFFFFFFFFFFF AND PUSH20 0xFFFFFFFFFFFFFFFFFFFFFFFFFFFFFFFFFFFFFFFF AND PUSH4 0x6352211E DUP7 PUSH1 0x40 MLOAD DUP3 PUSH4 0xFFFFFFFF AND PUSH1 0xE0 SHL DUP2 MSTORE PUSH1 0x4 ADD PUSH2 0x471 SWAP2 SWAP1 PUSH2 0x13A3 JUMP JUMPDEST PUSH1 0x20 PUSH1 0x40 MLOAD DUP1 DUP4 SUB DUP2 DUP7 GAS STATICCALL ISZERO DUP1 ISZERO PUSH2 0x48E JUMPI RETURNDATASIZE PUSH1 0x0 DUP1 RETURNDATACOPY RETURNDATASIZE PUSH1 0x0 REVERT JUMPDEST POP POP POP POP PUSH1 0x40 MLOAD RETURNDATASIZE PUSH1 0x1F NOT PUSH1 0x1F DUP3 ADD AND DUP3 ADD DUP1 PUSH1 0x40 MSTORE POP DUP2 ADD SWAP1 PUSH2 0x4B2 SWAP2 SWAP1 PUSH2 0x13D3 JUMP JUMPDEST ADDRESS PUSH1 0x40 MLOAD DUP4 PUSH4 0xFFFFFFFF AND PUSH1 0xE0 SHL DUP2 MSTORE PUSH1 0x4 ADD PUSH2 0x4D0 SWAP3 SWAP2 SWAP1 PUSH2 0x1564 JUMP JUMPDEST PUSH1 0x20 PUSH1 0x40 MLOAD DUP1 DUP4 SUB DUP2 DUP7 GAS STATICCALL ISZERO DUP1 ISZERO PUSH2 0x4ED JUMPI RETURNDATASIZE PUSH1 0x0 DUP1 RETURNDATACOPY RETURNDATASIZE PUSH1 0x0 REVERT JUMPDEST POP POP POP POP PUSH1 0x40 MLOAD RETURNDATASIZE PUSH1 0x1F NOT PUSH1 0x1F DUP3 ADD AND DUP3 ADD DUP1 PUSH1 0x40 MSTORE POP DUP2 ADD SWAP1 PUSH2 0x511 SWAP2 SWAP1 PUSH2 0x15C5 JUMP JUMPDEST JUMPDEST PUSH2 0x551 JUMPI PUSH1 0x40 MLOAD PUSH32 0x8C379A000000000000000000000000000000000000000000000000000000000 DUP2 MSTORE PUSH1 0x4 ADD PUSH2 0x548 SWAP1 PUSH2 0x1664 JUMP JUMPDEST PUSH1 0x40 MLOAD DUP1 SWAP2 SUB SWAP1 REVERT JUMPDEST PUSH1 0x40 MLOAD DUP1 PUSH1 0xA0 ADD PUSH1 0x40 MSTORE DUP1 DUP7 PUSH20 0xFFFFFFFFFFFFFFFFFFFFFFFFFFFFFFFFFFFFFFFF AND DUP2 MSTORE PUSH1 0x20 ADD DUP6 PUSH16 0xFFFFFFFFFFFFFFFFFFFFFFFFFFFFFFFF AND DUP2 MSTORE PUSH1 0x20 ADD DUP5 DUP2 MSTORE PUSH1 0x20 ADD DUP4 DUP2 MSTORE PUSH1 0x20 ADD DUP3 DUP2 MSTORE POP PUSH1 0x1 PUSH1 0x0 DUP6 DUP2 MSTORE PUSH1 0x20 ADD SWAP1 DUP2 MSTORE PUSH1 0x20 ADD PUSH1 0x0 KECCAK256 PUSH1 0x0 DUP3 ADD MLOAD DUP2 PUSH1 0x0 ADD PUSH1 0x0 PUSH2 0x100 EXP DUP2 SLOAD DUP2 PUSH20 0xFFFFFFFFFFFFFFFFFFFFFFFFFFFFFFFFFFFFFFFF MUL NOT AND SWAP1 DUP4 PUSH20 0xFFFFFFFFFFFFFFFFFFFFFFFFFFFFFFFFFFFFFFFF AND MUL OR SWAP1 SSTORE POP PUSH1 0x20 DUP3 ADD MLOAD DUP2 PUSH1 0x1 ADD PUSH1 0x0 PUSH2 0x100 EXP DUP2 SLOAD DUP2 PUSH16 0xFFFFFFFFFFFFFFFFFFFFFFFFFFFFFFFF MUL NOT AND SWAP1 DUP4 PUSH16 0xFFFFFFFFFFFFFFFFFFFFFFFFFFFFFFFF AND MUL OR SWAP1 SSTORE POP PUSH1 0x40 DUP3 ADD MLOAD DUP2 PUSH1 0x2 ADD SSTORE PUSH1 0x60 DUP3 ADD MLOAD DUP2 PUSH1 0x3 ADD SSTORE PUSH1 0x80 DUP3 ADD MLOAD DUP2 PUSH1 0x4 ADD SSTORE SWAP1 POP POP POP POP POP POP POP JUMP JUMPDEST PUSH2 0x669 PUSH2 0x1104 JUMP JUMPDEST PUSH1 0x1 PUSH1 0x0 DUP4 DUP2 MSTORE PUSH1 0x20 ADD SWAP1 DUP2 MSTORE PUSH1 0x20 ADD PUSH1 0x0 KECCAK256 PUSH1 0x40 MLOAD DUP1 PUSH1 0xA0 ADD PUSH1 0x40 MSTORE SWAP1 DUP2 PUSH1 0x0 DUP3 ADD PUSH1 0x0 SWAP1 SLOAD SWAP1 PUSH2 0x100 EXP SWAP1 DIV PUSH20 0xFFFFFFFFFFFFFFFFFFFFFFFFFFFFFFFFFFFFFFFF AND PUSH20 0xFFFFFFFFFFFFFFFFFFFFFFFFFFFFFFFFFFFFFFFF AND PUSH20 0xFFFFFFFFFFFFFFFFFFFFFFFFFFFFFFFFFFFFFFFF AND DUP2 MSTORE PUSH1 0x20 ADD PUSH1 0x1 DUP3 ADD PUSH1 0x0 SWAP1 SLOAD SWAP1 PUSH2 0x100 EXP SWAP1 DIV PUSH16 0xFFFFFFFFFFFFFFFFFFFFFFFFFFFFFFFF AND PUSH16 0xFFFFFFFFFFFFFFFFFFFFFFFFFFFFFFFF AND PUSH16 0xFFFFFFFFFFFFFFFFFFFFFFFFFFFFFFFF AND DUP2 MSTORE PUSH1 0x20 ADD PUSH1 0x2 DUP3 ADD SLOAD DUP2 MSTORE PUSH1 0x20 ADD PUSH1 0x3 DUP3 ADD SLOAD DUP2 MSTORE PUSH1 0x20 ADD PUSH1 0x4 DUP3 ADD SLOAD DUP2 MSTORE POP POP SWAP1 POP SWAP2 SWAP1 POP JUMP JUMPDEST PUSH1 0x1 PUSH1 0x0 DUP3 DUP2 MSTORE PUSH1 0x20 ADD SWAP1 DUP2 MSTORE PUSH1 0x20 ADD PUSH1 0x0 KECCAK256 PUSH1 0x4 ADD SLOAD TIMESTAMP LT ISZERO PUSH2 0x7A5 JUMPI PUSH1 0x40 MLOAD PUSH32 0x8C379A000000000000000000000000000000000000000000000000000000000 DUP2 MSTORE PUSH1 0x4 ADD PUSH2 0x79C SWAP1 PUSH2 0x16D0 JUMP JUMPDEST PUSH1 0x40 MLOAD DUP1 SWAP2 SUB SWAP1 REVERT JUMPDEST PUSH1 0x1 PUSH1 0x0 DUP3 DUP2 MSTORE PUSH1 0x20 ADD SWAP1 DUP2 MSTORE PUSH1 0x20 ADD PUSH1 0x0 KECCAK256 PUSH1 0x0 ADD PUSH1 0x0 SWAP1 SLOAD SWAP1 PUSH2 0x100 EXP SWAP1 DIV PUSH20 0xFFFFFFFFFFFFFFFFFFFFFFFFFFFFFFFFFFFFFFFF AND PUSH20 0xFFFFFFFFFFFFFFFFFFFFFFFFFFFFFFFFFFFFFFFF AND CALLER PUSH20 0xFFFFFFFFFFFFFFFFFFFFFFFFFFFFFFFFFFFFFFFF AND EQ DUP1 PUSH2 0x876 JUMPI POP CALLER PUSH20 0xFFFFFFFFFFFFFFFFFFFFFFFFFFFFFFFFFFFFFFFF AND PUSH1 0x2 PUSH1 0x0 DUP4 DUP2 MSTORE PUSH1 0x20 ADD SWAP1 DUP2 MSTORE PUSH1 0x20 ADD PUSH1 0x0 KECCAK256 PUSH1 0x1 ADD PUSH1 0x0 SWAP1 SLOAD SWAP1 PUSH2 0x100 EXP SWAP1 DIV PUSH20 0xFFFFFFFFFFFFFFFFFFFFFFFFFFFFFFFFFFFFFFFF AND PUSH20 0xFFFFFFFFFFFFFFFFFFFFFFFFFFFFFFFFFFFFFFFF AND EQ JUMPDEST PUSH2 0x8B5 JUMPI PUSH1 0x40 MLOAD PUSH32 0x8C379A000000000000000000000000000000000000000000000000000000000 DUP2 MSTORE PUSH1 0x4 ADD PUSH2 0x8AC SWAP1 PUSH2 0x1762 JUMP JUMPDEST PUSH1 0x40 MLOAD DUP1 SWAP2 SUB SWAP1 REVERT JUMPDEST PUSH1 0x0 DUP1 SLOAD SWAP1 PUSH2 0x100 EXP SWAP1 DIV PUSH20 0xFFFFFFFFFFFFFFFFFFFFFFFFFFFFFFFFFFFFFFFF AND PUSH20 0xFFFFFFFFFFFFFFFFFFFFFFFFFFFFFFFFFFFFFFFF AND PUSH4 0x23B872DD PUSH1 0x0 DUP1 SLOAD SWAP1 PUSH2 0x100 EXP SWAP1 DIV PUSH20 0xFFFFFFFFFFFFFFFFFFFFFFFFFFFFFFFFFFFFFFFF AND PUSH20 0xFFFFFFFFFFFFFFFFFFFFFFFFFFFFFFFFFFFFFFFF AND PUSH4 0x6352211E DUP5 PUSH1 0x40 MLOAD DUP3 PUSH4 0xFFFFFFFF AND PUSH1 0xE0 SHL DUP2 MSTORE PUSH1 0x4 ADD PUSH2 0x94A SWAP2 SWAP1 PUSH2 0x13A3 JUMP JUMPDEST PUSH1 0x20 PUSH1 0x40 MLOAD DUP1 DUP4 SUB DUP2 DUP7 GAS STATICCALL ISZERO DUP1 ISZERO PUSH2 0x967 JUMPI RETURNDATASIZE PUSH1 0x0 DUP1 RETURNDATACOPY RETURNDATASIZE PUSH1 0x0 REVERT JUMPDEST POP POP POP POP PUSH1 0x40 MLOAD RETURNDATASIZE PUSH1 0x1F NOT PUSH1 0x1F DUP3 ADD AND DUP3 ADD DUP1 PUSH1 0x40 MSTORE POP DUP2 ADD SWAP1 PUSH2 0x98B SWAP2 SWAP1 PUSH2 0x13D3 JUMP JUMPDEST PUSH1 0x2 PUSH1 0x0 DUP6 DUP2 MSTORE PUSH1 0x20 ADD SWAP1 DUP2 MSTORE PUSH1 0x20 ADD PUSH1 0x0 KECCAK256 PUSH1 0x1 ADD PUSH1 0x0 SWAP1 SLOAD SWAP1 PUSH2 0x100 EXP SWAP1 DIV PUSH20 0xFFFFFFFFFFFFFFFFFFFFFFFFFFFFFFFFFFFFFFFF AND DUP5 PUSH1 0x40 MLOAD DUP5 PUSH4 0xFFFFFFFF AND PUSH1 0xE0 SHL DUP2 MSTORE PUSH1 0x4 ADD PUSH2 0x9E1 SWAP4 SWAP3 SWAP2 SWAP1 PUSH2 0x1782 JUMP JUMPDEST PUSH1 0x0 PUSH1 0x40 MLOAD DUP1 DUP4 SUB DUP2 PUSH1 0x0 DUP8 DUP1 EXTCODESIZE ISZERO DUP1 ISZERO PUSH2 0x9FB JUMPI PUSH1 0x0 DUP1 REVERT JUMPDEST POP GAS CALL ISZERO DUP1 ISZERO PUSH2 0xA0F JUMPI RETURNDATASIZE PUSH1 0x0 DUP1 RETURNDATACOPY RETURNDATASIZE PUSH1 0x0 REVERT JUMPDEST POP POP POP POP PUSH1 0x1 PUSH1 0x0 DUP3 DUP2 MSTORE PUSH1 0x20 ADD SWAP1 DUP2 MSTORE PUSH1 0x20 ADD PUSH1 0x0 KECCAK256 PUSH1 0x0 ADD PUSH1 0x0 SWAP1 SLOAD SWAP1 PUSH2 0x100 EXP SWAP1 DIV PUSH20 0xFFFFFFFFFFFFFFFFFFFFFFFFFFFFFFFFFFFFFFFF AND PUSH20 0xFFFFFFFFFFFFFFFFFFFFFFFFFFFFFFFFFFFFFFFF AND PUSH2 0x8FC PUSH1 0x2 PUSH1 0x0 DUP5 DUP2 MSTORE PUSH1 0x20 ADD SWAP1 DUP2 MSTORE PUSH1 0x20 ADD PUSH1 0x0 KECCAK256 PUSH1 0x0 ADD SLOAD SWAP1 DUP2 ISZERO MUL SWAP1 PUSH1 0x40 MLOAD PUSH1 0x0 PUSH1 0x40 MLOAD DUP1 DUP4 SUB DUP2 DUP6 DUP9 DUP9 CALL SWAP4 POP POP POP POP ISZERO DUP1 ISZERO PUSH2 0xAA5 JUMPI RETURNDATASIZE PUSH1 0x0 DUP1 RETURNDATACOPY RETURNDATASIZE PUSH1 0x0 REVERT JUMPDEST POP PUSH32 0xF51B5F483AB2F8FA745C756D108C52ED55A190F6CBAE8370297E75C047FFA5F1 PUSH1 0x2 PUSH1 0x0 DUP4 DUP2 MSTORE PUSH1 0x20 ADD SWAP1 DUP2 MSTORE PUSH1 0x20 ADD PUSH1 0x0 KECCAK256 PUSH1 0x1 ADD PUSH1 0x0 SWAP1 SLOAD SWAP1 PUSH2 0x100 EXP SWAP1 DIV PUSH20 0xFFFFFFFFFFFFFFFFFFFFFFFFFFFFFFFFFFFFFFFF AND DUP3 PUSH1 0x2 PUSH1 0x0 DUP6 DUP2 MSTORE PUSH1 0x20 ADD SWAP1 DUP2 MSTORE PUSH1 0x20 ADD PUSH1 0x0 KECCAK256 PUSH1 0x0 ADD SLOAD PUSH1 0x40 MLOAD PUSH2 0xB25 SWAP4 SWAP3 SWAP2 SWAP1 PUSH2 0x17B9 JUMP JUMPDEST PUSH1 0x40 MLOAD DUP1 SWAP2 SUB SWAP1 LOG1 PUSH1 0x1 PUSH1 0x0 DUP3 DUP2 MSTORE PUSH1 0x20 ADD SWAP1 DUP2 MSTORE PUSH1 0x20 ADD PUSH1 0x0 KECCAK256 PUSH1 0x0 DUP1 DUP3 ADD PUSH1 0x0 PUSH2 0x100 EXP DUP2 SLOAD SWAP1 PUSH20 0xFFFFFFFFFFFFFFFFFFFFFFFFFFFFFFFFFFFFFFFF MUL NOT AND SWAP1 SSTORE PUSH1 0x1 DUP3 ADD PUSH1 0x0 PUSH2 0x100 EXP DUP2 SLOAD SWAP1 PUSH16 0xFFFFFFFFFFFFFFFFFFFFFFFFFFFFFFFF MUL NOT AND SWAP1 SSTORE PUSH1 0x2 DUP3 ADD PUSH1 0x0 SWAP1 SSTORE PUSH1 0x3 DUP3 ADD PUSH1 0x0 SWAP1 SSTORE PUSH1 0x4 DUP3 ADD PUSH1 0x0 SWAP1 SSTORE POP POP POP JUMP JUMPDEST PUSH1 0x0 DUP1 SLOAD SWAP1 PUSH2 0x100 EXP SWAP1 DIV PUSH20 0xFFFFFFFFFFFFFFFFFFFFFFFFFFFFFFFFFFFFFFFF AND PUSH20 0xFFFFFFFFFFFFFFFFFFFFFFFFFFFFFFFFFFFFFFFF AND PUSH4 0x6352211E DUP3 PUSH1 0x40 MLOAD DUP3 PUSH4 0xFFFFFFFF AND PUSH1 0xE0 SHL DUP2 MSTORE PUSH1 0x4 ADD PUSH2 0xC01 SWAP2 SWAP1 PUSH2 0x13A3 JUMP JUMPDEST PUSH1 0x20 PUSH1 0x40 MLOAD DUP1 DUP4 SUB DUP2 DUP7 GAS STATICCALL ISZERO DUP1 ISZERO PUSH2 0xC1E JUMPI RETURNDATASIZE PUSH1 0x0 DUP1 RETURNDATACOPY RETURNDATASIZE PUSH1 0x0 REVERT JUMPDEST POP POP POP POP PUSH1 0x40 MLOAD RETURNDATASIZE PUSH1 0x1F NOT PUSH1 0x1F DUP3 ADD AND DUP3 ADD DUP1 PUSH1 0x40 MSTORE POP DUP2 ADD SWAP1 PUSH2 0xC42 SWAP2 SWAP1 PUSH2 0x13D3 JUMP JUMPDEST PUSH20 0xFFFFFFFFFFFFFFFFFFFFFFFFFFFFFFFFFFFFFFFF AND CALLER PUSH20 0xFFFFFFFFFFFFFFFFFFFFFFFFFFFFFFFFFFFFFFFF AND EQ PUSH2 0xCAF JUMPI PUSH1 0x40 MLOAD PUSH32 0x8C379A000000000000000000000000000000000000000000000000000000000 DUP2 MSTORE PUSH1 0x4 ADD PUSH2 0xCA6 SWAP1 PUSH2 0x145D JUMP JUMPDEST PUSH1 0x40 MLOAD DUP1 SWAP2 SUB SWAP1 REVERT JUMPDEST DUP1 PUSH1 0x1 PUSH1 0x0 DUP4 DUP2 MSTORE PUSH1 0x20 ADD SWAP1 DUP2 MSTORE PUSH1 0x20 ADD PUSH1 0x0 KECCAK256 PUSH1 0x2 ADD SLOAD EQ PUSH2 0xD07 JUMPI PUSH1 0x40 MLOAD PUSH32 0x8C379A000000000000000000000000000000000000000000000000000000000 DUP2 MSTORE PUSH1 0x4 ADD PUSH2 0xCFE SWAP1 PUSH2 0x1862 JUMP JUMPDEST PUSH1 0x40 MLOAD DUP1 SWAP2 SUB SWAP1 REVERT JUMPDEST TIMESTAMP PUSH1 0x1 PUSH1 0x0 DUP4 DUP2 MSTORE PUSH1 0x20 ADD SWAP1 DUP2 MSTORE PUSH1 0x20 ADD PUSH1 0x0 KECCAK256 PUSH1 0x4 ADD SLOAD GT PUSH2 0xD5F JUMPI PUSH1 0x40 MLOAD PUSH32 0x8C379A000000000000000000000000000000000000000000000000000000000 DUP2 MSTORE PUSH1 0x4 ADD PUSH2 0xD56 SWAP1 PUSH2 0x18CE JUMP JUMPDEST PUSH1 0x40 MLOAD DUP1 SWAP2 SUB SWAP1 REVERT JUMPDEST PUSH1 0x2 PUSH1 0x0 DUP3 DUP2 MSTORE PUSH1 0x20 ADD SWAP1 DUP2 MSTORE PUSH1 0x20 ADD PUSH1 0x0 KECCAK256 PUSH1 0x1 ADD PUSH1 0x0 SWAP1 SLOAD SWAP1 PUSH2 0x100 EXP SWAP1 DIV PUSH20 0xFFFFFFFFFFFFFFFFFFFFFFFFFFFFFFFFFFFFFFFF AND PUSH20 0xFFFFFFFFFFFFFFFFFFFFFFFFFFFFFFFFFFFFFFFF AND PUSH2 0x8FC PUSH1 0x2 PUSH1 0x0 DUP5 DUP2 MSTORE PUSH1 0x20 ADD SWAP1 DUP2 MSTORE PUSH1 0x20 ADD PUSH1 0x0 KECCAK256 PUSH1 0x0 ADD SLOAD SWAP1 DUP2 ISZERO MUL SWAP1 PUSH1 0x40 MLOAD PUSH1 0x0 PUSH1 0x40 MLOAD DUP1 DUP4 SUB DUP2 DUP6 DUP9 DUP9 CALL SWAP4 POP POP POP POP ISZERO DUP1 ISZERO PUSH2 0xDF1 JUMPI RETURNDATASIZE PUSH1 0x0 DUP1 RETURNDATACOPY RETURNDATASIZE PUSH1 0x0 REVERT JUMPDEST POP PUSH1 0x1 PUSH1 0x0 DUP3 DUP2 MSTORE PUSH1 0x20 ADD SWAP1 DUP2 MSTORE PUSH1 0x20 ADD PUSH1 0x0 KECCAK256 PUSH1 0x0 DUP1 DUP3 ADD PUSH1 0x0 PUSH2 0x100 EXP DUP2 SLOAD SWAP1 PUSH20 0xFFFFFFFFFFFFFFFFFFFFFFFFFFFFFFFFFFFFFFFF MUL NOT AND SWAP1 SSTORE PUSH1 0x1 DUP3 ADD PUSH1 0x0 PUSH2 0x100 EXP DUP2 SLOAD SWAP1 PUSH16 0xFFFFFFFFFFFFFFFFFFFFFFFFFFFFFFFF MUL NOT AND SWAP1 SSTORE PUSH1 0x2 DUP3 ADD PUSH1 0x0 SWAP1 SSTORE PUSH1 0x3 DUP3 ADD PUSH1 0x0 SWAP1 SSTORE PUSH1 0x4 DUP3 ADD PUSH1 0x0 SWAP1 SSTORE POP POP POP JUMP JUMPDEST TIMESTAMP PUSH1 0x1 PUSH1 0x0 DUP4 DUP2 MSTORE PUSH1 0x20 ADD SWAP1 DUP2 MSTORE PUSH1 0x20 ADD PUSH1 0x0 KECCAK256 PUSH1 0x3 ADD SLOAD GT ISZERO PUSH2 0xEC6 JUMPI PUSH1 0x40 MLOAD PUSH32 0x8C379A000000000000000000000000000000000000000000000000000000000 DUP2 MSTORE PUSH1 0x4 ADD PUSH2 0xEBD SWAP1 PUSH2 0x1960 JUMP JUMPDEST PUSH1 0x40 MLOAD DUP1 SWAP2 SUB SWAP1 REVERT JUMPDEST TIMESTAMP PUSH1 0x1 PUSH1 0x0 DUP4 DUP2 MSTORE PUSH1 0x20 ADD SWAP1 DUP2 MSTORE PUSH1 0x20 ADD PUSH1 0x0 KECCAK256 PUSH1 0x4 ADD SLOAD LT ISZERO PUSH2 0xF1F JUMPI PUSH1 0x40 MLOAD PUSH32 0x8C379A000000000000000000000000000000000000000000000000000000000 DUP2 MSTORE PUSH1 0x4 ADD PUSH2 0xF16 SWAP1 PUSH2 0x18CE JUMP JUMPDEST PUSH1 0x40 MLOAD DUP1 SWAP2 SUB SWAP1 REVERT JUMPDEST CALLVALUE PUSH1 0x1 PUSH1 0x0 DUP4 DUP2 MSTORE PUSH1 0x20 ADD SWAP1 DUP2 MSTORE PUSH1 0x20 ADD PUSH1 0x0 KECCAK256 PUSH1 0x1 ADD PUSH1 0x0 SWAP1 SLOAD SWAP1 PUSH2 0x100 EXP SWAP1 DIV PUSH16 0xFFFFFFFFFFFFFFFFFFFFFFFFFFFFFFFF AND PUSH16 0xFFFFFFFFFFFFFFFFFFFFFFFFFFFFFFFF AND GT ISZERO PUSH2 0xFA6 JUMPI PUSH1 0x40 MLOAD PUSH32 0x8C379A000000000000000000000000000000000000000000000000000000000 DUP2 MSTORE PUSH1 0x4 ADD PUSH2 0xF9D SWAP1 PUSH2 0x19F2 JUMP JUMPDEST PUSH1 0x40 MLOAD DUP1 SWAP2 SUB SWAP1 REVERT JUMPDEST CALLVALUE PUSH1 0x2 PUSH1 0x0 DUP4 DUP2 MSTORE PUSH1 0x20 ADD SWAP1 DUP2 MSTORE PUSH1 0x20 ADD PUSH1 0x0 KECCAK256 PUSH1 0x0 ADD SLOAD LT PUSH2 0xFFE JUMPI PUSH1 0x40 MLOAD PUSH32 0x8C379A000000000000000000000000000000000000000000000000000000000 DUP2 MSTORE PUSH1 0x4 ADD PUSH2 0xFF5 SWAP1 PUSH2 0x1A84 JUMP JUMPDEST PUSH1 0x40 MLOAD DUP1 SWAP2 SUB SWAP1 REVERT JUMPDEST PUSH1 0x2 PUSH1 0x0 DUP3 DUP2 MSTORE PUSH1 0x20 ADD SWAP1 DUP2 MSTORE PUSH1 0x20 ADD PUSH1 0x0 KECCAK256 PUSH1 0x1 ADD PUSH1 0x0 SWAP1 SLOAD SWAP1 PUSH2 0x100 EXP SWAP1 DIV PUSH20 0xFFFFFFFFFFFFFFFFFFFFFFFFFFFFFFFFFFFFFFFF AND PUSH20 0xFFFFFFFFFFFFFFFFFFFFFFFFFFFFFFFFFFFFFFFF AND PUSH2 0x8FC PUSH1 0x2 PUSH1 0x0 DUP5 DUP2 MSTORE PUSH1 0x20 ADD SWAP1 DUP2 MSTORE PUSH1 0x20 ADD PUSH1 0x0 KECCAK256 PUSH1 0x0 ADD SLOAD SWAP1 DUP2 ISZERO MUL SWAP1 PUSH1 0x40 MLOAD PUSH1 0x0 PUSH1 0x40 MLOAD DUP1 DUP4 SUB DUP2 DUP6 DUP9 DUP9 CALL SWAP4 POP POP POP POP ISZERO DUP1 ISZERO PUSH2 0x1090 JUMPI RETURNDATASIZE PUSH1 0x0 DUP1 RETURNDATACOPY RETURNDATASIZE PUSH1 0x0 REVERT JUMPDEST POP CALLVALUE PUSH1 0x2 PUSH1 0x0 DUP4 DUP2 MSTORE PUSH1 0x20 ADD SWAP1 DUP2 MSTORE PUSH1 0x20 ADD PUSH1 0x0 KECCAK256 PUSH1 0x0 ADD DUP2 SWAP1 SSTORE POP CALLER PUSH1 0x2 PUSH1 0x0 DUP4 DUP2 MSTORE PUSH1 0x20 ADD SWAP1 DUP2 MSTORE PUSH1 0x20 ADD PUSH1 0x0 KECCAK256 PUSH1 0x1 ADD PUSH1 0x0 PUSH2 0x100 EXP DUP2 SLOAD DUP2 PUSH20 0xFFFFFFFFFFFFFFFFFFFFFFFFFFFFFFFFFFFFFFFF MUL NOT AND SWAP1 DUP4 PUSH20 0xFFFFFFFFFFFFFFFFFFFFFFFFFFFFFFFFFFFFFFFF AND MUL OR SWAP1 SSTORE POP POP JUMP JUMPDEST PUSH1 0x40 MLOAD DUP1 PUSH1 0xA0 ADD PUSH1 0x40 MSTORE DUP1 PUSH1 0x0 PUSH20 0xFFFFFFFFFFFFFFFFFFFFFFFFFFFFFFFFFFFFFFFF AND DUP2 MSTORE PUSH1 0x20 ADD PUSH1 0x0 PUSH16 0xFFFFFFFFFFFFFFFFFFFFFFFFFFFFFFFF AND DUP2 MSTORE PUSH1 0x20 ADD PUSH1 0x0 DUP2 MSTORE PUSH1 0x20 ADD PUSH1 0x0 DUP2 MSTORE PUSH1 0x20 ADD PUSH1 0x0 DUP2 MSTORE POP SWAP1 JUMP JUMPDEST PUSH1 0x0 DUP1 REVERT JUMPDEST PUSH1 0x0 PUSH20 0xFFFFFFFFFFFFFFFFFFFFFFFFFFFFFFFFFFFFFFFF DUP3 AND SWAP1 POP SWAP2 SWAP1 POP JUMP JUMPDEST PUSH1 0x0 PUSH2 0x118B DUP3 PUSH2 0x1160 JUMP JUMPDEST SWAP1 POP SWAP2 SWAP1 POP JUMP JUMPDEST PUSH2 0x119B DUP2 PUSH2 0x1180 JUMP JUMPDEST DUP2 EQ PUSH2 0x11A6 JUMPI PUSH1 0x0 DUP1 REVERT JUMPDEST POP JUMP JUMPDEST PUSH1 0x0 DUP2 CALLDATALOAD SWAP1 POP PUSH2 0x11B8 DUP2 PUSH2 0x1192 JUMP JUMPDEST SWAP3 SWAP2 POP POP JUMP JUMPDEST PUSH1 0x0 PUSH16 0xFFFFFFFFFFFFFFFFFFFFFFFFFFFFFFFF DUP3 AND SWAP1 POP SWAP2 SWAP1 POP JUMP JUMPDEST PUSH2 0x11E3 DUP2 PUSH2 0x11BE JUMP JUMPDEST DUP2 EQ PUSH2 0x11EE JUMPI PUSH1 0x0 DUP1 REVERT JUMPDEST POP JUMP JUMPDEST PUSH1 0x0 DUP2 CALLDATALOAD SWAP1 POP PUSH2 0x1200 DUP2 PUSH2 0x11DA JUMP JUMPDEST SWAP3 SWAP2 POP POP JUMP JUMPDEST PUSH1 0x0 DUP2 SWAP1 POP SWAP2 SWAP1 POP JUMP JUMPDEST PUSH2 0x1219 DUP2 PUSH2 0x1206 JUMP JUMPDEST DUP2 EQ PUSH2 0x1224 JUMPI PUSH1 0x0 DUP1 REVERT JUMPDEST POP JUMP JUMPDEST PUSH1 0x0 DUP2 CALLDATALOAD SWAP1 POP PUSH2 0x1236 DUP2 PUSH2 0x1210 JUMP JUMPDEST SWAP3 SWAP2 POP POP JUMP JUMPDEST PUSH1 0x0 DUP1 PUSH1 0x0 DUP1 PUSH1 0x0 PUSH1 0xA0 DUP7 DUP9 SUB SLT ISZERO PUSH2 0x1258 JUMPI PUSH2 0x1257 PUSH2 0x115B JUMP JUMPDEST JUMPDEST PUSH1 0x0 PUSH2 0x1266 DUP9 DUP3 DUP10 ADD PUSH2 0x11A9 JUMP JUMPDEST SWAP6 POP POP PUSH1 0x20 PUSH2 0x1277 DUP9 DUP3 DUP10 ADD PUSH2 0x11F1 JUMP JUMPDEST SWAP5 POP POP PUSH1 0x40 PUSH2 0x1288 DUP9 DUP3 DUP10 ADD PUSH2 0x1227 JUMP JUMPDEST SWAP4 POP POP PUSH1 0x60 PUSH2 0x1299 DUP9 DUP3 DUP10 ADD PUSH2 0x1227 JUMP JUMPDEST SWAP3 POP POP PUSH1 0x80 PUSH2 0x12AA DUP9 DUP3 DUP10 ADD PUSH2 0x1227 JUMP JUMPDEST SWAP2 POP POP SWAP3 SWAP6 POP SWAP3 SWAP6 SWAP1 SWAP4 POP JUMP JUMPDEST PUSH1 0x0 PUSH1 0x20 DUP3 DUP5 SUB SLT ISZERO PUSH2 0x12CD JUMPI PUSH2 0x12CC PUSH2 0x115B JUMP JUMPDEST JUMPDEST PUSH1 0x0 PUSH2 0x12DB DUP5 DUP3 DUP6 ADD PUSH2 0x1227 JUMP JUMPDEST SWAP2 POP POP SWAP3 SWAP2 POP POP JUMP JUMPDEST PUSH2 0x12ED DUP2 PUSH2 0x1180 JUMP JUMPDEST DUP3 MSTORE POP POP JUMP JUMPDEST PUSH2 0x12FC DUP2 PUSH2 0x11BE JUMP JUMPDEST DUP3 MSTORE POP POP JUMP JUMPDEST PUSH2 0x130B DUP2 PUSH2 0x1206 JUMP JUMPDEST DUP3 MSTORE POP POP JUMP JUMPDEST PUSH1 0xA0 DUP3 ADD PUSH1 0x0 DUP3 ADD MLOAD PUSH2 0x1327 PUSH1 0x0 DUP6 ADD DUP3 PUSH2 0x12E4 JUMP JUMPDEST POP PUSH1 0x20 DUP3 ADD MLOAD PUSH2 0x133A PUSH1 0x20 DUP6 ADD DUP3 PUSH2 0x12F3 JUMP JUMPDEST POP PUSH1 0x40 DUP3 ADD MLOAD PUSH2 0x134D PUSH1 0x40 DUP6 ADD DUP3 PUSH2 0x1302 JUMP JUMPDEST POP PUSH1 0x60 DUP3 ADD MLOAD PUSH2 0x1360 PUSH1 0x60 DUP6 ADD DUP3 PUSH2 0x1302 JUMP JUMPDEST POP PUSH1 0x80 DUP3 ADD MLOAD PUSH2 0x1373 PUSH1 0x80 DUP6 ADD DUP3 PUSH2 0x1302 JUMP JUMPDEST POP POP POP POP JUMP JUMPDEST PUSH1 0x0 PUSH1 0xA0 DUP3 ADD SWAP1 POP PUSH2 0x138E PUSH1 0x0 DUP4 ADD DUP5 PUSH2 0x1311 JUMP JUMPDEST SWAP3 SWAP2 POP POP JUMP JUMPDEST PUSH2 0x139D DUP2 PUSH2 0x1206 JUMP JUMPDEST DUP3 MSTORE POP POP JUMP JUMPDEST PUSH1 0x0 PUSH1 0x20 DUP3 ADD SWAP1 POP PUSH2 0x13B8 PUSH1 0x0 DUP4 ADD DUP5 PUSH2 0x1394 JUMP JUMPDEST SWAP3 SWAP2 POP POP JUMP JUMPDEST PUSH1 0x0 DUP2 MLOAD SWAP1 POP PUSH2 0x13CD DUP2 PUSH2 0x1192 JUMP JUMPDEST SWAP3 SWAP2 POP POP JUMP JUMPDEST PUSH1 0x0 PUSH1 0x20 DUP3 DUP5 SUB SLT ISZERO PUSH2 0x13E9 JUMPI PUSH2 0x13E8 PUSH2 0x115B JUMP JUMPDEST JUMPDEST PUSH1 0x0 PUSH2 0x13F7 DUP5 DUP3 DUP6 ADD PUSH2 0x13BE JUMP JUMPDEST SWAP2 POP POP SWAP3 SWAP2 POP POP JUMP JUMPDEST PUSH1 0x0 DUP3 DUP3 MSTORE PUSH1 0x20 DUP3 ADD SWAP1 POP SWAP3 SWAP2 POP POP JUMP JUMPDEST PUSH32 0x45524337323141756374696F6E3A206E6F74206F776E6572206F66206E667400 PUSH1 0x0 DUP3 ADD MSTORE POP JUMP JUMPDEST PUSH1 0x0 PUSH2 0x1447 PUSH1 0x1F DUP4 PUSH2 0x1400 JUMP JUMPDEST SWAP2 POP PUSH2 0x1452 DUP3 PUSH2 0x1411 JUMP JUMPDEST PUSH1 0x20 DUP3 ADD SWAP1 POP SWAP2 SWAP1 POP JUMP JUMPDEST PUSH1 0x0 PUSH1 0x20 DUP3 ADD SWAP1 POP DUP2 DUP2 SUB PUSH1 0x0 DUP4 ADD MSTORE PUSH2 0x1476 DUP2 PUSH2 0x143A JUMP JUMPDEST SWAP1 POP SWAP2 SWAP1 POP JUMP JUMPDEST PUSH32 0x45524337323141756374696F6E3A207072696365207A65726F00000000000000 PUSH1 0x0 DUP3 ADD MSTORE POP JUMP JUMPDEST PUSH1 0x0 PUSH2 0x14B3 PUSH1 0x19 DUP4 PUSH2 0x1400 JUMP JUMPDEST SWAP2 POP PUSH2 0x14BE DUP3 PUSH2 0x147D JUMP JUMPDEST PUSH1 0x20 DUP3 ADD SWAP1 POP SWAP2 SWAP1 POP JUMP JUMPDEST PUSH1 0x0 PUSH1 0x20 DUP3 ADD SWAP1 POP DUP2 DUP2 SUB PUSH1 0x0 DUP4 ADD MSTORE PUSH2 0x14E2 DUP2 PUSH2 0x14A6 JUMP JUMPDEST SWAP1 POP SWAP2 SWAP1 POP JUMP JUMPDEST PUSH32 0x45524337323141756374696F6E3A2077726F6E672074696D6520696E70757400 PUSH1 0x0 DUP3 ADD MSTORE POP JUMP JUMPDEST PUSH1 0x0 PUSH2 0x151F PUSH1 0x1F DUP4 PUSH2 0x1400 JUMP JUMPDEST SWAP2 POP PUSH2 0x152A DUP3 PUSH2 0x14E9 JUMP JUMPDEST PUSH1 0x20 DUP3 ADD SWAP1 POP SWAP2 SWAP1 POP JUMP JUMPDEST PUSH1 0x0 PUSH1 0x20 DUP3 ADD SWAP1 POP DUP2 DUP2 SUB PUSH1 0x0 DUP4 ADD MSTORE PUSH2 0x154E DUP2 PUSH2 0x1512 JUMP JUMPDEST SWAP1 POP SWAP2 SWAP1 POP JUMP JUMPDEST PUSH2 0x155E DUP2 PUSH2 0x1180 JUMP JUMPDEST DUP3 MSTORE POP POP JUMP JUMPDEST PUSH1 0x0 PUSH1 0x40 DUP3 ADD SWAP1 POP PUSH2 0x1579 PUSH1 0x0 DUP4 ADD DUP6 PUSH2 0x1555 JUMP JUMPDEST PUSH2 0x1586 PUSH1 0x20 DUP4 ADD DUP5 PUSH2 0x1555 JUMP JUMPDEST SWAP4 SWAP3 POP POP POP JUMP JUMPDEST PUSH1 0x0 DUP2 ISZERO ISZERO SWAP1 POP SWAP2 SWAP1 POP JUMP JUMPDEST PUSH2 0x15A2 DUP2 PUSH2 0x158D JUMP JUMPDEST DUP2 EQ PUSH2 0x15AD JUMPI PUSH1 0x0 DUP1 REVERT JUMPDEST POP JUMP JUMPDEST PUSH1 0x0 DUP2 MLOAD SWAP1 POP PUSH2 0x15BF DUP2 PUSH2 0x1599 JUMP JUMPDEST SWAP3 SWAP2 POP POP JUMP JUMPDEST PUSH1 0x0 PUSH1 0x20 DUP3 DUP5 SUB SLT ISZERO PUSH2 0x15DB JUMPI PUSH2 0x15DA PUSH2 0x115B JUMP JUMPDEST JUMPDEST PUSH1 0x0 PUSH2 0x15E9 DUP5 DUP3 DUP6 ADD PUSH2 0x15B0 JUMP JUMPDEST SWAP2 POP POP SWAP3 SWAP2 POP POP JUMP JUMPDEST PUSH32 0x45524337323141756374696F6E3A20636F6E7472616374206E6F742061707072 PUSH1 0x0 DUP3 ADD MSTORE PUSH32 0x6F76656400000000000000000000000000000000000000000000000000000000 PUSH1 0x20 DUP3 ADD MSTORE POP JUMP JUMPDEST PUSH1 0x0 PUSH2 0x164E PUSH1 0x24 DUP4 PUSH2 0x1400 JUMP JUMPDEST SWAP2 POP PUSH2 0x1659 DUP3 PUSH2 0x15F2 JUMP JUMPDEST PUSH1 0x40 DUP3 ADD SWAP1 POP SWAP2 SWAP1 POP JUMP JUMPDEST PUSH1 0x0 PUSH1 0x20 DUP3 ADD SWAP1 POP DUP2 DUP2 SUB PUSH1 0x0 DUP4 ADD MSTORE PUSH2 0x167D DUP2 PUSH2 0x1641 JUMP JUMPDEST SWAP1 POP SWAP2 SWAP1 POP JUMP JUMPDEST PUSH32 0x45524337323141756374696F6E3A2061756374696F6E206E6F74206F76657200 PUSH1 0x0 DUP3 ADD MSTORE POP JUMP JUMPDEST PUSH1 0x0 PUSH2 0x16BA PUSH1 0x1F DUP4 PUSH2 0x1400 JUMP JUMPDEST SWAP2 POP PUSH2 0x16C5 DUP3 PUSH2 0x1684 JUMP JUMPDEST PUSH1 0x20 DUP3 ADD SWAP1 POP SWAP2 SWAP1 POP JUMP JUMPDEST PUSH1 0x0 PUSH1 0x20 DUP3 ADD SWAP1 POP DUP2 DUP2 SUB PUSH1 0x0 DUP4 ADD MSTORE PUSH2 0x16E9 DUP2 PUSH2 0x16AD JUMP JUMPDEST SWAP1 POP SWAP2 SWAP1 POP JUMP JUMPDEST PUSH32 0x45524337323141756374696F6E3A20796F7520617265206E6F7420616C6C6F77 PUSH1 0x0 DUP3 ADD MSTORE PUSH32 0x6564000000000000000000000000000000000000000000000000000000000000 PUSH1 0x20 DUP3 ADD MSTORE POP JUMP JUMPDEST PUSH1 0x0 PUSH2 0x174C PUSH1 0x22 DUP4 PUSH2 0x1400 JUMP JUMPDEST SWAP2 POP PUSH2 0x1757 DUP3 PUSH2 0x16F0 JUMP JUMPDEST PUSH1 0x40 DUP3 ADD SWAP1 POP SWAP2 SWAP1 POP JUMP JUMPDEST PUSH1 0x0 PUSH1 0x20 DUP3 ADD SWAP1 POP DUP2 DUP2 SUB PUSH1 0x0 DUP4 ADD MSTORE PUSH2 0x177B DUP2 PUSH2 0x173F JUMP JUMPDEST SWAP1 POP SWAP2 SWAP1 POP JUMP JUMPDEST PUSH1 0x0 PUSH1 0x60 DUP3 ADD SWAP1 POP PUSH2 0x1797 PUSH1 0x0 DUP4 ADD DUP7 PUSH2 0x1555 JUMP JUMPDEST PUSH2 0x17A4 PUSH1 0x20 DUP4 ADD DUP6 PUSH2 0x1555 JUMP JUMPDEST PUSH2 0x17B1 PUSH1 0x40 DUP4 ADD DUP5 PUSH2 0x1394 JUMP JUMPDEST SWAP5 SWAP4 POP POP POP POP JUMP JUMPDEST PUSH1 0x0 PUSH1 0x60 DUP3 ADD SWAP1 POP PUSH2 0x17CE PUSH1 0x0 DUP4 ADD DUP7 PUSH2 0x1555 JUMP JUMPDEST PUSH2 0x17DB PUSH1 0x20 DUP4 ADD DUP6 PUSH2 0x1394 JUMP JUMPDEST PUSH2 0x17E8 PUSH1 0x40 DUP4 ADD DUP5 PUSH2 0x1394 JUMP JUMPDEST SWAP5 SWAP4 POP POP POP POP JUMP JUMPDEST PUSH32 0x45524337323141756374696F6E3A206E6674206E6F74206F6E2061756374696F PUSH1 0x0 DUP3 ADD MSTORE PUSH32 0x6E00000000000000000000000000000000000000000000000000000000000000 PUSH1 0x20 DUP3 ADD MSTORE POP JUMP JUMPDEST PUSH1 0x0 PUSH2 0x184C PUSH1 0x21 DUP4 PUSH2 0x1400 JUMP JUMPDEST SWAP2 POP PUSH2 0x1857 DUP3 PUSH2 0x17F0 JUMP JUMPDEST PUSH1 0x40 DUP3 ADD SWAP1 POP SWAP2 SWAP1 POP JUMP JUMPDEST PUSH1 0x0 PUSH1 0x20 DUP3 ADD SWAP1 POP DUP2 DUP2 SUB PUSH1 0x0 DUP4 ADD MSTORE PUSH2 0x187B DUP2 PUSH2 0x183F JUMP JUMPDEST SWAP1 POP SWAP2 SWAP1 POP JUMP JUMPDEST PUSH32 0x45524337323141756374696F6E3A2061756374696F6E206973206F7665720000 PUSH1 0x0 DUP3 ADD MSTORE POP JUMP JUMPDEST PUSH1 0x0 PUSH2 0x18B8 PUSH1 0x1E DUP4 PUSH2 0x1400 JUMP JUMPDEST SWAP2 POP PUSH2 0x18C3 DUP3 PUSH2 0x1882 JUMP JUMPDEST PUSH1 0x20 DUP3 ADD SWAP1 POP SWAP2 SWAP1 POP JUMP JUMPDEST PUSH1 0x0 PUSH1 0x20 DUP3 ADD SWAP1 POP DUP2 DUP2 SUB PUSH1 0x0 DUP4 ADD MSTORE PUSH2 0x18E7 DUP2 PUSH2 0x18AB JUMP JUMPDEST SWAP1 POP SWAP2 SWAP1 POP JUMP JUMPDEST PUSH32 0x45524337323141756374696F6E3A2061756374696F6E206E6F74207374617274 PUSH1 0x0 DUP3 ADD MSTORE PUSH32 0x6564000000000000000000000000000000000000000000000000000000000000 PUSH1 0x20 DUP3 ADD MSTORE POP JUMP JUMPDEST PUSH1 0x0 PUSH2 0x194A PUSH1 0x22 DUP4 PUSH2 0x1400 JUMP JUMPDEST SWAP2 POP PUSH2 0x1955 DUP3 PUSH2 0x18EE JUMP JUMPDEST PUSH1 0x40 DUP3 ADD SWAP1 POP SWAP2 SWAP1 POP JUMP JUMPDEST PUSH1 0x0 PUSH1 0x20 DUP3 ADD SWAP1 POP DUP2 DUP2 SUB PUSH1 0x0 DUP4 ADD MSTORE PUSH2 0x1979 DUP2 PUSH2 0x193D JUMP JUMPDEST SWAP1 POP SWAP2 SWAP1 POP JUMP JUMPDEST PUSH32 0x45524337323141756374696F6E3A20656E74657220636F727265637420657468 PUSH1 0x0 DUP3 ADD MSTORE PUSH32 0x6572000000000000000000000000000000000000000000000000000000000000 PUSH1 0x20 DUP3 ADD MSTORE POP JUMP JUMPDEST PUSH1 0x0 PUSH2 0x19DC PUSH1 0x22 DUP4 PUSH2 0x1400 JUMP JUMPDEST SWAP2 POP PUSH2 0x19E7 DUP3 PUSH2 0x1980 JUMP JUMPDEST PUSH1 0x40 DUP3 ADD SWAP1 POP SWAP2 SWAP1 POP JUMP JUMPDEST PUSH1 0x0 PUSH1 0x20 DUP3 ADD SWAP1 POP DUP2 DUP2 SUB PUSH1 0x0 DUP4 ADD MSTORE PUSH2 0x1A0B DUP2 PUSH2 0x19CF JUMP JUMPDEST SWAP1 POP SWAP2 SWAP1 POP JUMP JUMPDEST PUSH32 0x45524337323141756374696F6E3A6269642077697468206D6F72652065746865 PUSH1 0x0 DUP3 ADD MSTORE PUSH32 0x7200000000000000000000000000000000000000000000000000000000000000 PUSH1 0x20 DUP3 ADD MSTORE POP JUMP JUMPDEST PUSH1 0x0 PUSH2 0x1A6E PUSH1 0x21 DUP4 PUSH2 0x1400 JUMP JUMPDEST SWAP2 POP PUSH2 0x1A79 DUP3 PUSH2 0x1A12 JUMP JUMPDEST PUSH1 0x40 DUP3 ADD SWAP1 POP SWAP2 SWAP1 POP JUMP JUMPDEST PUSH1 0x0 PUSH1 0x20 DUP3 ADD SWAP1 POP DUP2 DUP2 SUB PUSH1 0x0 DUP4 ADD MSTORE PUSH2 0x1A9D DUP2 PUSH2 0x1A61 JUMP JUMPDEST SWAP1 POP SWAP2 SWAP1 POP JUMP INVALID LOG2 PUSH5 0x6970667358 0x22 SLT KECCAK256 0xCB 0xEB PREVRANDAO INVALID 0xCE PUSH12 0xB2F9CDFF5A0404CFEA4E57A2 CALL 0xE5 SWAP1 0xD6 JUMPI 0xB3 DIV 0xB4 SWAP10 PUSH19 0x6970707164736F6C6343000812003300000000 "
				},
				"gasEstimates": {
					"creation": {
						"codeDepositCost": "1374800",
						"executionCost": "infinite",
						"totalCost": "infinite"
					},
					"external": {
						"bidding(uint256)": "infinite",
						"cancelBid(uint256)": "infinite",
						"nftTransfer(uint256)": "infinite",
						"onAuction(uint256)": "infinite",
						"setAuction(address,uint128,uint256,uint256,uint256)": "infinite"
					}
				},
				"methodIdentifiers": {
					"bidding(uint256)": "cc889b0b",
					"cancelBid(uint256)": "9703ef35",
					"nftTransfer(uint256)": "5ec0e964",
					"onAuction(uint256)": "37eb130c",
					"setAuction(address,uint128,uint256,uint256,uint256)": "1e355703"
				}
			},
			"storageLayout": {
				"storage": [
					{
						"astId": 518,
						"contract": "ERC721Auction/Erc721Auction.sol:ERC721Auction",
						"label": "erc721",
						"offset": 0,
						"slot": "0",
						"type": "t_contract(Erc721)496"
					},
					{
						"astId": 523,
						"contract": "ERC721Auction/Erc721Auction.sol:ERC721Auction",
						"label": "_nftOnAuction",
						"offset": 0,
						"slot": "1",
						"type": "t_mapping(t_uint256,t_struct(Auction)510_storage)"
					},
					{
						"astId": 528,
						"contract": "ERC721Auction/Erc721Auction.sol:ERC721Auction",
						"label": "_bidWinner",
						"offset": 0,
						"slot": "2",
						"type": "t_mapping(t_uint256,t_struct(BidWinner)515_storage)"
					}
				],
				"types": {
					"t_address": {
						"encoding": "inplace",
						"label": "address",
						"numberOfBytes": "20"
					},
					"t_contract(Erc721)496": {
						"encoding": "inplace",
						"label": "contract Erc721",
						"numberOfBytes": "20"
					},
					"t_mapping(t_uint256,t_struct(Auction)510_storage)": {
						"encoding": "mapping",
						"key": "t_uint256",
						"label": "mapping(uint256 => struct ERC721Auction.Auction)",
						"numberOfBytes": "32",
						"value": "t_struct(Auction)510_storage"
					},
					"t_mapping(t_uint256,t_struct(BidWinner)515_storage)": {
						"encoding": "mapping",
						"key": "t_uint256",
						"label": "mapping(uint256 => struct ERC721Auction.BidWinner)",
						"numberOfBytes": "32",
						"value": "t_struct(BidWinner)515_storage"
					},
					"t_struct(Auction)510_storage": {
						"encoding": "inplace",
						"label": "struct ERC721Auction.Auction",
						"members": [
							{
								"astId": 501,
								"contract": "ERC721Auction/Erc721Auction.sol:ERC721Auction",
								"label": "seller",
								"offset": 0,
								"slot": "0",
								"type": "t_address"
							},
							{
								"astId": 503,
								"contract": "ERC721Auction/Erc721Auction.sol:ERC721Auction",
								"label": "price",
								"offset": 0,
								"slot": "1",
								"type": "t_uint128"
							},
							{
								"astId": 505,
								"contract": "ERC721Auction/Erc721Auction.sol:ERC721Auction",
								"label": "nftId",
								"offset": 0,
								"slot": "2",
								"type": "t_uint256"
							},
							{
								"astId": 507,
								"contract": "ERC721Auction/Erc721Auction.sol:ERC721Auction",
								"label": "startTime",
								"offset": 0,
								"slot": "3",
								"type": "t_uint256"
							},
							{
								"astId": 509,
								"contract": "ERC721Auction/Erc721Auction.sol:ERC721Auction",
								"label": "endTime",
								"offset": 0,
								"slot": "4",
								"type": "t_uint256"
							}
						],
						"numberOfBytes": "160"
					},
					"t_struct(BidWinner)515_storage": {
						"encoding": "inplace",
						"label": "struct ERC721Auction.BidWinner",
						"members": [
							{
								"astId": 512,
								"contract": "ERC721Auction/Erc721Auction.sol:ERC721Auction",
								"label": "highestBid",
								"offset": 0,
								"slot": "0",
								"type": "t_uint256"
							},
							{
								"astId": 514,
								"contract": "ERC721Auction/Erc721Auction.sol:ERC721Auction",
								"label": "highestBidder",
								"offset": 0,
								"slot": "1",
								"type": "t_address"
							}
						],
						"numberOfBytes": "64"
					},
					"t_uint128": {
						"encoding": "inplace",
						"label": "uint128",
						"numberOfBytes": "16"
					},
					"t_uint256": {
						"encoding": "inplace",
						"label": "uint256",
						"numberOfBytes": "32"
					}
				}
			},
			"userdoc": {
				"kind": "user",
				"methods": {},
				"version": 1
			}
		}
	}
}