{
	"ERC721Auction/Erc721.sol": {
		"Erc721": {
			"abi": [
				{
					"inputs": [
						{
							"internalType": "string",
							"name": "_tokenName",
							"type": "string"
						},
						{
							"internalType": "string",
							"name": "_symbol",
							"type": "string"
						}
					],
					"stateMutability": "nonpayable",
					"type": "constructor"
				},
				{
					"anonymous": false,
					"inputs": [
						{
							"indexed": false,
							"internalType": "address",
							"name": "_owner",
							"type": "address"
						},
						{
							"indexed": false,
							"internalType": "address",
							"name": "_approved",
							"type": "address"
						},
						{
							"indexed": false,
							"internalType": "uint256",
							"name": "_tokenId",
							"type": "uint256"
						}
					],
					"name": "Approval",
					"type": "event"
				},
				{
					"anonymous": false,
					"inputs": [
						{
							"indexed": false,
							"internalType": "address",
							"name": "_owner",
							"type": "address"
						},
						{
							"indexed": false,
							"internalType": "address",
							"name": "_operator",
							"type": "address"
						},
						{
							"indexed": false,
							"internalType": "bool",
							"name": "_approved",
							"type": "bool"
						}
					],
					"name": "ApprovalForAll",
					"type": "event"
				},
				{
					"anonymous": false,
					"inputs": [
						{
							"indexed": false,
							"internalType": "address",
							"name": "_from",
							"type": "address"
						},
						{
							"indexed": false,
							"internalType": "address",
							"name": "_to",
							"type": "address"
						},
						{
							"indexed": false,
							"internalType": "uint256",
							"name": "_tokenId",
							"type": "uint256"
						}
					],
					"name": "Transfer",
					"type": "event"
				},
				{
					"inputs": [],
					"name": "admin",
					"outputs": [
						{
							"internalType": "address",
							"name": "",
							"type": "address"
						}
					],
					"stateMutability": "view",
					"type": "function"
				},
				{
					"inputs": [
						{
							"internalType": "address",
							"name": "_approved",
							"type": "address"
						},
						{
							"internalType": "uint256",
							"name": "_tokenId",
							"type": "uint256"
						}
					],
					"name": "approve",
					"outputs": [],
					"stateMutability": "nonpayable",
					"type": "function"
				},
				{
					"inputs": [
						{
							"internalType": "address",
							"name": "_owner",
							"type": "address"
						}
					],
					"name": "balanceOf",
					"outputs": [
						{
							"internalType": "uint256",
							"name": "",
							"type": "uint256"
						}
					],
					"stateMutability": "view",
					"type": "function"
				},
				{
					"inputs": [
						{
							"internalType": "uint256",
							"name": "_tokenId",
							"type": "uint256"
						}
					],
					"name": "burn",
					"outputs": [],
					"stateMutability": "nonpayable",
					"type": "function"
				},
				{
					"inputs": [
						{
							"internalType": "uint256",
							"name": "_tokenId",
							"type": "uint256"
						}
					],
					"name": "getApproved",
					"outputs": [
						{
							"internalType": "address",
							"name": "",
							"type": "address"
						}
					],
					"stateMutability": "view",
					"type": "function"
				},
				{
					"inputs": [
						{
							"internalType": "address",
							"name": "_owner",
							"type": "address"
						},
						{
							"internalType": "address",
							"name": "_operator",
							"type": "address"
						}
					],
					"name": "isApprovedForAll",
					"outputs": [
						{
							"internalType": "bool",
							"name": "",
							"type": "bool"
						}
					],
					"stateMutability": "view",
					"type": "function"
				},
				{
					"inputs": [
						{
							"internalType": "address",
							"name": "_to",
							"type": "address"
						}
					],
					"name": "mintToken",
					"outputs": [],
					"stateMutability": "nonpayable",
					"type": "function"
				},
				{
					"inputs": [],
					"name": "name",
					"outputs": [
						{
							"internalType": "string",
							"name": "",
							"type": "string"
						}
					],
					"stateMutability": "view",
					"type": "function"
				},
				{
					"inputs": [
						{
							"internalType": "uint256",
							"name": "_tokenId",
							"type": "uint256"
						}
					],
					"name": "ownerOf",
					"outputs": [
						{
							"internalType": "address",
							"name": "",
							"type": "address"
						}
					],
					"stateMutability": "view",
					"type": "function"
				},
				{
					"inputs": [
						{
							"internalType": "address",
							"name": "_operator",
							"type": "address"
						},
						{
							"internalType": "bool",
							"name": "_approved",
							"type": "bool"
						}
					],
					"name": "setApprovalForAll",
					"outputs": [],
					"stateMutability": "nonpayable",
					"type": "function"
				},
				{
					"inputs": [],
					"name": "symbol",
					"outputs": [
						{
							"internalType": "string",
							"name": "",
							"type": "string"
						}
					],
					"stateMutability": "view",
					"type": "function"
				},
				{
					"inputs": [
						{
							"internalType": "address",
							"name": "_from",
							"type": "address"
						},
						{
							"internalType": "address",
							"name": "_to",
							"type": "address"
						},
						{
							"internalType": "uint256",
							"name": "_tokenId",
							"type": "uint256"
						}
					],
					"name": "transferFrom",
					"outputs": [],
					"stateMutability": "nonpayable",
					"type": "function"
				}
			],
			"devdoc": {
				"kind": "dev",
				"methods": {},
				"version": 1
			},
			"evm": {
				"assembly": "    /* \"ERC721Auction/Erc721.sol\":898:4720  contract Erc721 is IERC721 {... */\n  mstore(0x40, 0x80)\n    /* \"ERC721Auction/Erc721.sol\":1291:1590  constructor(string memory _tokenName, string memory _symbol) {... */\n  callvalue\n  dup1\n  iszero\n  tag_1\n  jumpi\n  0x00\n  dup1\n  revert\ntag_1:\n  pop\n  mload(0x40)\n  sub(codesize, bytecodeSize)\n  dup1\n  bytecodeSize\n  dup4\n  codecopy\n  dup2\n  dup2\n  add\n  0x40\n  mstore\n  dup2\n  add\n  swap1\n  tag_2\n  swap2\n  swap1\n  tag_3\n  jump\t// in\ntag_2:\n    /* \"ERC721Auction/Erc721.sol\":1411:1412  0 */\n  0x00\n    /* \"ERC721Auction/Erc721.sol\":1389:1399  _tokenName */\n  dup3\n    /* \"ERC721Auction/Erc721.sol\":1383:1407  bytes(_tokenName).length */\n  mload\n    /* \"ERC721Auction/Erc721.sol\":1383:1412  bytes(_tokenName).length != 0 */\n  eq\n  iszero\n    /* \"ERC721Auction/Erc721.sol\":1383:1442  bytes(_tokenName).length != 0 && bytes(_symbol).length != 0 */\n  dup1\n  iszero\n  tag_6\n  jumpi\n  pop\n    /* \"ERC721Auction/Erc721.sol\":1441:1442  0 */\n  0x00\n    /* \"ERC721Auction/Erc721.sol\":1422:1429  _symbol */\n  dup2\n    /* \"ERC721Auction/Erc721.sol\":1416:1437  bytes(_symbol).length */\n  mload\n    /* \"ERC721Auction/Erc721.sol\":1416:1442  bytes(_symbol).length != 0 */\n  eq\n  iszero\n    /* \"ERC721Auction/Erc721.sol\":1383:1442  bytes(_tokenName).length != 0 && bytes(_symbol).length != 0 */\ntag_6:\n    /* \"ERC721Auction/Erc721.sol\":1362:1501  require(... */\n  tag_7\n  jumpi\n  mload(0x40)\n  0x08c379a000000000000000000000000000000000000000000000000000000000\n  dup2\n  mstore\n  0x04\n  add\n  tag_8\n  swap1\n  tag_9\n  jump\t// in\ntag_8:\n  mload(0x40)\n  dup1\n  swap2\n  sub\n  swap1\n  revert\ntag_7:\n    /* \"ERC721Auction/Erc721.sol\":1519:1529  _tokenName */\n  dup2\n    /* \"ERC721Auction/Erc721.sol\":1512:1516  name */\n  0x00\n    /* \"ERC721Auction/Erc721.sol\":1512:1529  name = _tokenName */\n  swap1\n  dup2\n  tag_10\n  swap2\n  swap1\n  tag_11\n  jump\t// in\ntag_10:\n  pop\n    /* \"ERC721Auction/Erc721.sol\":1548:1555  _symbol */\n  dup1\n    /* \"ERC721Auction/Erc721.sol\":1539:1545  symbol */\n  0x01\n    /* \"ERC721Auction/Erc721.sol\":1539:1555  symbol = _symbol */\n  swap1\n  dup2\n  tag_12\n  swap2\n  swap1\n  tag_11\n  jump\t// in\ntag_12:\n  pop\n    /* \"ERC721Auction/Erc721.sol\":1573:1583  msg.sender */\n  caller\n    /* \"ERC721Auction/Erc721.sol\":1565:1570  admin */\n  0x02\n  0x00\n    /* \"ERC721Auction/Erc721.sol\":1565:1583  admin = msg.sender */\n  0x0100\n  exp\n  dup2\n  sload\n  dup2\n  0xffffffffffffffffffffffffffffffffffffffff\n  mul\n  not\n  and\n  swap1\n  dup4\n  0xffffffffffffffffffffffffffffffffffffffff\n  and\n  mul\n  or\n  swap1\n  sstore\n  pop\n    /* \"ERC721Auction/Erc721.sol\":1291:1590  constructor(string memory _tokenName, string memory _symbol) {... */\n  pop\n  pop\n    /* \"ERC721Auction/Erc721.sol\":898:4720  contract Erc721 is IERC721 {... */\n  jump(tag_13)\n    /* \"#utility.yul\":7:82   */\ntag_14:\n    /* \"#utility.yul\":40:46   */\n  0x00\n    /* \"#utility.yul\":73:75   */\n  0x40\n    /* \"#utility.yul\":67:76   */\n  mload\n    /* \"#utility.yul\":57:76   */\n  swap1\n  pop\n    /* \"#utility.yul\":7:82   */\n  swap1\n  jump\t// out\n    /* \"#utility.yul\":88:205   */\ntag_15:\n    /* \"#utility.yul\":197:198   */\n  0x00\n    /* \"#utility.yul\":194:195   */\n  dup1\n    /* \"#utility.yul\":187:199   */\n  revert\n    /* \"#utility.yul\":211:328   */\ntag_16:\n    /* \"#utility.yul\":320:321   */\n  0x00\n    /* \"#utility.yul\":317:318   */\n  dup1\n    /* \"#utility.yul\":310:322   */\n  revert\n    /* \"#utility.yul\":334:451   */\ntag_17:\n    /* \"#utility.yul\":443:444   */\n  0x00\n    /* \"#utility.yul\":440:441   */\n  dup1\n    /* \"#utility.yul\":433:445   */\n  revert\n    /* \"#utility.yul\":457:574   */\ntag_18:\n    /* \"#utility.yul\":566:567   */\n  0x00\n    /* \"#utility.yul\":563:564   */\n  dup1\n    /* \"#utility.yul\":556:568   */\n  revert\n    /* \"#utility.yul\":580:682   */\ntag_19:\n    /* \"#utility.yul\":621:627   */\n  0x00\n    /* \"#utility.yul\":672:674   */\n  0x1f\n    /* \"#utility.yul\":668:675   */\n  not\n    /* \"#utility.yul\":663:665   */\n  0x1f\n    /* \"#utility.yul\":656:661   */\n  dup4\n    /* \"#utility.yul\":652:666   */\n  add\n    /* \"#utility.yul\":648:676   */\n  and\n    /* \"#utility.yul\":638:676   */\n  swap1\n  pop\n    /* \"#utility.yul\":580:682   */\n  swap2\n  swap1\n  pop\n  jump\t// out\n    /* \"#utility.yul\":688:868   */\ntag_20:\n    /* \"#utility.yul\":736:813   */\n  0x4e487b7100000000000000000000000000000000000000000000000000000000\n    /* \"#utility.yul\":733:734   */\n  0x00\n    /* \"#utility.yul\":726:814   */\n  mstore\n    /* \"#utility.yul\":833:837   */\n  0x41\n    /* \"#utility.yul\":830:831   */\n  0x04\n    /* \"#utility.yul\":823:838   */\n  mstore\n    /* \"#utility.yul\":857:861   */\n  0x24\n    /* \"#utility.yul\":854:855   */\n  0x00\n    /* \"#utility.yul\":847:862   */\n  revert\n    /* \"#utility.yul\":874:1155   */\ntag_21:\n    /* \"#utility.yul\":957:984   */\n  tag_58\n    /* \"#utility.yul\":979:983   */\n  dup3\n    /* \"#utility.yul\":957:984   */\n  tag_19\n  jump\t// in\ntag_58:\n    /* \"#utility.yul\":949:955   */\n  dup2\n    /* \"#utility.yul\":945:985   */\n  add\n    /* \"#utility.yul\":1087:1093   */\n  dup2\n    /* \"#utility.yul\":1075:1085   */\n  dup2\n    /* \"#utility.yul\":1072:1094   */\n  lt\n    /* \"#utility.yul\":1051:1069   */\n  0xffffffffffffffff\n    /* \"#utility.yul\":1039:1049   */\n  dup3\n    /* \"#utility.yul\":1036:1070   */\n  gt\n    /* \"#utility.yul\":1033:1095   */\n  or\n    /* \"#utility.yul\":1030:1118   */\n  iszero\n  tag_59\n  jumpi\n    /* \"#utility.yul\":1098:1116   */\n  tag_60\n  tag_20\n  jump\t// in\ntag_60:\n    /* \"#utility.yul\":1030:1118   */\ntag_59:\n    /* \"#utility.yul\":1138:1148   */\n  dup1\n    /* \"#utility.yul\":1134:1136   */\n  0x40\n    /* \"#utility.yul\":1127:1149   */\n  mstore\n    /* \"#utility.yul\":917:1155   */\n  pop\n    /* \"#utility.yul\":874:1155   */\n  pop\n  pop\n  jump\t// out\n    /* \"#utility.yul\":1161:1290   */\ntag_22:\n    /* \"#utility.yul\":1195:1201   */\n  0x00\n    /* \"#utility.yul\":1222:1242   */\n  tag_62\n  tag_14\n  jump\t// in\ntag_62:\n    /* \"#utility.yul\":1212:1242   */\n  swap1\n  pop\n    /* \"#utility.yul\":1251:1284   */\n  tag_63\n    /* \"#utility.yul\":1279:1283   */\n  dup3\n    /* \"#utility.yul\":1271:1277   */\n  dup3\n    /* \"#utility.yul\":1251:1284   */\n  tag_21\n  jump\t// in\ntag_63:\n    /* \"#utility.yul\":1161:1290   */\n  swap2\n  swap1\n  pop\n  jump\t// out\n    /* \"#utility.yul\":1296:1604   */\ntag_23:\n    /* \"#utility.yul\":1358:1362   */\n  0x00\n    /* \"#utility.yul\":1448:1466   */\n  0xffffffffffffffff\n    /* \"#utility.yul\":1440:1446   */\n  dup3\n    /* \"#utility.yul\":1437:1467   */\n  gt\n    /* \"#utility.yul\":1434:1490   */\n  iszero\n  tag_65\n  jumpi\n    /* \"#utility.yul\":1470:1488   */\n  tag_66\n  tag_20\n  jump\t// in\ntag_66:\n    /* \"#utility.yul\":1434:1490   */\ntag_65:\n    /* \"#utility.yul\":1508:1537   */\n  tag_67\n    /* \"#utility.yul\":1530:1536   */\n  dup3\n    /* \"#utility.yul\":1508:1537   */\n  tag_19\n  jump\t// in\ntag_67:\n    /* \"#utility.yul\":1500:1537   */\n  swap1\n  pop\n    /* \"#utility.yul\":1592:1596   */\n  0x20\n    /* \"#utility.yul\":1586:1590   */\n  dup2\n    /* \"#utility.yul\":1582:1597   */\n  add\n    /* \"#utility.yul\":1574:1597   */\n  swap1\n  pop\n    /* \"#utility.yul\":1296:1604   */\n  swap2\n  swap1\n  pop\n  jump\t// out\n    /* \"#utility.yul\":1610:1856   */\ntag_24:\n    /* \"#utility.yul\":1691:1692   */\n  0x00\n    /* \"#utility.yul\":1701:1814   */\ntag_69:\n    /* \"#utility.yul\":1715:1721   */\n  dup4\n    /* \"#utility.yul\":1712:1713   */\n  dup2\n    /* \"#utility.yul\":1709:1722   */\n  lt\n    /* \"#utility.yul\":1701:1814   */\n  iszero\n  tag_71\n  jumpi\n    /* \"#utility.yul\":1800:1801   */\n  dup1\n    /* \"#utility.yul\":1795:1798   */\n  dup3\n    /* \"#utility.yul\":1791:1802   */\n  add\n    /* \"#utility.yul\":1785:1803   */\n  mload\n    /* \"#utility.yul\":1781:1782   */\n  dup2\n    /* \"#utility.yul\":1776:1779   */\n  dup5\n    /* \"#utility.yul\":1772:1783   */\n  add\n    /* \"#utility.yul\":1765:1804   */\n  mstore\n    /* \"#utility.yul\":1737:1739   */\n  0x20\n    /* \"#utility.yul\":1734:1735   */\n  dup2\n    /* \"#utility.yul\":1730:1740   */\n  add\n    /* \"#utility.yul\":1725:1740   */\n  swap1\n  pop\n    /* \"#utility.yul\":1701:1814   */\n  jump(tag_69)\ntag_71:\n    /* \"#utility.yul\":1848:1849   */\n  0x00\n    /* \"#utility.yul\":1839:1845   */\n  dup5\n    /* \"#utility.yul\":1834:1837   */\n  dup5\n    /* \"#utility.yul\":1830:1846   */\n  add\n    /* \"#utility.yul\":1823:1850   */\n  mstore\n    /* \"#utility.yul\":1672:1856   */\n  pop\n    /* \"#utility.yul\":1610:1856   */\n  pop\n  pop\n  pop\n  jump\t// out\n    /* \"#utility.yul\":1862:2296   */\ntag_25:\n    /* \"#utility.yul\":1951:1956   */\n  0x00\n    /* \"#utility.yul\":1976:2042   */\n  tag_73\n    /* \"#utility.yul\":1992:2041   */\n  tag_74\n    /* \"#utility.yul\":2034:2040   */\n  dup5\n    /* \"#utility.yul\":1992:2041   */\n  tag_23\n  jump\t// in\ntag_74:\n    /* \"#utility.yul\":1976:2042   */\n  tag_22\n  jump\t// in\ntag_73:\n    /* \"#utility.yul\":1967:2042   */\n  swap1\n  pop\n    /* \"#utility.yul\":2065:2071   */\n  dup3\n    /* \"#utility.yul\":2058:2063   */\n  dup2\n    /* \"#utility.yul\":2051:2072   */\n  mstore\n    /* \"#utility.yul\":2103:2107   */\n  0x20\n    /* \"#utility.yul\":2096:2101   */\n  dup2\n    /* \"#utility.yul\":2092:2108   */\n  add\n    /* \"#utility.yul\":2141:2144   */\n  dup5\n    /* \"#utility.yul\":2132:2138   */\n  dup5\n    /* \"#utility.yul\":2127:2130   */\n  dup5\n    /* \"#utility.yul\":2123:2139   */\n  add\n    /* \"#utility.yul\":2120:2145   */\n  gt\n    /* \"#utility.yul\":2117:2229   */\n  iszero\n  tag_75\n  jumpi\n    /* \"#utility.yul\":2148:2227   */\n  tag_76\n  tag_18\n  jump\t// in\ntag_76:\n    /* \"#utility.yul\":2117:2229   */\ntag_75:\n    /* \"#utility.yul\":2238:2290   */\n  tag_77\n    /* \"#utility.yul\":2283:2289   */\n  dup5\n    /* \"#utility.yul\":2278:2281   */\n  dup3\n    /* \"#utility.yul\":2273:2276   */\n  dup6\n    /* \"#utility.yul\":2238:2290   */\n  tag_24\n  jump\t// in\ntag_77:\n    /* \"#utility.yul\":1957:2296   */\n  pop\n    /* \"#utility.yul\":1862:2296   */\n  swap4\n  swap3\n  pop\n  pop\n  pop\n  jump\t// out\n    /* \"#utility.yul\":2316:2671   */\ntag_26:\n    /* \"#utility.yul\":2383:2388   */\n  0x00\n    /* \"#utility.yul\":2432:2435   */\n  dup3\n    /* \"#utility.yul\":2425:2429   */\n  0x1f\n    /* \"#utility.yul\":2417:2423   */\n  dup4\n    /* \"#utility.yul\":2413:2430   */\n  add\n    /* \"#utility.yul\":2409:2436   */\n  slt\n    /* \"#utility.yul\":2399:2521   */\n  tag_79\n  jumpi\n    /* \"#utility.yul\":2440:2519   */\n  tag_80\n  tag_17\n  jump\t// in\ntag_80:\n    /* \"#utility.yul\":2399:2521   */\ntag_79:\n    /* \"#utility.yul\":2550:2556   */\n  dup2\n    /* \"#utility.yul\":2544:2557   */\n  mload\n    /* \"#utility.yul\":2575:2665   */\n  tag_81\n    /* \"#utility.yul\":2661:2664   */\n  dup5\n    /* \"#utility.yul\":2653:2659   */\n  dup3\n    /* \"#utility.yul\":2646:2650   */\n  0x20\n    /* \"#utility.yul\":2638:2644   */\n  dup7\n    /* \"#utility.yul\":2634:2651   */\n  add\n    /* \"#utility.yul\":2575:2665   */\n  tag_25\n  jump\t// in\ntag_81:\n    /* \"#utility.yul\":2566:2665   */\n  swap2\n  pop\n    /* \"#utility.yul\":2389:2671   */\n  pop\n    /* \"#utility.yul\":2316:2671   */\n  swap3\n  swap2\n  pop\n  pop\n  jump\t// out\n    /* \"#utility.yul\":2677:3530   */\ntag_3:\n    /* \"#utility.yul\":2776:2782   */\n  0x00\n    /* \"#utility.yul\":2784:2790   */\n  dup1\n    /* \"#utility.yul\":2833:2835   */\n  0x40\n    /* \"#utility.yul\":2821:2830   */\n  dup4\n    /* \"#utility.yul\":2812:2819   */\n  dup6\n    /* \"#utility.yul\":2808:2831   */\n  sub\n    /* \"#utility.yul\":2804:2836   */\n  slt\n    /* \"#utility.yul\":2801:2920   */\n  iszero\n  tag_83\n  jumpi\n    /* \"#utility.yul\":2839:2918   */\n  tag_84\n  tag_15\n  jump\t// in\ntag_84:\n    /* \"#utility.yul\":2801:2920   */\ntag_83:\n    /* \"#utility.yul\":2980:2981   */\n  0x00\n    /* \"#utility.yul\":2969:2978   */\n  dup4\n    /* \"#utility.yul\":2965:2982   */\n  add\n    /* \"#utility.yul\":2959:2983   */\n  mload\n    /* \"#utility.yul\":3010:3028   */\n  0xffffffffffffffff\n    /* \"#utility.yul\":3002:3008   */\n  dup2\n    /* \"#utility.yul\":2999:3029   */\n  gt\n    /* \"#utility.yul\":2996:3113   */\n  iszero\n  tag_85\n  jumpi\n    /* \"#utility.yul\":3032:3111   */\n  tag_86\n  tag_16\n  jump\t// in\ntag_86:\n    /* \"#utility.yul\":2996:3113   */\ntag_85:\n    /* \"#utility.yul\":3137:3211   */\n  tag_87\n    /* \"#utility.yul\":3203:3210   */\n  dup6\n    /* \"#utility.yul\":3194:3200   */\n  dup3\n    /* \"#utility.yul\":3183:3192   */\n  dup7\n    /* \"#utility.yul\":3179:3201   */\n  add\n    /* \"#utility.yul\":3137:3211   */\n  tag_26\n  jump\t// in\ntag_87:\n    /* \"#utility.yul\":3127:3211   */\n  swap3\n  pop\n    /* \"#utility.yul\":2930:3221   */\n  pop\n    /* \"#utility.yul\":3281:3283   */\n  0x20\n    /* \"#utility.yul\":3270:3279   */\n  dup4\n    /* \"#utility.yul\":3266:3284   */\n  add\n    /* \"#utility.yul\":3260:3285   */\n  mload\n    /* \"#utility.yul\":3312:3330   */\n  0xffffffffffffffff\n    /* \"#utility.yul\":3304:3310   */\n  dup2\n    /* \"#utility.yul\":3301:3331   */\n  gt\n    /* \"#utility.yul\":3298:3415   */\n  iszero\n  tag_88\n  jumpi\n    /* \"#utility.yul\":3334:3413   */\n  tag_89\n  tag_16\n  jump\t// in\ntag_89:\n    /* \"#utility.yul\":3298:3415   */\ntag_88:\n    /* \"#utility.yul\":3439:3513   */\n  tag_90\n    /* \"#utility.yul\":3505:3512   */\n  dup6\n    /* \"#utility.yul\":3496:3502   */\n  dup3\n    /* \"#utility.yul\":3485:3494   */\n  dup7\n    /* \"#utility.yul\":3481:3503   */\n  add\n    /* \"#utility.yul\":3439:3513   */\n  tag_26\n  jump\t// in\ntag_90:\n    /* \"#utility.yul\":3429:3513   */\n  swap2\n  pop\n    /* \"#utility.yul\":3231:3523   */\n  pop\n    /* \"#utility.yul\":2677:3530   */\n  swap3\n  pop\n  swap3\n  swap1\n  pop\n  jump\t// out\n    /* \"#utility.yul\":3536:3705   */\ntag_27:\n    /* \"#utility.yul\":3620:3631   */\n  0x00\n    /* \"#utility.yul\":3654:3660   */\n  dup3\n    /* \"#utility.yul\":3649:3652   */\n  dup3\n    /* \"#utility.yul\":3642:3661   */\n  mstore\n    /* \"#utility.yul\":3694:3698   */\n  0x20\n    /* \"#utility.yul\":3689:3692   */\n  dup3\n    /* \"#utility.yul\":3685:3699   */\n  add\n    /* \"#utility.yul\":3670:3699   */\n  swap1\n  pop\n    /* \"#utility.yul\":3536:3705   */\n  swap3\n  swap2\n  pop\n  pop\n  jump\t// out\n    /* \"#utility.yul\":3711:3931   */\ntag_28:\n    /* \"#utility.yul\":3851:3885   */\n  0x457263373231546f6b656e3a66696c6c20616c6c20696e707574206669656c64\n    /* \"#utility.yul\":3847:3848   */\n  0x00\n    /* \"#utility.yul\":3839:3845   */\n  dup3\n    /* \"#utility.yul\":3835:3849   */\n  add\n    /* \"#utility.yul\":3828:3886   */\n  mstore\n    /* \"#utility.yul\":3920:3923   */\n  0x7300000000000000000000000000000000000000000000000000000000000000\n    /* \"#utility.yul\":3915:3917   */\n  0x20\n    /* \"#utility.yul\":3907:3913   */\n  dup3\n    /* \"#utility.yul\":3903:3918   */\n  add\n    /* \"#utility.yul\":3896:3924   */\n  mstore\n    /* \"#utility.yul\":3711:3931   */\n  pop\n  jump\t// out\n    /* \"#utility.yul\":3937:4303   */\ntag_29:\n    /* \"#utility.yul\":4079:4082   */\n  0x00\n    /* \"#utility.yul\":4100:4167   */\n  tag_94\n    /* \"#utility.yul\":4164:4166   */\n  0x21\n    /* \"#utility.yul\":4159:4162   */\n  dup4\n    /* \"#utility.yul\":4100:4167   */\n  tag_27\n  jump\t// in\ntag_94:\n    /* \"#utility.yul\":4093:4167   */\n  swap2\n  pop\n    /* \"#utility.yul\":4176:4269   */\n  tag_95\n    /* \"#utility.yul\":4265:4268   */\n  dup3\n    /* \"#utility.yul\":4176:4269   */\n  tag_28\n  jump\t// in\ntag_95:\n    /* \"#utility.yul\":4294:4296   */\n  0x40\n    /* \"#utility.yul\":4289:4292   */\n  dup3\n    /* \"#utility.yul\":4285:4297   */\n  add\n    /* \"#utility.yul\":4278:4297   */\n  swap1\n  pop\n    /* \"#utility.yul\":3937:4303   */\n  swap2\n  swap1\n  pop\n  jump\t// out\n    /* \"#utility.yul\":4309:4728   */\ntag_9:\n    /* \"#utility.yul\":4475:4479   */\n  0x00\n    /* \"#utility.yul\":4513:4515   */\n  0x20\n    /* \"#utility.yul\":4502:4511   */\n  dup3\n    /* \"#utility.yul\":4498:4516   */\n  add\n    /* \"#utility.yul\":4490:4516   */\n  swap1\n  pop\n    /* \"#utility.yul\":4562:4571   */\n  dup2\n    /* \"#utility.yul\":4556:4560   */\n  dup2\n    /* \"#utility.yul\":4552:4572   */\n  sub\n    /* \"#utility.yul\":4548:4549   */\n  0x00\n    /* \"#utility.yul\":4537:4546   */\n  dup4\n    /* \"#utility.yul\":4533:4550   */\n  add\n    /* \"#utility.yul\":4526:4573   */\n  mstore\n    /* \"#utility.yul\":4590:4721   */\n  tag_97\n    /* \"#utility.yul\":4716:4720   */\n  dup2\n    /* \"#utility.yul\":4590:4721   */\n  tag_29\n  jump\t// in\ntag_97:\n    /* \"#utility.yul\":4582:4721   */\n  swap1\n  pop\n    /* \"#utility.yul\":4309:4728   */\n  swap2\n  swap1\n  pop\n  jump\t// out\n    /* \"#utility.yul\":4734:4833   */\ntag_30:\n    /* \"#utility.yul\":4786:4792   */\n  0x00\n    /* \"#utility.yul\":4820:4825   */\n  dup2\n    /* \"#utility.yul\":4814:4826   */\n  mload\n    /* \"#utility.yul\":4804:4826   */\n  swap1\n  pop\n    /* \"#utility.yul\":4734:4833   */\n  swap2\n  swap1\n  pop\n  jump\t// out\n    /* \"#utility.yul\":4839:5019   */\ntag_31:\n    /* \"#utility.yul\":4887:4964   */\n  0x4e487b7100000000000000000000000000000000000000000000000000000000\n    /* \"#utility.yul\":4884:4885   */\n  0x00\n    /* \"#utility.yul\":4877:4965   */\n  mstore\n    /* \"#utility.yul\":4984:4988   */\n  0x22\n    /* \"#utility.yul\":4981:4982   */\n  0x04\n    /* \"#utility.yul\":4974:4989   */\n  mstore\n    /* \"#utility.yul\":5008:5012   */\n  0x24\n    /* \"#utility.yul\":5005:5006   */\n  0x00\n    /* \"#utility.yul\":4998:5013   */\n  revert\n    /* \"#utility.yul\":5025:5345   */\ntag_32:\n    /* \"#utility.yul\":5069:5075   */\n  0x00\n    /* \"#utility.yul\":5106:5107   */\n  0x02\n    /* \"#utility.yul\":5100:5104   */\n  dup3\n    /* \"#utility.yul\":5096:5108   */\n  div\n    /* \"#utility.yul\":5086:5108   */\n  swap1\n  pop\n    /* \"#utility.yul\":5153:5154   */\n  0x01\n    /* \"#utility.yul\":5147:5151   */\n  dup3\n    /* \"#utility.yul\":5143:5155   */\n  and\n    /* \"#utility.yul\":5174:5192   */\n  dup1\n    /* \"#utility.yul\":5164:5245   */\n  tag_101\n  jumpi\n    /* \"#utility.yul\":5230:5234   */\n  0x7f\n    /* \"#utility.yul\":5222:5228   */\n  dup3\n    /* \"#utility.yul\":5218:5235   */\n  and\n    /* \"#utility.yul\":5208:5235   */\n  swap2\n  pop\n    /* \"#utility.yul\":5164:5245   */\ntag_101:\n    /* \"#utility.yul\":5292:5294   */\n  0x20\n    /* \"#utility.yul\":5284:5290   */\n  dup3\n    /* \"#utility.yul\":5281:5295   */\n  lt\n    /* \"#utility.yul\":5261:5279   */\n  dup2\n    /* \"#utility.yul\":5258:5296   */\n  sub\n    /* \"#utility.yul\":5255:5339   */\n  tag_102\n  jumpi\n    /* \"#utility.yul\":5311:5329   */\n  tag_103\n  tag_31\n  jump\t// in\ntag_103:\n    /* \"#utility.yul\":5255:5339   */\ntag_102:\n    /* \"#utility.yul\":5076:5345   */\n  pop\n    /* \"#utility.yul\":5025:5345   */\n  swap2\n  swap1\n  pop\n  jump\t// out\n    /* \"#utility.yul\":5351:5492   */\ntag_33:\n    /* \"#utility.yul\":5400:5404   */\n  0x00\n    /* \"#utility.yul\":5423:5426   */\n  dup2\n    /* \"#utility.yul\":5415:5426   */\n  swap1\n  pop\n    /* \"#utility.yul\":5446:5449   */\n  dup2\n    /* \"#utility.yul\":5443:5444   */\n  0x00\n    /* \"#utility.yul\":5436:5450   */\n  mstore\n    /* \"#utility.yul\":5480:5484   */\n  0x20\n    /* \"#utility.yul\":5477:5478   */\n  0x00\n    /* \"#utility.yul\":5467:5485   */\n  keccak256\n    /* \"#utility.yul\":5459:5485   */\n  swap1\n  pop\n    /* \"#utility.yul\":5351:5492   */\n  swap2\n  swap1\n  pop\n  jump\t// out\n    /* \"#utility.yul\":5498:5591   */\ntag_34:\n    /* \"#utility.yul\":5535:5541   */\n  0x00\n    /* \"#utility.yul\":5582:5584   */\n  0x20\n    /* \"#utility.yul\":5577:5579   */\n  0x1f\n    /* \"#utility.yul\":5570:5575   */\n  dup4\n    /* \"#utility.yul\":5566:5580   */\n  add\n    /* \"#utility.yul\":5562:5585   */\n  div\n    /* \"#utility.yul\":5552:5585   */\n  swap1\n  pop\n    /* \"#utility.yul\":5498:5591   */\n  swap2\n  swap1\n  pop\n  jump\t// out\n    /* \"#utility.yul\":5597:5704   */\ntag_35:\n    /* \"#utility.yul\":5641:5649   */\n  0x00\n    /* \"#utility.yul\":5691:5696   */\n  dup3\n    /* \"#utility.yul\":5685:5689   */\n  dup3\n    /* \"#utility.yul\":5681:5697   */\n  shl\n    /* \"#utility.yul\":5660:5697   */\n  swap1\n  pop\n    /* \"#utility.yul\":5597:5704   */\n  swap3\n  swap2\n  pop\n  pop\n  jump\t// out\n    /* \"#utility.yul\":5710:6103   */\ntag_36:\n    /* \"#utility.yul\":5779:5785   */\n  0x00\n    /* \"#utility.yul\":5829:5830   */\n  0x08\n    /* \"#utility.yul\":5817:5827   */\n  dup4\n    /* \"#utility.yul\":5813:5831   */\n  mul\n    /* \"#utility.yul\":5852:5949   */\n  tag_108\n    /* \"#utility.yul\":5882:5948   */\n  0xffffffffffffffffffffffffffffffffffffffffffffffffffffffffffffffff\n    /* \"#utility.yul\":5871:5880   */\n  dup3\n    /* \"#utility.yul\":5852:5949   */\n  tag_35\n  jump\t// in\ntag_108:\n    /* \"#utility.yul\":5970:6009   */\n  tag_109\n    /* \"#utility.yul\":6000:6008   */\n  dup7\n    /* \"#utility.yul\":5989:5998   */\n  dup4\n    /* \"#utility.yul\":5970:6009   */\n  tag_35\n  jump\t// in\ntag_109:\n    /* \"#utility.yul\":5958:6009   */\n  swap6\n  pop\n    /* \"#utility.yul\":6042:6046   */\n  dup1\n    /* \"#utility.yul\":6038:6047   */\n  not\n    /* \"#utility.yul\":6031:6036   */\n  dup5\n    /* \"#utility.yul\":6027:6048   */\n  and\n    /* \"#utility.yul\":6018:6048   */\n  swap4\n  pop\n    /* \"#utility.yul\":6091:6095   */\n  dup1\n    /* \"#utility.yul\":6081:6089   */\n  dup7\n    /* \"#utility.yul\":6077:6096   */\n  and\n    /* \"#utility.yul\":6070:6075   */\n  dup5\n    /* \"#utility.yul\":6067:6097   */\n  or\n    /* \"#utility.yul\":6057:6097   */\n  swap3\n  pop\n    /* \"#utility.yul\":5786:6103   */\n  pop\n  pop\n    /* \"#utility.yul\":5710:6103   */\n  swap4\n  swap3\n  pop\n  pop\n  pop\n  jump\t// out\n    /* \"#utility.yul\":6109:6186   */\ntag_37:\n    /* \"#utility.yul\":6146:6153   */\n  0x00\n    /* \"#utility.yul\":6175:6180   */\n  dup2\n    /* \"#utility.yul\":6164:6180   */\n  swap1\n  pop\n    /* \"#utility.yul\":6109:6186   */\n  swap2\n  swap1\n  pop\n  jump\t// out\n    /* \"#utility.yul\":6192:6252   */\ntag_38:\n    /* \"#utility.yul\":6220:6223   */\n  0x00\n    /* \"#utility.yul\":6241:6246   */\n  dup2\n    /* \"#utility.yul\":6234:6246   */\n  swap1\n  pop\n    /* \"#utility.yul\":6192:6252   */\n  swap2\n  swap1\n  pop\n  jump\t// out\n    /* \"#utility.yul\":6258:6400   */\ntag_39:\n    /* \"#utility.yul\":6308:6317   */\n  0x00\n    /* \"#utility.yul\":6341:6394   */\n  tag_113\n    /* \"#utility.yul\":6359:6393   */\n  tag_114\n    /* \"#utility.yul\":6368:6392   */\n  tag_115\n    /* \"#utility.yul\":6386:6391   */\n  dup5\n    /* \"#utility.yul\":6368:6392   */\n  tag_37\n  jump\t// in\ntag_115:\n    /* \"#utility.yul\":6359:6393   */\n  tag_38\n  jump\t// in\ntag_114:\n    /* \"#utility.yul\":6341:6394   */\n  tag_37\n  jump\t// in\ntag_113:\n    /* \"#utility.yul\":6328:6394   */\n  swap1\n  pop\n    /* \"#utility.yul\":6258:6400   */\n  swap2\n  swap1\n  pop\n  jump\t// out\n    /* \"#utility.yul\":6406:6481   */\ntag_40:\n    /* \"#utility.yul\":6449:6452   */\n  0x00\n    /* \"#utility.yul\":6470:6475   */\n  dup2\n    /* \"#utility.yul\":6463:6475   */\n  swap1\n  pop\n    /* \"#utility.yul\":6406:6481   */\n  swap2\n  swap1\n  pop\n  jump\t// out\n    /* \"#utility.yul\":6487:6756   */\ntag_41:\n    /* \"#utility.yul\":6597:6636   */\n  tag_118\n    /* \"#utility.yul\":6628:6635   */\n  dup4\n    /* \"#utility.yul\":6597:6636   */\n  tag_39\n  jump\t// in\ntag_118:\n    /* \"#utility.yul\":6658:6749   */\n  tag_119\n    /* \"#utility.yul\":6707:6748   */\n  tag_120\n    /* \"#utility.yul\":6731:6747   */\n  dup3\n    /* \"#utility.yul\":6707:6748   */\n  tag_40\n  jump\t// in\ntag_120:\n    /* \"#utility.yul\":6699:6705   */\n  dup5\n    /* \"#utility.yul\":6692:6696   */\n  dup5\n    /* \"#utility.yul\":6686:6697   */\n  sload\n    /* \"#utility.yul\":6658:6749   */\n  tag_36\n  jump\t// in\ntag_119:\n    /* \"#utility.yul\":6652:6656   */\n  dup3\n    /* \"#utility.yul\":6645:6750   */\n  sstore\n    /* \"#utility.yul\":6563:6756   */\n  pop\n    /* \"#utility.yul\":6487:6756   */\n  pop\n  pop\n  pop\n  jump\t// out\n    /* \"#utility.yul\":6762:6835   */\ntag_42:\n    /* \"#utility.yul\":6807:6810   */\n  0x00\n    /* \"#utility.yul\":6762:6835   */\n  swap1\n  jump\t// out\n    /* \"#utility.yul\":6841:7030   */\ntag_43:\n    /* \"#utility.yul\":6918:6950   */\n  tag_123\n  tag_42\n  jump\t// in\ntag_123:\n    /* \"#utility.yul\":6959:7024   */\n  tag_124\n    /* \"#utility.yul\":7017:7023   */\n  dup2\n    /* \"#utility.yul\":7009:7015   */\n  dup5\n    /* \"#utility.yul\":7003:7007   */\n  dup5\n    /* \"#utility.yul\":6959:7024   */\n  tag_41\n  jump\t// in\ntag_124:\n    /* \"#utility.yul\":6894:7030   */\n  pop\n    /* \"#utility.yul\":6841:7030   */\n  pop\n  pop\n  jump\t// out\n    /* \"#utility.yul\":7036:7222   */\ntag_44:\n    /* \"#utility.yul\":7096:7216   */\ntag_126:\n    /* \"#utility.yul\":7113:7116   */\n  dup2\n    /* \"#utility.yul\":7106:7111   */\n  dup2\n    /* \"#utility.yul\":7103:7117   */\n  lt\n    /* \"#utility.yul\":7096:7216   */\n  iszero\n  tag_128\n  jumpi\n    /* \"#utility.yul\":7167:7206   */\n  tag_129\n    /* \"#utility.yul\":7204:7205   */\n  0x00\n    /* \"#utility.yul\":7197:7202   */\n  dup3\n    /* \"#utility.yul\":7167:7206   */\n  tag_43\n  jump\t// in\ntag_129:\n    /* \"#utility.yul\":7140:7141   */\n  0x01\n    /* \"#utility.yul\":7133:7138   */\n  dup2\n    /* \"#utility.yul\":7129:7142   */\n  add\n    /* \"#utility.yul\":7120:7142   */\n  swap1\n  pop\n    /* \"#utility.yul\":7096:7216   */\n  jump(tag_126)\ntag_128:\n    /* \"#utility.yul\":7036:7222   */\n  pop\n  pop\n  jump\t// out\n    /* \"#utility.yul\":7228:7771   */\ntag_45:\n    /* \"#utility.yul\":7329:7331   */\n  0x1f\n    /* \"#utility.yul\":7324:7327   */\n  dup3\n    /* \"#utility.yul\":7321:7332   */\n  gt\n    /* \"#utility.yul\":7318:7764   */\n  iszero\n  tag_131\n  jumpi\n    /* \"#utility.yul\":7363:7401   */\n  tag_132\n    /* \"#utility.yul\":7395:7400   */\n  dup2\n    /* \"#utility.yul\":7363:7401   */\n  tag_33\n  jump\t// in\ntag_132:\n    /* \"#utility.yul\":7447:7476   */\n  tag_133\n    /* \"#utility.yul\":7465:7475   */\n  dup5\n    /* \"#utility.yul\":7447:7476   */\n  tag_34\n  jump\t// in\ntag_133:\n    /* \"#utility.yul\":7437:7445   */\n  dup2\n    /* \"#utility.yul\":7433:7477   */\n  add\n    /* \"#utility.yul\":7630:7632   */\n  0x20\n    /* \"#utility.yul\":7618:7628   */\n  dup6\n    /* \"#utility.yul\":7615:7633   */\n  lt\n    /* \"#utility.yul\":7612:7661   */\n  iszero\n  tag_134\n  jumpi\n    /* \"#utility.yul\":7651:7659   */\n  dup2\n    /* \"#utility.yul\":7636:7659   */\n  swap1\n  pop\n    /* \"#utility.yul\":7612:7661   */\ntag_134:\n    /* \"#utility.yul\":7674:7754   */\n  tag_135\n    /* \"#utility.yul\":7730:7752   */\n  tag_136\n    /* \"#utility.yul\":7748:7751   */\n  dup6\n    /* \"#utility.yul\":7730:7752   */\n  tag_34\n  jump\t// in\ntag_136:\n    /* \"#utility.yul\":7720:7728   */\n  dup4\n    /* \"#utility.yul\":7716:7753   */\n  add\n    /* \"#utility.yul\":7703:7714   */\n  dup3\n    /* \"#utility.yul\":7674:7754   */\n  tag_44\n  jump\t// in\ntag_135:\n    /* \"#utility.yul\":7333:7764   */\n  pop\n  pop\n    /* \"#utility.yul\":7318:7764   */\ntag_131:\n    /* \"#utility.yul\":7228:7771   */\n  pop\n  pop\n  pop\n  jump\t// out\n    /* \"#utility.yul\":7777:7894   */\ntag_46:\n    /* \"#utility.yul\":7831:7839   */\n  0x00\n    /* \"#utility.yul\":7881:7886   */\n  dup3\n    /* \"#utility.yul\":7875:7879   */\n  dup3\n    /* \"#utility.yul\":7871:7887   */\n  shr\n    /* \"#utility.yul\":7850:7887   */\n  swap1\n  pop\n    /* \"#utility.yul\":7777:7894   */\n  swap3\n  swap2\n  pop\n  pop\n  jump\t// out\n    /* \"#utility.yul\":7900:8069   */\ntag_47:\n    /* \"#utility.yul\":7944:7950   */\n  0x00\n    /* \"#utility.yul\":7977:8028   */\n  tag_139\n    /* \"#utility.yul\":8025:8026   */\n  0x00\n    /* \"#utility.yul\":8021:8027   */\n  not\n    /* \"#utility.yul\":8013:8018   */\n  dup5\n    /* \"#utility.yul\":8010:8011   */\n  0x08\n    /* \"#utility.yul\":8006:8019   */\n  mul\n    /* \"#utility.yul\":7977:8028   */\n  tag_46\n  jump\t// in\ntag_139:\n    /* \"#utility.yul\":7973:8029   */\n  not\n    /* \"#utility.yul\":8058:8062   */\n  dup1\n    /* \"#utility.yul\":8052:8056   */\n  dup4\n    /* \"#utility.yul\":8048:8063   */\n  and\n    /* \"#utility.yul\":8038:8063   */\n  swap2\n  pop\n    /* \"#utility.yul\":7951:8069   */\n  pop\n    /* \"#utility.yul\":7900:8069   */\n  swap3\n  swap2\n  pop\n  pop\n  jump\t// out\n    /* \"#utility.yul\":8074:8369   */\ntag_48:\n    /* \"#utility.yul\":8150:8154   */\n  0x00\n    /* \"#utility.yul\":8296:8325   */\n  tag_141\n    /* \"#utility.yul\":8321:8324   */\n  dup4\n    /* \"#utility.yul\":8315:8319   */\n  dup4\n    /* \"#utility.yul\":8296:8325   */\n  tag_47\n  jump\t// in\ntag_141:\n    /* \"#utility.yul\":8288:8325   */\n  swap2\n  pop\n    /* \"#utility.yul\":8358:8361   */\n  dup3\n    /* \"#utility.yul\":8355:8356   */\n  0x02\n    /* \"#utility.yul\":8351:8362   */\n  mul\n    /* \"#utility.yul\":8345:8349   */\n  dup3\n    /* \"#utility.yul\":8342:8363   */\n  or\n    /* \"#utility.yul\":8334:8363   */\n  swap1\n  pop\n    /* \"#utility.yul\":8074:8369   */\n  swap3\n  swap2\n  pop\n  pop\n  jump\t// out\n    /* \"#utility.yul\":8374:9769   */\ntag_11:\n    /* \"#utility.yul\":8491:8528   */\n  tag_143\n    /* \"#utility.yul\":8524:8527   */\n  dup3\n    /* \"#utility.yul\":8491:8528   */\n  tag_30\n  jump\t// in\ntag_143:\n    /* \"#utility.yul\":8593:8611   */\n  0xffffffffffffffff\n    /* \"#utility.yul\":8585:8591   */\n  dup2\n    /* \"#utility.yul\":8582:8612   */\n  gt\n    /* \"#utility.yul\":8579:8635   */\n  iszero\n  tag_144\n  jumpi\n    /* \"#utility.yul\":8615:8633   */\n  tag_145\n  tag_20\n  jump\t// in\ntag_145:\n    /* \"#utility.yul\":8579:8635   */\ntag_144:\n    /* \"#utility.yul\":8659:8697   */\n  tag_146\n    /* \"#utility.yul\":8691:8695   */\n  dup3\n    /* \"#utility.yul\":8685:8696   */\n  sload\n    /* \"#utility.yul\":8659:8697   */\n  tag_32\n  jump\t// in\ntag_146:\n    /* \"#utility.yul\":8744:8811   */\n  tag_147\n    /* \"#utility.yul\":8804:8810   */\n  dup3\n    /* \"#utility.yul\":8796:8802   */\n  dup3\n    /* \"#utility.yul\":8790:8794   */\n  dup6\n    /* \"#utility.yul\":8744:8811   */\n  tag_45\n  jump\t// in\ntag_147:\n    /* \"#utility.yul\":8838:8839   */\n  0x00\n    /* \"#utility.yul\":8862:8866   */\n  0x20\n    /* \"#utility.yul\":8849:8866   */\n  swap1\n  pop\n    /* \"#utility.yul\":8894:8896   */\n  0x1f\n    /* \"#utility.yul\":8886:8892   */\n  dup4\n    /* \"#utility.yul\":8883:8897   */\n  gt\n    /* \"#utility.yul\":8911:8912   */\n  0x01\n    /* \"#utility.yul\":8906:9524   */\n  dup2\n  eq\n  tag_149\n  jumpi\n    /* \"#utility.yul\":9568:9569   */\n  0x00\n    /* \"#utility.yul\":9585:9591   */\n  dup5\n    /* \"#utility.yul\":9582:9659   */\n  iszero\n  tag_150\n  jumpi\n    /* \"#utility.yul\":9634:9643   */\n  dup3\n    /* \"#utility.yul\":9629:9632   */\n  dup8\n    /* \"#utility.yul\":9625:9644   */\n  add\n    /* \"#utility.yul\":9619:9645   */\n  mload\n    /* \"#utility.yul\":9610:9645   */\n  swap1\n  pop\n    /* \"#utility.yul\":9582:9659   */\ntag_150:\n    /* \"#utility.yul\":9685:9752   */\n  tag_151\n    /* \"#utility.yul\":9745:9751   */\n  dup6\n    /* \"#utility.yul\":9738:9743   */\n  dup3\n    /* \"#utility.yul\":9685:9752   */\n  tag_48\n  jump\t// in\ntag_151:\n    /* \"#utility.yul\":9679:9683   */\n  dup7\n    /* \"#utility.yul\":9672:9753   */\n  sstore\n    /* \"#utility.yul\":9541:9763   */\n  pop\n    /* \"#utility.yul\":8876:9763   */\n  jump(tag_148)\n    /* \"#utility.yul\":8906:9524   */\ntag_149:\n    /* \"#utility.yul\":8958:8962   */\n  0x1f\n    /* \"#utility.yul\":8954:8963   */\n  not\n    /* \"#utility.yul\":8946:8952   */\n  dup5\n    /* \"#utility.yul\":8942:8964   */\n  and\n    /* \"#utility.yul\":8992:9029   */\n  tag_152\n    /* \"#utility.yul\":9024:9028   */\n  dup7\n    /* \"#utility.yul\":8992:9029   */\n  tag_33\n  jump\t// in\ntag_152:\n    /* \"#utility.yul\":9051:9052   */\n  0x00\n    /* \"#utility.yul\":9065:9273   */\ntag_153:\n    /* \"#utility.yul\":9079:9086   */\n  dup3\n    /* \"#utility.yul\":9076:9077   */\n  dup2\n    /* \"#utility.yul\":9073:9087   */\n  lt\n    /* \"#utility.yul\":9065:9273   */\n  iszero\n  tag_155\n  jumpi\n    /* \"#utility.yul\":9158:9167   */\n  dup5\n    /* \"#utility.yul\":9153:9156   */\n  dup10\n    /* \"#utility.yul\":9149:9168   */\n  add\n    /* \"#utility.yul\":9143:9169   */\n  mload\n    /* \"#utility.yul\":9135:9141   */\n  dup3\n    /* \"#utility.yul\":9128:9170   */\n  sstore\n    /* \"#utility.yul\":9209:9210   */\n  0x01\n    /* \"#utility.yul\":9201:9207   */\n  dup3\n    /* \"#utility.yul\":9197:9211   */\n  add\n    /* \"#utility.yul\":9187:9211   */\n  swap2\n  pop\n    /* \"#utility.yul\":9256:9258   */\n  0x20\n    /* \"#utility.yul\":9245:9254   */\n  dup6\n    /* \"#utility.yul\":9241:9259   */\n  add\n    /* \"#utility.yul\":9228:9259   */\n  swap5\n  pop\n    /* \"#utility.yul\":9102:9106   */\n  0x20\n    /* \"#utility.yul\":9099:9100   */\n  dup2\n    /* \"#utility.yul\":9095:9107   */\n  add\n    /* \"#utility.yul\":9090:9107   */\n  swap1\n  pop\n    /* \"#utility.yul\":9065:9273   */\n  jump(tag_153)\ntag_155:\n    /* \"#utility.yul\":9301:9307   */\n  dup7\n    /* \"#utility.yul\":9292:9299   */\n  dup4\n    /* \"#utility.yul\":9289:9308   */\n  lt\n    /* \"#utility.yul\":9286:9465   */\n  iszero\n  tag_156\n  jumpi\n    /* \"#utility.yul\":9359:9368   */\n  dup5\n    /* \"#utility.yul\":9354:9357   */\n  dup10\n    /* \"#utility.yul\":9350:9369   */\n  add\n    /* \"#utility.yul\":9344:9370   */\n  mload\n    /* \"#utility.yul\":9402:9450   */\n  tag_157\n    /* \"#utility.yul\":9444:9448   */\n  0x1f\n    /* \"#utility.yul\":9436:9442   */\n  dup10\n    /* \"#utility.yul\":9432:9449   */\n  and\n    /* \"#utility.yul\":9421:9430   */\n  dup3\n    /* \"#utility.yul\":9402:9450   */\n  tag_47\n  jump\t// in\ntag_157:\n    /* \"#utility.yul\":9394:9400   */\n  dup4\n    /* \"#utility.yul\":9387:9451   */\n  sstore\n    /* \"#utility.yul\":9309:9465   */\n  pop\n    /* \"#utility.yul\":9286:9465   */\ntag_156:\n    /* \"#utility.yul\":9511:9512   */\n  0x01\n    /* \"#utility.yul\":9507:9508   */\n  0x02\n    /* \"#utility.yul\":9499:9505   */\n  dup9\n    /* \"#utility.yul\":9495:9509   */\n  mul\n    /* \"#utility.yul\":9491:9513   */\n  add\n    /* \"#utility.yul\":9485:9489   */\n  dup9\n    /* \"#utility.yul\":9478:9514   */\n  sstore\n    /* \"#utility.yul\":8913:9524   */\n  pop\n  pop\n  pop\n    /* \"#utility.yul\":8876:9763   */\ntag_148:\n  pop\n    /* \"#utility.yul\":8466:9769   */\n  pop\n  pop\n  pop\n    /* \"#utility.yul\":8374:9769   */\n  pop\n  pop\n  jump\t// out\n    /* \"ERC721Auction/Erc721.sol\":898:4720  contract Erc721 is IERC721 {... */\ntag_13:\n  dataSize(sub_0)\n  dup1\n  dataOffset(sub_0)\n  0x00\n  codecopy\n  0x00\n  return\nstop\n\nsub_0: assembly {\n        /* \"ERC721Auction/Erc721.sol\":898:4720  contract Erc721 is IERC721 {... */\n      mstore(0x40, 0x80)\n      callvalue\n      dup1\n      iszero\n      tag_1\n      jumpi\n      0x00\n      dup1\n      revert\n    tag_1:\n      pop\n      jumpi(tag_2, lt(calldatasize, 0x04))\n      shr(0xe0, calldataload(0x00))\n      dup1\n      0x6352211e\n      gt\n      tag_15\n      jumpi\n      dup1\n      0x6352211e\n      eq\n      tag_9\n      jumpi\n      dup1\n      0x70a08231\n      eq\n      tag_10\n      jumpi\n      dup1\n      0x95d89b41\n      eq\n      tag_11\n      jumpi\n      dup1\n      0xa22cb465\n      eq\n      tag_12\n      jumpi\n      dup1\n      0xe985e9c5\n      eq\n      tag_13\n      jumpi\n      dup1\n      0xf851a440\n      eq\n      tag_14\n      jumpi\n      jump(tag_2)\n    tag_15:\n      dup1\n      0x01173a74\n      eq\n      tag_3\n      jumpi\n      dup1\n      0x06fdde03\n      eq\n      tag_4\n      jumpi\n      dup1\n      0x081812fc\n      eq\n      tag_5\n      jumpi\n      dup1\n      0x095ea7b3\n      eq\n      tag_6\n      jumpi\n      dup1\n      0x23b872dd\n      eq\n      tag_7\n      jumpi\n      dup1\n      0x42966c68\n      eq\n      tag_8\n      jumpi\n    tag_2:\n      0x00\n      dup1\n      revert\n        /* \"ERC721Auction/Erc721.sol\":1714:2154  function mintToken(address _to) external onlyAdmin {... */\n    tag_3:\n      tag_16\n      0x04\n      dup1\n      calldatasize\n      sub\n      dup2\n      add\n      swap1\n      tag_17\n      swap2\n      swap1\n      tag_18\n      jump\t// in\n    tag_17:\n      tag_19\n      jump\t// in\n    tag_16:\n      stop\n        /* \"ERC721Auction/Erc721.sol\":931:949  string public name */\n    tag_4:\n      tag_20\n      tag_21\n      jump\t// in\n    tag_20:\n      mload(0x40)\n      tag_22\n      swap2\n      swap1\n      tag_23\n      jump\t// in\n    tag_22:\n      mload(0x40)\n      dup1\n      swap2\n      sub\n      swap1\n      return\n        /* \"ERC721Auction/Erc721.sol\":4037:4145  function getApproved(uint256 _tokenId) public view returns (address) {... */\n    tag_5:\n      tag_24\n      0x04\n      dup1\n      calldatasize\n      sub\n      dup2\n      add\n      swap1\n      tag_25\n      swap2\n      swap1\n      tag_26\n      jump\t// in\n    tag_25:\n      tag_27\n      jump\t// in\n    tag_24:\n      mload(0x40)\n      tag_28\n      swap2\n      swap1\n      tag_29\n      jump\t// in\n    tag_28:\n      mload(0x40)\n      dup1\n      swap2\n      sub\n      swap1\n      return\n        /* \"ERC721Auction/Erc721.sol\":3242:3715  function approve(address _approved, uint256 _tokenId) external {... */\n    tag_6:\n      tag_30\n      0x04\n      dup1\n      calldatasize\n      sub\n      dup2\n      add\n      swap1\n      tag_31\n      swap2\n      swap1\n      tag_32\n      jump\t// in\n    tag_31:\n      tag_33\n      jump\t// in\n    tag_30:\n      stop\n        /* \"ERC721Auction/Erc721.sol\":2583:3236  function transferFrom(... */\n    tag_7:\n      tag_34\n      0x04\n      dup1\n      calldatasize\n      sub\n      dup2\n      add\n      swap1\n      tag_35\n      swap2\n      swap1\n      tag_36\n      jump\t// in\n    tag_35:\n      tag_37\n      jump\t// in\n    tag_34:\n      stop\n        /* \"ERC721Auction/Erc721.sol\":4326:4718  function burn(uint256 _tokenId) external {... */\n    tag_8:\n      tag_38\n      0x04\n      dup1\n      calldatasize\n      sub\n      dup2\n      add\n      swap1\n      tag_39\n      swap2\n      swap1\n      tag_26\n      jump\t// in\n    tag_39:\n      tag_40\n      jump\t// in\n    tag_38:\n      stop\n        /* \"ERC721Auction/Erc721.sol\":2272:2376  function ownerOf(uint256 _tokenId) public view returns (address) {... */\n    tag_9:\n      tag_41\n      0x04\n      dup1\n      calldatasize\n      sub\n      dup2\n      add\n      swap1\n      tag_42\n      swap2\n      swap1\n      tag_26\n      jump\t// in\n    tag_42:\n      tag_43\n      jump\t// in\n    tag_41:\n      mload(0x40)\n      tag_44\n      swap2\n      swap1\n      tag_29\n      jump\t// in\n    tag_44:\n      mload(0x40)\n      dup1\n      swap2\n      sub\n      swap1\n      return\n        /* \"ERC721Auction/Erc721.sol\":2160:2266  function balanceOf(address _owner) external view returns (uint256) {... */\n    tag_10:\n      tag_45\n      0x04\n      dup1\n      calldatasize\n      sub\n      dup2\n      add\n      swap1\n      tag_46\n      swap2\n      swap1\n      tag_18\n      jump\t// in\n    tag_46:\n      tag_47\n      jump\t// in\n    tag_45:\n      mload(0x40)\n      tag_48\n      swap2\n      swap1\n      tag_49\n      jump\t// in\n    tag_48:\n      mload(0x40)\n      dup1\n      swap2\n      sub\n      swap1\n      return\n        /* \"ERC721Auction/Erc721.sol\":955:975  string public symbol */\n    tag_11:\n      tag_50\n      tag_51\n      jump\t// in\n    tag_50:\n      mload(0x40)\n      tag_52\n      swap2\n      swap1\n      tag_23\n      jump\t// in\n    tag_52:\n      mload(0x40)\n      dup1\n      swap2\n      sub\n      swap1\n      return\n        /* \"ERC721Auction/Erc721.sol\":3721:4031  function setApprovalForAll(address _operator, bool _approved) external {... */\n    tag_12:\n      tag_53\n      0x04\n      dup1\n      calldatasize\n      sub\n      dup2\n      add\n      swap1\n      tag_54\n      swap2\n      swap1\n      tag_55\n      jump\t// in\n    tag_54:\n      tag_56\n      jump\t// in\n    tag_53:\n      stop\n        /* \"ERC721Auction/Erc721.sol\":4151:4320  function isApprovedForAll(address _owner, address _operator)... */\n    tag_13:\n      tag_57\n      0x04\n      dup1\n      calldatasize\n      sub\n      dup2\n      add\n      swap1\n      tag_58\n      swap2\n      swap1\n      tag_59\n      jump\t// in\n    tag_58:\n      tag_60\n      jump\t// in\n    tag_57:\n      mload(0x40)\n      tag_61\n      swap2\n      swap1\n      tag_62\n      jump\t// in\n    tag_61:\n      mload(0x40)\n      dup1\n      swap2\n      sub\n      swap1\n      return\n        /* \"ERC721Auction/Erc721.sol\":981:1001  address public admin */\n    tag_14:\n      tag_63\n      tag_64\n      jump\t// in\n    tag_63:\n      mload(0x40)\n      tag_65\n      swap2\n      swap1\n      tag_29\n      jump\t// in\n    tag_65:\n      mload(0x40)\n      dup1\n      swap2\n      sub\n      swap1\n      return\n        /* \"ERC721Auction/Erc721.sol\":1714:2154  function mintToken(address _to) external onlyAdmin {... */\n    tag_19:\n        /* \"ERC721Auction/Erc721.sol\":1649:1654  admin */\n      0x02\n      0x00\n      swap1\n      sload\n      swap1\n      0x0100\n      exp\n      swap1\n      div\n      0xffffffffffffffffffffffffffffffffffffffff\n      and\n        /* \"ERC721Auction/Erc721.sol\":1635:1654  msg.sender == admin */\n      0xffffffffffffffffffffffffffffffffffffffff\n      and\n        /* \"ERC721Auction/Erc721.sol\":1635:1645  msg.sender */\n      caller\n        /* \"ERC721Auction/Erc721.sol\":1635:1654  msg.sender == admin */\n      0xffffffffffffffffffffffffffffffffffffffff\n      and\n      eq\n        /* \"ERC721Auction/Erc721.sol\":1627:1690  require(msg.sender == admin, \"Erc721Token: Only Admin Allowed\") */\n      tag_67\n      jumpi\n      mload(0x40)\n      0x08c379a000000000000000000000000000000000000000000000000000000000\n      dup2\n      mstore\n      0x04\n      add\n      tag_68\n      swap1\n      tag_69\n      jump\t// in\n    tag_68:\n      mload(0x40)\n      dup1\n      swap2\n      sub\n      swap1\n      revert\n    tag_67:\n        /* \"ERC721Auction/Erc721.sol\":1811:1812  0 */\n      0x00\n        /* \"ERC721Auction/Erc721.sol\":1796:1813  _to != address(0) */\n      0xffffffffffffffffffffffffffffffffffffffff\n      and\n        /* \"ERC721Auction/Erc721.sol\":1796:1799  _to */\n      dup2\n        /* \"ERC721Auction/Erc721.sol\":1796:1813  _to != address(0) */\n      0xffffffffffffffffffffffffffffffffffffffff\n      and\n      sub\n        /* \"ERC721Auction/Erc721.sol\":1775:1884  require(... */\n      tag_71\n      jumpi\n      mload(0x40)\n      0x08c379a000000000000000000000000000000000000000000000000000000000\n      dup2\n      mstore\n      0x04\n      add\n      tag_72\n      swap1\n      tag_73\n      jump\t// in\n    tag_72:\n      mload(0x40)\n      dup1\n      swap2\n      sub\n      swap1\n      revert\n    tag_71:\n        /* \"ERC721Auction/Erc721.sol\":1934:1935  0 */\n      0x00\n        /* \"ERC721Auction/Erc721.sol\":1915:1918  _to */\n      dup2\n        /* \"ERC721Auction/Erc721.sol\":1915:1930  _to.code.length */\n      0xffffffffffffffffffffffffffffffffffffffff\n      and\n      extcodesize\n        /* \"ERC721Auction/Erc721.sol\":1915:1935  _to.code.length == 0 */\n      eq\n        /* \"ERC721Auction/Erc721.sol\":1894:2000  require(... */\n      tag_74\n      jumpi\n      mload(0x40)\n      0x08c379a000000000000000000000000000000000000000000000000000000000\n      dup2\n      mstore\n      0x04\n      add\n      tag_75\n      swap1\n      tag_76\n      jump\t// in\n    tag_75:\n      mload(0x40)\n      dup1\n      swap2\n      sub\n      swap1\n      revert\n    tag_74:\n        /* \"ERC721Auction/Erc721.sol\":2012:2017  count */\n      0x03\n      0x00\n        /* \"ERC721Auction/Erc721.sol\":2010:2017  ++count */\n      dup2\n      sload\n      tag_77\n      swap1\n      tag_78\n      jump\t// in\n    tag_77:\n      swap2\n      swap1\n      pop\n      dup2\n      swap1\n      sstore\n      pop\n        /* \"ERC721Auction/Erc721.sol\":2042:2045  _to */\n      dup1\n        /* \"ERC721Auction/Erc721.sol\":2027:2032  owner */\n      0x05\n        /* \"ERC721Auction/Erc721.sol\":2027:2039  owner[count] */\n      0x00\n        /* \"ERC721Auction/Erc721.sol\":2033:2038  count */\n      sload(0x03)\n        /* \"ERC721Auction/Erc721.sol\":2027:2039  owner[count] */\n      dup2\n      mstore\n      0x20\n      add\n      swap1\n      dup2\n      mstore\n      0x20\n      add\n      0x00\n      keccak256\n      0x00\n        /* \"ERC721Auction/Erc721.sol\":2027:2045  owner[count] = _to */\n      0x0100\n      exp\n      dup2\n      sload\n      dup2\n      0xffffffffffffffffffffffffffffffffffffffff\n      mul\n      not\n      and\n      swap1\n      dup4\n      0xffffffffffffffffffffffffffffffffffffffff\n      and\n      mul\n      or\n      swap1\n      sstore\n      pop\n        /* \"ERC721Auction/Erc721.sol\":2055:2062  balance */\n      0x04\n        /* \"ERC721Auction/Erc721.sol\":2055:2067  balance[_to] */\n      0x00\n        /* \"ERC721Auction/Erc721.sol\":2063:2066  _to */\n      dup3\n        /* \"ERC721Auction/Erc721.sol\":2055:2067  balance[_to] */\n      0xffffffffffffffffffffffffffffffffffffffff\n      and\n      0xffffffffffffffffffffffffffffffffffffffff\n      and\n      dup2\n      mstore\n      0x20\n      add\n      swap1\n      dup2\n      mstore\n      0x20\n      add\n      0x00\n      keccak256\n      0x00\n        /* \"ERC721Auction/Erc721.sol\":2055:2069  balance[_to]++ */\n      dup2\n      sload\n      dup1\n      swap3\n      swap2\n      swap1\n      tag_79\n      swap1\n      tag_78\n      jump\t// in\n    tag_79:\n      swap2\n      swap1\n      pop\n      sstore\n      pop\n        /* \"ERC721Auction/Erc721.sol\":2095:2099  true */\n      0x01\n        /* \"ERC721Auction/Erc721.sol\":2079:2085  exists */\n      0x07\n        /* \"ERC721Auction/Erc721.sol\":2079:2092  exists[count] */\n      0x00\n        /* \"ERC721Auction/Erc721.sol\":2086:2091  count */\n      sload(0x03)\n        /* \"ERC721Auction/Erc721.sol\":2079:2092  exists[count] */\n      dup2\n      mstore\n      0x20\n      add\n      swap1\n      dup2\n      mstore\n      0x20\n      add\n      0x00\n      keccak256\n      0x00\n        /* \"ERC721Auction/Erc721.sol\":2079:2099  exists[count] = true */\n      0x0100\n      exp\n      dup2\n      sload\n      dup2\n      0xff\n      mul\n      not\n      and\n      swap1\n      dup4\n      iszero\n      iszero\n      mul\n      or\n      swap1\n      sstore\n      pop\n        /* \"ERC721Auction/Erc721.sol\":2115:2147  Transfer(address(0), _to, count) */\n      0xddf252ad1be2c89b69c2b068fc378daa952ba7f163c4a11628f55a4df523b3ef\n        /* \"ERC721Auction/Erc721.sol\":2132:2133  0 */\n      0x00\n        /* \"ERC721Auction/Erc721.sol\":2136:2139  _to */\n      dup3\n        /* \"ERC721Auction/Erc721.sol\":2141:2146  count */\n      sload(0x03)\n        /* \"ERC721Auction/Erc721.sol\":2115:2147  Transfer(address(0), _to, count) */\n      mload(0x40)\n      tag_80\n      swap4\n      swap3\n      swap2\n      swap1\n      tag_81\n      jump\t// in\n    tag_80:\n      mload(0x40)\n      dup1\n      swap2\n      sub\n      swap1\n      log1\n        /* \"ERC721Auction/Erc721.sol\":1714:2154  function mintToken(address _to) external onlyAdmin {... */\n      pop\n      jump\t// out\n        /* \"ERC721Auction/Erc721.sol\":931:949  string public name */\n    tag_21:\n      0x00\n      dup1\n      sload\n      tag_82\n      swap1\n      tag_83\n      jump\t// in\n    tag_82:\n      dup1\n      0x1f\n      add\n      0x20\n      dup1\n      swap2\n      div\n      mul\n      0x20\n      add\n      mload(0x40)\n      swap1\n      dup2\n      add\n      0x40\n      mstore\n      dup1\n      swap3\n      swap2\n      swap1\n      dup2\n      dup2\n      mstore\n      0x20\n      add\n      dup3\n      dup1\n      sload\n      tag_84\n      swap1\n      tag_83\n      jump\t// in\n    tag_84:\n      dup1\n      iszero\n      tag_85\n      jumpi\n      dup1\n      0x1f\n      lt\n      tag_86\n      jumpi\n      0x0100\n      dup1\n      dup4\n      sload\n      div\n      mul\n      dup4\n      mstore\n      swap2\n      0x20\n      add\n      swap2\n      jump(tag_85)\n    tag_86:\n      dup3\n      add\n      swap2\n      swap1\n      0x00\n      mstore\n      keccak256(0x00, 0x20)\n      swap1\n    tag_87:\n      dup2\n      sload\n      dup2\n      mstore\n      swap1\n      0x01\n      add\n      swap1\n      0x20\n      add\n      dup1\n      dup4\n      gt\n      tag_87\n      jumpi\n      dup3\n      swap1\n      sub\n      0x1f\n      and\n      dup3\n      add\n      swap2\n    tag_85:\n      pop\n      pop\n      pop\n      pop\n      pop\n      dup2\n      jump\t// out\n        /* \"ERC721Auction/Erc721.sol\":4037:4145  function getApproved(uint256 _tokenId) public view returns (address) {... */\n    tag_27:\n        /* \"ERC721Auction/Erc721.sol\":4097:4104  address */\n      0x00\n        /* \"ERC721Auction/Erc721.sol\":4123:4128  allow */\n      0x06\n        /* \"ERC721Auction/Erc721.sol\":4123:4138  allow[_tokenId] */\n      0x00\n        /* \"ERC721Auction/Erc721.sol\":4129:4137  _tokenId */\n      dup4\n        /* \"ERC721Auction/Erc721.sol\":4123:4138  allow[_tokenId] */\n      dup2\n      mstore\n      0x20\n      add\n      swap1\n      dup2\n      mstore\n      0x20\n      add\n      0x00\n      keccak256\n      0x00\n      swap1\n      sload\n      swap1\n      0x0100\n      exp\n      swap1\n      div\n      0xffffffffffffffffffffffffffffffffffffffff\n      and\n        /* \"ERC721Auction/Erc721.sol\":4116:4138  return allow[_tokenId] */\n      swap1\n      pop\n        /* \"ERC721Auction/Erc721.sol\":4037:4145  function getApproved(uint256 _tokenId) public view returns (address) {... */\n      swap2\n      swap1\n      pop\n      jump\t// out\n        /* \"ERC721Auction/Erc721.sol\":3242:3715  function approve(address _approved, uint256 _tokenId) external {... */\n    tag_33:\n        /* \"ERC721Auction/Erc721.sol\":3357:3358  0 */\n      0x00\n        /* \"ERC721Auction/Erc721.sol\":3336:3359  _approved != address(0) */\n      0xffffffffffffffffffffffffffffffffffffffff\n      and\n        /* \"ERC721Auction/Erc721.sol\":3336:3345  _approved */\n      dup3\n        /* \"ERC721Auction/Erc721.sol\":3336:3359  _approved != address(0) */\n      0xffffffffffffffffffffffffffffffffffffffff\n      and\n      sub\n        /* \"ERC721Auction/Erc721.sol\":3315:3421  require(... */\n      tag_90\n      jumpi\n      mload(0x40)\n      0x08c379a000000000000000000000000000000000000000000000000000000000\n      dup2\n      mstore\n      0x04\n      add\n      tag_91\n      swap1\n      tag_92\n      jump\t// in\n    tag_91:\n      mload(0x40)\n      dup1\n      swap2\n      sub\n      swap1\n      revert\n    tag_90:\n        /* \"ERC721Auction/Erc721.sol\":3451:3452  0 */\n      0x00\n        /* \"ERC721Auction/Erc721.sol\":3439:3447  _tokenId */\n      dup2\n        /* \"ERC721Auction/Erc721.sol\":3439:3452  _tokenId != 0 */\n      sub\n        /* \"ERC721Auction/Erc721.sol\":3431:3491  require(_tokenId != 0, \"Erc721Token: enter a valid tokenId\") */\n      tag_93\n      jumpi\n      mload(0x40)\n      0x08c379a000000000000000000000000000000000000000000000000000000000\n      dup2\n      mstore\n      0x04\n      add\n      tag_94\n      swap1\n      tag_95\n      jump\t// in\n    tag_94:\n      mload(0x40)\n      dup1\n      swap2\n      sub\n      swap1\n      revert\n    tag_93:\n        /* \"ERC721Auction/Erc721.sol\":3543:3553  msg.sender */\n      caller\n        /* \"ERC721Auction/Erc721.sol\":3522:3553  ownerOf(_tokenId) == msg.sender */\n      0xffffffffffffffffffffffffffffffffffffffff\n      and\n        /* \"ERC721Auction/Erc721.sol\":3522:3539  ownerOf(_tokenId) */\n      tag_96\n        /* \"ERC721Auction/Erc721.sol\":3530:3538  _tokenId */\n      dup3\n        /* \"ERC721Auction/Erc721.sol\":3522:3529  ownerOf */\n      tag_43\n        /* \"ERC721Auction/Erc721.sol\":3522:3539  ownerOf(_tokenId) */\n      jump\t// in\n    tag_96:\n        /* \"ERC721Auction/Erc721.sol\":3522:3553  ownerOf(_tokenId) == msg.sender */\n      0xffffffffffffffffffffffffffffffffffffffff\n      and\n      eq\n        /* \"ERC721Auction/Erc721.sol\":3501:3615  require(... */\n      tag_97\n      jumpi\n      mload(0x40)\n      0x08c379a000000000000000000000000000000000000000000000000000000000\n      dup2\n      mstore\n      0x04\n      add\n      tag_98\n      swap1\n      tag_99\n      jump\t// in\n    tag_98:\n      mload(0x40)\n      dup1\n      swap2\n      sub\n      swap1\n      revert\n    tag_97:\n        /* \"ERC721Auction/Erc721.sol\":3643:3652  _approved */\n      dup2\n        /* \"ERC721Auction/Erc721.sol\":3625:3630  allow */\n      0x06\n        /* \"ERC721Auction/Erc721.sol\":3625:3640  allow[_tokenId] */\n      0x00\n        /* \"ERC721Auction/Erc721.sol\":3631:3639  _tokenId */\n      dup4\n        /* \"ERC721Auction/Erc721.sol\":3625:3640  allow[_tokenId] */\n      dup2\n      mstore\n      0x20\n      add\n      swap1\n      dup2\n      mstore\n      0x20\n      add\n      0x00\n      keccak256\n      0x00\n        /* \"ERC721Auction/Erc721.sol\":3625:3652  allow[_tokenId] = _approved */\n      0x0100\n      exp\n      dup2\n      sload\n      dup2\n      0xffffffffffffffffffffffffffffffffffffffff\n      mul\n      not\n      and\n      swap1\n      dup4\n      0xffffffffffffffffffffffffffffffffffffffff\n      and\n      mul\n      or\n      swap1\n      sstore\n      pop\n        /* \"ERC721Auction/Erc721.sol\":3667:3708  Approval(msg.sender, _approved, _tokenId) */\n      0x8c5be1e5ebec7d5bd14f71427d1e84f3dd0314c0f7b2291e5b200ac8c7c3b925\n        /* \"ERC721Auction/Erc721.sol\":3676:3686  msg.sender */\n      caller\n        /* \"ERC721Auction/Erc721.sol\":3688:3697  _approved */\n      dup4\n        /* \"ERC721Auction/Erc721.sol\":3699:3707  _tokenId */\n      dup4\n        /* \"ERC721Auction/Erc721.sol\":3667:3708  Approval(msg.sender, _approved, _tokenId) */\n      mload(0x40)\n      tag_100\n      swap4\n      swap3\n      swap2\n      swap1\n      tag_81\n      jump\t// in\n    tag_100:\n      mload(0x40)\n      dup1\n      swap2\n      sub\n      swap1\n      log1\n        /* \"ERC721Auction/Erc721.sol\":3242:3715  function approve(address _approved, uint256 _tokenId) external {... */\n      pop\n      pop\n      jump\t// out\n        /* \"ERC721Auction/Erc721.sol\":2583:3236  function transferFrom(... */\n    tag_37:\n        /* \"ERC721Auction/Erc721.sol\":2738:2739  0 */\n      0x00\n        /* \"ERC721Auction/Erc721.sol\":2721:2740  _from != address(0) */\n      0xffffffffffffffffffffffffffffffffffffffff\n      and\n        /* \"ERC721Auction/Erc721.sol\":2721:2726  _from */\n      dup4\n        /* \"ERC721Auction/Erc721.sol\":2721:2740  _from != address(0) */\n      0xffffffffffffffffffffffffffffffffffffffff\n      and\n      sub\n        /* \"ERC721Auction/Erc721.sol\":2700:2811  require(... */\n      tag_102\n      jumpi\n      mload(0x40)\n      0x08c379a000000000000000000000000000000000000000000000000000000000\n      dup2\n      mstore\n      0x04\n      add\n      tag_103\n      swap1\n      tag_73\n      jump\t// in\n    tag_103:\n      mload(0x40)\n      dup1\n      swap2\n      sub\n      swap1\n      revert\n    tag_102:\n        /* \"ERC721Auction/Erc721.sol\":2857:2858  0 */\n      0x00\n        /* \"ERC721Auction/Erc721.sol\":2842:2859  _to != address(0) */\n      0xffffffffffffffffffffffffffffffffffffffff\n      and\n        /* \"ERC721Auction/Erc721.sol\":2842:2845  _to */\n      dup3\n        /* \"ERC721Auction/Erc721.sol\":2842:2859  _to != address(0) */\n      0xffffffffffffffffffffffffffffffffffffffff\n      and\n      sub\n        /* \"ERC721Auction/Erc721.sol\":2821:2928  require(... */\n      tag_104\n      jumpi\n      mload(0x40)\n      0x08c379a000000000000000000000000000000000000000000000000000000000\n      dup2\n      mstore\n      0x04\n      add\n      tag_105\n      swap1\n      tag_106\n      jump\t// in\n    tag_105:\n      mload(0x40)\n      dup1\n      swap2\n      sub\n      swap1\n      revert\n    tag_104:\n        /* \"ERC721Auction/Erc721.sol\":2969:2979  msg.sender */\n      caller\n        /* \"ERC721Auction/Erc721.sol\":2960:2979  _from == msg.sender */\n      0xffffffffffffffffffffffffffffffffffffffff\n      and\n        /* \"ERC721Auction/Erc721.sol\":2960:2965  _from */\n      dup4\n        /* \"ERC721Auction/Erc721.sol\":2960:2979  _from == msg.sender */\n      0xffffffffffffffffffffffffffffffffffffffff\n      and\n      eq\n        /* \"ERC721Auction/Erc721.sol\":2960:3034  _from == msg.sender ||... */\n      dup1\n      tag_107\n      jumpi\n      pop\n        /* \"ERC721Auction/Erc721.sol\":3024:3034  msg.sender */\n      caller\n        /* \"ERC721Auction/Erc721.sol\":2999:3034  getApproved(_tokenId) == msg.sender */\n      0xffffffffffffffffffffffffffffffffffffffff\n      and\n        /* \"ERC721Auction/Erc721.sol\":2999:3020  getApproved(_tokenId) */\n      tag_108\n        /* \"ERC721Auction/Erc721.sol\":3011:3019  _tokenId */\n      dup3\n        /* \"ERC721Auction/Erc721.sol\":2999:3010  getApproved */\n      tag_27\n        /* \"ERC721Auction/Erc721.sol\":2999:3020  getApproved(_tokenId) */\n      jump\t// in\n    tag_108:\n        /* \"ERC721Auction/Erc721.sol\":2999:3034  getApproved(_tokenId) == msg.sender */\n      0xffffffffffffffffffffffffffffffffffffffff\n      and\n      eq\n        /* \"ERC721Auction/Erc721.sol\":2960:3034  _from == msg.sender ||... */\n    tag_107:\n        /* \"ERC721Auction/Erc721.sol\":2960:3081  _from == msg.sender ||... */\n      dup1\n      tag_109\n      jumpi\n      pop\n        /* \"ERC721Auction/Erc721.sol\":3054:3062  allowAll */\n      0x08\n        /* \"ERC721Auction/Erc721.sol\":3054:3069  allowAll[_from] */\n      0x00\n        /* \"ERC721Auction/Erc721.sol\":3063:3068  _from */\n      dup5\n        /* \"ERC721Auction/Erc721.sol\":3054:3069  allowAll[_from] */\n      0xffffffffffffffffffffffffffffffffffffffff\n      and\n      0xffffffffffffffffffffffffffffffffffffffff\n      and\n      dup2\n      mstore\n      0x20\n      add\n      swap1\n      dup2\n      mstore\n      0x20\n      add\n      0x00\n      keccak256\n        /* \"ERC721Auction/Erc721.sol\":3054:3081  allowAll[_from][msg.sender] */\n      0x00\n        /* \"ERC721Auction/Erc721.sol\":3070:3080  msg.sender */\n      caller\n        /* \"ERC721Auction/Erc721.sol\":3054:3081  allowAll[_from][msg.sender] */\n      0xffffffffffffffffffffffffffffffffffffffff\n      and\n      0xffffffffffffffffffffffffffffffffffffffff\n      and\n      dup2\n      mstore\n      0x20\n      add\n      swap1\n      dup2\n      mstore\n      0x20\n      add\n      0x00\n      keccak256\n      0x00\n      swap1\n      sload\n      swap1\n      0x0100\n      exp\n      swap1\n      div\n      0xff\n      and\n        /* \"ERC721Auction/Erc721.sol\":2960:3081  _from == msg.sender ||... */\n    tag_109:\n        /* \"ERC721Auction/Erc721.sol\":2939:3139  require(... */\n      tag_110\n      jumpi\n      mload(0x40)\n      0x08c379a000000000000000000000000000000000000000000000000000000000\n      dup2\n      mstore\n      0x04\n      add\n      tag_111\n      swap1\n      tag_112\n      jump\t// in\n    tag_111:\n      mload(0x40)\n      dup1\n      swap2\n      sub\n      swap1\n      revert\n    tag_110:\n        /* \"ERC721Auction/Erc721.sol\":3149:3184  _transferFrom(_from, _to, _tokenId) */\n      tag_113\n        /* \"ERC721Auction/Erc721.sol\":3163:3168  _from */\n      dup4\n        /* \"ERC721Auction/Erc721.sol\":3170:3173  _to */\n      dup4\n        /* \"ERC721Auction/Erc721.sol\":3175:3183  _tokenId */\n      dup4\n        /* \"ERC721Auction/Erc721.sol\":3149:3162  _transferFrom */\n      tag_114\n        /* \"ERC721Auction/Erc721.sol\":3149:3184  _transferFrom(_from, _to, _tokenId) */\n      jump\t// in\n    tag_113:\n        /* \"ERC721Auction/Erc721.sol\":3199:3229  Transfer(_from, _to, _tokenId) */\n      0xddf252ad1be2c89b69c2b068fc378daa952ba7f163c4a11628f55a4df523b3ef\n        /* \"ERC721Auction/Erc721.sol\":3208:3213  _from */\n      dup4\n        /* \"ERC721Auction/Erc721.sol\":3215:3218  _to */\n      dup4\n        /* \"ERC721Auction/Erc721.sol\":3220:3228  _tokenId */\n      dup4\n        /* \"ERC721Auction/Erc721.sol\":3199:3229  Transfer(_from, _to, _tokenId) */\n      mload(0x40)\n      tag_115\n      swap4\n      swap3\n      swap2\n      swap1\n      tag_81\n      jump\t// in\n    tag_115:\n      mload(0x40)\n      dup1\n      swap2\n      sub\n      swap1\n      log1\n        /* \"ERC721Auction/Erc721.sol\":2583:3236  function transferFrom(... */\n      pop\n      pop\n      pop\n      jump\t// out\n        /* \"ERC721Auction/Erc721.sol\":4326:4718  function burn(uint256 _tokenId) external {... */\n    tag_40:\n        /* \"ERC721Auction/Erc721.sol\":4385:4391  exists */\n      0x07\n        /* \"ERC721Auction/Erc721.sol\":4385:4401  exists[_tokenId] */\n      0x00\n        /* \"ERC721Auction/Erc721.sol\":4392:4400  _tokenId */\n      dup3\n        /* \"ERC721Auction/Erc721.sol\":4385:4401  exists[_tokenId] */\n      dup2\n      mstore\n      0x20\n      add\n      swap1\n      dup2\n      mstore\n      0x20\n      add\n      0x00\n      keccak256\n      0x00\n      swap1\n      sload\n      swap1\n      0x0100\n      exp\n      swap1\n      div\n      0xff\n      and\n        /* \"ERC721Auction/Erc721.sol\":4377:4437  require(exists[_tokenId], \"Erc721Token:token not available\") */\n      tag_117\n      jumpi\n      mload(0x40)\n      0x08c379a000000000000000000000000000000000000000000000000000000000\n      dup2\n      mstore\n      0x04\n      add\n      tag_118\n      swap1\n      tag_119\n      jump\t// in\n    tag_118:\n      mload(0x40)\n      dup1\n      swap2\n      sub\n      swap1\n      revert\n    tag_117:\n        /* \"ERC721Auction/Erc721.sol\":4487:4497  msg.sender */\n      caller\n        /* \"ERC721Auction/Erc721.sol\":4468:4497  owner[_tokenId] == msg.sender */\n      0xffffffffffffffffffffffffffffffffffffffff\n      and\n        /* \"ERC721Auction/Erc721.sol\":4468:4473  owner */\n      0x05\n        /* \"ERC721Auction/Erc721.sol\":4468:4483  owner[_tokenId] */\n      0x00\n        /* \"ERC721Auction/Erc721.sol\":4474:4482  _tokenId */\n      dup4\n        /* \"ERC721Auction/Erc721.sol\":4468:4483  owner[_tokenId] */\n      dup2\n      mstore\n      0x20\n      add\n      swap1\n      dup2\n      mstore\n      0x20\n      add\n      0x00\n      keccak256\n      0x00\n      swap1\n      sload\n      swap1\n      0x0100\n      exp\n      swap1\n      div\n      0xffffffffffffffffffffffffffffffffffffffff\n      and\n        /* \"ERC721Auction/Erc721.sol\":4468:4497  owner[_tokenId] == msg.sender */\n      0xffffffffffffffffffffffffffffffffffffffff\n      and\n      eq\n        /* \"ERC721Auction/Erc721.sol\":4447:4558  require(... */\n      tag_120\n      jumpi\n      mload(0x40)\n      0x08c379a000000000000000000000000000000000000000000000000000000000\n      dup2\n      mstore\n      0x04\n      add\n      tag_121\n      swap1\n      tag_122\n      jump\t// in\n    tag_121:\n      mload(0x40)\n      dup1\n      swap2\n      sub\n      swap1\n      revert\n    tag_120:\n        /* \"ERC721Auction/Erc721.sol\":4594:4595  0 */\n      0x00\n        /* \"ERC721Auction/Erc721.sol\":4568:4573  owner */\n      0x05\n        /* \"ERC721Auction/Erc721.sol\":4568:4583  owner[_tokenId] */\n      0x00\n        /* \"ERC721Auction/Erc721.sol\":4574:4582  _tokenId */\n      dup4\n        /* \"ERC721Auction/Erc721.sol\":4568:4583  owner[_tokenId] */\n      dup2\n      mstore\n      0x20\n      add\n      swap1\n      dup2\n      mstore\n      0x20\n      add\n      0x00\n      keccak256\n      0x00\n        /* \"ERC721Auction/Erc721.sol\":4568:4596  owner[_tokenId] = address(0) */\n      0x0100\n      exp\n      dup2\n      sload\n      dup2\n      0xffffffffffffffffffffffffffffffffffffffff\n      mul\n      not\n      and\n      swap1\n      dup4\n      0xffffffffffffffffffffffffffffffffffffffff\n      and\n      mul\n      or\n      swap1\n      sstore\n      pop\n        /* \"ERC721Auction/Erc721.sol\":4607:4654  _transferFrom(msg.sender, address(0), _tokenId) */\n      tag_123\n        /* \"ERC721Auction/Erc721.sol\":4621:4631  msg.sender */\n      caller\n        /* \"ERC721Auction/Erc721.sol\":4641:4642  0 */\n      0x00\n        /* \"ERC721Auction/Erc721.sol\":4645:4653  _tokenId */\n      dup4\n        /* \"ERC721Auction/Erc721.sol\":4607:4620  _transferFrom */\n      tag_114\n        /* \"ERC721Auction/Erc721.sol\":4607:4654  _transferFrom(msg.sender, address(0), _tokenId) */\n      jump\t// in\n    tag_123:\n        /* \"ERC721Auction/Erc721.sol\":4669:4711  Transfer(msg.sender, address(0), _tokenId) */\n      0xddf252ad1be2c89b69c2b068fc378daa952ba7f163c4a11628f55a4df523b3ef\n        /* \"ERC721Auction/Erc721.sol\":4678:4688  msg.sender */\n      caller\n        /* \"ERC721Auction/Erc721.sol\":4698:4699  0 */\n      0x00\n        /* \"ERC721Auction/Erc721.sol\":4702:4710  _tokenId */\n      dup4\n        /* \"ERC721Auction/Erc721.sol\":4669:4711  Transfer(msg.sender, address(0), _tokenId) */\n      mload(0x40)\n      tag_124\n      swap4\n      swap3\n      swap2\n      swap1\n      tag_81\n      jump\t// in\n    tag_124:\n      mload(0x40)\n      dup1\n      swap2\n      sub\n      swap1\n      log1\n        /* \"ERC721Auction/Erc721.sol\":4326:4718  function burn(uint256 _tokenId) external {... */\n      pop\n      jump\t// out\n        /* \"ERC721Auction/Erc721.sol\":2272:2376  function ownerOf(uint256 _tokenId) public view returns (address) {... */\n    tag_43:\n        /* \"ERC721Auction/Erc721.sol\":2328:2335  address */\n      0x00\n        /* \"ERC721Auction/Erc721.sol\":2354:2359  owner */\n      0x05\n        /* \"ERC721Auction/Erc721.sol\":2354:2369  owner[_tokenId] */\n      0x00\n        /* \"ERC721Auction/Erc721.sol\":2360:2368  _tokenId */\n      dup4\n        /* \"ERC721Auction/Erc721.sol\":2354:2369  owner[_tokenId] */\n      dup2\n      mstore\n      0x20\n      add\n      swap1\n      dup2\n      mstore\n      0x20\n      add\n      0x00\n      keccak256\n      0x00\n      swap1\n      sload\n      swap1\n      0x0100\n      exp\n      swap1\n      div\n      0xffffffffffffffffffffffffffffffffffffffff\n      and\n        /* \"ERC721Auction/Erc721.sol\":2347:2369  return owner[_tokenId] */\n      swap1\n      pop\n        /* \"ERC721Auction/Erc721.sol\":2272:2376  function ownerOf(uint256 _tokenId) public view returns (address) {... */\n      swap2\n      swap1\n      pop\n      jump\t// out\n        /* \"ERC721Auction/Erc721.sol\":2160:2266  function balanceOf(address _owner) external view returns (uint256) {... */\n    tag_47:\n        /* \"ERC721Auction/Erc721.sol\":2218:2225  uint256 */\n      0x00\n        /* \"ERC721Auction/Erc721.sol\":2244:2251  balance */\n      0x04\n        /* \"ERC721Auction/Erc721.sol\":2244:2259  balance[_owner] */\n      0x00\n        /* \"ERC721Auction/Erc721.sol\":2252:2258  _owner */\n      dup4\n        /* \"ERC721Auction/Erc721.sol\":2244:2259  balance[_owner] */\n      0xffffffffffffffffffffffffffffffffffffffff\n      and\n      0xffffffffffffffffffffffffffffffffffffffff\n      and\n      dup2\n      mstore\n      0x20\n      add\n      swap1\n      dup2\n      mstore\n      0x20\n      add\n      0x00\n      keccak256\n      sload\n        /* \"ERC721Auction/Erc721.sol\":2237:2259  return balance[_owner] */\n      swap1\n      pop\n        /* \"ERC721Auction/Erc721.sol\":2160:2266  function balanceOf(address _owner) external view returns (uint256) {... */\n      swap2\n      swap1\n      pop\n      jump\t// out\n        /* \"ERC721Auction/Erc721.sol\":955:975  string public symbol */\n    tag_51:\n      0x01\n      dup1\n      sload\n      tag_127\n      swap1\n      tag_83\n      jump\t// in\n    tag_127:\n      dup1\n      0x1f\n      add\n      0x20\n      dup1\n      swap2\n      div\n      mul\n      0x20\n      add\n      mload(0x40)\n      swap1\n      dup2\n      add\n      0x40\n      mstore\n      dup1\n      swap3\n      swap2\n      swap1\n      dup2\n      dup2\n      mstore\n      0x20\n      add\n      dup3\n      dup1\n      sload\n      tag_128\n      swap1\n      tag_83\n      jump\t// in\n    tag_128:\n      dup1\n      iszero\n      tag_129\n      jumpi\n      dup1\n      0x1f\n      lt\n      tag_130\n      jumpi\n      0x0100\n      dup1\n      dup4\n      sload\n      div\n      mul\n      dup4\n      mstore\n      swap2\n      0x20\n      add\n      swap2\n      jump(tag_129)\n    tag_130:\n      dup3\n      add\n      swap2\n      swap1\n      0x00\n      mstore\n      keccak256(0x00, 0x20)\n      swap1\n    tag_131:\n      dup2\n      sload\n      dup2\n      mstore\n      swap1\n      0x01\n      add\n      swap1\n      0x20\n      add\n      dup1\n      dup4\n      gt\n      tag_131\n      jumpi\n      dup3\n      swap1\n      sub\n      0x1f\n      and\n      dup3\n      add\n      swap2\n    tag_129:\n      pop\n      pop\n      pop\n      pop\n      pop\n      dup2\n      jump\t// out\n        /* \"ERC721Auction/Erc721.sol\":3721:4031  function setApprovalForAll(address _operator, bool _approved) external {... */\n    tag_56:\n        /* \"ERC721Auction/Erc721.sol\":3844:3845  0 */\n      0x00\n        /* \"ERC721Auction/Erc721.sol\":3823:3846  _operator != address(0) */\n      0xffffffffffffffffffffffffffffffffffffffff\n      and\n        /* \"ERC721Auction/Erc721.sol\":3823:3832  _operator */\n      dup3\n        /* \"ERC721Auction/Erc721.sol\":3823:3846  _operator != address(0) */\n      0xffffffffffffffffffffffffffffffffffffffff\n      and\n      sub\n        /* \"ERC721Auction/Erc721.sol\":3802:3908  require(... */\n      tag_133\n      jumpi\n      mload(0x40)\n      0x08c379a000000000000000000000000000000000000000000000000000000000\n      dup2\n      mstore\n      0x04\n      add\n      tag_134\n      swap1\n      tag_92\n      jump\t// in\n    tag_134:\n      mload(0x40)\n      dup1\n      swap2\n      sub\n      swap1\n      revert\n    tag_133:\n        /* \"ERC721Auction/Erc721.sol\":3952:3961  _approved */\n      dup1\n        /* \"ERC721Auction/Erc721.sol\":3918:3926  allowAll */\n      0x08\n        /* \"ERC721Auction/Erc721.sol\":3918:3938  allowAll[msg.sender] */\n      0x00\n        /* \"ERC721Auction/Erc721.sol\":3927:3937  msg.sender */\n      caller\n        /* \"ERC721Auction/Erc721.sol\":3918:3938  allowAll[msg.sender] */\n      0xffffffffffffffffffffffffffffffffffffffff\n      and\n      0xffffffffffffffffffffffffffffffffffffffff\n      and\n      dup2\n      mstore\n      0x20\n      add\n      swap1\n      dup2\n      mstore\n      0x20\n      add\n      0x00\n      keccak256\n        /* \"ERC721Auction/Erc721.sol\":3918:3949  allowAll[msg.sender][_operator] */\n      0x00\n        /* \"ERC721Auction/Erc721.sol\":3939:3948  _operator */\n      dup5\n        /* \"ERC721Auction/Erc721.sol\":3918:3949  allowAll[msg.sender][_operator] */\n      0xffffffffffffffffffffffffffffffffffffffff\n      and\n      0xffffffffffffffffffffffffffffffffffffffff\n      and\n      dup2\n      mstore\n      0x20\n      add\n      swap1\n      dup2\n      mstore\n      0x20\n      add\n      0x00\n      keccak256\n      0x00\n        /* \"ERC721Auction/Erc721.sol\":3918:3961  allowAll[msg.sender][_operator] = _approved */\n      0x0100\n      exp\n      dup2\n      sload\n      dup2\n      0xff\n      mul\n      not\n      and\n      swap1\n      dup4\n      iszero\n      iszero\n      mul\n      or\n      swap1\n      sstore\n      pop\n        /* \"ERC721Auction/Erc721.sol\":3976:4024  ApprovalForAll(msg.sender, _operator, _approved) */\n      0x17307eab39ab6107e8899845ad3d59bd9653f200f220920489ca2b5937696c31\n        /* \"ERC721Auction/Erc721.sol\":3991:4001  msg.sender */\n      caller\n        /* \"ERC721Auction/Erc721.sol\":4003:4012  _operator */\n      dup4\n        /* \"ERC721Auction/Erc721.sol\":4014:4023  _approved */\n      dup4\n        /* \"ERC721Auction/Erc721.sol\":3976:4024  ApprovalForAll(msg.sender, _operator, _approved) */\n      mload(0x40)\n      tag_135\n      swap4\n      swap3\n      swap2\n      swap1\n      tag_136\n      jump\t// in\n    tag_135:\n      mload(0x40)\n      dup1\n      swap2\n      sub\n      swap1\n      log1\n        /* \"ERC721Auction/Erc721.sol\":3721:4031  function setApprovalForAll(address _operator, bool _approved) external {... */\n      pop\n      pop\n      jump\t// out\n        /* \"ERC721Auction/Erc721.sol\":4151:4320  function isApprovedForAll(address _owner, address _operator)... */\n    tag_60:\n        /* \"ERC721Auction/Erc721.sol\":4259:4263  bool */\n      0x00\n        /* \"ERC721Auction/Erc721.sol\":4286:4294  allowAll */\n      0x08\n        /* \"ERC721Auction/Erc721.sol\":4286:4302  allowAll[_owner] */\n      0x00\n        /* \"ERC721Auction/Erc721.sol\":4295:4301  _owner */\n      dup5\n        /* \"ERC721Auction/Erc721.sol\":4286:4302  allowAll[_owner] */\n      0xffffffffffffffffffffffffffffffffffffffff\n      and\n      0xffffffffffffffffffffffffffffffffffffffff\n      and\n      dup2\n      mstore\n      0x20\n      add\n      swap1\n      dup2\n      mstore\n      0x20\n      add\n      0x00\n      keccak256\n        /* \"ERC721Auction/Erc721.sol\":4286:4313  allowAll[_owner][_operator] */\n      0x00\n        /* \"ERC721Auction/Erc721.sol\":4303:4312  _operator */\n      dup4\n        /* \"ERC721Auction/Erc721.sol\":4286:4313  allowAll[_owner][_operator] */\n      0xffffffffffffffffffffffffffffffffffffffff\n      and\n      0xffffffffffffffffffffffffffffffffffffffff\n      and\n      dup2\n      mstore\n      0x20\n      add\n      swap1\n      dup2\n      mstore\n      0x20\n      add\n      0x00\n      keccak256\n      0x00\n      swap1\n      sload\n      swap1\n      0x0100\n      exp\n      swap1\n      div\n      0xff\n      and\n        /* \"ERC721Auction/Erc721.sol\":4279:4313  return allowAll[_owner][_operator] */\n      swap1\n      pop\n        /* \"ERC721Auction/Erc721.sol\":4151:4320  function isApprovedForAll(address _owner, address _operator)... */\n      swap3\n      swap2\n      pop\n      pop\n      jump\t// out\n        /* \"ERC721Auction/Erc721.sol\":981:1001  address public admin */\n    tag_64:\n      0x02\n      0x00\n      swap1\n      sload\n      swap1\n      0x0100\n      exp\n      swap1\n      div\n      0xffffffffffffffffffffffffffffffffffffffff\n      and\n      dup2\n      jump\t// out\n        /* \"ERC721Auction/Erc721.sol\":2382:2577  function _transferFrom(... */\n    tag_114:\n        /* \"ERC721Auction/Erc721.sol\":2499:2506  balance */\n      0x04\n        /* \"ERC721Auction/Erc721.sol\":2499:2513  balance[_from] */\n      0x00\n        /* \"ERC721Auction/Erc721.sol\":2507:2512  _from */\n      dup5\n        /* \"ERC721Auction/Erc721.sol\":2499:2513  balance[_from] */\n      0xffffffffffffffffffffffffffffffffffffffff\n      and\n      0xffffffffffffffffffffffffffffffffffffffff\n      and\n      dup2\n      mstore\n      0x20\n      add\n      swap1\n      dup2\n      mstore\n      0x20\n      add\n      0x00\n      keccak256\n      0x00\n        /* \"ERC721Auction/Erc721.sol\":2499:2515  balance[_from]-- */\n      dup2\n      sload\n      dup1\n      swap3\n      swap2\n      swap1\n      tag_139\n      swap1\n      tag_140\n      jump\t// in\n    tag_139:\n      swap2\n      swap1\n      pop\n      sstore\n      pop\n        /* \"ERC721Auction/Erc721.sol\":2543:2546  _to */\n      dup2\n        /* \"ERC721Auction/Erc721.sol\":2525:2530  owner */\n      0x05\n        /* \"ERC721Auction/Erc721.sol\":2525:2540  owner[_tokenId] */\n      0x00\n        /* \"ERC721Auction/Erc721.sol\":2531:2539  _tokenId */\n      dup4\n        /* \"ERC721Auction/Erc721.sol\":2525:2540  owner[_tokenId] */\n      dup2\n      mstore\n      0x20\n      add\n      swap1\n      dup2\n      mstore\n      0x20\n      add\n      0x00\n      keccak256\n      0x00\n        /* \"ERC721Auction/Erc721.sol\":2525:2546  owner[_tokenId] = _to */\n      0x0100\n      exp\n      dup2\n      sload\n      dup2\n      0xffffffffffffffffffffffffffffffffffffffff\n      mul\n      not\n      and\n      swap1\n      dup4\n      0xffffffffffffffffffffffffffffffffffffffff\n      and\n      mul\n      or\n      swap1\n      sstore\n      pop\n        /* \"ERC721Auction/Erc721.sol\":2556:2563  balance */\n      0x04\n        /* \"ERC721Auction/Erc721.sol\":2556:2568  balance[_to] */\n      0x00\n        /* \"ERC721Auction/Erc721.sol\":2564:2567  _to */\n      dup4\n        /* \"ERC721Auction/Erc721.sol\":2556:2568  balance[_to] */\n      0xffffffffffffffffffffffffffffffffffffffff\n      and\n      0xffffffffffffffffffffffffffffffffffffffff\n      and\n      dup2\n      mstore\n      0x20\n      add\n      swap1\n      dup2\n      mstore\n      0x20\n      add\n      0x00\n      keccak256\n      0x00\n        /* \"ERC721Auction/Erc721.sol\":2556:2570  balance[_to]++ */\n      dup2\n      sload\n      dup1\n      swap3\n      swap2\n      swap1\n      tag_141\n      swap1\n      tag_78\n      jump\t// in\n    tag_141:\n      swap2\n      swap1\n      pop\n      sstore\n      pop\n        /* \"ERC721Auction/Erc721.sol\":2382:2577  function _transferFrom(... */\n      pop\n      pop\n      pop\n      jump\t// out\n        /* \"#utility.yul\":88:205   */\n    tag_143:\n        /* \"#utility.yul\":197:198   */\n      0x00\n        /* \"#utility.yul\":194:195   */\n      dup1\n        /* \"#utility.yul\":187:199   */\n      revert\n        /* \"#utility.yul\":334:460   */\n    tag_145:\n        /* \"#utility.yul\":371:378   */\n      0x00\n        /* \"#utility.yul\":411:453   */\n      0xffffffffffffffffffffffffffffffffffffffff\n        /* \"#utility.yul\":404:409   */\n      dup3\n        /* \"#utility.yul\":400:454   */\n      and\n        /* \"#utility.yul\":389:454   */\n      swap1\n      pop\n        /* \"#utility.yul\":334:460   */\n      swap2\n      swap1\n      pop\n      jump\t// out\n        /* \"#utility.yul\":466:562   */\n    tag_146:\n        /* \"#utility.yul\":503:510   */\n      0x00\n        /* \"#utility.yul\":532:556   */\n      tag_191\n        /* \"#utility.yul\":550:555   */\n      dup3\n        /* \"#utility.yul\":532:556   */\n      tag_145\n      jump\t// in\n    tag_191:\n        /* \"#utility.yul\":521:556   */\n      swap1\n      pop\n        /* \"#utility.yul\":466:562   */\n      swap2\n      swap1\n      pop\n      jump\t// out\n        /* \"#utility.yul\":568:690   */\n    tag_147:\n        /* \"#utility.yul\":641:665   */\n      tag_193\n        /* \"#utility.yul\":659:664   */\n      dup2\n        /* \"#utility.yul\":641:665   */\n      tag_146\n      jump\t// in\n    tag_193:\n        /* \"#utility.yul\":634:639   */\n      dup2\n        /* \"#utility.yul\":631:666   */\n      eq\n        /* \"#utility.yul\":621:684   */\n      tag_194\n      jumpi\n        /* \"#utility.yul\":680:681   */\n      0x00\n        /* \"#utility.yul\":677:678   */\n      dup1\n        /* \"#utility.yul\":670:682   */\n      revert\n        /* \"#utility.yul\":621:684   */\n    tag_194:\n        /* \"#utility.yul\":568:690   */\n      pop\n      jump\t// out\n        /* \"#utility.yul\":696:835   */\n    tag_148:\n        /* \"#utility.yul\":742:747   */\n      0x00\n        /* \"#utility.yul\":780:786   */\n      dup2\n        /* \"#utility.yul\":767:787   */\n      calldataload\n        /* \"#utility.yul\":758:787   */\n      swap1\n      pop\n        /* \"#utility.yul\":796:829   */\n      tag_196\n        /* \"#utility.yul\":823:828   */\n      dup2\n        /* \"#utility.yul\":796:829   */\n      tag_147\n      jump\t// in\n    tag_196:\n        /* \"#utility.yul\":696:835   */\n      swap3\n      swap2\n      pop\n      pop\n      jump\t// out\n        /* \"#utility.yul\":841:1170   */\n    tag_18:\n        /* \"#utility.yul\":900:906   */\n      0x00\n        /* \"#utility.yul\":949:951   */\n      0x20\n        /* \"#utility.yul\":937:946   */\n      dup3\n        /* \"#utility.yul\":928:935   */\n      dup5\n        /* \"#utility.yul\":924:947   */\n      sub\n        /* \"#utility.yul\":920:952   */\n      slt\n        /* \"#utility.yul\":917:1036   */\n      iszero\n      tag_198\n      jumpi\n        /* \"#utility.yul\":955:1034   */\n      tag_199\n      tag_143\n      jump\t// in\n    tag_199:\n        /* \"#utility.yul\":917:1036   */\n    tag_198:\n        /* \"#utility.yul\":1075:1076   */\n      0x00\n        /* \"#utility.yul\":1100:1153   */\n      tag_200\n        /* \"#utility.yul\":1145:1152   */\n      dup5\n        /* \"#utility.yul\":1136:1142   */\n      dup3\n        /* \"#utility.yul\":1125:1134   */\n      dup6\n        /* \"#utility.yul\":1121:1143   */\n      add\n        /* \"#utility.yul\":1100:1153   */\n      tag_148\n      jump\t// in\n    tag_200:\n        /* \"#utility.yul\":1090:1153   */\n      swap2\n      pop\n        /* \"#utility.yul\":1046:1163   */\n      pop\n        /* \"#utility.yul\":841:1170   */\n      swap3\n      swap2\n      pop\n      pop\n      jump\t// out\n        /* \"#utility.yul\":1176:1275   */\n    tag_149:\n        /* \"#utility.yul\":1228:1234   */\n      0x00\n        /* \"#utility.yul\":1262:1267   */\n      dup2\n        /* \"#utility.yul\":1256:1268   */\n      mload\n        /* \"#utility.yul\":1246:1268   */\n      swap1\n      pop\n        /* \"#utility.yul\":1176:1275   */\n      swap2\n      swap1\n      pop\n      jump\t// out\n        /* \"#utility.yul\":1281:1450   */\n    tag_150:\n        /* \"#utility.yul\":1365:1376   */\n      0x00\n        /* \"#utility.yul\":1399:1405   */\n      dup3\n        /* \"#utility.yul\":1394:1397   */\n      dup3\n        /* \"#utility.yul\":1387:1406   */\n      mstore\n        /* \"#utility.yul\":1439:1443   */\n      0x20\n        /* \"#utility.yul\":1434:1437   */\n      dup3\n        /* \"#utility.yul\":1430:1444   */\n      add\n        /* \"#utility.yul\":1415:1444   */\n      swap1\n      pop\n        /* \"#utility.yul\":1281:1450   */\n      swap3\n      swap2\n      pop\n      pop\n      jump\t// out\n        /* \"#utility.yul\":1456:1702   */\n    tag_151:\n        /* \"#utility.yul\":1537:1538   */\n      0x00\n        /* \"#utility.yul\":1547:1660   */\n    tag_204:\n        /* \"#utility.yul\":1561:1567   */\n      dup4\n        /* \"#utility.yul\":1558:1559   */\n      dup2\n        /* \"#utility.yul\":1555:1568   */\n      lt\n        /* \"#utility.yul\":1547:1660   */\n      iszero\n      tag_206\n      jumpi\n        /* \"#utility.yul\":1646:1647   */\n      dup1\n        /* \"#utility.yul\":1641:1644   */\n      dup3\n        /* \"#utility.yul\":1637:1648   */\n      add\n        /* \"#utility.yul\":1631:1649   */\n      mload\n        /* \"#utility.yul\":1627:1628   */\n      dup2\n        /* \"#utility.yul\":1622:1625   */\n      dup5\n        /* \"#utility.yul\":1618:1629   */\n      add\n        /* \"#utility.yul\":1611:1650   */\n      mstore\n        /* \"#utility.yul\":1583:1585   */\n      0x20\n        /* \"#utility.yul\":1580:1581   */\n      dup2\n        /* \"#utility.yul\":1576:1586   */\n      add\n        /* \"#utility.yul\":1571:1586   */\n      swap1\n      pop\n        /* \"#utility.yul\":1547:1660   */\n      jump(tag_204)\n    tag_206:\n        /* \"#utility.yul\":1694:1695   */\n      0x00\n        /* \"#utility.yul\":1685:1691   */\n      dup5\n        /* \"#utility.yul\":1680:1683   */\n      dup5\n        /* \"#utility.yul\":1676:1692   */\n      add\n        /* \"#utility.yul\":1669:1696   */\n      mstore\n        /* \"#utility.yul\":1518:1702   */\n      pop\n        /* \"#utility.yul\":1456:1702   */\n      pop\n      pop\n      pop\n      jump\t// out\n        /* \"#utility.yul\":1708:1810   */\n    tag_152:\n        /* \"#utility.yul\":1749:1755   */\n      0x00\n        /* \"#utility.yul\":1800:1802   */\n      0x1f\n        /* \"#utility.yul\":1796:1803   */\n      not\n        /* \"#utility.yul\":1791:1793   */\n      0x1f\n        /* \"#utility.yul\":1784:1789   */\n      dup4\n        /* \"#utility.yul\":1780:1794   */\n      add\n        /* \"#utility.yul\":1776:1804   */\n      and\n        /* \"#utility.yul\":1766:1804   */\n      swap1\n      pop\n        /* \"#utility.yul\":1708:1810   */\n      swap2\n      swap1\n      pop\n      jump\t// out\n        /* \"#utility.yul\":1816:2193   */\n    tag_153:\n        /* \"#utility.yul\":1904:1907   */\n      0x00\n        /* \"#utility.yul\":1932:1971   */\n      tag_209\n        /* \"#utility.yul\":1965:1970   */\n      dup3\n        /* \"#utility.yul\":1932:1971   */\n      tag_149\n      jump\t// in\n    tag_209:\n        /* \"#utility.yul\":1987:2058   */\n      tag_210\n        /* \"#utility.yul\":2051:2057   */\n      dup2\n        /* \"#utility.yul\":2046:2049   */\n      dup6\n        /* \"#utility.yul\":1987:2058   */\n      tag_150\n      jump\t// in\n    tag_210:\n        /* \"#utility.yul\":1980:2058   */\n      swap4\n      pop\n        /* \"#utility.yul\":2067:2132   */\n      tag_211\n        /* \"#utility.yul\":2125:2131   */\n      dup2\n        /* \"#utility.yul\":2120:2123   */\n      dup6\n        /* \"#utility.yul\":2113:2117   */\n      0x20\n        /* \"#utility.yul\":2106:2111   */\n      dup7\n        /* \"#utility.yul\":2102:2118   */\n      add\n        /* \"#utility.yul\":2067:2132   */\n      tag_151\n      jump\t// in\n    tag_211:\n        /* \"#utility.yul\":2157:2186   */\n      tag_212\n        /* \"#utility.yul\":2179:2185   */\n      dup2\n        /* \"#utility.yul\":2157:2186   */\n      tag_152\n      jump\t// in\n    tag_212:\n        /* \"#utility.yul\":2152:2155   */\n      dup5\n        /* \"#utility.yul\":2148:2187   */\n      add\n        /* \"#utility.yul\":2141:2187   */\n      swap2\n      pop\n        /* \"#utility.yul\":1908:2193   */\n      pop\n        /* \"#utility.yul\":1816:2193   */\n      swap3\n      swap2\n      pop\n      pop\n      jump\t// out\n        /* \"#utility.yul\":2199:2512   */\n    tag_23:\n        /* \"#utility.yul\":2312:2316   */\n      0x00\n        /* \"#utility.yul\":2350:2352   */\n      0x20\n        /* \"#utility.yul\":2339:2348   */\n      dup3\n        /* \"#utility.yul\":2335:2353   */\n      add\n        /* \"#utility.yul\":2327:2353   */\n      swap1\n      pop\n        /* \"#utility.yul\":2399:2408   */\n      dup2\n        /* \"#utility.yul\":2393:2397   */\n      dup2\n        /* \"#utility.yul\":2389:2409   */\n      sub\n        /* \"#utility.yul\":2385:2386   */\n      0x00\n        /* \"#utility.yul\":2374:2383   */\n      dup4\n        /* \"#utility.yul\":2370:2387   */\n      add\n        /* \"#utility.yul\":2363:2410   */\n      mstore\n        /* \"#utility.yul\":2427:2505   */\n      tag_214\n        /* \"#utility.yul\":2500:2504   */\n      dup2\n        /* \"#utility.yul\":2491:2497   */\n      dup5\n        /* \"#utility.yul\":2427:2505   */\n      tag_153\n      jump\t// in\n    tag_214:\n        /* \"#utility.yul\":2419:2505   */\n      swap1\n      pop\n        /* \"#utility.yul\":2199:2512   */\n      swap3\n      swap2\n      pop\n      pop\n      jump\t// out\n        /* \"#utility.yul\":2518:2595   */\n    tag_154:\n        /* \"#utility.yul\":2555:2562   */\n      0x00\n        /* \"#utility.yul\":2584:2589   */\n      dup2\n        /* \"#utility.yul\":2573:2589   */\n      swap1\n      pop\n        /* \"#utility.yul\":2518:2595   */\n      swap2\n      swap1\n      pop\n      jump\t// out\n        /* \"#utility.yul\":2601:2723   */\n    tag_155:\n        /* \"#utility.yul\":2674:2698   */\n      tag_217\n        /* \"#utility.yul\":2692:2697   */\n      dup2\n        /* \"#utility.yul\":2674:2698   */\n      tag_154\n      jump\t// in\n    tag_217:\n        /* \"#utility.yul\":2667:2672   */\n      dup2\n        /* \"#utility.yul\":2664:2699   */\n      eq\n        /* \"#utility.yul\":2654:2717   */\n      tag_218\n      jumpi\n        /* \"#utility.yul\":2713:2714   */\n      0x00\n        /* \"#utility.yul\":2710:2711   */\n      dup1\n        /* \"#utility.yul\":2703:2715   */\n      revert\n        /* \"#utility.yul\":2654:2717   */\n    tag_218:\n        /* \"#utility.yul\":2601:2723   */\n      pop\n      jump\t// out\n        /* \"#utility.yul\":2729:2868   */\n    tag_156:\n        /* \"#utility.yul\":2775:2780   */\n      0x00\n        /* \"#utility.yul\":2813:2819   */\n      dup2\n        /* \"#utility.yul\":2800:2820   */\n      calldataload\n        /* \"#utility.yul\":2791:2820   */\n      swap1\n      pop\n        /* \"#utility.yul\":2829:2862   */\n      tag_220\n        /* \"#utility.yul\":2856:2861   */\n      dup2\n        /* \"#utility.yul\":2829:2862   */\n      tag_155\n      jump\t// in\n    tag_220:\n        /* \"#utility.yul\":2729:2868   */\n      swap3\n      swap2\n      pop\n      pop\n      jump\t// out\n        /* \"#utility.yul\":2874:3203   */\n    tag_26:\n        /* \"#utility.yul\":2933:2939   */\n      0x00\n        /* \"#utility.yul\":2982:2984   */\n      0x20\n        /* \"#utility.yul\":2970:2979   */\n      dup3\n        /* \"#utility.yul\":2961:2968   */\n      dup5\n        /* \"#utility.yul\":2957:2980   */\n      sub\n        /* \"#utility.yul\":2953:2985   */\n      slt\n        /* \"#utility.yul\":2950:3069   */\n      iszero\n      tag_222\n      jumpi\n        /* \"#utility.yul\":2988:3067   */\n      tag_223\n      tag_143\n      jump\t// in\n    tag_223:\n        /* \"#utility.yul\":2950:3069   */\n    tag_222:\n        /* \"#utility.yul\":3108:3109   */\n      0x00\n        /* \"#utility.yul\":3133:3186   */\n      tag_224\n        /* \"#utility.yul\":3178:3185   */\n      dup5\n        /* \"#utility.yul\":3169:3175   */\n      dup3\n        /* \"#utility.yul\":3158:3167   */\n      dup6\n        /* \"#utility.yul\":3154:3176   */\n      add\n        /* \"#utility.yul\":3133:3186   */\n      tag_156\n      jump\t// in\n    tag_224:\n        /* \"#utility.yul\":3123:3186   */\n      swap2\n      pop\n        /* \"#utility.yul\":3079:3196   */\n      pop\n        /* \"#utility.yul\":2874:3203   */\n      swap3\n      swap2\n      pop\n      pop\n      jump\t// out\n        /* \"#utility.yul\":3209:3327   */\n    tag_157:\n        /* \"#utility.yul\":3296:3320   */\n      tag_226\n        /* \"#utility.yul\":3314:3319   */\n      dup2\n        /* \"#utility.yul\":3296:3320   */\n      tag_146\n      jump\t// in\n    tag_226:\n        /* \"#utility.yul\":3291:3294   */\n      dup3\n        /* \"#utility.yul\":3284:3321   */\n      mstore\n        /* \"#utility.yul\":3209:3327   */\n      pop\n      pop\n      jump\t// out\n        /* \"#utility.yul\":3333:3555   */\n    tag_29:\n        /* \"#utility.yul\":3426:3430   */\n      0x00\n        /* \"#utility.yul\":3464:3466   */\n      0x20\n        /* \"#utility.yul\":3453:3462   */\n      dup3\n        /* \"#utility.yul\":3449:3467   */\n      add\n        /* \"#utility.yul\":3441:3467   */\n      swap1\n      pop\n        /* \"#utility.yul\":3477:3548   */\n      tag_228\n        /* \"#utility.yul\":3545:3546   */\n      0x00\n        /* \"#utility.yul\":3534:3543   */\n      dup4\n        /* \"#utility.yul\":3530:3547   */\n      add\n        /* \"#utility.yul\":3521:3527   */\n      dup5\n        /* \"#utility.yul\":3477:3548   */\n      tag_157\n      jump\t// in\n    tag_228:\n        /* \"#utility.yul\":3333:3555   */\n      swap3\n      swap2\n      pop\n      pop\n      jump\t// out\n        /* \"#utility.yul\":3561:4035   */\n    tag_32:\n        /* \"#utility.yul\":3629:3635   */\n      0x00\n        /* \"#utility.yul\":3637:3643   */\n      dup1\n        /* \"#utility.yul\":3686:3688   */\n      0x40\n        /* \"#utility.yul\":3674:3683   */\n      dup4\n        /* \"#utility.yul\":3665:3672   */\n      dup6\n        /* \"#utility.yul\":3661:3684   */\n      sub\n        /* \"#utility.yul\":3657:3689   */\n      slt\n        /* \"#utility.yul\":3654:3773   */\n      iszero\n      tag_230\n      jumpi\n        /* \"#utility.yul\":3692:3771   */\n      tag_231\n      tag_143\n      jump\t// in\n    tag_231:\n        /* \"#utility.yul\":3654:3773   */\n    tag_230:\n        /* \"#utility.yul\":3812:3813   */\n      0x00\n        /* \"#utility.yul\":3837:3890   */\n      tag_232\n        /* \"#utility.yul\":3882:3889   */\n      dup6\n        /* \"#utility.yul\":3873:3879   */\n      dup3\n        /* \"#utility.yul\":3862:3871   */\n      dup7\n        /* \"#utility.yul\":3858:3880   */\n      add\n        /* \"#utility.yul\":3837:3890   */\n      tag_148\n      jump\t// in\n    tag_232:\n        /* \"#utility.yul\":3827:3890   */\n      swap3\n      pop\n        /* \"#utility.yul\":3783:3900   */\n      pop\n        /* \"#utility.yul\":3939:3941   */\n      0x20\n        /* \"#utility.yul\":3965:4018   */\n      tag_233\n        /* \"#utility.yul\":4010:4017   */\n      dup6\n        /* \"#utility.yul\":4001:4007   */\n      dup3\n        /* \"#utility.yul\":3990:3999   */\n      dup7\n        /* \"#utility.yul\":3986:4008   */\n      add\n        /* \"#utility.yul\":3965:4018   */\n      tag_156\n      jump\t// in\n    tag_233:\n        /* \"#utility.yul\":3955:4018   */\n      swap2\n      pop\n        /* \"#utility.yul\":3910:4028   */\n      pop\n        /* \"#utility.yul\":3561:4035   */\n      swap3\n      pop\n      swap3\n      swap1\n      pop\n      jump\t// out\n        /* \"#utility.yul\":4041:4660   */\n    tag_36:\n        /* \"#utility.yul\":4118:4124   */\n      0x00\n        /* \"#utility.yul\":4126:4132   */\n      dup1\n        /* \"#utility.yul\":4134:4140   */\n      0x00\n        /* \"#utility.yul\":4183:4185   */\n      0x60\n        /* \"#utility.yul\":4171:4180   */\n      dup5\n        /* \"#utility.yul\":4162:4169   */\n      dup7\n        /* \"#utility.yul\":4158:4181   */\n      sub\n        /* \"#utility.yul\":4154:4186   */\n      slt\n        /* \"#utility.yul\":4151:4270   */\n      iszero\n      tag_235\n      jumpi\n        /* \"#utility.yul\":4189:4268   */\n      tag_236\n      tag_143\n      jump\t// in\n    tag_236:\n        /* \"#utility.yul\":4151:4270   */\n    tag_235:\n        /* \"#utility.yul\":4309:4310   */\n      0x00\n        /* \"#utility.yul\":4334:4387   */\n      tag_237\n        /* \"#utility.yul\":4379:4386   */\n      dup7\n        /* \"#utility.yul\":4370:4376   */\n      dup3\n        /* \"#utility.yul\":4359:4368   */\n      dup8\n        /* \"#utility.yul\":4355:4377   */\n      add\n        /* \"#utility.yul\":4334:4387   */\n      tag_148\n      jump\t// in\n    tag_237:\n        /* \"#utility.yul\":4324:4387   */\n      swap4\n      pop\n        /* \"#utility.yul\":4280:4397   */\n      pop\n        /* \"#utility.yul\":4436:4438   */\n      0x20\n        /* \"#utility.yul\":4462:4515   */\n      tag_238\n        /* \"#utility.yul\":4507:4514   */\n      dup7\n        /* \"#utility.yul\":4498:4504   */\n      dup3\n        /* \"#utility.yul\":4487:4496   */\n      dup8\n        /* \"#utility.yul\":4483:4505   */\n      add\n        /* \"#utility.yul\":4462:4515   */\n      tag_148\n      jump\t// in\n    tag_238:\n        /* \"#utility.yul\":4452:4515   */\n      swap3\n      pop\n        /* \"#utility.yul\":4407:4525   */\n      pop\n        /* \"#utility.yul\":4564:4566   */\n      0x40\n        /* \"#utility.yul\":4590:4643   */\n      tag_239\n        /* \"#utility.yul\":4635:4642   */\n      dup7\n        /* \"#utility.yul\":4626:4632   */\n      dup3\n        /* \"#utility.yul\":4615:4624   */\n      dup8\n        /* \"#utility.yul\":4611:4633   */\n      add\n        /* \"#utility.yul\":4590:4643   */\n      tag_156\n      jump\t// in\n    tag_239:\n        /* \"#utility.yul\":4580:4643   */\n      swap2\n      pop\n        /* \"#utility.yul\":4535:4653   */\n      pop\n        /* \"#utility.yul\":4041:4660   */\n      swap3\n      pop\n      swap3\n      pop\n      swap3\n      jump\t// out\n        /* \"#utility.yul\":4666:4784   */\n    tag_158:\n        /* \"#utility.yul\":4753:4777   */\n      tag_241\n        /* \"#utility.yul\":4771:4776   */\n      dup2\n        /* \"#utility.yul\":4753:4777   */\n      tag_154\n      jump\t// in\n    tag_241:\n        /* \"#utility.yul\":4748:4751   */\n      dup3\n        /* \"#utility.yul\":4741:4778   */\n      mstore\n        /* \"#utility.yul\":4666:4784   */\n      pop\n      pop\n      jump\t// out\n        /* \"#utility.yul\":4790:5012   */\n    tag_49:\n        /* \"#utility.yul\":4883:4887   */\n      0x00\n        /* \"#utility.yul\":4921:4923   */\n      0x20\n        /* \"#utility.yul\":4910:4919   */\n      dup3\n        /* \"#utility.yul\":4906:4924   */\n      add\n        /* \"#utility.yul\":4898:4924   */\n      swap1\n      pop\n        /* \"#utility.yul\":4934:5005   */\n      tag_243\n        /* \"#utility.yul\":5002:5003   */\n      0x00\n        /* \"#utility.yul\":4991:5000   */\n      dup4\n        /* \"#utility.yul\":4987:5004   */\n      add\n        /* \"#utility.yul\":4978:4984   */\n      dup5\n        /* \"#utility.yul\":4934:5005   */\n      tag_158\n      jump\t// in\n    tag_243:\n        /* \"#utility.yul\":4790:5012   */\n      swap3\n      swap2\n      pop\n      pop\n      jump\t// out\n        /* \"#utility.yul\":5018:5108   */\n    tag_159:\n        /* \"#utility.yul\":5052:5059   */\n      0x00\n        /* \"#utility.yul\":5095:5100   */\n      dup2\n        /* \"#utility.yul\":5088:5101   */\n      iszero\n        /* \"#utility.yul\":5081:5102   */\n      iszero\n        /* \"#utility.yul\":5070:5102   */\n      swap1\n      pop\n        /* \"#utility.yul\":5018:5108   */\n      swap2\n      swap1\n      pop\n      jump\t// out\n        /* \"#utility.yul\":5114:5230   */\n    tag_160:\n        /* \"#utility.yul\":5184:5205   */\n      tag_246\n        /* \"#utility.yul\":5199:5204   */\n      dup2\n        /* \"#utility.yul\":5184:5205   */\n      tag_159\n      jump\t// in\n    tag_246:\n        /* \"#utility.yul\":5177:5182   */\n      dup2\n        /* \"#utility.yul\":5174:5206   */\n      eq\n        /* \"#utility.yul\":5164:5224   */\n      tag_247\n      jumpi\n        /* \"#utility.yul\":5220:5221   */\n      0x00\n        /* \"#utility.yul\":5217:5218   */\n      dup1\n        /* \"#utility.yul\":5210:5222   */\n      revert\n        /* \"#utility.yul\":5164:5224   */\n    tag_247:\n        /* \"#utility.yul\":5114:5230   */\n      pop\n      jump\t// out\n        /* \"#utility.yul\":5236:5369   */\n    tag_161:\n        /* \"#utility.yul\":5279:5284   */\n      0x00\n        /* \"#utility.yul\":5317:5323   */\n      dup2\n        /* \"#utility.yul\":5304:5324   */\n      calldataload\n        /* \"#utility.yul\":5295:5324   */\n      swap1\n      pop\n        /* \"#utility.yul\":5333:5363   */\n      tag_249\n        /* \"#utility.yul\":5357:5362   */\n      dup2\n        /* \"#utility.yul\":5333:5363   */\n      tag_160\n      jump\t// in\n    tag_249:\n        /* \"#utility.yul\":5236:5369   */\n      swap3\n      swap2\n      pop\n      pop\n      jump\t// out\n        /* \"#utility.yul\":5375:5843   */\n    tag_55:\n        /* \"#utility.yul\":5440:5446   */\n      0x00\n        /* \"#utility.yul\":5448:5454   */\n      dup1\n        /* \"#utility.yul\":5497:5499   */\n      0x40\n        /* \"#utility.yul\":5485:5494   */\n      dup4\n        /* \"#utility.yul\":5476:5483   */\n      dup6\n        /* \"#utility.yul\":5472:5495   */\n      sub\n        /* \"#utility.yul\":5468:5500   */\n      slt\n        /* \"#utility.yul\":5465:5584   */\n      iszero\n      tag_251\n      jumpi\n        /* \"#utility.yul\":5503:5582   */\n      tag_252\n      tag_143\n      jump\t// in\n    tag_252:\n        /* \"#utility.yul\":5465:5584   */\n    tag_251:\n        /* \"#utility.yul\":5623:5624   */\n      0x00\n        /* \"#utility.yul\":5648:5701   */\n      tag_253\n        /* \"#utility.yul\":5693:5700   */\n      dup6\n        /* \"#utility.yul\":5684:5690   */\n      dup3\n        /* \"#utility.yul\":5673:5682   */\n      dup7\n        /* \"#utility.yul\":5669:5691   */\n      add\n        /* \"#utility.yul\":5648:5701   */\n      tag_148\n      jump\t// in\n    tag_253:\n        /* \"#utility.yul\":5638:5701   */\n      swap3\n      pop\n        /* \"#utility.yul\":5594:5711   */\n      pop\n        /* \"#utility.yul\":5750:5752   */\n      0x20\n        /* \"#utility.yul\":5776:5826   */\n      tag_254\n        /* \"#utility.yul\":5818:5825   */\n      dup6\n        /* \"#utility.yul\":5809:5815   */\n      dup3\n        /* \"#utility.yul\":5798:5807   */\n      dup7\n        /* \"#utility.yul\":5794:5816   */\n      add\n        /* \"#utility.yul\":5776:5826   */\n      tag_161\n      jump\t// in\n    tag_254:\n        /* \"#utility.yul\":5766:5826   */\n      swap2\n      pop\n        /* \"#utility.yul\":5721:5836   */\n      pop\n        /* \"#utility.yul\":5375:5843   */\n      swap3\n      pop\n      swap3\n      swap1\n      pop\n      jump\t// out\n        /* \"#utility.yul\":5849:6323   */\n    tag_59:\n        /* \"#utility.yul\":5917:5923   */\n      0x00\n        /* \"#utility.yul\":5925:5931   */\n      dup1\n        /* \"#utility.yul\":5974:5976   */\n      0x40\n        /* \"#utility.yul\":5962:5971   */\n      dup4\n        /* \"#utility.yul\":5953:5960   */\n      dup6\n        /* \"#utility.yul\":5949:5972   */\n      sub\n        /* \"#utility.yul\":5945:5977   */\n      slt\n        /* \"#utility.yul\":5942:6061   */\n      iszero\n      tag_256\n      jumpi\n        /* \"#utility.yul\":5980:6059   */\n      tag_257\n      tag_143\n      jump\t// in\n    tag_257:\n        /* \"#utility.yul\":5942:6061   */\n    tag_256:\n        /* \"#utility.yul\":6100:6101   */\n      0x00\n        /* \"#utility.yul\":6125:6178   */\n      tag_258\n        /* \"#utility.yul\":6170:6177   */\n      dup6\n        /* \"#utility.yul\":6161:6167   */\n      dup3\n        /* \"#utility.yul\":6150:6159   */\n      dup7\n        /* \"#utility.yul\":6146:6168   */\n      add\n        /* \"#utility.yul\":6125:6178   */\n      tag_148\n      jump\t// in\n    tag_258:\n        /* \"#utility.yul\":6115:6178   */\n      swap3\n      pop\n        /* \"#utility.yul\":6071:6188   */\n      pop\n        /* \"#utility.yul\":6227:6229   */\n      0x20\n        /* \"#utility.yul\":6253:6306   */\n      tag_259\n        /* \"#utility.yul\":6298:6305   */\n      dup6\n        /* \"#utility.yul\":6289:6295   */\n      dup3\n        /* \"#utility.yul\":6278:6287   */\n      dup7\n        /* \"#utility.yul\":6274:6296   */\n      add\n        /* \"#utility.yul\":6253:6306   */\n      tag_148\n      jump\t// in\n    tag_259:\n        /* \"#utility.yul\":6243:6306   */\n      swap2\n      pop\n        /* \"#utility.yul\":6198:6316   */\n      pop\n        /* \"#utility.yul\":5849:6323   */\n      swap3\n      pop\n      swap3\n      swap1\n      pop\n      jump\t// out\n        /* \"#utility.yul\":6329:6438   */\n    tag_162:\n        /* \"#utility.yul\":6410:6431   */\n      tag_261\n        /* \"#utility.yul\":6425:6430   */\n      dup2\n        /* \"#utility.yul\":6410:6431   */\n      tag_159\n      jump\t// in\n    tag_261:\n        /* \"#utility.yul\":6405:6408   */\n      dup3\n        /* \"#utility.yul\":6398:6432   */\n      mstore\n        /* \"#utility.yul\":6329:6438   */\n      pop\n      pop\n      jump\t// out\n        /* \"#utility.yul\":6444:6654   */\n    tag_62:\n        /* \"#utility.yul\":6531:6535   */\n      0x00\n        /* \"#utility.yul\":6569:6571   */\n      0x20\n        /* \"#utility.yul\":6558:6567   */\n      dup3\n        /* \"#utility.yul\":6554:6572   */\n      add\n        /* \"#utility.yul\":6546:6572   */\n      swap1\n      pop\n        /* \"#utility.yul\":6582:6647   */\n      tag_263\n        /* \"#utility.yul\":6644:6645   */\n      0x00\n        /* \"#utility.yul\":6633:6642   */\n      dup4\n        /* \"#utility.yul\":6629:6646   */\n      add\n        /* \"#utility.yul\":6620:6626   */\n      dup5\n        /* \"#utility.yul\":6582:6647   */\n      tag_162\n      jump\t// in\n    tag_263:\n        /* \"#utility.yul\":6444:6654   */\n      swap3\n      swap2\n      pop\n      pop\n      jump\t// out\n        /* \"#utility.yul\":6660:6841   */\n    tag_163:\n        /* \"#utility.yul\":6800:6833   */\n      0x457263373231546f6b656e3a204f6e6c792041646d696e20416c6c6f77656400\n        /* \"#utility.yul\":6796:6797   */\n      0x00\n        /* \"#utility.yul\":6788:6794   */\n      dup3\n        /* \"#utility.yul\":6784:6798   */\n      add\n        /* \"#utility.yul\":6777:6834   */\n      mstore\n        /* \"#utility.yul\":6660:6841   */\n      pop\n      jump\t// out\n        /* \"#utility.yul\":6847:7213   */\n    tag_164:\n        /* \"#utility.yul\":6989:6992   */\n      0x00\n        /* \"#utility.yul\":7010:7077   */\n      tag_266\n        /* \"#utility.yul\":7074:7076   */\n      0x1f\n        /* \"#utility.yul\":7069:7072   */\n      dup4\n        /* \"#utility.yul\":7010:7077   */\n      tag_150\n      jump\t// in\n    tag_266:\n        /* \"#utility.yul\":7003:7077   */\n      swap2\n      pop\n        /* \"#utility.yul\":7086:7179   */\n      tag_267\n        /* \"#utility.yul\":7175:7178   */\n      dup3\n        /* \"#utility.yul\":7086:7179   */\n      tag_163\n      jump\t// in\n    tag_267:\n        /* \"#utility.yul\":7204:7206   */\n      0x20\n        /* \"#utility.yul\":7199:7202   */\n      dup3\n        /* \"#utility.yul\":7195:7207   */\n      add\n        /* \"#utility.yul\":7188:7207   */\n      swap1\n      pop\n        /* \"#utility.yul\":6847:7213   */\n      swap2\n      swap1\n      pop\n      jump\t// out\n        /* \"#utility.yul\":7219:7638   */\n    tag_69:\n        /* \"#utility.yul\":7385:7389   */\n      0x00\n        /* \"#utility.yul\":7423:7425   */\n      0x20\n        /* \"#utility.yul\":7412:7421   */\n      dup3\n        /* \"#utility.yul\":7408:7426   */\n      add\n        /* \"#utility.yul\":7400:7426   */\n      swap1\n      pop\n        /* \"#utility.yul\":7472:7481   */\n      dup2\n        /* \"#utility.yul\":7466:7470   */\n      dup2\n        /* \"#utility.yul\":7462:7482   */\n      sub\n        /* \"#utility.yul\":7458:7459   */\n      0x00\n        /* \"#utility.yul\":7447:7456   */\n      dup4\n        /* \"#utility.yul\":7443:7460   */\n      add\n        /* \"#utility.yul\":7436:7483   */\n      mstore\n        /* \"#utility.yul\":7500:7631   */\n      tag_269\n        /* \"#utility.yul\":7626:7630   */\n      dup2\n        /* \"#utility.yul\":7500:7631   */\n      tag_164\n      jump\t// in\n    tag_269:\n        /* \"#utility.yul\":7492:7631   */\n      swap1\n      pop\n        /* \"#utility.yul\":7219:7638   */\n      swap2\n      swap1\n      pop\n      jump\t// out\n        /* \"#utility.yul\":7644:7876   */\n    tag_165:\n        /* \"#utility.yul\":7784:7818   */\n      0x457263373231546f6b656e3a207a65726f2061646472657373206e6f7420616c\n        /* \"#utility.yul\":7780:7781   */\n      0x00\n        /* \"#utility.yul\":7772:7778   */\n      dup3\n        /* \"#utility.yul\":7768:7782   */\n      add\n        /* \"#utility.yul\":7761:7819   */\n      mstore\n        /* \"#utility.yul\":7853:7868   */\n      0x6c6f77656420696e2066726f6d00000000000000000000000000000000000000\n        /* \"#utility.yul\":7848:7850   */\n      0x20\n        /* \"#utility.yul\":7840:7846   */\n      dup3\n        /* \"#utility.yul\":7836:7851   */\n      add\n        /* \"#utility.yul\":7829:7869   */\n      mstore\n        /* \"#utility.yul\":7644:7876   */\n      pop\n      jump\t// out\n        /* \"#utility.yul\":7882:8248   */\n    tag_166:\n        /* \"#utility.yul\":8024:8027   */\n      0x00\n        /* \"#utility.yul\":8045:8112   */\n      tag_272\n        /* \"#utility.yul\":8109:8111   */\n      0x2d\n        /* \"#utility.yul\":8104:8107   */\n      dup4\n        /* \"#utility.yul\":8045:8112   */\n      tag_150\n      jump\t// in\n    tag_272:\n        /* \"#utility.yul\":8038:8112   */\n      swap2\n      pop\n        /* \"#utility.yul\":8121:8214   */\n      tag_273\n        /* \"#utility.yul\":8210:8213   */\n      dup3\n        /* \"#utility.yul\":8121:8214   */\n      tag_165\n      jump\t// in\n    tag_273:\n        /* \"#utility.yul\":8239:8241   */\n      0x40\n        /* \"#utility.yul\":8234:8237   */\n      dup3\n        /* \"#utility.yul\":8230:8242   */\n      add\n        /* \"#utility.yul\":8223:8242   */\n      swap1\n      pop\n        /* \"#utility.yul\":7882:8248   */\n      swap2\n      swap1\n      pop\n      jump\t// out\n        /* \"#utility.yul\":8254:8673   */\n    tag_73:\n        /* \"#utility.yul\":8420:8424   */\n      0x00\n        /* \"#utility.yul\":8458:8460   */\n      0x20\n        /* \"#utility.yul\":8447:8456   */\n      dup3\n        /* \"#utility.yul\":8443:8461   */\n      add\n        /* \"#utility.yul\":8435:8461   */\n      swap1\n      pop\n        /* \"#utility.yul\":8507:8516   */\n      dup2\n        /* \"#utility.yul\":8501:8505   */\n      dup2\n        /* \"#utility.yul\":8497:8517   */\n      sub\n        /* \"#utility.yul\":8493:8494   */\n      0x00\n        /* \"#utility.yul\":8482:8491   */\n      dup4\n        /* \"#utility.yul\":8478:8495   */\n      add\n        /* \"#utility.yul\":8471:8518   */\n      mstore\n        /* \"#utility.yul\":8535:8666   */\n      tag_275\n        /* \"#utility.yul\":8661:8665   */\n      dup2\n        /* \"#utility.yul\":8535:8666   */\n      tag_166\n      jump\t// in\n    tag_275:\n        /* \"#utility.yul\":8527:8666   */\n      swap1\n      pop\n        /* \"#utility.yul\":8254:8673   */\n      swap2\n      swap1\n      pop\n      jump\t// out\n        /* \"#utility.yul\":8679:8905   */\n    tag_167:\n        /* \"#utility.yul\":8819:8853   */\n      0x457263373231546f6b656e3a74686973206973206120636f6e74726163742061\n        /* \"#utility.yul\":8815:8816   */\n      0x00\n        /* \"#utility.yul\":8807:8813   */\n      dup3\n        /* \"#utility.yul\":8803:8817   */\n      add\n        /* \"#utility.yul\":8796:8854   */\n      mstore\n        /* \"#utility.yul\":8888:8897   */\n      0x6464726573732000000000000000000000000000000000000000000000000000\n        /* \"#utility.yul\":8883:8885   */\n      0x20\n        /* \"#utility.yul\":8875:8881   */\n      dup3\n        /* \"#utility.yul\":8871:8886   */\n      add\n        /* \"#utility.yul\":8864:8898   */\n      mstore\n        /* \"#utility.yul\":8679:8905   */\n      pop\n      jump\t// out\n        /* \"#utility.yul\":8911:9277   */\n    tag_168:\n        /* \"#utility.yul\":9053:9056   */\n      0x00\n        /* \"#utility.yul\":9074:9141   */\n      tag_278\n        /* \"#utility.yul\":9138:9140   */\n      0x27\n        /* \"#utility.yul\":9133:9136   */\n      dup4\n        /* \"#utility.yul\":9074:9141   */\n      tag_150\n      jump\t// in\n    tag_278:\n        /* \"#utility.yul\":9067:9141   */\n      swap2\n      pop\n        /* \"#utility.yul\":9150:9243   */\n      tag_279\n        /* \"#utility.yul\":9239:9242   */\n      dup3\n        /* \"#utility.yul\":9150:9243   */\n      tag_167\n      jump\t// in\n    tag_279:\n        /* \"#utility.yul\":9268:9270   */\n      0x40\n        /* \"#utility.yul\":9263:9266   */\n      dup3\n        /* \"#utility.yul\":9259:9271   */\n      add\n        /* \"#utility.yul\":9252:9271   */\n      swap1\n      pop\n        /* \"#utility.yul\":8911:9277   */\n      swap2\n      swap1\n      pop\n      jump\t// out\n        /* \"#utility.yul\":9283:9702   */\n    tag_76:\n        /* \"#utility.yul\":9449:9453   */\n      0x00\n        /* \"#utility.yul\":9487:9489   */\n      0x20\n        /* \"#utility.yul\":9476:9485   */\n      dup3\n        /* \"#utility.yul\":9472:9490   */\n      add\n        /* \"#utility.yul\":9464:9490   */\n      swap1\n      pop\n        /* \"#utility.yul\":9536:9545   */\n      dup2\n        /* \"#utility.yul\":9530:9534   */\n      dup2\n        /* \"#utility.yul\":9526:9546   */\n      sub\n        /* \"#utility.yul\":9522:9523   */\n      0x00\n        /* \"#utility.yul\":9511:9520   */\n      dup4\n        /* \"#utility.yul\":9507:9524   */\n      add\n        /* \"#utility.yul\":9500:9547   */\n      mstore\n        /* \"#utility.yul\":9564:9695   */\n      tag_281\n        /* \"#utility.yul\":9690:9694   */\n      dup2\n        /* \"#utility.yul\":9564:9695   */\n      tag_168\n      jump\t// in\n    tag_281:\n        /* \"#utility.yul\":9556:9695   */\n      swap1\n      pop\n        /* \"#utility.yul\":9283:9702   */\n      swap2\n      swap1\n      pop\n      jump\t// out\n        /* \"#utility.yul\":9708:9888   */\n    tag_169:\n        /* \"#utility.yul\":9756:9833   */\n      0x4e487b7100000000000000000000000000000000000000000000000000000000\n        /* \"#utility.yul\":9753:9754   */\n      0x00\n        /* \"#utility.yul\":9746:9834   */\n      mstore\n        /* \"#utility.yul\":9853:9857   */\n      0x11\n        /* \"#utility.yul\":9850:9851   */\n      0x04\n        /* \"#utility.yul\":9843:9858   */\n      mstore\n        /* \"#utility.yul\":9877:9881   */\n      0x24\n        /* \"#utility.yul\":9874:9875   */\n      0x00\n        /* \"#utility.yul\":9867:9882   */\n      revert\n        /* \"#utility.yul\":9894:10127   */\n    tag_78:\n        /* \"#utility.yul\":9933:9936   */\n      0x00\n        /* \"#utility.yul\":9956:9980   */\n      tag_284\n        /* \"#utility.yul\":9974:9979   */\n      dup3\n        /* \"#utility.yul\":9956:9980   */\n      tag_154\n      jump\t// in\n    tag_284:\n        /* \"#utility.yul\":9947:9980   */\n      swap2\n      pop\n        /* \"#utility.yul\":10002:10068   */\n      0xffffffffffffffffffffffffffffffffffffffffffffffffffffffffffffffff\n        /* \"#utility.yul\":9995:10000   */\n      dup3\n        /* \"#utility.yul\":9992:10069   */\n      sub\n        /* \"#utility.yul\":9989:10092   */\n      tag_285\n      jumpi\n        /* \"#utility.yul\":10072:10090   */\n      tag_286\n      tag_169\n      jump\t// in\n    tag_286:\n        /* \"#utility.yul\":9989:10092   */\n    tag_285:\n        /* \"#utility.yul\":10119:10120   */\n      0x01\n        /* \"#utility.yul\":10112:10117   */\n      dup3\n        /* \"#utility.yul\":10108:10121   */\n      add\n        /* \"#utility.yul\":10101:10121   */\n      swap1\n      pop\n        /* \"#utility.yul\":9894:10127   */\n      swap2\n      swap1\n      pop\n      jump\t// out\n        /* \"#utility.yul\":10133:10575   */\n    tag_81:\n        /* \"#utility.yul\":10282:10286   */\n      0x00\n        /* \"#utility.yul\":10320:10322   */\n      0x60\n        /* \"#utility.yul\":10309:10318   */\n      dup3\n        /* \"#utility.yul\":10305:10323   */\n      add\n        /* \"#utility.yul\":10297:10323   */\n      swap1\n      pop\n        /* \"#utility.yul\":10333:10404   */\n      tag_288\n        /* \"#utility.yul\":10401:10402   */\n      0x00\n        /* \"#utility.yul\":10390:10399   */\n      dup4\n        /* \"#utility.yul\":10386:10403   */\n      add\n        /* \"#utility.yul\":10377:10383   */\n      dup7\n        /* \"#utility.yul\":10333:10404   */\n      tag_157\n      jump\t// in\n    tag_288:\n        /* \"#utility.yul\":10414:10486   */\n      tag_289\n        /* \"#utility.yul\":10482:10484   */\n      0x20\n        /* \"#utility.yul\":10471:10480   */\n      dup4\n        /* \"#utility.yul\":10467:10485   */\n      add\n        /* \"#utility.yul\":10458:10464   */\n      dup6\n        /* \"#utility.yul\":10414:10486   */\n      tag_157\n      jump\t// in\n    tag_289:\n        /* \"#utility.yul\":10496:10568   */\n      tag_290\n        /* \"#utility.yul\":10564:10566   */\n      0x40\n        /* \"#utility.yul\":10553:10562   */\n      dup4\n        /* \"#utility.yul\":10549:10567   */\n      add\n        /* \"#utility.yul\":10540:10546   */\n      dup5\n        /* \"#utility.yul\":10496:10568   */\n      tag_158\n      jump\t// in\n    tag_290:\n        /* \"#utility.yul\":10133:10575   */\n      swap5\n      swap4\n      pop\n      pop\n      pop\n      pop\n      jump\t// out\n        /* \"#utility.yul\":10581:10761   */\n    tag_170:\n        /* \"#utility.yul\":10629:10706   */\n      0x4e487b7100000000000000000000000000000000000000000000000000000000\n        /* \"#utility.yul\":10626:10627   */\n      0x00\n        /* \"#utility.yul\":10619:10707   */\n      mstore\n        /* \"#utility.yul\":10726:10730   */\n      0x22\n        /* \"#utility.yul\":10723:10724   */\n      0x04\n        /* \"#utility.yul\":10716:10731   */\n      mstore\n        /* \"#utility.yul\":10750:10754   */\n      0x24\n        /* \"#utility.yul\":10747:10748   */\n      0x00\n        /* \"#utility.yul\":10740:10755   */\n      revert\n        /* \"#utility.yul\":10767:11087   */\n    tag_83:\n        /* \"#utility.yul\":10811:10817   */\n      0x00\n        /* \"#utility.yul\":10848:10849   */\n      0x02\n        /* \"#utility.yul\":10842:10846   */\n      dup3\n        /* \"#utility.yul\":10838:10850   */\n      div\n        /* \"#utility.yul\":10828:10850   */\n      swap1\n      pop\n        /* \"#utility.yul\":10895:10896   */\n      0x01\n        /* \"#utility.yul\":10889:10893   */\n      dup3\n        /* \"#utility.yul\":10885:10897   */\n      and\n        /* \"#utility.yul\":10916:10934   */\n      dup1\n        /* \"#utility.yul\":10906:10987   */\n      tag_293\n      jumpi\n        /* \"#utility.yul\":10972:10976   */\n      0x7f\n        /* \"#utility.yul\":10964:10970   */\n      dup3\n        /* \"#utility.yul\":10960:10977   */\n      and\n        /* \"#utility.yul\":10950:10977   */\n      swap2\n      pop\n        /* \"#utility.yul\":10906:10987   */\n    tag_293:\n        /* \"#utility.yul\":11034:11036   */\n      0x20\n        /* \"#utility.yul\":11026:11032   */\n      dup3\n        /* \"#utility.yul\":11023:11037   */\n      lt\n        /* \"#utility.yul\":11003:11021   */\n      dup2\n        /* \"#utility.yul\":11000:11038   */\n      sub\n        /* \"#utility.yul\":10997:11081   */\n      tag_294\n      jumpi\n        /* \"#utility.yul\":11053:11071   */\n      tag_295\n      tag_170\n      jump\t// in\n    tag_295:\n        /* \"#utility.yul\":10997:11081   */\n    tag_294:\n        /* \"#utility.yul\":10818:11087   */\n      pop\n        /* \"#utility.yul\":10767:11087   */\n      swap2\n      swap1\n      pop\n      jump\t// out\n        /* \"#utility.yul\":11093:11316   */\n    tag_171:\n        /* \"#utility.yul\":11233:11267   */\n      0x457263373231546f6b656e3a7a65726f2061646472657373206e6f7420616c6c\n        /* \"#utility.yul\":11229:11230   */\n      0x00\n        /* \"#utility.yul\":11221:11227   */\n      dup3\n        /* \"#utility.yul\":11217:11231   */\n      add\n        /* \"#utility.yul\":11210:11268   */\n      mstore\n        /* \"#utility.yul\":11302:11308   */\n      0x6f77656400000000000000000000000000000000000000000000000000000000\n        /* \"#utility.yul\":11297:11299   */\n      0x20\n        /* \"#utility.yul\":11289:11295   */\n      dup3\n        /* \"#utility.yul\":11285:11300   */\n      add\n        /* \"#utility.yul\":11278:11309   */\n      mstore\n        /* \"#utility.yul\":11093:11316   */\n      pop\n      jump\t// out\n        /* \"#utility.yul\":11322:11688   */\n    tag_172:\n        /* \"#utility.yul\":11464:11467   */\n      0x00\n        /* \"#utility.yul\":11485:11552   */\n      tag_298\n        /* \"#utility.yul\":11549:11551   */\n      0x24\n        /* \"#utility.yul\":11544:11547   */\n      dup4\n        /* \"#utility.yul\":11485:11552   */\n      tag_150\n      jump\t// in\n    tag_298:\n        /* \"#utility.yul\":11478:11552   */\n      swap2\n      pop\n        /* \"#utility.yul\":11561:11654   */\n      tag_299\n        /* \"#utility.yul\":11650:11653   */\n      dup3\n        /* \"#utility.yul\":11561:11654   */\n      tag_171\n      jump\t// in\n    tag_299:\n        /* \"#utility.yul\":11679:11681   */\n      0x40\n        /* \"#utility.yul\":11674:11677   */\n      dup3\n        /* \"#utility.yul\":11670:11682   */\n      add\n        /* \"#utility.yul\":11663:11682   */\n      swap1\n      pop\n        /* \"#utility.yul\":11322:11688   */\n      swap2\n      swap1\n      pop\n      jump\t// out\n        /* \"#utility.yul\":11694:12113   */\n    tag_92:\n        /* \"#utility.yul\":11860:11864   */\n      0x00\n        /* \"#utility.yul\":11898:11900   */\n      0x20\n        /* \"#utility.yul\":11887:11896   */\n      dup3\n        /* \"#utility.yul\":11883:11901   */\n      add\n        /* \"#utility.yul\":11875:11901   */\n      swap1\n      pop\n        /* \"#utility.yul\":11947:11956   */\n      dup2\n        /* \"#utility.yul\":11941:11945   */\n      dup2\n        /* \"#utility.yul\":11937:11957   */\n      sub\n        /* \"#utility.yul\":11933:11934   */\n      0x00\n        /* \"#utility.yul\":11922:11931   */\n      dup4\n        /* \"#utility.yul\":11918:11935   */\n      add\n        /* \"#utility.yul\":11911:11958   */\n      mstore\n        /* \"#utility.yul\":11975:12106   */\n      tag_301\n        /* \"#utility.yul\":12101:12105   */\n      dup2\n        /* \"#utility.yul\":11975:12106   */\n      tag_172\n      jump\t// in\n    tag_301:\n        /* \"#utility.yul\":11967:12106   */\n      swap1\n      pop\n        /* \"#utility.yul\":11694:12113   */\n      swap2\n      swap1\n      pop\n      jump\t// out\n        /* \"#utility.yul\":12119:12340   */\n    tag_173:\n        /* \"#utility.yul\":12259:12293   */\n      0x457263373231546f6b656e3a20656e74657220612076616c696420746f6b656e\n        /* \"#utility.yul\":12255:12256   */\n      0x00\n        /* \"#utility.yul\":12247:12253   */\n      dup3\n        /* \"#utility.yul\":12243:12257   */\n      add\n        /* \"#utility.yul\":12236:12294   */\n      mstore\n        /* \"#utility.yul\":12328:12332   */\n      0x4964000000000000000000000000000000000000000000000000000000000000\n        /* \"#utility.yul\":12323:12325   */\n      0x20\n        /* \"#utility.yul\":12315:12321   */\n      dup3\n        /* \"#utility.yul\":12311:12326   */\n      add\n        /* \"#utility.yul\":12304:12333   */\n      mstore\n        /* \"#utility.yul\":12119:12340   */\n      pop\n      jump\t// out\n        /* \"#utility.yul\":12346:12712   */\n    tag_174:\n        /* \"#utility.yul\":12488:12491   */\n      0x00\n        /* \"#utility.yul\":12509:12576   */\n      tag_304\n        /* \"#utility.yul\":12573:12575   */\n      0x22\n        /* \"#utility.yul\":12568:12571   */\n      dup4\n        /* \"#utility.yul\":12509:12576   */\n      tag_150\n      jump\t// in\n    tag_304:\n        /* \"#utility.yul\":12502:12576   */\n      swap2\n      pop\n        /* \"#utility.yul\":12585:12678   */\n      tag_305\n        /* \"#utility.yul\":12674:12677   */\n      dup3\n        /* \"#utility.yul\":12585:12678   */\n      tag_173\n      jump\t// in\n    tag_305:\n        /* \"#utility.yul\":12703:12705   */\n      0x40\n        /* \"#utility.yul\":12698:12701   */\n      dup3\n        /* \"#utility.yul\":12694:12706   */\n      add\n        /* \"#utility.yul\":12687:12706   */\n      swap1\n      pop\n        /* \"#utility.yul\":12346:12712   */\n      swap2\n      swap1\n      pop\n      jump\t// out\n        /* \"#utility.yul\":12718:13137   */\n    tag_95:\n        /* \"#utility.yul\":12884:12888   */\n      0x00\n        /* \"#utility.yul\":12922:12924   */\n      0x20\n        /* \"#utility.yul\":12911:12920   */\n      dup3\n        /* \"#utility.yul\":12907:12925   */\n      add\n        /* \"#utility.yul\":12899:12925   */\n      swap1\n      pop\n        /* \"#utility.yul\":12971:12980   */\n      dup2\n        /* \"#utility.yul\":12965:12969   */\n      dup2\n        /* \"#utility.yul\":12961:12981   */\n      sub\n        /* \"#utility.yul\":12957:12958   */\n      0x00\n        /* \"#utility.yul\":12946:12955   */\n      dup4\n        /* \"#utility.yul\":12942:12959   */\n      add\n        /* \"#utility.yul\":12935:12982   */\n      mstore\n        /* \"#utility.yul\":12999:13130   */\n      tag_307\n        /* \"#utility.yul\":13125:13129   */\n      dup2\n        /* \"#utility.yul\":12999:13130   */\n      tag_174\n      jump\t// in\n    tag_307:\n        /* \"#utility.yul\":12991:13130   */\n      swap1\n      pop\n        /* \"#utility.yul\":12718:13137   */\n      swap2\n      swap1\n      pop\n      jump\t// out\n        /* \"#utility.yul\":13143:13366   */\n    tag_175:\n        /* \"#utility.yul\":13283:13317   */\n      0x457263373231546f6b656e3a20796f7520617265206e6f7420746f6b656e206f\n        /* \"#utility.yul\":13279:13280   */\n      0x00\n        /* \"#utility.yul\":13271:13277   */\n      dup3\n        /* \"#utility.yul\":13267:13281   */\n      add\n        /* \"#utility.yul\":13260:13318   */\n      mstore\n        /* \"#utility.yul\":13352:13358   */\n      0x776e657200000000000000000000000000000000000000000000000000000000\n        /* \"#utility.yul\":13347:13349   */\n      0x20\n        /* \"#utility.yul\":13339:13345   */\n      dup3\n        /* \"#utility.yul\":13335:13350   */\n      add\n        /* \"#utility.yul\":13328:13359   */\n      mstore\n        /* \"#utility.yul\":13143:13366   */\n      pop\n      jump\t// out\n        /* \"#utility.yul\":13372:13738   */\n    tag_176:\n        /* \"#utility.yul\":13514:13517   */\n      0x00\n        /* \"#utility.yul\":13535:13602   */\n      tag_310\n        /* \"#utility.yul\":13599:13601   */\n      0x24\n        /* \"#utility.yul\":13594:13597   */\n      dup4\n        /* \"#utility.yul\":13535:13602   */\n      tag_150\n      jump\t// in\n    tag_310:\n        /* \"#utility.yul\":13528:13602   */\n      swap2\n      pop\n        /* \"#utility.yul\":13611:13704   */\n      tag_311\n        /* \"#utility.yul\":13700:13703   */\n      dup3\n        /* \"#utility.yul\":13611:13704   */\n      tag_175\n      jump\t// in\n    tag_311:\n        /* \"#utility.yul\":13729:13731   */\n      0x40\n        /* \"#utility.yul\":13724:13727   */\n      dup3\n        /* \"#utility.yul\":13720:13732   */\n      add\n        /* \"#utility.yul\":13713:13732   */\n      swap1\n      pop\n        /* \"#utility.yul\":13372:13738   */\n      swap2\n      swap1\n      pop\n      jump\t// out\n        /* \"#utility.yul\":13744:14163   */\n    tag_99:\n        /* \"#utility.yul\":13910:13914   */\n      0x00\n        /* \"#utility.yul\":13948:13950   */\n      0x20\n        /* \"#utility.yul\":13937:13946   */\n      dup3\n        /* \"#utility.yul\":13933:13951   */\n      add\n        /* \"#utility.yul\":13925:13951   */\n      swap1\n      pop\n        /* \"#utility.yul\":13997:14006   */\n      dup2\n        /* \"#utility.yul\":13991:13995   */\n      dup2\n        /* \"#utility.yul\":13987:14007   */\n      sub\n        /* \"#utility.yul\":13983:13984   */\n      0x00\n        /* \"#utility.yul\":13972:13981   */\n      dup4\n        /* \"#utility.yul\":13968:13985   */\n      add\n        /* \"#utility.yul\":13961:14008   */\n      mstore\n        /* \"#utility.yul\":14025:14156   */\n      tag_313\n        /* \"#utility.yul\":14151:14155   */\n      dup2\n        /* \"#utility.yul\":14025:14156   */\n      tag_176\n      jump\t// in\n    tag_313:\n        /* \"#utility.yul\":14017:14156   */\n      swap1\n      pop\n        /* \"#utility.yul\":13744:14163   */\n      swap2\n      swap1\n      pop\n      jump\t// out\n        /* \"#utility.yul\":14169:14399   */\n    tag_177:\n        /* \"#utility.yul\":14309:14343   */\n      0x457263373231546f6b656e3a207a65726f2061646472657373206e6f7420616c\n        /* \"#utility.yul\":14305:14306   */\n      0x00\n        /* \"#utility.yul\":14297:14303   */\n      dup3\n        /* \"#utility.yul\":14293:14307   */\n      add\n        /* \"#utility.yul\":14286:14344   */\n      mstore\n        /* \"#utility.yul\":14378:14391   */\n      0x6c6f77656420696e20746f000000000000000000000000000000000000000000\n        /* \"#utility.yul\":14373:14375   */\n      0x20\n        /* \"#utility.yul\":14365:14371   */\n      dup3\n        /* \"#utility.yul\":14361:14376   */\n      add\n        /* \"#utility.yul\":14354:14392   */\n      mstore\n        /* \"#utility.yul\":14169:14399   */\n      pop\n      jump\t// out\n        /* \"#utility.yul\":14405:14771   */\n    tag_178:\n        /* \"#utility.yul\":14547:14550   */\n      0x00\n        /* \"#utility.yul\":14568:14635   */\n      tag_316\n        /* \"#utility.yul\":14632:14634   */\n      0x2b\n        /* \"#utility.yul\":14627:14630   */\n      dup4\n        /* \"#utility.yul\":14568:14635   */\n      tag_150\n      jump\t// in\n    tag_316:\n        /* \"#utility.yul\":14561:14635   */\n      swap2\n      pop\n        /* \"#utility.yul\":14644:14737   */\n      tag_317\n        /* \"#utility.yul\":14733:14736   */\n      dup3\n        /* \"#utility.yul\":14644:14737   */\n      tag_177\n      jump\t// in\n    tag_317:\n        /* \"#utility.yul\":14762:14764   */\n      0x40\n        /* \"#utility.yul\":14757:14760   */\n      dup3\n        /* \"#utility.yul\":14753:14765   */\n      add\n        /* \"#utility.yul\":14746:14765   */\n      swap1\n      pop\n        /* \"#utility.yul\":14405:14771   */\n      swap2\n      swap1\n      pop\n      jump\t// out\n        /* \"#utility.yul\":14777:15196   */\n    tag_106:\n        /* \"#utility.yul\":14943:14947   */\n      0x00\n        /* \"#utility.yul\":14981:14983   */\n      0x20\n        /* \"#utility.yul\":14970:14979   */\n      dup3\n        /* \"#utility.yul\":14966:14984   */\n      add\n        /* \"#utility.yul\":14958:14984   */\n      swap1\n      pop\n        /* \"#utility.yul\":15030:15039   */\n      dup2\n        /* \"#utility.yul\":15024:15028   */\n      dup2\n        /* \"#utility.yul\":15020:15040   */\n      sub\n        /* \"#utility.yul\":15016:15017   */\n      0x00\n        /* \"#utility.yul\":15005:15014   */\n      dup4\n        /* \"#utility.yul\":15001:15018   */\n      add\n        /* \"#utility.yul\":14994:15041   */\n      mstore\n        /* \"#utility.yul\":15058:15189   */\n      tag_319\n        /* \"#utility.yul\":15184:15188   */\n      dup2\n        /* \"#utility.yul\":15058:15189   */\n      tag_178\n      jump\t// in\n    tag_319:\n        /* \"#utility.yul\":15050:15189   */\n      swap1\n      pop\n        /* \"#utility.yul\":14777:15196   */\n      swap2\n      swap1\n      pop\n      jump\t// out\n        /* \"#utility.yul\":15202:15384   */\n    tag_179:\n        /* \"#utility.yul\":15342:15376   */\n      0x457263373231546f6b656e3a20796f7520617265206e6f7420616c6c6f776564\n        /* \"#utility.yul\":15338:15339   */\n      0x00\n        /* \"#utility.yul\":15330:15336   */\n      dup3\n        /* \"#utility.yul\":15326:15340   */\n      add\n        /* \"#utility.yul\":15319:15377   */\n      mstore\n        /* \"#utility.yul\":15202:15384   */\n      pop\n      jump\t// out\n        /* \"#utility.yul\":15390:15756   */\n    tag_180:\n        /* \"#utility.yul\":15532:15535   */\n      0x00\n        /* \"#utility.yul\":15553:15620   */\n      tag_322\n        /* \"#utility.yul\":15617:15619   */\n      0x20\n        /* \"#utility.yul\":15612:15615   */\n      dup4\n        /* \"#utility.yul\":15553:15620   */\n      tag_150\n      jump\t// in\n    tag_322:\n        /* \"#utility.yul\":15546:15620   */\n      swap2\n      pop\n        /* \"#utility.yul\":15629:15722   */\n      tag_323\n        /* \"#utility.yul\":15718:15721   */\n      dup3\n        /* \"#utility.yul\":15629:15722   */\n      tag_179\n      jump\t// in\n    tag_323:\n        /* \"#utility.yul\":15747:15749   */\n      0x20\n        /* \"#utility.yul\":15742:15745   */\n      dup3\n        /* \"#utility.yul\":15738:15750   */\n      add\n        /* \"#utility.yul\":15731:15750   */\n      swap1\n      pop\n        /* \"#utility.yul\":15390:15756   */\n      swap2\n      swap1\n      pop\n      jump\t// out\n        /* \"#utility.yul\":15762:16181   */\n    tag_112:\n        /* \"#utility.yul\":15928:15932   */\n      0x00\n        /* \"#utility.yul\":15966:15968   */\n      0x20\n        /* \"#utility.yul\":15955:15964   */\n      dup3\n        /* \"#utility.yul\":15951:15969   */\n      add\n        /* \"#utility.yul\":15943:15969   */\n      swap1\n      pop\n        /* \"#utility.yul\":16015:16024   */\n      dup2\n        /* \"#utility.yul\":16009:16013   */\n      dup2\n        /* \"#utility.yul\":16005:16025   */\n      sub\n        /* \"#utility.yul\":16001:16002   */\n      0x00\n        /* \"#utility.yul\":15990:15999   */\n      dup4\n        /* \"#utility.yul\":15986:16003   */\n      add\n        /* \"#utility.yul\":15979:16026   */\n      mstore\n        /* \"#utility.yul\":16043:16174   */\n      tag_325\n        /* \"#utility.yul\":16169:16173   */\n      dup2\n        /* \"#utility.yul\":16043:16174   */\n      tag_180\n      jump\t// in\n    tag_325:\n        /* \"#utility.yul\":16035:16174   */\n      swap1\n      pop\n        /* \"#utility.yul\":15762:16181   */\n      swap2\n      swap1\n      pop\n      jump\t// out\n        /* \"#utility.yul\":16187:16368   */\n    tag_181:\n        /* \"#utility.yul\":16327:16360   */\n      0x457263373231546f6b656e3a746f6b656e206e6f7420617661696c61626c6500\n        /* \"#utility.yul\":16323:16324   */\n      0x00\n        /* \"#utility.yul\":16315:16321   */\n      dup3\n        /* \"#utility.yul\":16311:16325   */\n      add\n        /* \"#utility.yul\":16304:16361   */\n      mstore\n        /* \"#utility.yul\":16187:16368   */\n      pop\n      jump\t// out\n        /* \"#utility.yul\":16374:16740   */\n    tag_182:\n        /* \"#utility.yul\":16516:16519   */\n      0x00\n        /* \"#utility.yul\":16537:16604   */\n      tag_328\n        /* \"#utility.yul\":16601:16603   */\n      0x1f\n        /* \"#utility.yul\":16596:16599   */\n      dup4\n        /* \"#utility.yul\":16537:16604   */\n      tag_150\n      jump\t// in\n    tag_328:\n        /* \"#utility.yul\":16530:16604   */\n      swap2\n      pop\n        /* \"#utility.yul\":16613:16706   */\n      tag_329\n        /* \"#utility.yul\":16702:16705   */\n      dup3\n        /* \"#utility.yul\":16613:16706   */\n      tag_181\n      jump\t// in\n    tag_329:\n        /* \"#utility.yul\":16731:16733   */\n      0x20\n        /* \"#utility.yul\":16726:16729   */\n      dup3\n        /* \"#utility.yul\":16722:16734   */\n      add\n        /* \"#utility.yul\":16715:16734   */\n      swap1\n      pop\n        /* \"#utility.yul\":16374:16740   */\n      swap2\n      swap1\n      pop\n      jump\t// out\n        /* \"#utility.yul\":16746:17165   */\n    tag_119:\n        /* \"#utility.yul\":16912:16916   */\n      0x00\n        /* \"#utility.yul\":16950:16952   */\n      0x20\n        /* \"#utility.yul\":16939:16948   */\n      dup3\n        /* \"#utility.yul\":16935:16953   */\n      add\n        /* \"#utility.yul\":16927:16953   */\n      swap1\n      pop\n        /* \"#utility.yul\":16999:17008   */\n      dup2\n        /* \"#utility.yul\":16993:16997   */\n      dup2\n        /* \"#utility.yul\":16989:17009   */\n      sub\n        /* \"#utility.yul\":16985:16986   */\n      0x00\n        /* \"#utility.yul\":16974:16983   */\n      dup4\n        /* \"#utility.yul\":16970:16987   */\n      add\n        /* \"#utility.yul\":16963:17010   */\n      mstore\n        /* \"#utility.yul\":17027:17158   */\n      tag_331\n        /* \"#utility.yul\":17153:17157   */\n      dup2\n        /* \"#utility.yul\":17027:17158   */\n      tag_182\n      jump\t// in\n    tag_331:\n        /* \"#utility.yul\":17019:17158   */\n      swap1\n      pop\n        /* \"#utility.yul\":16746:17165   */\n      swap2\n      swap1\n      pop\n      jump\t// out\n        /* \"#utility.yul\":17171:17393   */\n    tag_183:\n        /* \"#utility.yul\":17311:17345   */\n      0x457263373231546f6b656e3a20796f7520617265206e6f7420746f6b656e4f77\n        /* \"#utility.yul\":17307:17308   */\n      0x00\n        /* \"#utility.yul\":17299:17305   */\n      dup3\n        /* \"#utility.yul\":17295:17309   */\n      add\n        /* \"#utility.yul\":17288:17346   */\n      mstore\n        /* \"#utility.yul\":17380:17385   */\n      0x6e65720000000000000000000000000000000000000000000000000000000000\n        /* \"#utility.yul\":17375:17377   */\n      0x20\n        /* \"#utility.yul\":17367:17373   */\n      dup3\n        /* \"#utility.yul\":17363:17378   */\n      add\n        /* \"#utility.yul\":17356:17386   */\n      mstore\n        /* \"#utility.yul\":17171:17393   */\n      pop\n      jump\t// out\n        /* \"#utility.yul\":17399:17765   */\n    tag_184:\n        /* \"#utility.yul\":17541:17544   */\n      0x00\n        /* \"#utility.yul\":17562:17629   */\n      tag_334\n        /* \"#utility.yul\":17626:17628   */\n      0x23\n        /* \"#utility.yul\":17621:17624   */\n      dup4\n        /* \"#utility.yul\":17562:17629   */\n      tag_150\n      jump\t// in\n    tag_334:\n        /* \"#utility.yul\":17555:17629   */\n      swap2\n      pop\n        /* \"#utility.yul\":17638:17731   */\n      tag_335\n        /* \"#utility.yul\":17727:17730   */\n      dup3\n        /* \"#utility.yul\":17638:17731   */\n      tag_183\n      jump\t// in\n    tag_335:\n        /* \"#utility.yul\":17756:17758   */\n      0x40\n        /* \"#utility.yul\":17751:17754   */\n      dup3\n        /* \"#utility.yul\":17747:17759   */\n      add\n        /* \"#utility.yul\":17740:17759   */\n      swap1\n      pop\n        /* \"#utility.yul\":17399:17765   */\n      swap2\n      swap1\n      pop\n      jump\t// out\n        /* \"#utility.yul\":17771:18190   */\n    tag_122:\n        /* \"#utility.yul\":17937:17941   */\n      0x00\n        /* \"#utility.yul\":17975:17977   */\n      0x20\n        /* \"#utility.yul\":17964:17973   */\n      dup3\n        /* \"#utility.yul\":17960:17978   */\n      add\n        /* \"#utility.yul\":17952:17978   */\n      swap1\n      pop\n        /* \"#utility.yul\":18024:18033   */\n      dup2\n        /* \"#utility.yul\":18018:18022   */\n      dup2\n        /* \"#utility.yul\":18014:18034   */\n      sub\n        /* \"#utility.yul\":18010:18011   */\n      0x00\n        /* \"#utility.yul\":17999:18008   */\n      dup4\n        /* \"#utility.yul\":17995:18012   */\n      add\n        /* \"#utility.yul\":17988:18035   */\n      mstore\n        /* \"#utility.yul\":18052:18183   */\n      tag_337\n        /* \"#utility.yul\":18178:18182   */\n      dup2\n        /* \"#utility.yul\":18052:18183   */\n      tag_184\n      jump\t// in\n    tag_337:\n        /* \"#utility.yul\":18044:18183   */\n      swap1\n      pop\n        /* \"#utility.yul\":17771:18190   */\n      swap2\n      swap1\n      pop\n      jump\t// out\n        /* \"#utility.yul\":18196:18626   */\n    tag_136:\n        /* \"#utility.yul\":18339:18343   */\n      0x00\n        /* \"#utility.yul\":18377:18379   */\n      0x60\n        /* \"#utility.yul\":18366:18375   */\n      dup3\n        /* \"#utility.yul\":18362:18380   */\n      add\n        /* \"#utility.yul\":18354:18380   */\n      swap1\n      pop\n        /* \"#utility.yul\":18390:18461   */\n      tag_339\n        /* \"#utility.yul\":18458:18459   */\n      0x00\n        /* \"#utility.yul\":18447:18456   */\n      dup4\n        /* \"#utility.yul\":18443:18460   */\n      add\n        /* \"#utility.yul\":18434:18440   */\n      dup7\n        /* \"#utility.yul\":18390:18461   */\n      tag_157\n      jump\t// in\n    tag_339:\n        /* \"#utility.yul\":18471:18543   */\n      tag_340\n        /* \"#utility.yul\":18539:18541   */\n      0x20\n        /* \"#utility.yul\":18528:18537   */\n      dup4\n        /* \"#utility.yul\":18524:18542   */\n      add\n        /* \"#utility.yul\":18515:18521   */\n      dup6\n        /* \"#utility.yul\":18471:18543   */\n      tag_157\n      jump\t// in\n    tag_340:\n        /* \"#utility.yul\":18553:18619   */\n      tag_341\n        /* \"#utility.yul\":18615:18617   */\n      0x40\n        /* \"#utility.yul\":18604:18613   */\n      dup4\n        /* \"#utility.yul\":18600:18618   */\n      add\n        /* \"#utility.yul\":18591:18597   */\n      dup5\n        /* \"#utility.yul\":18553:18619   */\n      tag_162\n      jump\t// in\n    tag_341:\n        /* \"#utility.yul\":18196:18626   */\n      swap5\n      swap4\n      pop\n      pop\n      pop\n      pop\n      jump\t// out\n        /* \"#utility.yul\":18632:18803   */\n    tag_140:\n        /* \"#utility.yul\":18671:18674   */\n      0x00\n        /* \"#utility.yul\":18694:18718   */\n      tag_343\n        /* \"#utility.yul\":18712:18717   */\n      dup3\n        /* \"#utility.yul\":18694:18718   */\n      tag_154\n      jump\t// in\n    tag_343:\n        /* \"#utility.yul\":18685:18718   */\n      swap2\n      pop\n        /* \"#utility.yul\":18740:18744   */\n      0x00\n        /* \"#utility.yul\":18733:18738   */\n      dup3\n        /* \"#utility.yul\":18730:18745   */\n      sub\n        /* \"#utility.yul\":18727:18768   */\n      tag_344\n      jumpi\n        /* \"#utility.yul\":18748:18766   */\n      tag_345\n      tag_169\n      jump\t// in\n    tag_345:\n        /* \"#utility.yul\":18727:18768   */\n    tag_344:\n        /* \"#utility.yul\":18795:18796   */\n      0x01\n        /* \"#utility.yul\":18788:18793   */\n      dup3\n        /* \"#utility.yul\":18784:18797   */\n      sub\n        /* \"#utility.yul\":18777:18797   */\n      swap1\n      pop\n        /* \"#utility.yul\":18632:18803   */\n      swap2\n      swap1\n      pop\n      jump\t// out\n\n    auxdata: 0xa2646970667358221220b5209148f4414f8e9a468c81b03a4e464e3fd6c41fa6aed8cbee66394345f95964736f6c63430008120033\n}\n",
				"bytecode": {
					"linkReferences": {},
					"object": "60806040523480156200001157600080fd5b50604051620020d2380380620020d283398181016040528101906200003791906200028e565b60008251141580156200004c57506000815114155b6200008e576040517f08c379a000000000000000000000000000000000000000000000000000000000815260040162000085906200039a565b60405180910390fd5b81600090816200009f919062000607565b508060019081620000b1919062000607565b5033600260006101000a81548173ffffffffffffffffffffffffffffffffffffffff021916908373ffffffffffffffffffffffffffffffffffffffff1602179055505050620006ee565b6000604051905090565b600080fd5b600080fd5b600080fd5b600080fd5b6000601f19601f8301169050919050565b7f4e487b7100000000000000000000000000000000000000000000000000000000600052604160045260246000fd5b620001648262000119565b810181811067ffffffffffffffff821117156200018657620001856200012a565b5b80604052505050565b60006200019b620000fb565b9050620001a9828262000159565b919050565b600067ffffffffffffffff821115620001cc57620001cb6200012a565b5b620001d78262000119565b9050602081019050919050565b60005b8381101562000204578082015181840152602081019050620001e7565b60008484015250505050565b6000620002276200022184620001ae565b6200018f565b90508281526020810184848401111562000246576200024562000114565b5b62000253848285620001e4565b509392505050565b600082601f8301126200027357620002726200010f565b5b81516200028584826020860162000210565b91505092915050565b60008060408385031215620002a857620002a762000105565b5b600083015167ffffffffffffffff811115620002c957620002c86200010a565b5b620002d7858286016200025b565b925050602083015167ffffffffffffffff811115620002fb57620002fa6200010a565b5b62000309858286016200025b565b9150509250929050565b600082825260208201905092915050565b7f457263373231546f6b656e3a66696c6c20616c6c20696e707574206669656c6460008201527f7300000000000000000000000000000000000000000000000000000000000000602082015250565b60006200038260218362000313565b91506200038f8262000324565b604082019050919050565b60006020820190508181036000830152620003b58162000373565b9050919050565b600081519050919050565b7f4e487b7100000000000000000000000000000000000000000000000000000000600052602260045260246000fd5b600060028204905060018216806200040f57607f821691505b602082108103620004255762000424620003c7565b5b50919050565b60008190508160005260206000209050919050565b60006020601f8301049050919050565b600082821b905092915050565b6000600883026200048f7fffffffffffffffffffffffffffffffffffffffffffffffffffffffffffffffff8262000450565b6200049b868362000450565b95508019841693508086168417925050509392505050565b6000819050919050565b6000819050919050565b6000620004e8620004e2620004dc84620004b3565b620004bd565b620004b3565b9050919050565b6000819050919050565b6200050483620004c7565b6200051c6200051382620004ef565b8484546200045d565b825550505050565b600090565b6200053362000524565b62000540818484620004f9565b505050565b5b8181101562000568576200055c60008262000529565b60018101905062000546565b5050565b601f821115620005b75762000581816200042b565b6200058c8462000440565b810160208510156200059c578190505b620005b4620005ab8562000440565b83018262000545565b50505b505050565b600082821c905092915050565b6000620005dc60001984600802620005bc565b1980831691505092915050565b6000620005f78383620005c9565b9150826002028217905092915050565b6200061282620003bc565b67ffffffffffffffff8111156200062e576200062d6200012a565b5b6200063a8254620003f6565b620006478282856200056c565b600060209050601f8311600181146200067f57600084156200066a578287015190505b620006768582620005e9565b865550620006e6565b601f1984166200068f866200042b565b60005b82811015620006b95784890151825560018201915060208501945060208101905062000692565b86831015620006d95784890151620006d5601f891682620005c9565b8355505b6001600288020188555050505b505050505050565b6119d480620006fe6000396000f3fe608060405234801561001057600080fd5b50600436106100b45760003560e01c80636352211e116100715780636352211e1461017757806370a08231146101a757806395d89b41146101d7578063a22cb465146101f5578063e985e9c514610211578063f851a44014610241576100b4565b806301173a74146100b957806306fdde03146100d5578063081812fc146100f3578063095ea7b31461012357806323b872dd1461013f57806342966c681461015b575b600080fd5b6100d360048036038101906100ce9190610fe3565b61025f565b005b6100dd6104e6565b6040516100ea91906110a0565b60405180910390f35b61010d600480360381019061010891906110f8565b610574565b60405161011a9190611134565b60405180910390f35b61013d6004803603810190610138919061114f565b6105b1565b005b6101596004803603810190610154919061118f565b61076a565b005b610175600480360381019061017091906110f8565b6109d0565b005b610191600480360381019061018c91906110f8565b610b6f565b60405161019e9190611134565b60405180910390f35b6101c160048036038101906101bc9190610fe3565b610bac565b6040516101ce91906111f1565b60405180910390f35b6101df610bf5565b6040516101ec91906110a0565b60405180910390f35b61020f600480360381019061020a9190611244565b610c83565b005b61022b60048036038101906102269190611284565b610dc5565b60405161023891906112d3565b60405180910390f35b610249610e59565b6040516102569190611134565b60405180910390f35b600260009054906101000a900473ffffffffffffffffffffffffffffffffffffffff1673ffffffffffffffffffffffffffffffffffffffff163373ffffffffffffffffffffffffffffffffffffffff16146102ef576040517f08c379a00000000000000000000000000000000000000000000000000000000081526004016102e69061133a565b60405180910390fd5b600073ffffffffffffffffffffffffffffffffffffffff168173ffffffffffffffffffffffffffffffffffffffff160361035e576040517f08c379a0000000000000000000000000000000000000000000000000000000008152600401610355906113cc565b60405180910390fd5b60008173ffffffffffffffffffffffffffffffffffffffff163b146103b8576040517f08c379a00000000000000000000000000000000000000000000000000000000081526004016103af9061145e565b60405180910390fd5b6003600081546103c7906114ad565b919050819055508060056000600354815260200190815260200160002060006101000a81548173ffffffffffffffffffffffffffffffffffffffff021916908373ffffffffffffffffffffffffffffffffffffffff160217905550600460008273ffffffffffffffffffffffffffffffffffffffff1673ffffffffffffffffffffffffffffffffffffffff1681526020019081526020016000206000815480929190610472906114ad565b9190505550600160076000600354815260200190815260200160002060006101000a81548160ff0219169083151502179055507fddf252ad1be2c89b69c2b068fc378daa952ba7f163c4a11628f55a4df523b3ef6000826003546040516104db939291906114f5565b60405180910390a150565b600080546104f39061155b565b80601f016020809104026020016040519081016040528092919081815260200182805461051f9061155b565b801561056c5780601f106105415761010080835404028352916020019161056c565b820191906000526020600020905b81548152906001019060200180831161054f57829003601f168201915b505050505081565b60006006600083815260200190815260200160002060009054906101000a900473ffffffffffffffffffffffffffffffffffffffff169050919050565b600073ffffffffffffffffffffffffffffffffffffffff168273ffffffffffffffffffffffffffffffffffffffff1603610620576040517f08c379a0000000000000000000000000000000000000000000000000000000008152600401610617906115fe565b60405180910390fd5b60008103610663576040517f08c379a000000000000000000000000000000000000000000000000000000000815260040161065a90611690565b60405180910390fd5b3373ffffffffffffffffffffffffffffffffffffffff1661068382610b6f565b73ffffffffffffffffffffffffffffffffffffffff16146106d9576040517f08c379a00000000000000000000000000000000000000000000000000000000081526004016106d090611722565b60405180910390fd5b816006600083815260200190815260200160002060006101000a81548173ffffffffffffffffffffffffffffffffffffffff021916908373ffffffffffffffffffffffffffffffffffffffff1602179055507f8c5be1e5ebec7d5bd14f71427d1e84f3dd0314c0f7b2291e5b200ac8c7c3b92533838360405161075e939291906114f5565b60405180910390a15050565b600073ffffffffffffffffffffffffffffffffffffffff168373ffffffffffffffffffffffffffffffffffffffff16036107d9576040517f08c379a00000000000000000000000000000000000000000000000000000000081526004016107d0906113cc565b60405180910390fd5b600073ffffffffffffffffffffffffffffffffffffffff168273ffffffffffffffffffffffffffffffffffffffff1603610848576040517f08c379a000000000000000000000000000000000000000000000000000000000815260040161083f906117b4565b60405180910390fd5b3373ffffffffffffffffffffffffffffffffffffffff168373ffffffffffffffffffffffffffffffffffffffff1614806108b557503373ffffffffffffffffffffffffffffffffffffffff1661089d82610574565b73ffffffffffffffffffffffffffffffffffffffff16145b806109465750600860008473ffffffffffffffffffffffffffffffffffffffff1673ffffffffffffffffffffffffffffffffffffffff16815260200190815260200160002060003373ffffffffffffffffffffffffffffffffffffffff1673ffffffffffffffffffffffffffffffffffffffff16815260200190815260200160002060009054906101000a900460ff165b610985576040517f08c379a000000000000000000000000000000000000000000000000000000000815260040161097c90611820565b60405180910390fd5b610990838383610e7f565b7fddf252ad1be2c89b69c2b068fc378daa952ba7f163c4a11628f55a4df523b3ef8383836040516109c3939291906114f5565b60405180910390a1505050565b6007600082815260200190815260200160002060009054906101000a900460ff16610a30576040517f08c379a0000000000000000000000000000000000000000000000000000000008152600401610a279061188c565b60405180910390fd5b3373ffffffffffffffffffffffffffffffffffffffff166005600083815260200190815260200160002060009054906101000a900473ffffffffffffffffffffffffffffffffffffffff1673ffffffffffffffffffffffffffffffffffffffff1614610ad1576040517f08c379a0000000000000000000000000000000000000000000000000000000008152600401610ac89061191e565b60405180910390fd5b60006005600083815260200190815260200160002060006101000a81548173ffffffffffffffffffffffffffffffffffffffff021916908373ffffffffffffffffffffffffffffffffffffffff160217905550610b3033600083610e7f565b7fddf252ad1be2c89b69c2b068fc378daa952ba7f163c4a11628f55a4df523b3ef33600083604051610b64939291906114f5565b60405180910390a150565b60006005600083815260200190815260200160002060009054906101000a900473ffffffffffffffffffffffffffffffffffffffff169050919050565b6000600460008373ffffffffffffffffffffffffffffffffffffffff1673ffffffffffffffffffffffffffffffffffffffff168152602001908152602001600020549050919050565b60018054610c029061155b565b80601f0160208091040260200160405190810160405280929190818152602001828054610c2e9061155b565b8015610c7b5780601f10610c5057610100808354040283529160200191610c7b565b820191906000526020600020905b815481529060010190602001808311610c5e57829003601f168201915b505050505081565b600073ffffffffffffffffffffffffffffffffffffffff168273ffffffffffffffffffffffffffffffffffffffff1603610cf2576040517f08c379a0000000000000000000000000000000000000000000000000000000008152600401610ce9906115fe565b60405180910390fd5b80600860003373ffffffffffffffffffffffffffffffffffffffff1673ffffffffffffffffffffffffffffffffffffffff16815260200190815260200160002060008473ffffffffffffffffffffffffffffffffffffffff1673ffffffffffffffffffffffffffffffffffffffff16815260200190815260200160002060006101000a81548160ff0219169083151502179055507f17307eab39ab6107e8899845ad3d59bd9653f200f220920489ca2b5937696c31338383604051610db99392919061193e565b60405180910390a15050565b6000600860008473ffffffffffffffffffffffffffffffffffffffff1673ffffffffffffffffffffffffffffffffffffffff16815260200190815260200160002060008373ffffffffffffffffffffffffffffffffffffffff1673ffffffffffffffffffffffffffffffffffffffff16815260200190815260200160002060009054906101000a900460ff16905092915050565b600260009054906101000a900473ffffffffffffffffffffffffffffffffffffffff1681565b600460008473ffffffffffffffffffffffffffffffffffffffff1673ffffffffffffffffffffffffffffffffffffffff1681526020019081526020016000206000815480929190610ecf90611975565b9190505550816005600083815260200190815260200160002060006101000a81548173ffffffffffffffffffffffffffffffffffffffff021916908373ffffffffffffffffffffffffffffffffffffffff160217905550600460008373ffffffffffffffffffffffffffffffffffffffff1673ffffffffffffffffffffffffffffffffffffffff1681526020019081526020016000206000815480929190610f76906114ad565b9190505550505050565b600080fd5b600073ffffffffffffffffffffffffffffffffffffffff82169050919050565b6000610fb082610f85565b9050919050565b610fc081610fa5565b8114610fcb57600080fd5b50565b600081359050610fdd81610fb7565b92915050565b600060208284031215610ff957610ff8610f80565b5b600061100784828501610fce565b91505092915050565b600081519050919050565b600082825260208201905092915050565b60005b8381101561104a57808201518184015260208101905061102f565b60008484015250505050565b6000601f19601f8301169050919050565b600061107282611010565b61107c818561101b565b935061108c81856020860161102c565b61109581611056565b840191505092915050565b600060208201905081810360008301526110ba8184611067565b905092915050565b6000819050919050565b6110d5816110c2565b81146110e057600080fd5b50565b6000813590506110f2816110cc565b92915050565b60006020828403121561110e5761110d610f80565b5b600061111c848285016110e3565b91505092915050565b61112e81610fa5565b82525050565b60006020820190506111496000830184611125565b92915050565b6000806040838503121561116657611165610f80565b5b600061117485828601610fce565b9250506020611185858286016110e3565b9150509250929050565b6000806000606084860312156111a8576111a7610f80565b5b60006111b686828701610fce565b93505060206111c786828701610fce565b92505060406111d8868287016110e3565b9150509250925092565b6111eb816110c2565b82525050565b600060208201905061120660008301846111e2565b92915050565b60008115159050919050565b6112218161120c565b811461122c57600080fd5b50565b60008135905061123e81611218565b92915050565b6000806040838503121561125b5761125a610f80565b5b600061126985828601610fce565b925050602061127a8582860161122f565b9150509250929050565b6000806040838503121561129b5761129a610f80565b5b60006112a985828601610fce565b92505060206112ba85828601610fce565b9150509250929050565b6112cd8161120c565b82525050565b60006020820190506112e860008301846112c4565b92915050565b7f457263373231546f6b656e3a204f6e6c792041646d696e20416c6c6f77656400600082015250565b6000611324601f8361101b565b915061132f826112ee565b602082019050919050565b6000602082019050818103600083015261135381611317565b9050919050565b7f457263373231546f6b656e3a207a65726f2061646472657373206e6f7420616c60008201527f6c6f77656420696e2066726f6d00000000000000000000000000000000000000602082015250565b60006113b6602d8361101b565b91506113c18261135a565b604082019050919050565b600060208201905081810360008301526113e5816113a9565b9050919050565b7f457263373231546f6b656e3a74686973206973206120636f6e7472616374206160008201527f6464726573732000000000000000000000000000000000000000000000000000602082015250565b600061144860278361101b565b9150611453826113ec565b604082019050919050565b600060208201905081810360008301526114778161143b565b9050919050565b7f4e487b7100000000000000000000000000000000000000000000000000000000600052601160045260246000fd5b60006114b8826110c2565b91507fffffffffffffffffffffffffffffffffffffffffffffffffffffffffffffffff82036114ea576114e961147e565b5b600182019050919050565b600060608201905061150a6000830186611125565b6115176020830185611125565b61152460408301846111e2565b949350505050565b7f4e487b7100000000000000000000000000000000000000000000000000000000600052602260045260246000fd5b6000600282049050600182168061157357607f821691505b6020821081036115865761158561152c565b5b50919050565b7f457263373231546f6b656e3a7a65726f2061646472657373206e6f7420616c6c60008201527f6f77656400000000000000000000000000000000000000000000000000000000602082015250565b60006115e860248361101b565b91506115f38261158c565b604082019050919050565b60006020820190508181036000830152611617816115db565b9050919050565b7f457263373231546f6b656e3a20656e74657220612076616c696420746f6b656e60008201527f4964000000000000000000000000000000000000000000000000000000000000602082015250565b600061167a60228361101b565b91506116858261161e565b604082019050919050565b600060208201905081810360008301526116a98161166d565b9050919050565b7f457263373231546f6b656e3a20796f7520617265206e6f7420746f6b656e206f60008201527f776e657200000000000000000000000000000000000000000000000000000000602082015250565b600061170c60248361101b565b9150611717826116b0565b604082019050919050565b6000602082019050818103600083015261173b816116ff565b9050919050565b7f457263373231546f6b656e3a207a65726f2061646472657373206e6f7420616c60008201527f6c6f77656420696e20746f000000000000000000000000000000000000000000602082015250565b600061179e602b8361101b565b91506117a982611742565b604082019050919050565b600060208201905081810360008301526117cd81611791565b9050919050565b7f457263373231546f6b656e3a20796f7520617265206e6f7420616c6c6f776564600082015250565b600061180a60208361101b565b9150611815826117d4565b602082019050919050565b60006020820190508181036000830152611839816117fd565b9050919050565b7f457263373231546f6b656e3a746f6b656e206e6f7420617661696c61626c6500600082015250565b6000611876601f8361101b565b915061188182611840565b602082019050919050565b600060208201905081810360008301526118a581611869565b9050919050565b7f457263373231546f6b656e3a20796f7520617265206e6f7420746f6b656e4f7760008201527f6e65720000000000000000000000000000000000000000000000000000000000602082015250565b600061190860238361101b565b9150611913826118ac565b604082019050919050565b60006020820190508181036000830152611937816118fb565b9050919050565b60006060820190506119536000830186611125565b6119606020830185611125565b61196d60408301846112c4565b949350505050565b6000611980826110c2565b9150600082036119935761199261147e565b5b60018203905091905056fea2646970667358221220b5209148f4414f8e9a468c81b03a4e464e3fd6c41fa6aed8cbee66394345f95964736f6c63430008120033",
					"opcodes": "PUSH1 0x80 PUSH1 0x40 MSTORE CALLVALUE DUP1 ISZERO PUSH3 0x11 JUMPI PUSH1 0x0 DUP1 REVERT JUMPDEST POP PUSH1 0x40 MLOAD PUSH3 0x20D2 CODESIZE SUB DUP1 PUSH3 0x20D2 DUP4 CODECOPY DUP2 DUP2 ADD PUSH1 0x40 MSTORE DUP2 ADD SWAP1 PUSH3 0x37 SWAP2 SWAP1 PUSH3 0x28E JUMP JUMPDEST PUSH1 0x0 DUP3 MLOAD EQ ISZERO DUP1 ISZERO PUSH3 0x4C JUMPI POP PUSH1 0x0 DUP2 MLOAD EQ ISZERO JUMPDEST PUSH3 0x8E JUMPI PUSH1 0x40 MLOAD PUSH32 0x8C379A000000000000000000000000000000000000000000000000000000000 DUP2 MSTORE PUSH1 0x4 ADD PUSH3 0x85 SWAP1 PUSH3 0x39A JUMP JUMPDEST PUSH1 0x40 MLOAD DUP1 SWAP2 SUB SWAP1 REVERT JUMPDEST DUP2 PUSH1 0x0 SWAP1 DUP2 PUSH3 0x9F SWAP2 SWAP1 PUSH3 0x607 JUMP JUMPDEST POP DUP1 PUSH1 0x1 SWAP1 DUP2 PUSH3 0xB1 SWAP2 SWAP1 PUSH3 0x607 JUMP JUMPDEST POP CALLER PUSH1 0x2 PUSH1 0x0 PUSH2 0x100 EXP DUP2 SLOAD DUP2 PUSH20 0xFFFFFFFFFFFFFFFFFFFFFFFFFFFFFFFFFFFFFFFF MUL NOT AND SWAP1 DUP4 PUSH20 0xFFFFFFFFFFFFFFFFFFFFFFFFFFFFFFFFFFFFFFFF AND MUL OR SWAP1 SSTORE POP POP POP PUSH3 0x6EE JUMP JUMPDEST PUSH1 0x0 PUSH1 0x40 MLOAD SWAP1 POP SWAP1 JUMP JUMPDEST PUSH1 0x0 DUP1 REVERT JUMPDEST PUSH1 0x0 DUP1 REVERT JUMPDEST PUSH1 0x0 DUP1 REVERT JUMPDEST PUSH1 0x0 DUP1 REVERT JUMPDEST PUSH1 0x0 PUSH1 0x1F NOT PUSH1 0x1F DUP4 ADD AND SWAP1 POP SWAP2 SWAP1 POP JUMP JUMPDEST PUSH32 0x4E487B7100000000000000000000000000000000000000000000000000000000 PUSH1 0x0 MSTORE PUSH1 0x41 PUSH1 0x4 MSTORE PUSH1 0x24 PUSH1 0x0 REVERT JUMPDEST PUSH3 0x164 DUP3 PUSH3 0x119 JUMP JUMPDEST DUP2 ADD DUP2 DUP2 LT PUSH8 0xFFFFFFFFFFFFFFFF DUP3 GT OR ISZERO PUSH3 0x186 JUMPI PUSH3 0x185 PUSH3 0x12A JUMP JUMPDEST JUMPDEST DUP1 PUSH1 0x40 MSTORE POP POP POP JUMP JUMPDEST PUSH1 0x0 PUSH3 0x19B PUSH3 0xFB JUMP JUMPDEST SWAP1 POP PUSH3 0x1A9 DUP3 DUP3 PUSH3 0x159 JUMP JUMPDEST SWAP2 SWAP1 POP JUMP JUMPDEST PUSH1 0x0 PUSH8 0xFFFFFFFFFFFFFFFF DUP3 GT ISZERO PUSH3 0x1CC JUMPI PUSH3 0x1CB PUSH3 0x12A JUMP JUMPDEST JUMPDEST PUSH3 0x1D7 DUP3 PUSH3 0x119 JUMP JUMPDEST SWAP1 POP PUSH1 0x20 DUP2 ADD SWAP1 POP SWAP2 SWAP1 POP JUMP JUMPDEST PUSH1 0x0 JUMPDEST DUP4 DUP2 LT ISZERO PUSH3 0x204 JUMPI DUP1 DUP3 ADD MLOAD DUP2 DUP5 ADD MSTORE PUSH1 0x20 DUP2 ADD SWAP1 POP PUSH3 0x1E7 JUMP JUMPDEST PUSH1 0x0 DUP5 DUP5 ADD MSTORE POP POP POP POP JUMP JUMPDEST PUSH1 0x0 PUSH3 0x227 PUSH3 0x221 DUP5 PUSH3 0x1AE JUMP JUMPDEST PUSH3 0x18F JUMP JUMPDEST SWAP1 POP DUP3 DUP2 MSTORE PUSH1 0x20 DUP2 ADD DUP5 DUP5 DUP5 ADD GT ISZERO PUSH3 0x246 JUMPI PUSH3 0x245 PUSH3 0x114 JUMP JUMPDEST JUMPDEST PUSH3 0x253 DUP5 DUP3 DUP6 PUSH3 0x1E4 JUMP JUMPDEST POP SWAP4 SWAP3 POP POP POP JUMP JUMPDEST PUSH1 0x0 DUP3 PUSH1 0x1F DUP4 ADD SLT PUSH3 0x273 JUMPI PUSH3 0x272 PUSH3 0x10F JUMP JUMPDEST JUMPDEST DUP2 MLOAD PUSH3 0x285 DUP5 DUP3 PUSH1 0x20 DUP7 ADD PUSH3 0x210 JUMP JUMPDEST SWAP2 POP POP SWAP3 SWAP2 POP POP JUMP JUMPDEST PUSH1 0x0 DUP1 PUSH1 0x40 DUP4 DUP6 SUB SLT ISZERO PUSH3 0x2A8 JUMPI PUSH3 0x2A7 PUSH3 0x105 JUMP JUMPDEST JUMPDEST PUSH1 0x0 DUP4 ADD MLOAD PUSH8 0xFFFFFFFFFFFFFFFF DUP2 GT ISZERO PUSH3 0x2C9 JUMPI PUSH3 0x2C8 PUSH3 0x10A JUMP JUMPDEST JUMPDEST PUSH3 0x2D7 DUP6 DUP3 DUP7 ADD PUSH3 0x25B JUMP JUMPDEST SWAP3 POP POP PUSH1 0x20 DUP4 ADD MLOAD PUSH8 0xFFFFFFFFFFFFFFFF DUP2 GT ISZERO PUSH3 0x2FB JUMPI PUSH3 0x2FA PUSH3 0x10A JUMP JUMPDEST JUMPDEST PUSH3 0x309 DUP6 DUP3 DUP7 ADD PUSH3 0x25B JUMP JUMPDEST SWAP2 POP POP SWAP3 POP SWAP3 SWAP1 POP JUMP JUMPDEST PUSH1 0x0 DUP3 DUP3 MSTORE PUSH1 0x20 DUP3 ADD SWAP1 POP SWAP3 SWAP2 POP POP JUMP JUMPDEST PUSH32 0x457263373231546F6B656E3A66696C6C20616C6C20696E707574206669656C64 PUSH1 0x0 DUP3 ADD MSTORE PUSH32 0x7300000000000000000000000000000000000000000000000000000000000000 PUSH1 0x20 DUP3 ADD MSTORE POP JUMP JUMPDEST PUSH1 0x0 PUSH3 0x382 PUSH1 0x21 DUP4 PUSH3 0x313 JUMP JUMPDEST SWAP2 POP PUSH3 0x38F DUP3 PUSH3 0x324 JUMP JUMPDEST PUSH1 0x40 DUP3 ADD SWAP1 POP SWAP2 SWAP1 POP JUMP JUMPDEST PUSH1 0x0 PUSH1 0x20 DUP3 ADD SWAP1 POP DUP2 DUP2 SUB PUSH1 0x0 DUP4 ADD MSTORE PUSH3 0x3B5 DUP2 PUSH3 0x373 JUMP JUMPDEST SWAP1 POP SWAP2 SWAP1 POP JUMP JUMPDEST PUSH1 0x0 DUP2 MLOAD SWAP1 POP SWAP2 SWAP1 POP JUMP JUMPDEST PUSH32 0x4E487B7100000000000000000000000000000000000000000000000000000000 PUSH1 0x0 MSTORE PUSH1 0x22 PUSH1 0x4 MSTORE PUSH1 0x24 PUSH1 0x0 REVERT JUMPDEST PUSH1 0x0 PUSH1 0x2 DUP3 DIV SWAP1 POP PUSH1 0x1 DUP3 AND DUP1 PUSH3 0x40F JUMPI PUSH1 0x7F DUP3 AND SWAP2 POP JUMPDEST PUSH1 0x20 DUP3 LT DUP2 SUB PUSH3 0x425 JUMPI PUSH3 0x424 PUSH3 0x3C7 JUMP JUMPDEST JUMPDEST POP SWAP2 SWAP1 POP JUMP JUMPDEST PUSH1 0x0 DUP2 SWAP1 POP DUP2 PUSH1 0x0 MSTORE PUSH1 0x20 PUSH1 0x0 KECCAK256 SWAP1 POP SWAP2 SWAP1 POP JUMP JUMPDEST PUSH1 0x0 PUSH1 0x20 PUSH1 0x1F DUP4 ADD DIV SWAP1 POP SWAP2 SWAP1 POP JUMP JUMPDEST PUSH1 0x0 DUP3 DUP3 SHL SWAP1 POP SWAP3 SWAP2 POP POP JUMP JUMPDEST PUSH1 0x0 PUSH1 0x8 DUP4 MUL PUSH3 0x48F PUSH32 0xFFFFFFFFFFFFFFFFFFFFFFFFFFFFFFFFFFFFFFFFFFFFFFFFFFFFFFFFFFFFFFFF DUP3 PUSH3 0x450 JUMP JUMPDEST PUSH3 0x49B DUP7 DUP4 PUSH3 0x450 JUMP JUMPDEST SWAP6 POP DUP1 NOT DUP5 AND SWAP4 POP DUP1 DUP7 AND DUP5 OR SWAP3 POP POP POP SWAP4 SWAP3 POP POP POP JUMP JUMPDEST PUSH1 0x0 DUP2 SWAP1 POP SWAP2 SWAP1 POP JUMP JUMPDEST PUSH1 0x0 DUP2 SWAP1 POP SWAP2 SWAP1 POP JUMP JUMPDEST PUSH1 0x0 PUSH3 0x4E8 PUSH3 0x4E2 PUSH3 0x4DC DUP5 PUSH3 0x4B3 JUMP JUMPDEST PUSH3 0x4BD JUMP JUMPDEST PUSH3 0x4B3 JUMP JUMPDEST SWAP1 POP SWAP2 SWAP1 POP JUMP JUMPDEST PUSH1 0x0 DUP2 SWAP1 POP SWAP2 SWAP1 POP JUMP JUMPDEST PUSH3 0x504 DUP4 PUSH3 0x4C7 JUMP JUMPDEST PUSH3 0x51C PUSH3 0x513 DUP3 PUSH3 0x4EF JUMP JUMPDEST DUP5 DUP5 SLOAD PUSH3 0x45D JUMP JUMPDEST DUP3 SSTORE POP POP POP POP JUMP JUMPDEST PUSH1 0x0 SWAP1 JUMP JUMPDEST PUSH3 0x533 PUSH3 0x524 JUMP JUMPDEST PUSH3 0x540 DUP2 DUP5 DUP5 PUSH3 0x4F9 JUMP JUMPDEST POP POP POP JUMP JUMPDEST JUMPDEST DUP2 DUP2 LT ISZERO PUSH3 0x568 JUMPI PUSH3 0x55C PUSH1 0x0 DUP3 PUSH3 0x529 JUMP JUMPDEST PUSH1 0x1 DUP2 ADD SWAP1 POP PUSH3 0x546 JUMP JUMPDEST POP POP JUMP JUMPDEST PUSH1 0x1F DUP3 GT ISZERO PUSH3 0x5B7 JUMPI PUSH3 0x581 DUP2 PUSH3 0x42B JUMP JUMPDEST PUSH3 0x58C DUP5 PUSH3 0x440 JUMP JUMPDEST DUP2 ADD PUSH1 0x20 DUP6 LT ISZERO PUSH3 0x59C JUMPI DUP2 SWAP1 POP JUMPDEST PUSH3 0x5B4 PUSH3 0x5AB DUP6 PUSH3 0x440 JUMP JUMPDEST DUP4 ADD DUP3 PUSH3 0x545 JUMP JUMPDEST POP POP JUMPDEST POP POP POP JUMP JUMPDEST PUSH1 0x0 DUP3 DUP3 SHR SWAP1 POP SWAP3 SWAP2 POP POP JUMP JUMPDEST PUSH1 0x0 PUSH3 0x5DC PUSH1 0x0 NOT DUP5 PUSH1 0x8 MUL PUSH3 0x5BC JUMP JUMPDEST NOT DUP1 DUP4 AND SWAP2 POP POP SWAP3 SWAP2 POP POP JUMP JUMPDEST PUSH1 0x0 PUSH3 0x5F7 DUP4 DUP4 PUSH3 0x5C9 JUMP JUMPDEST SWAP2 POP DUP3 PUSH1 0x2 MUL DUP3 OR SWAP1 POP SWAP3 SWAP2 POP POP JUMP JUMPDEST PUSH3 0x612 DUP3 PUSH3 0x3BC JUMP JUMPDEST PUSH8 0xFFFFFFFFFFFFFFFF DUP2 GT ISZERO PUSH3 0x62E JUMPI PUSH3 0x62D PUSH3 0x12A JUMP JUMPDEST JUMPDEST PUSH3 0x63A DUP3 SLOAD PUSH3 0x3F6 JUMP JUMPDEST PUSH3 0x647 DUP3 DUP3 DUP6 PUSH3 0x56C JUMP JUMPDEST PUSH1 0x0 PUSH1 0x20 SWAP1 POP PUSH1 0x1F DUP4 GT PUSH1 0x1 DUP2 EQ PUSH3 0x67F JUMPI PUSH1 0x0 DUP5 ISZERO PUSH3 0x66A JUMPI DUP3 DUP8 ADD MLOAD SWAP1 POP JUMPDEST PUSH3 0x676 DUP6 DUP3 PUSH3 0x5E9 JUMP JUMPDEST DUP7 SSTORE POP PUSH3 0x6E6 JUMP JUMPDEST PUSH1 0x1F NOT DUP5 AND PUSH3 0x68F DUP7 PUSH3 0x42B JUMP JUMPDEST PUSH1 0x0 JUMPDEST DUP3 DUP2 LT ISZERO PUSH3 0x6B9 JUMPI DUP5 DUP10 ADD MLOAD DUP3 SSTORE PUSH1 0x1 DUP3 ADD SWAP2 POP PUSH1 0x20 DUP6 ADD SWAP5 POP PUSH1 0x20 DUP2 ADD SWAP1 POP PUSH3 0x692 JUMP JUMPDEST DUP7 DUP4 LT ISZERO PUSH3 0x6D9 JUMPI DUP5 DUP10 ADD MLOAD PUSH3 0x6D5 PUSH1 0x1F DUP10 AND DUP3 PUSH3 0x5C9 JUMP JUMPDEST DUP4 SSTORE POP JUMPDEST PUSH1 0x1 PUSH1 0x2 DUP9 MUL ADD DUP9 SSTORE POP POP POP JUMPDEST POP POP POP POP POP POP JUMP JUMPDEST PUSH2 0x19D4 DUP1 PUSH3 0x6FE PUSH1 0x0 CODECOPY PUSH1 0x0 RETURN INVALID PUSH1 0x80 PUSH1 0x40 MSTORE CALLVALUE DUP1 ISZERO PUSH2 0x10 JUMPI PUSH1 0x0 DUP1 REVERT JUMPDEST POP PUSH1 0x4 CALLDATASIZE LT PUSH2 0xB4 JUMPI PUSH1 0x0 CALLDATALOAD PUSH1 0xE0 SHR DUP1 PUSH4 0x6352211E GT PUSH2 0x71 JUMPI DUP1 PUSH4 0x6352211E EQ PUSH2 0x177 JUMPI DUP1 PUSH4 0x70A08231 EQ PUSH2 0x1A7 JUMPI DUP1 PUSH4 0x95D89B41 EQ PUSH2 0x1D7 JUMPI DUP1 PUSH4 0xA22CB465 EQ PUSH2 0x1F5 JUMPI DUP1 PUSH4 0xE985E9C5 EQ PUSH2 0x211 JUMPI DUP1 PUSH4 0xF851A440 EQ PUSH2 0x241 JUMPI PUSH2 0xB4 JUMP JUMPDEST DUP1 PUSH4 0x1173A74 EQ PUSH2 0xB9 JUMPI DUP1 PUSH4 0x6FDDE03 EQ PUSH2 0xD5 JUMPI DUP1 PUSH4 0x81812FC EQ PUSH2 0xF3 JUMPI DUP1 PUSH4 0x95EA7B3 EQ PUSH2 0x123 JUMPI DUP1 PUSH4 0x23B872DD EQ PUSH2 0x13F JUMPI DUP1 PUSH4 0x42966C68 EQ PUSH2 0x15B JUMPI JUMPDEST PUSH1 0x0 DUP1 REVERT JUMPDEST PUSH2 0xD3 PUSH1 0x4 DUP1 CALLDATASIZE SUB DUP2 ADD SWAP1 PUSH2 0xCE SWAP2 SWAP1 PUSH2 0xFE3 JUMP JUMPDEST PUSH2 0x25F JUMP JUMPDEST STOP JUMPDEST PUSH2 0xDD PUSH2 0x4E6 JUMP JUMPDEST PUSH1 0x40 MLOAD PUSH2 0xEA SWAP2 SWAP1 PUSH2 0x10A0 JUMP JUMPDEST PUSH1 0x40 MLOAD DUP1 SWAP2 SUB SWAP1 RETURN JUMPDEST PUSH2 0x10D PUSH1 0x4 DUP1 CALLDATASIZE SUB DUP2 ADD SWAP1 PUSH2 0x108 SWAP2 SWAP1 PUSH2 0x10F8 JUMP JUMPDEST PUSH2 0x574 JUMP JUMPDEST PUSH1 0x40 MLOAD PUSH2 0x11A SWAP2 SWAP1 PUSH2 0x1134 JUMP JUMPDEST PUSH1 0x40 MLOAD DUP1 SWAP2 SUB SWAP1 RETURN JUMPDEST PUSH2 0x13D PUSH1 0x4 DUP1 CALLDATASIZE SUB DUP2 ADD SWAP1 PUSH2 0x138 SWAP2 SWAP1 PUSH2 0x114F JUMP JUMPDEST PUSH2 0x5B1 JUMP JUMPDEST STOP JUMPDEST PUSH2 0x159 PUSH1 0x4 DUP1 CALLDATASIZE SUB DUP2 ADD SWAP1 PUSH2 0x154 SWAP2 SWAP1 PUSH2 0x118F JUMP JUMPDEST PUSH2 0x76A JUMP JUMPDEST STOP JUMPDEST PUSH2 0x175 PUSH1 0x4 DUP1 CALLDATASIZE SUB DUP2 ADD SWAP1 PUSH2 0x170 SWAP2 SWAP1 PUSH2 0x10F8 JUMP JUMPDEST PUSH2 0x9D0 JUMP JUMPDEST STOP JUMPDEST PUSH2 0x191 PUSH1 0x4 DUP1 CALLDATASIZE SUB DUP2 ADD SWAP1 PUSH2 0x18C SWAP2 SWAP1 PUSH2 0x10F8 JUMP JUMPDEST PUSH2 0xB6F JUMP JUMPDEST PUSH1 0x40 MLOAD PUSH2 0x19E SWAP2 SWAP1 PUSH2 0x1134 JUMP JUMPDEST PUSH1 0x40 MLOAD DUP1 SWAP2 SUB SWAP1 RETURN JUMPDEST PUSH2 0x1C1 PUSH1 0x4 DUP1 CALLDATASIZE SUB DUP2 ADD SWAP1 PUSH2 0x1BC SWAP2 SWAP1 PUSH2 0xFE3 JUMP JUMPDEST PUSH2 0xBAC JUMP JUMPDEST PUSH1 0x40 MLOAD PUSH2 0x1CE SWAP2 SWAP1 PUSH2 0x11F1 JUMP JUMPDEST PUSH1 0x40 MLOAD DUP1 SWAP2 SUB SWAP1 RETURN JUMPDEST PUSH2 0x1DF PUSH2 0xBF5 JUMP JUMPDEST PUSH1 0x40 MLOAD PUSH2 0x1EC SWAP2 SWAP1 PUSH2 0x10A0 JUMP JUMPDEST PUSH1 0x40 MLOAD DUP1 SWAP2 SUB SWAP1 RETURN JUMPDEST PUSH2 0x20F PUSH1 0x4 DUP1 CALLDATASIZE SUB DUP2 ADD SWAP1 PUSH2 0x20A SWAP2 SWAP1 PUSH2 0x1244 JUMP JUMPDEST PUSH2 0xC83 JUMP JUMPDEST STOP JUMPDEST PUSH2 0x22B PUSH1 0x4 DUP1 CALLDATASIZE SUB DUP2 ADD SWAP1 PUSH2 0x226 SWAP2 SWAP1 PUSH2 0x1284 JUMP JUMPDEST PUSH2 0xDC5 JUMP JUMPDEST PUSH1 0x40 MLOAD PUSH2 0x238 SWAP2 SWAP1 PUSH2 0x12D3 JUMP JUMPDEST PUSH1 0x40 MLOAD DUP1 SWAP2 SUB SWAP1 RETURN JUMPDEST PUSH2 0x249 PUSH2 0xE59 JUMP JUMPDEST PUSH1 0x40 MLOAD PUSH2 0x256 SWAP2 SWAP1 PUSH2 0x1134 JUMP JUMPDEST PUSH1 0x40 MLOAD DUP1 SWAP2 SUB SWAP1 RETURN JUMPDEST PUSH1 0x2 PUSH1 0x0 SWAP1 SLOAD SWAP1 PUSH2 0x100 EXP SWAP1 DIV PUSH20 0xFFFFFFFFFFFFFFFFFFFFFFFFFFFFFFFFFFFFFFFF AND PUSH20 0xFFFFFFFFFFFFFFFFFFFFFFFFFFFFFFFFFFFFFFFF AND CALLER PUSH20 0xFFFFFFFFFFFFFFFFFFFFFFFFFFFFFFFFFFFFFFFF AND EQ PUSH2 0x2EF JUMPI PUSH1 0x40 MLOAD PUSH32 0x8C379A000000000000000000000000000000000000000000000000000000000 DUP2 MSTORE PUSH1 0x4 ADD PUSH2 0x2E6 SWAP1 PUSH2 0x133A JUMP JUMPDEST PUSH1 0x40 MLOAD DUP1 SWAP2 SUB SWAP1 REVERT JUMPDEST PUSH1 0x0 PUSH20 0xFFFFFFFFFFFFFFFFFFFFFFFFFFFFFFFFFFFFFFFF AND DUP2 PUSH20 0xFFFFFFFFFFFFFFFFFFFFFFFFFFFFFFFFFFFFFFFF AND SUB PUSH2 0x35E JUMPI PUSH1 0x40 MLOAD PUSH32 0x8C379A000000000000000000000000000000000000000000000000000000000 DUP2 MSTORE PUSH1 0x4 ADD PUSH2 0x355 SWAP1 PUSH2 0x13CC JUMP JUMPDEST PUSH1 0x40 MLOAD DUP1 SWAP2 SUB SWAP1 REVERT JUMPDEST PUSH1 0x0 DUP2 PUSH20 0xFFFFFFFFFFFFFFFFFFFFFFFFFFFFFFFFFFFFFFFF AND EXTCODESIZE EQ PUSH2 0x3B8 JUMPI PUSH1 0x40 MLOAD PUSH32 0x8C379A000000000000000000000000000000000000000000000000000000000 DUP2 MSTORE PUSH1 0x4 ADD PUSH2 0x3AF SWAP1 PUSH2 0x145E JUMP JUMPDEST PUSH1 0x40 MLOAD DUP1 SWAP2 SUB SWAP1 REVERT JUMPDEST PUSH1 0x3 PUSH1 0x0 DUP2 SLOAD PUSH2 0x3C7 SWAP1 PUSH2 0x14AD JUMP JUMPDEST SWAP2 SWAP1 POP DUP2 SWAP1 SSTORE POP DUP1 PUSH1 0x5 PUSH1 0x0 PUSH1 0x3 SLOAD DUP2 MSTORE PUSH1 0x20 ADD SWAP1 DUP2 MSTORE PUSH1 0x20 ADD PUSH1 0x0 KECCAK256 PUSH1 0x0 PUSH2 0x100 EXP DUP2 SLOAD DUP2 PUSH20 0xFFFFFFFFFFFFFFFFFFFFFFFFFFFFFFFFFFFFFFFF MUL NOT AND SWAP1 DUP4 PUSH20 0xFFFFFFFFFFFFFFFFFFFFFFFFFFFFFFFFFFFFFFFF AND MUL OR SWAP1 SSTORE POP PUSH1 0x4 PUSH1 0x0 DUP3 PUSH20 0xFFFFFFFFFFFFFFFFFFFFFFFFFFFFFFFFFFFFFFFF AND PUSH20 0xFFFFFFFFFFFFFFFFFFFFFFFFFFFFFFFFFFFFFFFF AND DUP2 MSTORE PUSH1 0x20 ADD SWAP1 DUP2 MSTORE PUSH1 0x20 ADD PUSH1 0x0 KECCAK256 PUSH1 0x0 DUP2 SLOAD DUP1 SWAP3 SWAP2 SWAP1 PUSH2 0x472 SWAP1 PUSH2 0x14AD JUMP JUMPDEST SWAP2 SWAP1 POP SSTORE POP PUSH1 0x1 PUSH1 0x7 PUSH1 0x0 PUSH1 0x3 SLOAD DUP2 MSTORE PUSH1 0x20 ADD SWAP1 DUP2 MSTORE PUSH1 0x20 ADD PUSH1 0x0 KECCAK256 PUSH1 0x0 PUSH2 0x100 EXP DUP2 SLOAD DUP2 PUSH1 0xFF MUL NOT AND SWAP1 DUP4 ISZERO ISZERO MUL OR SWAP1 SSTORE POP PUSH32 0xDDF252AD1BE2C89B69C2B068FC378DAA952BA7F163C4A11628F55A4DF523B3EF PUSH1 0x0 DUP3 PUSH1 0x3 SLOAD PUSH1 0x40 MLOAD PUSH2 0x4DB SWAP4 SWAP3 SWAP2 SWAP1 PUSH2 0x14F5 JUMP JUMPDEST PUSH1 0x40 MLOAD DUP1 SWAP2 SUB SWAP1 LOG1 POP JUMP JUMPDEST PUSH1 0x0 DUP1 SLOAD PUSH2 0x4F3 SWAP1 PUSH2 0x155B JUMP JUMPDEST DUP1 PUSH1 0x1F ADD PUSH1 0x20 DUP1 SWAP2 DIV MUL PUSH1 0x20 ADD PUSH1 0x40 MLOAD SWAP1 DUP2 ADD PUSH1 0x40 MSTORE DUP1 SWAP3 SWAP2 SWAP1 DUP2 DUP2 MSTORE PUSH1 0x20 ADD DUP3 DUP1 SLOAD PUSH2 0x51F SWAP1 PUSH2 0x155B JUMP JUMPDEST DUP1 ISZERO PUSH2 0x56C JUMPI DUP1 PUSH1 0x1F LT PUSH2 0x541 JUMPI PUSH2 0x100 DUP1 DUP4 SLOAD DIV MUL DUP4 MSTORE SWAP2 PUSH1 0x20 ADD SWAP2 PUSH2 0x56C JUMP JUMPDEST DUP3 ADD SWAP2 SWAP1 PUSH1 0x0 MSTORE PUSH1 0x20 PUSH1 0x0 KECCAK256 SWAP1 JUMPDEST DUP2 SLOAD DUP2 MSTORE SWAP1 PUSH1 0x1 ADD SWAP1 PUSH1 0x20 ADD DUP1 DUP4 GT PUSH2 0x54F JUMPI DUP3 SWAP1 SUB PUSH1 0x1F AND DUP3 ADD SWAP2 JUMPDEST POP POP POP POP POP DUP2 JUMP JUMPDEST PUSH1 0x0 PUSH1 0x6 PUSH1 0x0 DUP4 DUP2 MSTORE PUSH1 0x20 ADD SWAP1 DUP2 MSTORE PUSH1 0x20 ADD PUSH1 0x0 KECCAK256 PUSH1 0x0 SWAP1 SLOAD SWAP1 PUSH2 0x100 EXP SWAP1 DIV PUSH20 0xFFFFFFFFFFFFFFFFFFFFFFFFFFFFFFFFFFFFFFFF AND SWAP1 POP SWAP2 SWAP1 POP JUMP JUMPDEST PUSH1 0x0 PUSH20 0xFFFFFFFFFFFFFFFFFFFFFFFFFFFFFFFFFFFFFFFF AND DUP3 PUSH20 0xFFFFFFFFFFFFFFFFFFFFFFFFFFFFFFFFFFFFFFFF AND SUB PUSH2 0x620 JUMPI PUSH1 0x40 MLOAD PUSH32 0x8C379A000000000000000000000000000000000000000000000000000000000 DUP2 MSTORE PUSH1 0x4 ADD PUSH2 0x617 SWAP1 PUSH2 0x15FE JUMP JUMPDEST PUSH1 0x40 MLOAD DUP1 SWAP2 SUB SWAP1 REVERT JUMPDEST PUSH1 0x0 DUP2 SUB PUSH2 0x663 JUMPI PUSH1 0x40 MLOAD PUSH32 0x8C379A000000000000000000000000000000000000000000000000000000000 DUP2 MSTORE PUSH1 0x4 ADD PUSH2 0x65A SWAP1 PUSH2 0x1690 JUMP JUMPDEST PUSH1 0x40 MLOAD DUP1 SWAP2 SUB SWAP1 REVERT JUMPDEST CALLER PUSH20 0xFFFFFFFFFFFFFFFFFFFFFFFFFFFFFFFFFFFFFFFF AND PUSH2 0x683 DUP3 PUSH2 0xB6F JUMP JUMPDEST PUSH20 0xFFFFFFFFFFFFFFFFFFFFFFFFFFFFFFFFFFFFFFFF AND EQ PUSH2 0x6D9 JUMPI PUSH1 0x40 MLOAD PUSH32 0x8C379A000000000000000000000000000000000000000000000000000000000 DUP2 MSTORE PUSH1 0x4 ADD PUSH2 0x6D0 SWAP1 PUSH2 0x1722 JUMP JUMPDEST PUSH1 0x40 MLOAD DUP1 SWAP2 SUB SWAP1 REVERT JUMPDEST DUP2 PUSH1 0x6 PUSH1 0x0 DUP4 DUP2 MSTORE PUSH1 0x20 ADD SWAP1 DUP2 MSTORE PUSH1 0x20 ADD PUSH1 0x0 KECCAK256 PUSH1 0x0 PUSH2 0x100 EXP DUP2 SLOAD DUP2 PUSH20 0xFFFFFFFFFFFFFFFFFFFFFFFFFFFFFFFFFFFFFFFF MUL NOT AND SWAP1 DUP4 PUSH20 0xFFFFFFFFFFFFFFFFFFFFFFFFFFFFFFFFFFFFFFFF AND MUL OR SWAP1 SSTORE POP PUSH32 0x8C5BE1E5EBEC7D5BD14F71427D1E84F3DD0314C0F7B2291E5B200AC8C7C3B925 CALLER DUP4 DUP4 PUSH1 0x40 MLOAD PUSH2 0x75E SWAP4 SWAP3 SWAP2 SWAP1 PUSH2 0x14F5 JUMP JUMPDEST PUSH1 0x40 MLOAD DUP1 SWAP2 SUB SWAP1 LOG1 POP POP JUMP JUMPDEST PUSH1 0x0 PUSH20 0xFFFFFFFFFFFFFFFFFFFFFFFFFFFFFFFFFFFFFFFF AND DUP4 PUSH20 0xFFFFFFFFFFFFFFFFFFFFFFFFFFFFFFFFFFFFFFFF AND SUB PUSH2 0x7D9 JUMPI PUSH1 0x40 MLOAD PUSH32 0x8C379A000000000000000000000000000000000000000000000000000000000 DUP2 MSTORE PUSH1 0x4 ADD PUSH2 0x7D0 SWAP1 PUSH2 0x13CC JUMP JUMPDEST PUSH1 0x40 MLOAD DUP1 SWAP2 SUB SWAP1 REVERT JUMPDEST PUSH1 0x0 PUSH20 0xFFFFFFFFFFFFFFFFFFFFFFFFFFFFFFFFFFFFFFFF AND DUP3 PUSH20 0xFFFFFFFFFFFFFFFFFFFFFFFFFFFFFFFFFFFFFFFF AND SUB PUSH2 0x848 JUMPI PUSH1 0x40 MLOAD PUSH32 0x8C379A000000000000000000000000000000000000000000000000000000000 DUP2 MSTORE PUSH1 0x4 ADD PUSH2 0x83F SWAP1 PUSH2 0x17B4 JUMP JUMPDEST PUSH1 0x40 MLOAD DUP1 SWAP2 SUB SWAP1 REVERT JUMPDEST CALLER PUSH20 0xFFFFFFFFFFFFFFFFFFFFFFFFFFFFFFFFFFFFFFFF AND DUP4 PUSH20 0xFFFFFFFFFFFFFFFFFFFFFFFFFFFFFFFFFFFFFFFF AND EQ DUP1 PUSH2 0x8B5 JUMPI POP CALLER PUSH20 0xFFFFFFFFFFFFFFFFFFFFFFFFFFFFFFFFFFFFFFFF AND PUSH2 0x89D DUP3 PUSH2 0x574 JUMP JUMPDEST PUSH20 0xFFFFFFFFFFFFFFFFFFFFFFFFFFFFFFFFFFFFFFFF AND EQ JUMPDEST DUP1 PUSH2 0x946 JUMPI POP PUSH1 0x8 PUSH1 0x0 DUP5 PUSH20 0xFFFFFFFFFFFFFFFFFFFFFFFFFFFFFFFFFFFFFFFF AND PUSH20 0xFFFFFFFFFFFFFFFFFFFFFFFFFFFFFFFFFFFFFFFF AND DUP2 MSTORE PUSH1 0x20 ADD SWAP1 DUP2 MSTORE PUSH1 0x20 ADD PUSH1 0x0 KECCAK256 PUSH1 0x0 CALLER PUSH20 0xFFFFFFFFFFFFFFFFFFFFFFFFFFFFFFFFFFFFFFFF AND PUSH20 0xFFFFFFFFFFFFFFFFFFFFFFFFFFFFFFFFFFFFFFFF AND DUP2 MSTORE PUSH1 0x20 ADD SWAP1 DUP2 MSTORE PUSH1 0x20 ADD PUSH1 0x0 KECCAK256 PUSH1 0x0 SWAP1 SLOAD SWAP1 PUSH2 0x100 EXP SWAP1 DIV PUSH1 0xFF AND JUMPDEST PUSH2 0x985 JUMPI PUSH1 0x40 MLOAD PUSH32 0x8C379A000000000000000000000000000000000000000000000000000000000 DUP2 MSTORE PUSH1 0x4 ADD PUSH2 0x97C SWAP1 PUSH2 0x1820 JUMP JUMPDEST PUSH1 0x40 MLOAD DUP1 SWAP2 SUB SWAP1 REVERT JUMPDEST PUSH2 0x990 DUP4 DUP4 DUP4 PUSH2 0xE7F JUMP JUMPDEST PUSH32 0xDDF252AD1BE2C89B69C2B068FC378DAA952BA7F163C4A11628F55A4DF523B3EF DUP4 DUP4 DUP4 PUSH1 0x40 MLOAD PUSH2 0x9C3 SWAP4 SWAP3 SWAP2 SWAP1 PUSH2 0x14F5 JUMP JUMPDEST PUSH1 0x40 MLOAD DUP1 SWAP2 SUB SWAP1 LOG1 POP POP POP JUMP JUMPDEST PUSH1 0x7 PUSH1 0x0 DUP3 DUP2 MSTORE PUSH1 0x20 ADD SWAP1 DUP2 MSTORE PUSH1 0x20 ADD PUSH1 0x0 KECCAK256 PUSH1 0x0 SWAP1 SLOAD SWAP1 PUSH2 0x100 EXP SWAP1 DIV PUSH1 0xFF AND PUSH2 0xA30 JUMPI PUSH1 0x40 MLOAD PUSH32 0x8C379A000000000000000000000000000000000000000000000000000000000 DUP2 MSTORE PUSH1 0x4 ADD PUSH2 0xA27 SWAP1 PUSH2 0x188C JUMP JUMPDEST PUSH1 0x40 MLOAD DUP1 SWAP2 SUB SWAP1 REVERT JUMPDEST CALLER PUSH20 0xFFFFFFFFFFFFFFFFFFFFFFFFFFFFFFFFFFFFFFFF AND PUSH1 0x5 PUSH1 0x0 DUP4 DUP2 MSTORE PUSH1 0x20 ADD SWAP1 DUP2 MSTORE PUSH1 0x20 ADD PUSH1 0x0 KECCAK256 PUSH1 0x0 SWAP1 SLOAD SWAP1 PUSH2 0x100 EXP SWAP1 DIV PUSH20 0xFFFFFFFFFFFFFFFFFFFFFFFFFFFFFFFFFFFFFFFF AND PUSH20 0xFFFFFFFFFFFFFFFFFFFFFFFFFFFFFFFFFFFFFFFF AND EQ PUSH2 0xAD1 JUMPI PUSH1 0x40 MLOAD PUSH32 0x8C379A000000000000000000000000000000000000000000000000000000000 DUP2 MSTORE PUSH1 0x4 ADD PUSH2 0xAC8 SWAP1 PUSH2 0x191E JUMP JUMPDEST PUSH1 0x40 MLOAD DUP1 SWAP2 SUB SWAP1 REVERT JUMPDEST PUSH1 0x0 PUSH1 0x5 PUSH1 0x0 DUP4 DUP2 MSTORE PUSH1 0x20 ADD SWAP1 DUP2 MSTORE PUSH1 0x20 ADD PUSH1 0x0 KECCAK256 PUSH1 0x0 PUSH2 0x100 EXP DUP2 SLOAD DUP2 PUSH20 0xFFFFFFFFFFFFFFFFFFFFFFFFFFFFFFFFFFFFFFFF MUL NOT AND SWAP1 DUP4 PUSH20 0xFFFFFFFFFFFFFFFFFFFFFFFFFFFFFFFFFFFFFFFF AND MUL OR SWAP1 SSTORE POP PUSH2 0xB30 CALLER PUSH1 0x0 DUP4 PUSH2 0xE7F JUMP JUMPDEST PUSH32 0xDDF252AD1BE2C89B69C2B068FC378DAA952BA7F163C4A11628F55A4DF523B3EF CALLER PUSH1 0x0 DUP4 PUSH1 0x40 MLOAD PUSH2 0xB64 SWAP4 SWAP3 SWAP2 SWAP1 PUSH2 0x14F5 JUMP JUMPDEST PUSH1 0x40 MLOAD DUP1 SWAP2 SUB SWAP1 LOG1 POP JUMP JUMPDEST PUSH1 0x0 PUSH1 0x5 PUSH1 0x0 DUP4 DUP2 MSTORE PUSH1 0x20 ADD SWAP1 DUP2 MSTORE PUSH1 0x20 ADD PUSH1 0x0 KECCAK256 PUSH1 0x0 SWAP1 SLOAD SWAP1 PUSH2 0x100 EXP SWAP1 DIV PUSH20 0xFFFFFFFFFFFFFFFFFFFFFFFFFFFFFFFFFFFFFFFF AND SWAP1 POP SWAP2 SWAP1 POP JUMP JUMPDEST PUSH1 0x0 PUSH1 0x4 PUSH1 0x0 DUP4 PUSH20 0xFFFFFFFFFFFFFFFFFFFFFFFFFFFFFFFFFFFFFFFF AND PUSH20 0xFFFFFFFFFFFFFFFFFFFFFFFFFFFFFFFFFFFFFFFF AND DUP2 MSTORE PUSH1 0x20 ADD SWAP1 DUP2 MSTORE PUSH1 0x20 ADD PUSH1 0x0 KECCAK256 SLOAD SWAP1 POP SWAP2 SWAP1 POP JUMP JUMPDEST PUSH1 0x1 DUP1 SLOAD PUSH2 0xC02 SWAP1 PUSH2 0x155B JUMP JUMPDEST DUP1 PUSH1 0x1F ADD PUSH1 0x20 DUP1 SWAP2 DIV MUL PUSH1 0x20 ADD PUSH1 0x40 MLOAD SWAP1 DUP2 ADD PUSH1 0x40 MSTORE DUP1 SWAP3 SWAP2 SWAP1 DUP2 DUP2 MSTORE PUSH1 0x20 ADD DUP3 DUP1 SLOAD PUSH2 0xC2E SWAP1 PUSH2 0x155B JUMP JUMPDEST DUP1 ISZERO PUSH2 0xC7B JUMPI DUP1 PUSH1 0x1F LT PUSH2 0xC50 JUMPI PUSH2 0x100 DUP1 DUP4 SLOAD DIV MUL DUP4 MSTORE SWAP2 PUSH1 0x20 ADD SWAP2 PUSH2 0xC7B JUMP JUMPDEST DUP3 ADD SWAP2 SWAP1 PUSH1 0x0 MSTORE PUSH1 0x20 PUSH1 0x0 KECCAK256 SWAP1 JUMPDEST DUP2 SLOAD DUP2 MSTORE SWAP1 PUSH1 0x1 ADD SWAP1 PUSH1 0x20 ADD DUP1 DUP4 GT PUSH2 0xC5E JUMPI DUP3 SWAP1 SUB PUSH1 0x1F AND DUP3 ADD SWAP2 JUMPDEST POP POP POP POP POP DUP2 JUMP JUMPDEST PUSH1 0x0 PUSH20 0xFFFFFFFFFFFFFFFFFFFFFFFFFFFFFFFFFFFFFFFF AND DUP3 PUSH20 0xFFFFFFFFFFFFFFFFFFFFFFFFFFFFFFFFFFFFFFFF AND SUB PUSH2 0xCF2 JUMPI PUSH1 0x40 MLOAD PUSH32 0x8C379A000000000000000000000000000000000000000000000000000000000 DUP2 MSTORE PUSH1 0x4 ADD PUSH2 0xCE9 SWAP1 PUSH2 0x15FE JUMP JUMPDEST PUSH1 0x40 MLOAD DUP1 SWAP2 SUB SWAP1 REVERT JUMPDEST DUP1 PUSH1 0x8 PUSH1 0x0 CALLER PUSH20 0xFFFFFFFFFFFFFFFFFFFFFFFFFFFFFFFFFFFFFFFF AND PUSH20 0xFFFFFFFFFFFFFFFFFFFFFFFFFFFFFFFFFFFFFFFF AND DUP2 MSTORE PUSH1 0x20 ADD SWAP1 DUP2 MSTORE PUSH1 0x20 ADD PUSH1 0x0 KECCAK256 PUSH1 0x0 DUP5 PUSH20 0xFFFFFFFFFFFFFFFFFFFFFFFFFFFFFFFFFFFFFFFF AND PUSH20 0xFFFFFFFFFFFFFFFFFFFFFFFFFFFFFFFFFFFFFFFF AND DUP2 MSTORE PUSH1 0x20 ADD SWAP1 DUP2 MSTORE PUSH1 0x20 ADD PUSH1 0x0 KECCAK256 PUSH1 0x0 PUSH2 0x100 EXP DUP2 SLOAD DUP2 PUSH1 0xFF MUL NOT AND SWAP1 DUP4 ISZERO ISZERO MUL OR SWAP1 SSTORE POP PUSH32 0x17307EAB39AB6107E8899845AD3D59BD9653F200F220920489CA2B5937696C31 CALLER DUP4 DUP4 PUSH1 0x40 MLOAD PUSH2 0xDB9 SWAP4 SWAP3 SWAP2 SWAP1 PUSH2 0x193E JUMP JUMPDEST PUSH1 0x40 MLOAD DUP1 SWAP2 SUB SWAP1 LOG1 POP POP JUMP JUMPDEST PUSH1 0x0 PUSH1 0x8 PUSH1 0x0 DUP5 PUSH20 0xFFFFFFFFFFFFFFFFFFFFFFFFFFFFFFFFFFFFFFFF AND PUSH20 0xFFFFFFFFFFFFFFFFFFFFFFFFFFFFFFFFFFFFFFFF AND DUP2 MSTORE PUSH1 0x20 ADD SWAP1 DUP2 MSTORE PUSH1 0x20 ADD PUSH1 0x0 KECCAK256 PUSH1 0x0 DUP4 PUSH20 0xFFFFFFFFFFFFFFFFFFFFFFFFFFFFFFFFFFFFFFFF AND PUSH20 0xFFFFFFFFFFFFFFFFFFFFFFFFFFFFFFFFFFFFFFFF AND DUP2 MSTORE PUSH1 0x20 ADD SWAP1 DUP2 MSTORE PUSH1 0x20 ADD PUSH1 0x0 KECCAK256 PUSH1 0x0 SWAP1 SLOAD SWAP1 PUSH2 0x100 EXP SWAP1 DIV PUSH1 0xFF AND SWAP1 POP SWAP3 SWAP2 POP POP JUMP JUMPDEST PUSH1 0x2 PUSH1 0x0 SWAP1 SLOAD SWAP1 PUSH2 0x100 EXP SWAP1 DIV PUSH20 0xFFFFFFFFFFFFFFFFFFFFFFFFFFFFFFFFFFFFFFFF AND DUP2 JUMP JUMPDEST PUSH1 0x4 PUSH1 0x0 DUP5 PUSH20 0xFFFFFFFFFFFFFFFFFFFFFFFFFFFFFFFFFFFFFFFF AND PUSH20 0xFFFFFFFFFFFFFFFFFFFFFFFFFFFFFFFFFFFFFFFF AND DUP2 MSTORE PUSH1 0x20 ADD SWAP1 DUP2 MSTORE PUSH1 0x20 ADD PUSH1 0x0 KECCAK256 PUSH1 0x0 DUP2 SLOAD DUP1 SWAP3 SWAP2 SWAP1 PUSH2 0xECF SWAP1 PUSH2 0x1975 JUMP JUMPDEST SWAP2 SWAP1 POP SSTORE POP DUP2 PUSH1 0x5 PUSH1 0x0 DUP4 DUP2 MSTORE PUSH1 0x20 ADD SWAP1 DUP2 MSTORE PUSH1 0x20 ADD PUSH1 0x0 KECCAK256 PUSH1 0x0 PUSH2 0x100 EXP DUP2 SLOAD DUP2 PUSH20 0xFFFFFFFFFFFFFFFFFFFFFFFFFFFFFFFFFFFFFFFF MUL NOT AND SWAP1 DUP4 PUSH20 0xFFFFFFFFFFFFFFFFFFFFFFFFFFFFFFFFFFFFFFFF AND MUL OR SWAP1 SSTORE POP PUSH1 0x4 PUSH1 0x0 DUP4 PUSH20 0xFFFFFFFFFFFFFFFFFFFFFFFFFFFFFFFFFFFFFFFF AND PUSH20 0xFFFFFFFFFFFFFFFFFFFFFFFFFFFFFFFFFFFFFFFF AND DUP2 MSTORE PUSH1 0x20 ADD SWAP1 DUP2 MSTORE PUSH1 0x20 ADD PUSH1 0x0 KECCAK256 PUSH1 0x0 DUP2 SLOAD DUP1 SWAP3 SWAP2 SWAP1 PUSH2 0xF76 SWAP1 PUSH2 0x14AD JUMP JUMPDEST SWAP2 SWAP1 POP SSTORE POP POP POP POP JUMP JUMPDEST PUSH1 0x0 DUP1 REVERT JUMPDEST PUSH1 0x0 PUSH20 0xFFFFFFFFFFFFFFFFFFFFFFFFFFFFFFFFFFFFFFFF DUP3 AND SWAP1 POP SWAP2 SWAP1 POP JUMP JUMPDEST PUSH1 0x0 PUSH2 0xFB0 DUP3 PUSH2 0xF85 JUMP JUMPDEST SWAP1 POP SWAP2 SWAP1 POP JUMP JUMPDEST PUSH2 0xFC0 DUP2 PUSH2 0xFA5 JUMP JUMPDEST DUP2 EQ PUSH2 0xFCB JUMPI PUSH1 0x0 DUP1 REVERT JUMPDEST POP JUMP JUMPDEST PUSH1 0x0 DUP2 CALLDATALOAD SWAP1 POP PUSH2 0xFDD DUP2 PUSH2 0xFB7 JUMP JUMPDEST SWAP3 SWAP2 POP POP JUMP JUMPDEST PUSH1 0x0 PUSH1 0x20 DUP3 DUP5 SUB SLT ISZERO PUSH2 0xFF9 JUMPI PUSH2 0xFF8 PUSH2 0xF80 JUMP JUMPDEST JUMPDEST PUSH1 0x0 PUSH2 0x1007 DUP5 DUP3 DUP6 ADD PUSH2 0xFCE JUMP JUMPDEST SWAP2 POP POP SWAP3 SWAP2 POP POP JUMP JUMPDEST PUSH1 0x0 DUP2 MLOAD SWAP1 POP SWAP2 SWAP1 POP JUMP JUMPDEST PUSH1 0x0 DUP3 DUP3 MSTORE PUSH1 0x20 DUP3 ADD SWAP1 POP SWAP3 SWAP2 POP POP JUMP JUMPDEST PUSH1 0x0 JUMPDEST DUP4 DUP2 LT ISZERO PUSH2 0x104A JUMPI DUP1 DUP3 ADD MLOAD DUP2 DUP5 ADD MSTORE PUSH1 0x20 DUP2 ADD SWAP1 POP PUSH2 0x102F JUMP JUMPDEST PUSH1 0x0 DUP5 DUP5 ADD MSTORE POP POP POP POP JUMP JUMPDEST PUSH1 0x0 PUSH1 0x1F NOT PUSH1 0x1F DUP4 ADD AND SWAP1 POP SWAP2 SWAP1 POP JUMP JUMPDEST PUSH1 0x0 PUSH2 0x1072 DUP3 PUSH2 0x1010 JUMP JUMPDEST PUSH2 0x107C DUP2 DUP6 PUSH2 0x101B JUMP JUMPDEST SWAP4 POP PUSH2 0x108C DUP2 DUP6 PUSH1 0x20 DUP7 ADD PUSH2 0x102C JUMP JUMPDEST PUSH2 0x1095 DUP2 PUSH2 0x1056 JUMP JUMPDEST DUP5 ADD SWAP2 POP POP SWAP3 SWAP2 POP POP JUMP JUMPDEST PUSH1 0x0 PUSH1 0x20 DUP3 ADD SWAP1 POP DUP2 DUP2 SUB PUSH1 0x0 DUP4 ADD MSTORE PUSH2 0x10BA DUP2 DUP5 PUSH2 0x1067 JUMP JUMPDEST SWAP1 POP SWAP3 SWAP2 POP POP JUMP JUMPDEST PUSH1 0x0 DUP2 SWAP1 POP SWAP2 SWAP1 POP JUMP JUMPDEST PUSH2 0x10D5 DUP2 PUSH2 0x10C2 JUMP JUMPDEST DUP2 EQ PUSH2 0x10E0 JUMPI PUSH1 0x0 DUP1 REVERT JUMPDEST POP JUMP JUMPDEST PUSH1 0x0 DUP2 CALLDATALOAD SWAP1 POP PUSH2 0x10F2 DUP2 PUSH2 0x10CC JUMP JUMPDEST SWAP3 SWAP2 POP POP JUMP JUMPDEST PUSH1 0x0 PUSH1 0x20 DUP3 DUP5 SUB SLT ISZERO PUSH2 0x110E JUMPI PUSH2 0x110D PUSH2 0xF80 JUMP JUMPDEST JUMPDEST PUSH1 0x0 PUSH2 0x111C DUP5 DUP3 DUP6 ADD PUSH2 0x10E3 JUMP JUMPDEST SWAP2 POP POP SWAP3 SWAP2 POP POP JUMP JUMPDEST PUSH2 0x112E DUP2 PUSH2 0xFA5 JUMP JUMPDEST DUP3 MSTORE POP POP JUMP JUMPDEST PUSH1 0x0 PUSH1 0x20 DUP3 ADD SWAP1 POP PUSH2 0x1149 PUSH1 0x0 DUP4 ADD DUP5 PUSH2 0x1125 JUMP JUMPDEST SWAP3 SWAP2 POP POP JUMP JUMPDEST PUSH1 0x0 DUP1 PUSH1 0x40 DUP4 DUP6 SUB SLT ISZERO PUSH2 0x1166 JUMPI PUSH2 0x1165 PUSH2 0xF80 JUMP JUMPDEST JUMPDEST PUSH1 0x0 PUSH2 0x1174 DUP6 DUP3 DUP7 ADD PUSH2 0xFCE JUMP JUMPDEST SWAP3 POP POP PUSH1 0x20 PUSH2 0x1185 DUP6 DUP3 DUP7 ADD PUSH2 0x10E3 JUMP JUMPDEST SWAP2 POP POP SWAP3 POP SWAP3 SWAP1 POP JUMP JUMPDEST PUSH1 0x0 DUP1 PUSH1 0x0 PUSH1 0x60 DUP5 DUP7 SUB SLT ISZERO PUSH2 0x11A8 JUMPI PUSH2 0x11A7 PUSH2 0xF80 JUMP JUMPDEST JUMPDEST PUSH1 0x0 PUSH2 0x11B6 DUP7 DUP3 DUP8 ADD PUSH2 0xFCE JUMP JUMPDEST SWAP4 POP POP PUSH1 0x20 PUSH2 0x11C7 DUP7 DUP3 DUP8 ADD PUSH2 0xFCE JUMP JUMPDEST SWAP3 POP POP PUSH1 0x40 PUSH2 0x11D8 DUP7 DUP3 DUP8 ADD PUSH2 0x10E3 JUMP JUMPDEST SWAP2 POP POP SWAP3 POP SWAP3 POP SWAP3 JUMP JUMPDEST PUSH2 0x11EB DUP2 PUSH2 0x10C2 JUMP JUMPDEST DUP3 MSTORE POP POP JUMP JUMPDEST PUSH1 0x0 PUSH1 0x20 DUP3 ADD SWAP1 POP PUSH2 0x1206 PUSH1 0x0 DUP4 ADD DUP5 PUSH2 0x11E2 JUMP JUMPDEST SWAP3 SWAP2 POP POP JUMP JUMPDEST PUSH1 0x0 DUP2 ISZERO ISZERO SWAP1 POP SWAP2 SWAP1 POP JUMP JUMPDEST PUSH2 0x1221 DUP2 PUSH2 0x120C JUMP JUMPDEST DUP2 EQ PUSH2 0x122C JUMPI PUSH1 0x0 DUP1 REVERT JUMPDEST POP JUMP JUMPDEST PUSH1 0x0 DUP2 CALLDATALOAD SWAP1 POP PUSH2 0x123E DUP2 PUSH2 0x1218 JUMP JUMPDEST SWAP3 SWAP2 POP POP JUMP JUMPDEST PUSH1 0x0 DUP1 PUSH1 0x40 DUP4 DUP6 SUB SLT ISZERO PUSH2 0x125B JUMPI PUSH2 0x125A PUSH2 0xF80 JUMP JUMPDEST JUMPDEST PUSH1 0x0 PUSH2 0x1269 DUP6 DUP3 DUP7 ADD PUSH2 0xFCE JUMP JUMPDEST SWAP3 POP POP PUSH1 0x20 PUSH2 0x127A DUP6 DUP3 DUP7 ADD PUSH2 0x122F JUMP JUMPDEST SWAP2 POP POP SWAP3 POP SWAP3 SWAP1 POP JUMP JUMPDEST PUSH1 0x0 DUP1 PUSH1 0x40 DUP4 DUP6 SUB SLT ISZERO PUSH2 0x129B JUMPI PUSH2 0x129A PUSH2 0xF80 JUMP JUMPDEST JUMPDEST PUSH1 0x0 PUSH2 0x12A9 DUP6 DUP3 DUP7 ADD PUSH2 0xFCE JUMP JUMPDEST SWAP3 POP POP PUSH1 0x20 PUSH2 0x12BA DUP6 DUP3 DUP7 ADD PUSH2 0xFCE JUMP JUMPDEST SWAP2 POP POP SWAP3 POP SWAP3 SWAP1 POP JUMP JUMPDEST PUSH2 0x12CD DUP2 PUSH2 0x120C JUMP JUMPDEST DUP3 MSTORE POP POP JUMP JUMPDEST PUSH1 0x0 PUSH1 0x20 DUP3 ADD SWAP1 POP PUSH2 0x12E8 PUSH1 0x0 DUP4 ADD DUP5 PUSH2 0x12C4 JUMP JUMPDEST SWAP3 SWAP2 POP POP JUMP JUMPDEST PUSH32 0x457263373231546F6B656E3A204F6E6C792041646D696E20416C6C6F77656400 PUSH1 0x0 DUP3 ADD MSTORE POP JUMP JUMPDEST PUSH1 0x0 PUSH2 0x1324 PUSH1 0x1F DUP4 PUSH2 0x101B JUMP JUMPDEST SWAP2 POP PUSH2 0x132F DUP3 PUSH2 0x12EE JUMP JUMPDEST PUSH1 0x20 DUP3 ADD SWAP1 POP SWAP2 SWAP1 POP JUMP JUMPDEST PUSH1 0x0 PUSH1 0x20 DUP3 ADD SWAP1 POP DUP2 DUP2 SUB PUSH1 0x0 DUP4 ADD MSTORE PUSH2 0x1353 DUP2 PUSH2 0x1317 JUMP JUMPDEST SWAP1 POP SWAP2 SWAP1 POP JUMP JUMPDEST PUSH32 0x457263373231546F6B656E3A207A65726F2061646472657373206E6F7420616C PUSH1 0x0 DUP3 ADD MSTORE PUSH32 0x6C6F77656420696E2066726F6D00000000000000000000000000000000000000 PUSH1 0x20 DUP3 ADD MSTORE POP JUMP JUMPDEST PUSH1 0x0 PUSH2 0x13B6 PUSH1 0x2D DUP4 PUSH2 0x101B JUMP JUMPDEST SWAP2 POP PUSH2 0x13C1 DUP3 PUSH2 0x135A JUMP JUMPDEST PUSH1 0x40 DUP3 ADD SWAP1 POP SWAP2 SWAP1 POP JUMP JUMPDEST PUSH1 0x0 PUSH1 0x20 DUP3 ADD SWAP1 POP DUP2 DUP2 SUB PUSH1 0x0 DUP4 ADD MSTORE PUSH2 0x13E5 DUP2 PUSH2 0x13A9 JUMP JUMPDEST SWAP1 POP SWAP2 SWAP1 POP JUMP JUMPDEST PUSH32 0x457263373231546F6B656E3A74686973206973206120636F6E74726163742061 PUSH1 0x0 DUP3 ADD MSTORE PUSH32 0x6464726573732000000000000000000000000000000000000000000000000000 PUSH1 0x20 DUP3 ADD MSTORE POP JUMP JUMPDEST PUSH1 0x0 PUSH2 0x1448 PUSH1 0x27 DUP4 PUSH2 0x101B JUMP JUMPDEST SWAP2 POP PUSH2 0x1453 DUP3 PUSH2 0x13EC JUMP JUMPDEST PUSH1 0x40 DUP3 ADD SWAP1 POP SWAP2 SWAP1 POP JUMP JUMPDEST PUSH1 0x0 PUSH1 0x20 DUP3 ADD SWAP1 POP DUP2 DUP2 SUB PUSH1 0x0 DUP4 ADD MSTORE PUSH2 0x1477 DUP2 PUSH2 0x143B JUMP JUMPDEST SWAP1 POP SWAP2 SWAP1 POP JUMP JUMPDEST PUSH32 0x4E487B7100000000000000000000000000000000000000000000000000000000 PUSH1 0x0 MSTORE PUSH1 0x11 PUSH1 0x4 MSTORE PUSH1 0x24 PUSH1 0x0 REVERT JUMPDEST PUSH1 0x0 PUSH2 0x14B8 DUP3 PUSH2 0x10C2 JUMP JUMPDEST SWAP2 POP PUSH32 0xFFFFFFFFFFFFFFFFFFFFFFFFFFFFFFFFFFFFFFFFFFFFFFFFFFFFFFFFFFFFFFFF DUP3 SUB PUSH2 0x14EA JUMPI PUSH2 0x14E9 PUSH2 0x147E JUMP JUMPDEST JUMPDEST PUSH1 0x1 DUP3 ADD SWAP1 POP SWAP2 SWAP1 POP JUMP JUMPDEST PUSH1 0x0 PUSH1 0x60 DUP3 ADD SWAP1 POP PUSH2 0x150A PUSH1 0x0 DUP4 ADD DUP7 PUSH2 0x1125 JUMP JUMPDEST PUSH2 0x1517 PUSH1 0x20 DUP4 ADD DUP6 PUSH2 0x1125 JUMP JUMPDEST PUSH2 0x1524 PUSH1 0x40 DUP4 ADD DUP5 PUSH2 0x11E2 JUMP JUMPDEST SWAP5 SWAP4 POP POP POP POP JUMP JUMPDEST PUSH32 0x4E487B7100000000000000000000000000000000000000000000000000000000 PUSH1 0x0 MSTORE PUSH1 0x22 PUSH1 0x4 MSTORE PUSH1 0x24 PUSH1 0x0 REVERT JUMPDEST PUSH1 0x0 PUSH1 0x2 DUP3 DIV SWAP1 POP PUSH1 0x1 DUP3 AND DUP1 PUSH2 0x1573 JUMPI PUSH1 0x7F DUP3 AND SWAP2 POP JUMPDEST PUSH1 0x20 DUP3 LT DUP2 SUB PUSH2 0x1586 JUMPI PUSH2 0x1585 PUSH2 0x152C JUMP JUMPDEST JUMPDEST POP SWAP2 SWAP1 POP JUMP JUMPDEST PUSH32 0x457263373231546F6B656E3A7A65726F2061646472657373206E6F7420616C6C PUSH1 0x0 DUP3 ADD MSTORE PUSH32 0x6F77656400000000000000000000000000000000000000000000000000000000 PUSH1 0x20 DUP3 ADD MSTORE POP JUMP JUMPDEST PUSH1 0x0 PUSH2 0x15E8 PUSH1 0x24 DUP4 PUSH2 0x101B JUMP JUMPDEST SWAP2 POP PUSH2 0x15F3 DUP3 PUSH2 0x158C JUMP JUMPDEST PUSH1 0x40 DUP3 ADD SWAP1 POP SWAP2 SWAP1 POP JUMP JUMPDEST PUSH1 0x0 PUSH1 0x20 DUP3 ADD SWAP1 POP DUP2 DUP2 SUB PUSH1 0x0 DUP4 ADD MSTORE PUSH2 0x1617 DUP2 PUSH2 0x15DB JUMP JUMPDEST SWAP1 POP SWAP2 SWAP1 POP JUMP JUMPDEST PUSH32 0x457263373231546F6B656E3A20656E74657220612076616C696420746F6B656E PUSH1 0x0 DUP3 ADD MSTORE PUSH32 0x4964000000000000000000000000000000000000000000000000000000000000 PUSH1 0x20 DUP3 ADD MSTORE POP JUMP JUMPDEST PUSH1 0x0 PUSH2 0x167A PUSH1 0x22 DUP4 PUSH2 0x101B JUMP JUMPDEST SWAP2 POP PUSH2 0x1685 DUP3 PUSH2 0x161E JUMP JUMPDEST PUSH1 0x40 DUP3 ADD SWAP1 POP SWAP2 SWAP1 POP JUMP JUMPDEST PUSH1 0x0 PUSH1 0x20 DUP3 ADD SWAP1 POP DUP2 DUP2 SUB PUSH1 0x0 DUP4 ADD MSTORE PUSH2 0x16A9 DUP2 PUSH2 0x166D JUMP JUMPDEST SWAP1 POP SWAP2 SWAP1 POP JUMP JUMPDEST PUSH32 0x457263373231546F6B656E3A20796F7520617265206E6F7420746F6B656E206F PUSH1 0x0 DUP3 ADD MSTORE PUSH32 0x776E657200000000000000000000000000000000000000000000000000000000 PUSH1 0x20 DUP3 ADD MSTORE POP JUMP JUMPDEST PUSH1 0x0 PUSH2 0x170C PUSH1 0x24 DUP4 PUSH2 0x101B JUMP JUMPDEST SWAP2 POP PUSH2 0x1717 DUP3 PUSH2 0x16B0 JUMP JUMPDEST PUSH1 0x40 DUP3 ADD SWAP1 POP SWAP2 SWAP1 POP JUMP JUMPDEST PUSH1 0x0 PUSH1 0x20 DUP3 ADD SWAP1 POP DUP2 DUP2 SUB PUSH1 0x0 DUP4 ADD MSTORE PUSH2 0x173B DUP2 PUSH2 0x16FF JUMP JUMPDEST SWAP1 POP SWAP2 SWAP1 POP JUMP JUMPDEST PUSH32 0x457263373231546F6B656E3A207A65726F2061646472657373206E6F7420616C PUSH1 0x0 DUP3 ADD MSTORE PUSH32 0x6C6F77656420696E20746F000000000000000000000000000000000000000000 PUSH1 0x20 DUP3 ADD MSTORE POP JUMP JUMPDEST PUSH1 0x0 PUSH2 0x179E PUSH1 0x2B DUP4 PUSH2 0x101B JUMP JUMPDEST SWAP2 POP PUSH2 0x17A9 DUP3 PUSH2 0x1742 JUMP JUMPDEST PUSH1 0x40 DUP3 ADD SWAP1 POP SWAP2 SWAP1 POP JUMP JUMPDEST PUSH1 0x0 PUSH1 0x20 DUP3 ADD SWAP1 POP DUP2 DUP2 SUB PUSH1 0x0 DUP4 ADD MSTORE PUSH2 0x17CD DUP2 PUSH2 0x1791 JUMP JUMPDEST SWAP1 POP SWAP2 SWAP1 POP JUMP JUMPDEST PUSH32 0x457263373231546F6B656E3A20796F7520617265206E6F7420616C6C6F776564 PUSH1 0x0 DUP3 ADD MSTORE POP JUMP JUMPDEST PUSH1 0x0 PUSH2 0x180A PUSH1 0x20 DUP4 PUSH2 0x101B JUMP JUMPDEST SWAP2 POP PUSH2 0x1815 DUP3 PUSH2 0x17D4 JUMP JUMPDEST PUSH1 0x20 DUP3 ADD SWAP1 POP SWAP2 SWAP1 POP JUMP JUMPDEST PUSH1 0x0 PUSH1 0x20 DUP3 ADD SWAP1 POP DUP2 DUP2 SUB PUSH1 0x0 DUP4 ADD MSTORE PUSH2 0x1839 DUP2 PUSH2 0x17FD JUMP JUMPDEST SWAP1 POP SWAP2 SWAP1 POP JUMP JUMPDEST PUSH32 0x457263373231546F6B656E3A746F6B656E206E6F7420617661696C61626C6500 PUSH1 0x0 DUP3 ADD MSTORE POP JUMP JUMPDEST PUSH1 0x0 PUSH2 0x1876 PUSH1 0x1F DUP4 PUSH2 0x101B JUMP JUMPDEST SWAP2 POP PUSH2 0x1881 DUP3 PUSH2 0x1840 JUMP JUMPDEST PUSH1 0x20 DUP3 ADD SWAP1 POP SWAP2 SWAP1 POP JUMP JUMPDEST PUSH1 0x0 PUSH1 0x20 DUP3 ADD SWAP1 POP DUP2 DUP2 SUB PUSH1 0x0 DUP4 ADD MSTORE PUSH2 0x18A5 DUP2 PUSH2 0x1869 JUMP JUMPDEST SWAP1 POP SWAP2 SWAP1 POP JUMP JUMPDEST PUSH32 0x457263373231546F6B656E3A20796F7520617265206E6F7420746F6B656E4F77 PUSH1 0x0 DUP3 ADD MSTORE PUSH32 0x6E65720000000000000000000000000000000000000000000000000000000000 PUSH1 0x20 DUP3 ADD MSTORE POP JUMP JUMPDEST PUSH1 0x0 PUSH2 0x1908 PUSH1 0x23 DUP4 PUSH2 0x101B JUMP JUMPDEST SWAP2 POP PUSH2 0x1913 DUP3 PUSH2 0x18AC JUMP JUMPDEST PUSH1 0x40 DUP3 ADD SWAP1 POP SWAP2 SWAP1 POP JUMP JUMPDEST PUSH1 0x0 PUSH1 0x20 DUP3 ADD SWAP1 POP DUP2 DUP2 SUB PUSH1 0x0 DUP4 ADD MSTORE PUSH2 0x1937 DUP2 PUSH2 0x18FB JUMP JUMPDEST SWAP1 POP SWAP2 SWAP1 POP JUMP JUMPDEST PUSH1 0x0 PUSH1 0x60 DUP3 ADD SWAP1 POP PUSH2 0x1953 PUSH1 0x0 DUP4 ADD DUP7 PUSH2 0x1125 JUMP JUMPDEST PUSH2 0x1960 PUSH1 0x20 DUP4 ADD DUP6 PUSH2 0x1125 JUMP JUMPDEST PUSH2 0x196D PUSH1 0x40 DUP4 ADD DUP5 PUSH2 0x12C4 JUMP JUMPDEST SWAP5 SWAP4 POP POP POP POP JUMP JUMPDEST PUSH1 0x0 PUSH2 0x1980 DUP3 PUSH2 0x10C2 JUMP JUMPDEST SWAP2 POP PUSH1 0x0 DUP3 SUB PUSH2 0x1993 JUMPI PUSH2 0x1992 PUSH2 0x147E JUMP JUMPDEST JUMPDEST PUSH1 0x1 DUP3 SUB SWAP1 POP SWAP2 SWAP1 POP JUMP INVALID LOG2 PUSH5 0x6970667358 0x22 SLT KECCAK256 0xB5 KECCAK256 SWAP2 BASEFEE DELEGATECALL COINBASE 0x4F DUP15 SWAP11 CHAINID DUP13 DUP2 0xB0 GASPRICE 0x4E CHAINID 0x4E EXTCODEHASH 0xD6 0xC4 0x1F 0xA6 0xAE 0xD8 0xCB 0xEE PUSH7 0x394345F9596473 PUSH16 0x6C634300081200330000000000000000 "
				},
				"gasEstimates": {
					"creation": {
						"codeDepositCost": "1322400",
						"executionCost": "infinite",
						"totalCost": "infinite"
					},
					"external": {
						"admin()": "2624",
						"approve(address,uint256)": "infinite",
						"balanceOf(address)": "2863",
						"burn(uint256)": "infinite",
						"getApproved(uint256)": "2910",
						"isApprovedForAll(address,address)": "infinite",
						"mintToken(address)": "infinite",
						"name()": "infinite",
						"ownerOf(uint256)": "2865",
						"setApprovalForAll(address,bool)": "infinite",
						"symbol()": "infinite",
						"transferFrom(address,address,uint256)": "infinite"
					},
					"internal": {
						"_transferFrom(address,address,uint256)": "infinite"
					}
				},
				"methodIdentifiers": {
					"admin()": "f851a440",
					"approve(address,uint256)": "095ea7b3",
					"balanceOf(address)": "70a08231",
					"burn(uint256)": "42966c68",
					"getApproved(uint256)": "081812fc",
					"isApprovedForAll(address,address)": "e985e9c5",
					"mintToken(address)": "01173a74",
					"name()": "06fdde03",
					"ownerOf(uint256)": "6352211e",
					"setApprovalForAll(address,bool)": "a22cb465",
					"symbol()": "95d89b41",
					"transferFrom(address,address,uint256)": "23b872dd"
				}
			},
			"storageLayout": {
				"storage": [
					{
						"astId": 83,
						"contract": "ERC721Auction/Erc721.sol:Erc721",
						"label": "name",
						"offset": 0,
						"slot": "0",
						"type": "t_string_storage"
					},
					{
						"astId": 85,
						"contract": "ERC721Auction/Erc721.sol:Erc721",
						"label": "symbol",
						"offset": 0,
						"slot": "1",
						"type": "t_string_storage"
					},
					{
						"astId": 87,
						"contract": "ERC721Auction/Erc721.sol:Erc721",
						"label": "admin",
						"offset": 0,
						"slot": "2",
						"type": "t_address"
					},
					{
						"astId": 89,
						"contract": "ERC721Auction/Erc721.sol:Erc721",
						"label": "count",
						"offset": 0,
						"slot": "3",
						"type": "t_uint256"
					},
					{
						"astId": 93,
						"contract": "ERC721Auction/Erc721.sol:Erc721",
						"label": "balance",
						"offset": 0,
						"slot": "4",
						"type": "t_mapping(t_address,t_uint256)"
					},
					{
						"astId": 97,
						"contract": "ERC721Auction/Erc721.sol:Erc721",
						"label": "owner",
						"offset": 0,
						"slot": "5",
						"type": "t_mapping(t_uint256,t_address)"
					},
					{
						"astId": 101,
						"contract": "ERC721Auction/Erc721.sol:Erc721",
						"label": "allow",
						"offset": 0,
						"slot": "6",
						"type": "t_mapping(t_uint256,t_address)"
					},
					{
						"astId": 105,
						"contract": "ERC721Auction/Erc721.sol:Erc721",
						"label": "exists",
						"offset": 0,
						"slot": "7",
						"type": "t_mapping(t_uint256,t_bool)"
					},
					{
						"astId": 111,
						"contract": "ERC721Auction/Erc721.sol:Erc721",
						"label": "allowAll",
						"offset": 0,
						"slot": "8",
						"type": "t_mapping(t_address,t_mapping(t_address,t_bool))"
					}
				],
				"types": {
					"t_address": {
						"encoding": "inplace",
						"label": "address",
						"numberOfBytes": "20"
					},
					"t_bool": {
						"encoding": "inplace",
						"label": "bool",
						"numberOfBytes": "1"
					},
					"t_mapping(t_address,t_bool)": {
						"encoding": "mapping",
						"key": "t_address",
						"label": "mapping(address => bool)",
						"numberOfBytes": "32",
						"value": "t_bool"
					},
					"t_mapping(t_address,t_mapping(t_address,t_bool))": {
						"encoding": "mapping",
						"key": "t_address",
						"label": "mapping(address => mapping(address => bool))",
						"numberOfBytes": "32",
						"value": "t_mapping(t_address,t_bool)"
					},
					"t_mapping(t_address,t_uint256)": {
						"encoding": "mapping",
						"key": "t_address",
						"label": "mapping(address => uint256)",
						"numberOfBytes": "32",
						"value": "t_uint256"
					},
					"t_mapping(t_uint256,t_address)": {
						"encoding": "mapping",
						"key": "t_uint256",
						"label": "mapping(uint256 => address)",
						"numberOfBytes": "32",
						"value": "t_address"
					},
					"t_mapping(t_uint256,t_bool)": {
						"encoding": "mapping",
						"key": "t_uint256",
						"label": "mapping(uint256 => bool)",
						"numberOfBytes": "32",
						"value": "t_bool"
					},
					"t_string_storage": {
						"encoding": "bytes",
						"label": "string",
						"numberOfBytes": "32"
					},
					"t_uint256": {
						"encoding": "inplace",
						"label": "uint256",
						"numberOfBytes": "32"
					}
				}
			},
			"userdoc": {
				"kind": "user",
				"methods": {},
				"version": 1
			}
		}
	}
}